{
  "contractName": "AccessControlMock",
  "abi": [
    {
      "inputs": [],
      "stateMutability": "nonpayable",
      "type": "constructor"
    },
    {
      "anonymous": false,
      "inputs": [
        {
          "indexed": true,
          "internalType": "bytes32",
          "name": "role",
          "type": "bytes32"
        },
        {
          "indexed": true,
          "internalType": "bytes32",
          "name": "previousAdminRole",
          "type": "bytes32"
        },
        {
          "indexed": true,
          "internalType": "bytes32",
          "name": "newAdminRole",
          "type": "bytes32"
        }
      ],
      "name": "RoleAdminChanged",
      "type": "event"
    },
    {
      "anonymous": false,
      "inputs": [
        {
          "indexed": true,
          "internalType": "bytes32",
          "name": "role",
          "type": "bytes32"
        },
        {
          "indexed": true,
          "internalType": "address",
          "name": "account",
          "type": "address"
        },
        {
          "indexed": true,
          "internalType": "address",
          "name": "sender",
          "type": "address"
        }
      ],
      "name": "RoleGranted",
      "type": "event"
    },
    {
      "anonymous": false,
      "inputs": [
        {
          "indexed": true,
          "internalType": "bytes32",
          "name": "role",
          "type": "bytes32"
        },
        {
          "indexed": true,
          "internalType": "address",
          "name": "account",
          "type": "address"
        },
        {
          "indexed": true,
          "internalType": "address",
          "name": "sender",
          "type": "address"
        }
      ],
      "name": "RoleRevoked",
      "type": "event"
    },
    {
      "inputs": [],
      "name": "DEFAULT_ADMIN_ROLE",
      "outputs": [
        {
          "internalType": "bytes32",
          "name": "",
          "type": "bytes32"
        }
      ],
      "stateMutability": "view",
      "type": "function"
    },
    {
      "inputs": [
        {
          "internalType": "bytes32",
          "name": "role",
          "type": "bytes32"
        }
      ],
      "name": "getRoleAdmin",
      "outputs": [
        {
          "internalType": "bytes32",
          "name": "",
          "type": "bytes32"
        }
      ],
      "stateMutability": "view",
      "type": "function"
    },
    {
      "inputs": [
        {
          "internalType": "bytes32",
          "name": "role",
          "type": "bytes32"
        },
        {
          "internalType": "address",
          "name": "account",
          "type": "address"
        }
      ],
      "name": "grantRole",
      "outputs": [],
      "stateMutability": "nonpayable",
      "type": "function"
    },
    {
      "inputs": [
        {
          "internalType": "bytes32",
          "name": "role",
          "type": "bytes32"
        },
        {
          "internalType": "address",
          "name": "account",
          "type": "address"
        }
      ],
      "name": "hasRole",
      "outputs": [
        {
          "internalType": "bool",
          "name": "",
          "type": "bool"
        }
      ],
      "stateMutability": "view",
      "type": "function"
    },
    {
      "inputs": [
        {
          "internalType": "bytes32",
          "name": "role",
          "type": "bytes32"
        },
        {
          "internalType": "address",
          "name": "account",
          "type": "address"
        }
      ],
      "name": "renounceRole",
      "outputs": [],
      "stateMutability": "nonpayable",
      "type": "function"
    },
    {
      "inputs": [
        {
          "internalType": "bytes32",
          "name": "role",
          "type": "bytes32"
        },
        {
          "internalType": "address",
          "name": "account",
          "type": "address"
        }
      ],
      "name": "revokeRole",
      "outputs": [],
      "stateMutability": "nonpayable",
      "type": "function"
    },
    {
      "inputs": [
        {
          "internalType": "bytes4",
          "name": "interfaceId",
          "type": "bytes4"
        }
      ],
      "name": "supportsInterface",
      "outputs": [
        {
          "internalType": "bool",
          "name": "",
          "type": "bool"
        }
      ],
      "stateMutability": "view",
      "type": "function"
    },
    {
      "inputs": [
        {
          "internalType": "bytes32",
          "name": "roleId",
          "type": "bytes32"
        },
        {
          "internalType": "bytes32",
          "name": "adminRoleId",
          "type": "bytes32"
        }
      ],
      "name": "setRoleAdmin",
      "outputs": [],
      "stateMutability": "nonpayable",
      "type": "function"
    },
    {
      "inputs": [
        {
          "internalType": "bytes32",
          "name": "roleId",
          "type": "bytes32"
        }
      ],
      "name": "senderProtected",
      "outputs": [],
      "stateMutability": "nonpayable",
      "type": "function"
    }
  ],
  "bytecode": "0x608060405234801561001057600080fd5b506100316000801b61002661003660201b60201c565b61003e60201b60201c565b6101a8565b600033905090565b61004e828261005260201b60201c565b5050565b610062828261013e60201b60201c565b61013a57600160008084815260200190815260200160002060000160008373ffffffffffffffffffffffffffffffffffffffff1673ffffffffffffffffffffffffffffffffffffffff16815260200190815260200160002060006101000a81548160ff0219169083151502179055506100df61003660201b60201c565b73ffffffffffffffffffffffffffffffffffffffff168173ffffffffffffffffffffffffffffffffffffffff16837f2f8788117e7eff1d82e926ec794901d17c78024a50270940304540a733656f0d60405160405180910390a45b5050565b600080600084815260200190815260200160002060000160008373ffffffffffffffffffffffffffffffffffffffff1673ffffffffffffffffffffffffffffffffffffffff16815260200190815260200160002060009054906101000a900460ff16905092915050565b610fd5806101b76000396000f3fe608060405234801561001057600080fd5b50600436106100935760003560e01c806336568abe1161006657806336568abe146101305780634b9304a41461014c57806391d1485414610168578063a217fddf14610198578063d547741f146101b657610093565b806301ffc9a7146100985780631e4e0091146100c8578063248a9ca3146100e45780632f2ff15d14610114575b600080fd5b6100b260048036038101906100ad9190610a28565b6101d2565b6040516100bf9190610ba3565b60405180910390f35b6100e260048036038101906100dd91906109e8565b61024c565b005b6100fe60048036038101906100f9919061097b565b61025a565b60405161010b9190610bbe565b60405180910390f35b61012e600480360381019061012991906109a8565b610279565b005b61014a600480360381019061014591906109a8565b6102a2565b005b6101666004803603810190610161919061097b565b610325565b005b610182600480360381019061017d91906109a8565b61033b565b60405161018f9190610ba3565b60405180910390f35b6101a06103a5565b6040516101ad9190610bbe565b60405180910390f35b6101d060048036038101906101cb91906109a8565b6103ac565b005b60007f7965db0b000000000000000000000000000000000000000000000000000000007bffffffffffffffffffffffffffffffffffffffffffffffffffffffff1916827bffffffffffffffffffffffffffffffffffffffffffffffffffffffff191614806102455750610244826103d5565b5b9050919050565b610256828261043f565b5050565b6000806000838152602001908152602001600020600101549050919050565b6102828261025a565b6102938161028e61049a565b6104a2565b61029d838361053f565b505050565b6102aa61049a565b73ffffffffffffffffffffffffffffffffffffffff168173ffffffffffffffffffffffffffffffffffffffff1614610317576040517f08c379a000000000000000000000000000000000000000000000000000000000815260040161030e90610c1b565b60405180910390fd5b610321828261061f565b5050565b806103378161033261049a565b6104a2565b5050565b600080600084815260200190815260200160002060000160008373ffffffffffffffffffffffffffffffffffffffff1673ffffffffffffffffffffffffffffffffffffffff16815260200190815260200160002060009054906101000a900460ff16905092915050565b6000801b81565b6103b58261025a565b6103c6816103c161049a565b6104a2565b6103d0838361061f565b505050565b60007f01ffc9a7000000000000000000000000000000000000000000000000000000007bffffffffffffffffffffffffffffffffffffffffffffffffffffffff1916827bffffffffffffffffffffffffffffffffffffffffffffffffffffffff1916149050919050565b600061044a8361025a565b905081600080858152602001908152602001600020600101819055508181847fbd79b86ffe0ab8e8776151514217cd7cacd52c909f66475c3af44e129f0b00ff60405160405180910390a4505050565b600033905090565b6104ac828261033b565b61053b576104d18173ffffffffffffffffffffffffffffffffffffffff166014610700565b6104df8360001c6020610700565b6040516020016104f0929190610b69565b6040516020818303038152906040526040517f08c379a00000000000000000000000000000000000000000000000000000000081526004016105329190610bd9565b60405180910390fd5b5050565b610549828261033b565b61061b57600160008084815260200190815260200160002060000160008373ffffffffffffffffffffffffffffffffffffffff1673ffffffffffffffffffffffffffffffffffffffff16815260200190815260200160002060006101000a81548160ff0219169083151502179055506105c061049a565b73ffffffffffffffffffffffffffffffffffffffff168173ffffffffffffffffffffffffffffffffffffffff16837f2f8788117e7eff1d82e926ec794901d17c78024a50270940304540a733656f0d60405160405180910390a45b5050565b610629828261033b565b156106fc57600080600084815260200190815260200160002060000160008373ffffffffffffffffffffffffffffffffffffffff1673ffffffffffffffffffffffffffffffffffffffff16815260200190815260200160002060006101000a81548160ff0219169083151502179055506106a161049a565b73ffffffffffffffffffffffffffffffffffffffff168173ffffffffffffffffffffffffffffffffffffffff16837ff6391f5c32d9c69d2a47ea670b442974b53935d1edc7fd64eb21e047a839171b60405160405180910390a45b5050565b6060600060028360026107139190610cb8565b61071d9190610c62565b67ffffffffffffffff81111561073657610735610e4b565b5b6040519080825280601f01601f1916602001820160405280156107685781602001600182028036833780820191505090505b5090507f3000000000000000000000000000000000000000000000000000000000000000816000815181106107a05761079f610e1c565b5b60200101907effffffffffffffffffffffffffffffffffffffffffffffffffffffffffffff1916908160001a9053507f78000000000000000000000000000000000000000000000000000000000000008160018151811061080457610803610e1c565b5b60200101907effffffffffffffffffffffffffffffffffffffffffffffffffffffffffffff1916908160001a905350600060018460026108449190610cb8565b61084e9190610c62565b90505b60018111156108ee577f3031323334353637383961626364656600000000000000000000000000000000600f8616601081106108905761088f610e1c565b5b1a60f81b8282815181106108a7576108a6610e1c565b5b60200101907effffffffffffffffffffffffffffffffffffffffffffffffffffffffffffff1916908160001a905350600485901c9450806108e790610dc3565b9050610851565b5060008414610932576040517f08c379a000000000000000000000000000000000000000000000000000000000815260040161092990610bfb565b60405180910390fd5b8091505092915050565b60008135905061094b81610f5a565b92915050565b60008135905061096081610f71565b92915050565b60008135905061097581610f88565b92915050565b60006020828403121561099157610990610e7a565b5b600061099f84828501610951565b91505092915050565b600080604083850312156109bf576109be610e7a565b5b60006109cd85828601610951565b92505060206109de8582860161093c565b9150509250929050565b600080604083850312156109ff576109fe610e7a565b5b6000610a0d85828601610951565b9250506020610a1e85828601610951565b9150509250929050565b600060208284031215610a3e57610a3d610e7a565b5b6000610a4c84828501610966565b91505092915050565b610a5e81610d24565b82525050565b610a6d81610d30565b82525050565b6000610a7e82610c3b565b610a888185610c46565b9350610a98818560208601610d90565b610aa181610e7f565b840191505092915050565b6000610ab782610c3b565b610ac18185610c57565b9350610ad1818560208601610d90565b80840191505092915050565b6000610aea602083610c46565b9150610af582610e90565b602082019050919050565b6000610b0d601783610c57565b9150610b1882610eb9565b601782019050919050565b6000610b30601183610c57565b9150610b3b82610ee2565b601182019050919050565b6000610b53602f83610c46565b9150610b5e82610f0b565b604082019050919050565b6000610b7482610b00565b9150610b808285610aac565b9150610b8b82610b23565b9150610b978284610aac565b91508190509392505050565b6000602082019050610bb86000830184610a55565b92915050565b6000602082019050610bd36000830184610a64565b92915050565b60006020820190508181036000830152610bf38184610a73565b905092915050565b60006020820190508181036000830152610c1481610add565b9050919050565b60006020820190508181036000830152610c3481610b46565b9050919050565b600081519050919050565b600082825260208201905092915050565b600081905092915050565b6000610c6d82610d86565b9150610c7883610d86565b9250827fffffffffffffffffffffffffffffffffffffffffffffffffffffffffffffffff03821115610cad57610cac610ded565b5b828201905092915050565b6000610cc382610d86565b9150610cce83610d86565b9250817fffffffffffffffffffffffffffffffffffffffffffffffffffffffffffffffff0483118215151615610d0757610d06610ded565b5b828202905092915050565b6000610d1d82610d66565b9050919050565b60008115159050919050565b6000819050919050565b60007fffffffff0000000000000000000000000000000000000000000000000000000082169050919050565b600073ffffffffffffffffffffffffffffffffffffffff82169050919050565b6000819050919050565b60005b83811015610dae578082015181840152602081019050610d93565b83811115610dbd576000848401525b50505050565b6000610dce82610d86565b91506000821415610de257610de1610ded565b5b600182039050919050565b7f4e487b7100000000000000000000000000000000000000000000000000000000600052601160045260246000fd5b7f4e487b7100000000000000000000000000000000000000000000000000000000600052603260045260246000fd5b7f4e487b7100000000000000000000000000000000000000000000000000000000600052604160045260246000fd5b600080fd5b6000601f19601f8301169050919050565b7f537472696e67733a20686578206c656e67746820696e73756666696369656e74600082015250565b7f416363657373436f6e74726f6c3a206163636f756e7420000000000000000000600082015250565b7f206973206d697373696e6720726f6c6520000000000000000000000000000000600082015250565b7f416363657373436f6e74726f6c3a2063616e206f6e6c792072656e6f756e636560008201527f20726f6c657320666f722073656c660000000000000000000000000000000000602082015250565b610f6381610d12565b8114610f6e57600080fd5b50565b610f7a81610d30565b8114610f8557600080fd5b50565b610f9181610d3a565b8114610f9c57600080fd5b5056fea264697066735822122089139c91b9bf54bde1b92181c435a61ce9a94071367ce595323b6a7d3c83b62264736f6c63430008060033",
  "immutableReferences": {},
  "source": "// SPDX-License-Identifier: MIT\n\npragma solidity ^0.8.0;\n\nimport \"../access/AccessControl.sol\";\n\ncontract AccessControlMock is AccessControl {\n    constructor() {\n        _setupRole(DEFAULT_ADMIN_ROLE, _msgSender());\n    }\n\n    function setRoleAdmin(bytes32 roleId, bytes32 adminRoleId) public {\n        _setRoleAdmin(roleId, adminRoleId);\n    }\n\n    function senderProtected(bytes32 roleId) public onlyRole(roleId) {}\n}\n",
  "sourcePath": "/home/sandeep/NFT_Market/contracts/mocks/AccessControlMock.sol",
  "compiler": {
    "name": "solc",
    "version": "0.8.6+commit.11564f7e.Emscripten.clang"
  },
  "schemaVersion": "3.4.1",
  "updatedAt": "2021-07-13T14:33:10.069Z",
  "devdoc": {
    "kind": "dev",
    "methods": {
      "getRoleAdmin(bytes32)": {
        "details": "Returns the admin role that controls `role`. See {grantRole} and {revokeRole}. To change a role's admin, use {_setRoleAdmin}."
      },
      "grantRole(bytes32,address)": {
        "details": "Grants `role` to `account`. If `account` had not been already granted `role`, emits a {RoleGranted} event. Requirements: - the caller must have ``role``'s admin role."
      },
      "hasRole(bytes32,address)": {
        "details": "Returns `true` if `account` has been granted `role`."
      },
      "renounceRole(bytes32,address)": {
        "details": "Revokes `role` from the calling account. Roles are often managed via {grantRole} and {revokeRole}: this function's purpose is to provide a mechanism for accounts to lose their privileges if they are compromised (such as when a trusted device is misplaced). If the calling account had been granted `role`, emits a {RoleRevoked} event. Requirements: - the caller must be `account`."
      },
      "revokeRole(bytes32,address)": {
        "details": "Revokes `role` from `account`. If `account` had been granted `role`, emits a {RoleRevoked} event. Requirements: - the caller must have ``role``'s admin role."
      },
      "supportsInterface(bytes4)": {
        "details": "See {IERC165-supportsInterface}."
      }
    },
    "version": 1
  },
  "userdoc": {
    "kind": "user",
    "methods": {},
    "version": 1
  }
}