{
  "contractName": "AccessControlEnumerableMock",
  "abi": [
    {
      "inputs": [],
      "stateMutability": "nonpayable",
      "type": "constructor"
    },
    {
      "anonymous": false,
      "inputs": [
        {
          "indexed": true,
          "internalType": "bytes32",
          "name": "role",
          "type": "bytes32"
        },
        {
          "indexed": true,
          "internalType": "bytes32",
          "name": "previousAdminRole",
          "type": "bytes32"
        },
        {
          "indexed": true,
          "internalType": "bytes32",
          "name": "newAdminRole",
          "type": "bytes32"
        }
      ],
      "name": "RoleAdminChanged",
      "type": "event"
    },
    {
      "anonymous": false,
      "inputs": [
        {
          "indexed": true,
          "internalType": "bytes32",
          "name": "role",
          "type": "bytes32"
        },
        {
          "indexed": true,
          "internalType": "address",
          "name": "account",
          "type": "address"
        },
        {
          "indexed": true,
          "internalType": "address",
          "name": "sender",
          "type": "address"
        }
      ],
      "name": "RoleGranted",
      "type": "event"
    },
    {
      "anonymous": false,
      "inputs": [
        {
          "indexed": true,
          "internalType": "bytes32",
          "name": "role",
          "type": "bytes32"
        },
        {
          "indexed": true,
          "internalType": "address",
          "name": "account",
          "type": "address"
        },
        {
          "indexed": true,
          "internalType": "address",
          "name": "sender",
          "type": "address"
        }
      ],
      "name": "RoleRevoked",
      "type": "event"
    },
    {
      "inputs": [],
      "name": "DEFAULT_ADMIN_ROLE",
      "outputs": [
        {
          "internalType": "bytes32",
          "name": "",
          "type": "bytes32"
        }
      ],
      "stateMutability": "view",
      "type": "function"
    },
    {
      "inputs": [
        {
          "internalType": "bytes32",
          "name": "role",
          "type": "bytes32"
        }
      ],
      "name": "getRoleAdmin",
      "outputs": [
        {
          "internalType": "bytes32",
          "name": "",
          "type": "bytes32"
        }
      ],
      "stateMutability": "view",
      "type": "function"
    },
    {
      "inputs": [
        {
          "internalType": "bytes32",
          "name": "role",
          "type": "bytes32"
        },
        {
          "internalType": "uint256",
          "name": "index",
          "type": "uint256"
        }
      ],
      "name": "getRoleMember",
      "outputs": [
        {
          "internalType": "address",
          "name": "",
          "type": "address"
        }
      ],
      "stateMutability": "view",
      "type": "function"
    },
    {
      "inputs": [
        {
          "internalType": "bytes32",
          "name": "role",
          "type": "bytes32"
        }
      ],
      "name": "getRoleMemberCount",
      "outputs": [
        {
          "internalType": "uint256",
          "name": "",
          "type": "uint256"
        }
      ],
      "stateMutability": "view",
      "type": "function"
    },
    {
      "inputs": [
        {
          "internalType": "bytes32",
          "name": "role",
          "type": "bytes32"
        },
        {
          "internalType": "address",
          "name": "account",
          "type": "address"
        }
      ],
      "name": "grantRole",
      "outputs": [],
      "stateMutability": "nonpayable",
      "type": "function"
    },
    {
      "inputs": [
        {
          "internalType": "bytes32",
          "name": "role",
          "type": "bytes32"
        },
        {
          "internalType": "address",
          "name": "account",
          "type": "address"
        }
      ],
      "name": "hasRole",
      "outputs": [
        {
          "internalType": "bool",
          "name": "",
          "type": "bool"
        }
      ],
      "stateMutability": "view",
      "type": "function"
    },
    {
      "inputs": [
        {
          "internalType": "bytes32",
          "name": "role",
          "type": "bytes32"
        },
        {
          "internalType": "address",
          "name": "account",
          "type": "address"
        }
      ],
      "name": "renounceRole",
      "outputs": [],
      "stateMutability": "nonpayable",
      "type": "function"
    },
    {
      "inputs": [
        {
          "internalType": "bytes32",
          "name": "role",
          "type": "bytes32"
        },
        {
          "internalType": "address",
          "name": "account",
          "type": "address"
        }
      ],
      "name": "revokeRole",
      "outputs": [],
      "stateMutability": "nonpayable",
      "type": "function"
    },
    {
      "inputs": [
        {
          "internalType": "bytes4",
          "name": "interfaceId",
          "type": "bytes4"
        }
      ],
      "name": "supportsInterface",
      "outputs": [
        {
          "internalType": "bool",
          "name": "",
          "type": "bool"
        }
      ],
      "stateMutability": "view",
      "type": "function"
    },
    {
      "inputs": [
        {
          "internalType": "bytes32",
          "name": "roleId",
          "type": "bytes32"
        },
        {
          "internalType": "bytes32",
          "name": "adminRoleId",
          "type": "bytes32"
        }
      ],
      "name": "setRoleAdmin",
      "outputs": [],
      "stateMutability": "nonpayable",
      "type": "function"
    },
    {
      "inputs": [
        {
          "internalType": "bytes32",
          "name": "roleId",
          "type": "bytes32"
        }
      ],
      "name": "senderProtected",
      "outputs": [],
      "stateMutability": "nonpayable",
      "type": "function"
    }
  ],
  "bytecode": "0x60806040523480156200001157600080fd5b50620000366000801b6200002a6200003c60201b60201c565b6200004460201b60201c565b620002d2565b600033905090565b6200005b82826200008c60201b620004651760201c565b620000878160016000858152602001908152602001600020620000a260201b620004731790919060201c565b505050565b6200009e8282620000da60201b60201c565b5050565b6000620000d2836000018373ffffffffffffffffffffffffffffffffffffffff1660001b620001cb60201b60201c565b905092915050565b620000ec82826200024560201b60201c565b620001c757600160008084815260200190815260200160002060000160008373ffffffffffffffffffffffffffffffffffffffff1673ffffffffffffffffffffffffffffffffffffffff16815260200190815260200160002060006101000a81548160ff0219169083151502179055506200016c6200003c60201b60201c565b73ffffffffffffffffffffffffffffffffffffffff168173ffffffffffffffffffffffffffffffffffffffff16837f2f8788117e7eff1d82e926ec794901d17c78024a50270940304540a733656f0d60405160405180910390a45b5050565b6000620001df8383620002af60201b60201c565b6200023a5782600001829080600181540180825580915050600190039060005260206000200160009091909190915055826000018054905083600101600084815260200190815260200160002081905550600190506200023f565b600090505b92915050565b600080600084815260200190815260200160002060000160008373ffffffffffffffffffffffffffffffffffffffff1673ffffffffffffffffffffffffffffffffffffffff16815260200190815260200160002060009054906101000a900460ff16905092915050565b600080836001016000848152602001908152602001600020541415905092915050565b61155780620002e26000396000f3fe608060405234801561001057600080fd5b50600436106100a95760003560e01c80634b9304a4116100715780634b9304a4146101625780639010d07c1461017e57806391d14854146101ae578063a217fddf146101de578063ca15c873146101fc578063d547741f1461022c576100a9565b806301ffc9a7146100ae5780631e4e0091146100de578063248a9ca3146100fa5780632f2ff15d1461012a57806336568abe14610146575b600080fd5b6100c860048036038101906100c39190610edc565b610248565b6040516100d59190611090565b60405180910390f35b6100f860048036038101906100f39190610e5c565b6102c2565b005b610114600480360381019061010f9190610def565b6102d0565b60405161012191906110ab565b60405180910390f35b610144600480360381019061013f9190610e1c565b6102ef565b005b610160600480360381019061015b9190610e1c565b610323565b005b61017c60048036038101906101779190610def565b610357565b005b61019860048036038101906101939190610e9c565b61036d565b6040516101a59190611075565b60405180910390f35b6101c860048036038101906101c39190610e1c565b61039c565b6040516101d59190611090565b60405180910390f35b6101e6610406565b6040516101f391906110ab565b60405180910390f35b61021660048036038101906102119190610def565b61040d565b6040516102239190611128565b60405180910390f35b61024660048036038101906102419190610e1c565b610431565b005b60007f5a05180f000000000000000000000000000000000000000000000000000000007bffffffffffffffffffffffffffffffffffffffffffffffffffffffff1916827bffffffffffffffffffffffffffffffffffffffffffffffffffffffff191614806102bb57506102ba826104a3565b5b9050919050565b6102cc828261051d565b5050565b6000806000838152602001908152602001600020600101549050919050565b6102f98282610578565b61031e816001600085815260200190815260200160002061047390919063ffffffff16565b505050565b61032d82826105a1565b610352816001600085815260200190815260200160002061062490919063ffffffff16565b505050565b8061036981610364610654565b61065c565b5050565b600061039482600160008681526020019081526020016000206106f990919063ffffffff16565b905092915050565b600080600084815260200190815260200160002060000160008373ffffffffffffffffffffffffffffffffffffffff1673ffffffffffffffffffffffffffffffffffffffff16815260200190815260200160002060009054906101000a900460ff16905092915050565b6000801b81565b600061042a60016000848152602001908152602001600020610713565b9050919050565b61043b8282610728565b610460816001600085815260200190815260200160002061062490919063ffffffff16565b505050565b61046f8282610751565b5050565b600061049b836000018373ffffffffffffffffffffffffffffffffffffffff1660001b610831565b905092915050565b60007f7965db0b000000000000000000000000000000000000000000000000000000007bffffffffffffffffffffffffffffffffffffffffffffffffffffffff1916827bffffffffffffffffffffffffffffffffffffffffffffffffffffffff191614806105165750610515826108a1565b5b9050919050565b6000610528836102d0565b905081600080858152602001908152602001600020600101819055508181847fbd79b86ffe0ab8e8776151514217cd7cacd52c909f66475c3af44e129f0b00ff60405160405180910390a4505050565b610581826102d0565b6105928161058d610654565b61065c565b61059c8383610751565b505050565b6105a9610654565b73ffffffffffffffffffffffffffffffffffffffff168173ffffffffffffffffffffffffffffffffffffffff1614610616576040517f08c379a000000000000000000000000000000000000000000000000000000000815260040161060d90611108565b60405180910390fd5b610620828261090b565b5050565b600061064c836000018373ffffffffffffffffffffffffffffffffffffffff1660001b6109ec565b905092915050565b600033905090565b610666828261039c565b6106f55761068b8173ffffffffffffffffffffffffffffffffffffffff166014610b00565b6106998360001c6020610b00565b6040516020016106aa92919061103b565b6040516020818303038152906040526040517f08c379a00000000000000000000000000000000000000000000000000000000081526004016106ec91906110c6565b60405180910390fd5b5050565b60006107088360000183610d3c565b60001c905092915050565b600061072182600001610d67565b9050919050565b610731826102d0565b6107428161073d610654565b61065c565b61074c838361090b565b505050565b61075b828261039c565b61082d57600160008084815260200190815260200160002060000160008373ffffffffffffffffffffffffffffffffffffffff1673ffffffffffffffffffffffffffffffffffffffff16815260200190815260200160002060006101000a81548160ff0219169083151502179055506107d2610654565b73ffffffffffffffffffffffffffffffffffffffff168173ffffffffffffffffffffffffffffffffffffffff16837f2f8788117e7eff1d82e926ec794901d17c78024a50270940304540a733656f0d60405160405180910390a45b5050565b600061083d8383610d78565b61089657826000018290806001815401808255809150506001900390600052602060002001600090919091909150558260000180549050836001016000848152602001908152602001600020819055506001905061089b565b600090505b92915050565b60007f01ffc9a7000000000000000000000000000000000000000000000000000000007bffffffffffffffffffffffffffffffffffffffffffffffffffffffff1916827bffffffffffffffffffffffffffffffffffffffffffffffffffffffff1916149050919050565b610915828261039c565b156109e857600080600084815260200190815260200160002060000160008373ffffffffffffffffffffffffffffffffffffffff1673ffffffffffffffffffffffffffffffffffffffff16815260200190815260200160002060006101000a81548160ff02191690831515021790555061098d610654565b73ffffffffffffffffffffffffffffffffffffffff168173ffffffffffffffffffffffffffffffffffffffff16837ff6391f5c32d9c69d2a47ea670b442974b53935d1edc7fd64eb21e047a839171b60405160405180910390a45b5050565b60008083600101600084815260200190815260200160002054905060008114610af4576000600182610a1e919061121a565b9050600060018660000180549050610a36919061121a565b9050818114610aa5576000866000018281548110610a5757610a56611387565b5b9060005260206000200154905080876000018481548110610a7b57610a7a611387565b5b90600052602060002001819055508387600101600083815260200190815260200160002081905550505b85600001805480610ab957610ab8611358565b5b600190038181906000526020600020016000905590558560010160008681526020019081526020016000206000905560019350505050610afa565b60009150505b92915050565b606060006002836002610b1391906111c0565b610b1d919061116a565b67ffffffffffffffff811115610b3657610b356113b6565b5b6040519080825280601f01601f191660200182016040528015610b685781602001600182028036833780820191505090505b5090507f300000000000000000000000000000000000000000000000000000000000000081600081518110610ba057610b9f611387565b5b60200101907effffffffffffffffffffffffffffffffffffffffffffffffffffffffffffff1916908160001a9053507f780000000000000000000000000000000000000000000000000000000000000081600181518110610c0457610c03611387565b5b60200101907effffffffffffffffffffffffffffffffffffffffffffffffffffffffffffff1916908160001a90535060006001846002610c4491906111c0565b610c4e919061116a565b90505b6001811115610cee577f3031323334353637383961626364656600000000000000000000000000000000600f861660108110610c9057610c8f611387565b5b1a60f81b828281518110610ca757610ca6611387565b5b60200101907effffffffffffffffffffffffffffffffffffffffffffffffffffffffffffff1916908160001a905350600485901c945080610ce7906112ff565b9050610c51565b5060008414610d32576040517f08c379a0000000000000000000000000000000000000000000000000000000008152600401610d29906110e8565b60405180910390fd5b8091505092915050565b6000826000018281548110610d5457610d53611387565b5b9060005260206000200154905092915050565b600081600001805490509050919050565b600080836001016000848152602001908152602001600020541415905092915050565b600081359050610daa816114c5565b92915050565b600081359050610dbf816114dc565b92915050565b600081359050610dd4816114f3565b92915050565b600081359050610de98161150a565b92915050565b600060208284031215610e0557610e046113e5565b5b6000610e1384828501610db0565b91505092915050565b60008060408385031215610e3357610e326113e5565b5b6000610e4185828601610db0565b9250506020610e5285828601610d9b565b9150509250929050565b60008060408385031215610e7357610e726113e5565b5b6000610e8185828601610db0565b9250506020610e9285828601610db0565b9150509250929050565b60008060408385031215610eb357610eb26113e5565b5b6000610ec185828601610db0565b9250506020610ed285828601610dda565b9150509250929050565b600060208284031215610ef257610ef16113e5565b5b6000610f0084828501610dc5565b91505092915050565b610f128161124e565b82525050565b610f2181611260565b82525050565b610f308161126c565b82525050565b6000610f4182611143565b610f4b818561114e565b9350610f5b8185602086016112cc565b610f64816113ea565b840191505092915050565b6000610f7a82611143565b610f84818561115f565b9350610f948185602086016112cc565b80840191505092915050565b6000610fad60208361114e565b9150610fb8826113fb565b602082019050919050565b6000610fd060178361115f565b9150610fdb82611424565b601782019050919050565b6000610ff360118361115f565b9150610ffe8261144d565b601182019050919050565b6000611016602f8361114e565b915061102182611476565b604082019050919050565b611035816112c2565b82525050565b600061104682610fc3565b91506110528285610f6f565b915061105d82610fe6565b91506110698284610f6f565b91508190509392505050565b600060208201905061108a6000830184610f09565b92915050565b60006020820190506110a56000830184610f18565b92915050565b60006020820190506110c06000830184610f27565b92915050565b600060208201905081810360008301526110e08184610f36565b905092915050565b6000602082019050818103600083015261110181610fa0565b9050919050565b6000602082019050818103600083015261112181611009565b9050919050565b600060208201905061113d600083018461102c565b92915050565b600081519050919050565b600082825260208201905092915050565b600081905092915050565b6000611175826112c2565b9150611180836112c2565b9250827fffffffffffffffffffffffffffffffffffffffffffffffffffffffffffffffff038211156111b5576111b4611329565b5b828201905092915050565b60006111cb826112c2565b91506111d6836112c2565b9250817fffffffffffffffffffffffffffffffffffffffffffffffffffffffffffffffff048311821515161561120f5761120e611329565b5b828202905092915050565b6000611225826112c2565b9150611230836112c2565b92508282101561124357611242611329565b5b828203905092915050565b6000611259826112a2565b9050919050565b60008115159050919050565b6000819050919050565b60007fffffffff0000000000000000000000000000000000000000000000000000000082169050919050565b600073ffffffffffffffffffffffffffffffffffffffff82169050919050565b6000819050919050565b60005b838110156112ea5780820151818401526020810190506112cf565b838111156112f9576000848401525b50505050565b600061130a826112c2565b9150600082141561131e5761131d611329565b5b600182039050919050565b7f4e487b7100000000000000000000000000000000000000000000000000000000600052601160045260246000fd5b7f4e487b7100000000000000000000000000000000000000000000000000000000600052603160045260246000fd5b7f4e487b7100000000000000000000000000000000000000000000000000000000600052603260045260246000fd5b7f4e487b7100000000000000000000000000000000000000000000000000000000600052604160045260246000fd5b600080fd5b6000601f19601f8301169050919050565b7f537472696e67733a20686578206c656e67746820696e73756666696369656e74600082015250565b7f416363657373436f6e74726f6c3a206163636f756e7420000000000000000000600082015250565b7f206973206d697373696e6720726f6c6520000000000000000000000000000000600082015250565b7f416363657373436f6e74726f6c3a2063616e206f6e6c792072656e6f756e636560008201527f20726f6c657320666f722073656c660000000000000000000000000000000000602082015250565b6114ce8161124e565b81146114d957600080fd5b50565b6114e58161126c565b81146114f057600080fd5b50565b6114fc81611276565b811461150757600080fd5b50565b611513816112c2565b811461151e57600080fd5b5056fea26469706673582212203c2cd695f83b08fa7a035b5c9f885abe26303c9dfafb0cd0093208f668fdb4ea64736f6c63430008060033",
  "immutableReferences": {},
  "source": "// SPDX-License-Identifier: MIT\n\npragma solidity ^0.8.0;\n\nimport \"../access/AccessControlEnumerable.sol\";\n\ncontract AccessControlEnumerableMock is AccessControlEnumerable {\n    constructor() {\n        _setupRole(DEFAULT_ADMIN_ROLE, _msgSender());\n    }\n\n    function setRoleAdmin(bytes32 roleId, bytes32 adminRoleId) public {\n        _setRoleAdmin(roleId, adminRoleId);\n    }\n\n    function senderProtected(bytes32 roleId) public onlyRole(roleId) {}\n}\n",
  "sourcePath": "/home/sandeep/NFT_Market/contracts/mocks/AccessControlEnumerableMock.sol",
  "compiler": {
    "name": "solc",
    "version": "0.8.6+commit.11564f7e.Emscripten.clang"
  },
  "schemaVersion": "3.4.1",
  "updatedAt": "2021-07-13T14:33:10.063Z",
  "devdoc": {
    "kind": "dev",
    "methods": {
      "getRoleAdmin(bytes32)": {
        "details": "Returns the admin role that controls `role`. See {grantRole} and {revokeRole}. To change a role's admin, use {_setRoleAdmin}."
      },
      "getRoleMember(bytes32,uint256)": {
        "details": "Returns one of the accounts that have `role`. `index` must be a value between 0 and {getRoleMemberCount}, non-inclusive. Role bearers are not sorted in any particular way, and their ordering may change at any point. WARNING: When using {getRoleMember} and {getRoleMemberCount}, make sure you perform all queries on the same block. See the following https://forum.openzeppelin.com/t/iterating-over-elements-on-enumerableset-in-openzeppelin-contracts/2296[forum post] for more information."
      },
      "getRoleMemberCount(bytes32)": {
        "details": "Returns the number of accounts that have `role`. Can be used together with {getRoleMember} to enumerate all bearers of a role."
      },
      "grantRole(bytes32,address)": {
        "details": "Overload {grantRole} to track enumerable memberships"
      },
      "hasRole(bytes32,address)": {
        "details": "Returns `true` if `account` has been granted `role`."
      },
      "renounceRole(bytes32,address)": {
        "details": "Overload {renounceRole} to track enumerable memberships"
      },
      "revokeRole(bytes32,address)": {
        "details": "Overload {revokeRole} to track enumerable memberships"
      },
      "supportsInterface(bytes4)": {
        "details": "See {IERC165-supportsInterface}."
      }
    },
    "version": 1
  },
  "userdoc": {
    "kind": "user",
    "methods": {},
    "version": 1
  }
}