{
  "contractName": "BitMapMock",
  "abi": [
    {
      "inputs": [
        {
          "internalType": "uint256",
          "name": "index",
          "type": "uint256"
        }
      ],
      "name": "get",
      "outputs": [
        {
          "internalType": "bool",
          "name": "",
          "type": "bool"
        }
      ],
      "stateMutability": "view",
      "type": "function"
    },
    {
      "inputs": [
        {
          "internalType": "uint256",
          "name": "index",
          "type": "uint256"
        },
        {
          "internalType": "bool",
          "name": "value",
          "type": "bool"
        }
      ],
      "name": "setTo",
      "outputs": [],
      "stateMutability": "nonpayable",
      "type": "function"
    },
    {
      "inputs": [
        {
          "internalType": "uint256",
          "name": "index",
          "type": "uint256"
        }
      ],
      "name": "set",
      "outputs": [],
      "stateMutability": "nonpayable",
      "type": "function"
    },
    {
      "inputs": [
        {
          "internalType": "uint256",
          "name": "index",
          "type": "uint256"
        }
      ],
      "name": "unset",
      "outputs": [],
      "stateMutability": "nonpayable",
      "type": "function"
    }
  ],
  "bytecode": "0x608060405234801561001057600080fd5b50610422806100206000396000f3fe608060405234801561001057600080fd5b506004361061004c5760003560e01c8063088d22551461005157806360fe47b11461006d5780639507d39a14610089578063dcc9d43c146100b9575b600080fd5b61006b6004803603810190610066919061027b565b6100d5565b005b6100876004803603810190610082919061027b565b6100ec565b005b6100a3600480360381019061009e919061027b565b610103565b6040516100b091906102f7565b60405180910390f35b6100d360048036038101906100ce91906102a8565b610120565b005b6100e981600061013a90919063ffffffff16565b50565b61010081600061018c90919063ffffffff16565b50565b60006101198260006101dd90919063ffffffff16565b9050919050565b6101368282600061022c9092919063ffffffff16565b5050565b60006101008261014a9190610312565b905060006101008361015c9190610359565b6001901b905080198460000160008481526020019081526020016000206000828254169250508190555050505050565b60006101008261019c9190610312565b90506000610100836101ae9190610359565b6001901b9050808460000160008481526020019081526020016000206000828254179250508190555050505050565b600080610100836101ee9190610312565b90506000610100846102009190610359565b6001901b9050600081866000016000858152602001908152602001600020541614159250505092915050565b80156102415761023c838361018c565b61024c565b61024b838361013a565b5b505050565b600081359050610260816103be565b92915050565b600081359050610275816103d5565b92915050565b600060208284031215610291576102906103b9565b5b600061029f84828501610266565b91505092915050565b600080604083850312156102bf576102be6103b9565b5b60006102cd85828601610266565b92505060206102de85828601610251565b9150509250929050565b6102f181610343565b82525050565b600060208201905061030c60008301846102e8565b92915050565b600061031d8261034f565b91506103288361034f565b9250826103385761033761038a565b5b828204905092915050565b60008115159050919050565b6000819050919050565b60006103648261034f565b915061036f8361034f565b92508261037f5761037e61038a565b5b828206905092915050565b7f4e487b7100000000000000000000000000000000000000000000000000000000600052601260045260246000fd5b600080fd5b6103c781610343565b81146103d257600080fd5b50565b6103de8161034f565b81146103e957600080fd5b5056fea26469706673582212206544d06cc01a2b7ce2be230f92661b7f7c92a8da41bfbbe0195703a97d7f20ad64736f6c63430008060033",
  "immutableReferences": {},
  "source": "// SPDX-License-Identifier: MIT\n\npragma solidity ^0.8.0;\n\nimport \"../utils/structs/BitMaps.sol\";\n\ncontract BitMapMock {\n    using BitMaps for BitMaps.BitMap;\n\n    BitMaps.BitMap private _bitmap;\n\n    function get(uint256 index) public view returns (bool) {\n        return _bitmap.get(index);\n    }\n\n    function setTo(uint256 index, bool value) public {\n        _bitmap.setTo(index, value);\n    }\n\n    function set(uint256 index) public {\n        _bitmap.set(index);\n    }\n\n    function unset(uint256 index) public {\n        _bitmap.unset(index);\n    }\n}\n",
  "sourcePath": "/home/sandeep/NFT_Market/contracts/mocks/BitmapMock.sol",
  "compiler": {
    "name": "solc",
    "version": "0.8.6+commit.11564f7e.Emscripten.clang"
  },
  "schemaVersion": "3.4.1",
  "updatedAt": "2021-07-13T14:33:10.098Z",
  "devdoc": {
    "kind": "dev",
    "methods": {},
    "version": 1
  },
  "userdoc": {
    "kind": "user",
    "methods": {},
    "version": 1
  }
}