{
  "contractName": "BUVMarket",
  "abi": [
    {
      "inputs": [],
      "stateMutability": "nonpayable",
      "type": "constructor"
    },
    {
      "anonymous": false,
      "inputs": [
        {
          "indexed": true,
          "internalType": "address",
          "name": "owner",
          "type": "address"
        },
        {
          "indexed": true,
          "internalType": "address",
          "name": "approved",
          "type": "address"
        },
        {
          "indexed": true,
          "internalType": "uint256",
          "name": "tokenId",
          "type": "uint256"
        }
      ],
      "name": "Approval",
      "type": "event"
    },
    {
      "anonymous": false,
      "inputs": [
        {
          "indexed": true,
          "internalType": "address",
          "name": "owner",
          "type": "address"
        },
        {
          "indexed": true,
          "internalType": "address",
          "name": "operator",
          "type": "address"
        },
        {
          "indexed": false,
          "internalType": "bool",
          "name": "approved",
          "type": "bool"
        }
      ],
      "name": "ApprovalForAll",
      "type": "event"
    },
    {
      "anonymous": false,
      "inputs": [
        {
          "indexed": true,
          "internalType": "address",
          "name": "from",
          "type": "address"
        },
        {
          "indexed": true,
          "internalType": "address",
          "name": "to",
          "type": "address"
        },
        {
          "indexed": true,
          "internalType": "uint256",
          "name": "tokenId",
          "type": "uint256"
        }
      ],
      "name": "Transfer",
      "type": "event"
    },
    {
      "inputs": [
        {
          "internalType": "address",
          "name": "to",
          "type": "address"
        },
        {
          "internalType": "uint256",
          "name": "tokenId",
          "type": "uint256"
        }
      ],
      "name": "approve",
      "outputs": [],
      "stateMutability": "nonpayable",
      "type": "function"
    },
    {
      "inputs": [
        {
          "internalType": "address",
          "name": "owner",
          "type": "address"
        }
      ],
      "name": "balanceOf",
      "outputs": [
        {
          "internalType": "uint256",
          "name": "",
          "type": "uint256"
        }
      ],
      "stateMutability": "view",
      "type": "function",
      "constant": true
    },
    {
      "inputs": [
        {
          "internalType": "uint256",
          "name": "tokenId",
          "type": "uint256"
        }
      ],
      "name": "getApproved",
      "outputs": [
        {
          "internalType": "address",
          "name": "",
          "type": "address"
        }
      ],
      "stateMutability": "view",
      "type": "function",
      "constant": true
    },
    {
      "inputs": [
        {
          "internalType": "address",
          "name": "owner",
          "type": "address"
        },
        {
          "internalType": "address",
          "name": "operator",
          "type": "address"
        }
      ],
      "name": "isApprovedForAll",
      "outputs": [
        {
          "internalType": "bool",
          "name": "",
          "type": "bool"
        }
      ],
      "stateMutability": "view",
      "type": "function",
      "constant": true
    },
    {
      "inputs": [],
      "name": "name",
      "outputs": [
        {
          "internalType": "string",
          "name": "",
          "type": "string"
        }
      ],
      "stateMutability": "view",
      "type": "function",
      "constant": true
    },
    {
      "inputs": [
        {
          "internalType": "uint256",
          "name": "tokenId",
          "type": "uint256"
        }
      ],
      "name": "ownerOf",
      "outputs": [
        {
          "internalType": "address",
          "name": "",
          "type": "address"
        }
      ],
      "stateMutability": "view",
      "type": "function",
      "constant": true
    },
    {
      "inputs": [
        {
          "internalType": "address",
          "name": "from",
          "type": "address"
        },
        {
          "internalType": "address",
          "name": "to",
          "type": "address"
        },
        {
          "internalType": "uint256",
          "name": "tokenId",
          "type": "uint256"
        }
      ],
      "name": "safeTransferFrom",
      "outputs": [],
      "stateMutability": "nonpayable",
      "type": "function"
    },
    {
      "inputs": [
        {
          "internalType": "address",
          "name": "from",
          "type": "address"
        },
        {
          "internalType": "address",
          "name": "to",
          "type": "address"
        },
        {
          "internalType": "uint256",
          "name": "tokenId",
          "type": "uint256"
        },
        {
          "internalType": "bytes",
          "name": "_data",
          "type": "bytes"
        }
      ],
      "name": "safeTransferFrom",
      "outputs": [],
      "stateMutability": "nonpayable",
      "type": "function"
    },
    {
      "inputs": [
        {
          "internalType": "address",
          "name": "operator",
          "type": "address"
        },
        {
          "internalType": "bool",
          "name": "approved",
          "type": "bool"
        }
      ],
      "name": "setApprovalForAll",
      "outputs": [],
      "stateMutability": "nonpayable",
      "type": "function"
    },
    {
      "inputs": [
        {
          "internalType": "bytes4",
          "name": "interfaceId",
          "type": "bytes4"
        }
      ],
      "name": "supportsInterface",
      "outputs": [
        {
          "internalType": "bool",
          "name": "",
          "type": "bool"
        }
      ],
      "stateMutability": "view",
      "type": "function",
      "constant": true
    },
    {
      "inputs": [],
      "name": "symbol",
      "outputs": [
        {
          "internalType": "string",
          "name": "",
          "type": "string"
        }
      ],
      "stateMutability": "view",
      "type": "function",
      "constant": true
    },
    {
      "inputs": [
        {
          "internalType": "uint256",
          "name": "tokenId",
          "type": "uint256"
        }
      ],
      "name": "tokenURI",
      "outputs": [
        {
          "internalType": "string",
          "name": "",
          "type": "string"
        }
      ],
      "stateMutability": "view",
      "type": "function",
      "constant": true
    },
    {
      "inputs": [
        {
          "internalType": "address",
          "name": "from",
          "type": "address"
        },
        {
          "internalType": "address",
          "name": "to",
          "type": "address"
        },
        {
          "internalType": "uint256",
          "name": "tokenId",
          "type": "uint256"
        }
      ],
      "name": "transferFrom",
      "outputs": [],
      "stateMutability": "nonpayable",
      "type": "function"
    },
    {
      "inputs": [
        {
          "internalType": "uint256",
          "name": "tokenId",
          "type": "uint256"
        }
      ],
      "name": "buy",
      "outputs": [],
      "stateMutability": "nonpayable",
      "type": "function"
    },
    {
      "inputs": [
        {
          "internalType": "uint256",
          "name": "tokenId",
          "type": "uint256"
        },
        {
          "internalType": "address",
          "name": "to",
          "type": "address"
        }
      ],
      "name": "sell",
      "outputs": [],
      "stateMutability": "nonpayable",
      "type": "function"
    }
  ],
  "bytecode": "0x60806040523480156200001157600080fd5b506040518060400160405280601d81526020017f426c6f636b636861696e20556c7472612d56656e7475726573204e46540000008152506040518060400160405280600681526020017f4255564e465400000000000000000000000000000000000000000000000000008152508160009080519060200190620000969291906200058e565b508060019080519060200190620000af9291906200058e565b505050620000c8336377359400620000ce60201b60201c565b62000aa8565b620000f0828260405180602001604052806000815250620000f460201b60201c565b5050565b6200010683836200016260201b60201c565b6200011b60008484846200034860201b60201c565b6200015d576040517f08c379a00000000000000000000000000000000000000000000000000000000081526004016200015490620007b3565b60405180910390fd5b505050565b600073ffffffffffffffffffffffffffffffffffffffff168273ffffffffffffffffffffffffffffffffffffffff161415620001d5576040517f08c379a0000000000000000000000000000000000000000000000000000000008152600401620001cc90620007f7565b60405180910390fd5b620001e6816200050260201b60201c565b1562000229576040517f08c379a00000000000000000000000000000000000000000000000000000000081526004016200022090620007d5565b60405180910390fd5b6200023d600083836200056e60201b60201c565b6001600360008473ffffffffffffffffffffffffffffffffffffffff1673ffffffffffffffffffffffffffffffffffffffff16815260200190815260200160002060008282546200028f919062000846565b92505081905550816002600083815260200190815260200160002060006101000a81548173ffffffffffffffffffffffffffffffffffffffff021916908373ffffffffffffffffffffffffffffffffffffffff160217905550808273ffffffffffffffffffffffffffffffffffffffff16600073ffffffffffffffffffffffffffffffffffffffff167fddf252ad1be2c89b69c2b068fc378daa952ba7f163c4a11628f55a4df523b3ef60405160405180910390a45050565b6000620003768473ffffffffffffffffffffffffffffffffffffffff166200057360201b62000c801760201c565b15620004f5578373ffffffffffffffffffffffffffffffffffffffff1663150b7a02620003a86200058660201b60201c565b8786866040518563ffffffff1660e01b8152600401620003cc94939291906200075f565b602060405180830381600087803b158015620003e757600080fd5b505af19250505080156200041b57506040513d601f19601f8201168201806040525081019062000418919062000655565b60015b620004a4573d80600081146200044e576040519150601f19603f3d011682016040523d82523d6000602084013e62000453565b606091505b506000815114156200049c576040517f08c379a00000000000000000000000000000000000000000000000000000000081526004016200049390620007b3565b60405180910390fd5b805181602001fd5b63150b7a0260e01b7bffffffffffffffffffffffffffffffffffffffffffffffffffffffff1916817bffffffffffffffffffffffffffffffffffffffffffffffffffffffff191614915050620004fa565b600190505b949350505050565b60008073ffffffffffffffffffffffffffffffffffffffff166002600084815260200190815260200160002060009054906101000a900473ffffffffffffffffffffffffffffffffffffffff1673ffffffffffffffffffffffffffffffffffffffff1614159050919050565b505050565b600080823b905060008111915050919050565b600033905090565b8280546200059c9062000943565b90600052602060002090601f016020900481019282620005c057600085556200060c565b82601f10620005db57805160ff19168380011785556200060c565b828001600101855582156200060c579182015b828111156200060b578251825591602001919060010190620005ee565b5b5090506200061b91906200061f565b5090565b5b808211156200063a57600081600090555060010162000620565b5090565b6000815190506200064f8162000a8e565b92915050565b6000602082840312156200066e576200066d620009d7565b5b60006200067e848285016200063e565b91505092915050565b6200069281620008a3565b82525050565b6000620006a58262000819565b620006b1818562000824565b9350620006c38185602086016200090d565b620006ce81620009dc565b840191505092915050565b6000620006e860328362000835565b9150620006f582620009ed565b604082019050919050565b60006200070f601c8362000835565b91506200071c8262000a3c565b602082019050919050565b60006200073660208362000835565b9150620007438262000a65565b602082019050919050565b620007598162000903565b82525050565b600060808201905062000776600083018762000687565b62000785602083018662000687565b6200079460408301856200074e565b8181036060830152620007a8818462000698565b905095945050505050565b60006020820190508181036000830152620007ce81620006d9565b9050919050565b60006020820190508181036000830152620007f08162000700565b9050919050565b60006020820190508181036000830152620008128162000727565b9050919050565b600081519050919050565b600082825260208201905092915050565b600082825260208201905092915050565b6000620008538262000903565b9150620008608362000903565b9250827fffffffffffffffffffffffffffffffffffffffffffffffffffffffffffffffff0382111562000898576200089762000979565b5b828201905092915050565b6000620008b082620008e3565b9050919050565b60007fffffffff0000000000000000000000000000000000000000000000000000000082169050919050565b600073ffffffffffffffffffffffffffffffffffffffff82169050919050565b6000819050919050565b60005b838110156200092d57808201518184015260208101905062000910565b838111156200093d576000848401525b50505050565b600060028204905060018216806200095c57607f821691505b60208210811415620009735762000972620009a8565b5b50919050565b7f4e487b7100000000000000000000000000000000000000000000000000000000600052601160045260246000fd5b7f4e487b7100000000000000000000000000000000000000000000000000000000600052602260045260246000fd5b600080fd5b6000601f19601f8301169050919050565b7f4552433732313a207472616e7366657220746f206e6f6e20455243373231526560008201527f63656976657220696d706c656d656e7465720000000000000000000000000000602082015250565b7f4552433732313a20746f6b656e20616c7265616479206d696e74656400000000600082015250565b7f4552433732313a206d696e7420746f20746865207a65726f2061646472657373600082015250565b62000a9981620008b7565b811462000aa557600080fd5b50565b6125918062000ab86000396000f3fe608060405234801561001057600080fd5b50600436106100f55760003560e01c80636352211e11610097578063b88d4fde11610066578063b88d4fde14610282578063c87b56dd1461029e578063d96a094a146102ce578063e985e9c5146102ea576100f5565b80636352211e146101e857806370a082311461021857806395d89b4114610248578063a22cb46514610266576100f5565b8063095ea7b3116100d3578063095ea7b31461017857806323b872dd146101945780634189a68e146101b057806342842e0e146101cc576100f5565b806301ffc9a7146100fa57806306fdde031461012a578063081812fc14610148575b600080fd5b610114600480360381019061010f9190611770565b61031a565b6040516101219190611b59565b60405180910390f35b6101326103fc565b60405161013f9190611b74565b60405180910390f35b610162600480360381019061015d91906117ca565b61048e565b60405161016f9190611af2565b60405180910390f35b610192600480360381019061018d9190611730565b610513565b005b6101ae60048036038101906101a9919061161a565b61062b565b005b6101ca60048036038101906101c591906117f7565b61068b565b005b6101e660048036038101906101e1919061161a565b6106e2565b005b61020260048036038101906101fd91906117ca565b610702565b60405161020f9190611af2565b60405180910390f35b610232600480360381019061022d91906115ad565b6107b4565b60405161023f9190611d36565b60405180910390f35b61025061086c565b60405161025d9190611b74565b60405180910390f35b610280600480360381019061027b91906116f0565b6108fe565b005b61029c6004803603810190610297919061166d565b610a7f565b005b6102b860048036038101906102b391906117ca565b610ae1565b6040516102c59190611b74565b60405180910390f35b6102e860048036038101906102e391906117ca565b610b88565b005b61030460048036038101906102ff91906115da565b610bec565b6040516103119190611b59565b60405180910390f35b60007f80ac58cd000000000000000000000000000000000000000000000000000000007bffffffffffffffffffffffffffffffffffffffffffffffffffffffff1916827bffffffffffffffffffffffffffffffffffffffffffffffffffffffff191614806103e557507f5b5e139f000000000000000000000000000000000000000000000000000000007bffffffffffffffffffffffffffffffffffffffffffffffffffffffff1916827bffffffffffffffffffffffffffffffffffffffffffffffffffffffff1916145b806103f557506103f482610c93565b5b9050919050565b60606000805461040b90611f5b565b80601f016020809104026020016040519081016040528092919081815260200182805461043790611f5b565b80156104845780601f1061045957610100808354040283529160200191610484565b820191906000526020600020905b81548152906001019060200180831161046757829003601f168201915b5050505050905090565b600061049982610cfd565b6104d8576040517f08c379a00000000000000000000000000000000000000000000000000000000081526004016104cf90611c96565b60405180910390fd5b6004600083815260200190815260200160002060009054906101000a900473ffffffffffffffffffffffffffffffffffffffff169050919050565b600061051e82610702565b90508073ffffffffffffffffffffffffffffffffffffffff168373ffffffffffffffffffffffffffffffffffffffff16141561058f576040517f08c379a000000000000000000000000000000000000000000000000000000000815260040161058690611cf6565b60405180910390fd5b8073ffffffffffffffffffffffffffffffffffffffff166105ae610d69565b73ffffffffffffffffffffffffffffffffffffffff1614806105dd57506105dc816105d7610d69565b610bec565b5b61061c576040517f08c379a000000000000000000000000000000000000000000000000000000000815260040161061390611c16565b60405180910390fd5b6106268383610d71565b505050565b61063c610636610d69565b82610e2a565b61067b576040517f08c379a000000000000000000000000000000000000000000000000000000000815260040161067290611d16565b60405180910390fd5b610686838383610f08565b505050565b61069482610cfd565b6106d3576040517f08c379a00000000000000000000000000000000000000000000000000000000081526004016106ca90611c76565b60405180910390fd5b6106de338284610f08565b5050565b6106fd83838360405180602001604052806000815250610a7f565b505050565b6000806002600084815260200190815260200160002060009054906101000a900473ffffffffffffffffffffffffffffffffffffffff169050600073ffffffffffffffffffffffffffffffffffffffff168173ffffffffffffffffffffffffffffffffffffffff1614156107ab576040517f08c379a00000000000000000000000000000000000000000000000000000000081526004016107a290611c56565b60405180910390fd5b80915050919050565b60008073ffffffffffffffffffffffffffffffffffffffff168273ffffffffffffffffffffffffffffffffffffffff161415610825576040517f08c379a000000000000000000000000000000000000000000000000000000000815260040161081c90611c36565b60405180910390fd5b600360008373ffffffffffffffffffffffffffffffffffffffff1673ffffffffffffffffffffffffffffffffffffffff168152602001908152602001600020549050919050565b60606001805461087b90611f5b565b80601f01602080910402602001604051908101604052809291908181526020018280546108a790611f5b565b80156108f45780601f106108c9576101008083540402835291602001916108f4565b820191906000526020600020905b8154815290600101906020018083116108d757829003601f168201915b5050505050905090565b610906610d69565b73ffffffffffffffffffffffffffffffffffffffff168273ffffffffffffffffffffffffffffffffffffffff161415610974576040517f08c379a000000000000000000000000000000000000000000000000000000000815260040161096b90611bd6565b60405180910390fd5b8060056000610981610d69565b73ffffffffffffffffffffffffffffffffffffffff1673ffffffffffffffffffffffffffffffffffffffff16815260200190815260200160002060008473ffffffffffffffffffffffffffffffffffffffff1673ffffffffffffffffffffffffffffffffffffffff16815260200190815260200160002060006101000a81548160ff0219169083151502179055508173ffffffffffffffffffffffffffffffffffffffff16610a2e610d69565b73ffffffffffffffffffffffffffffffffffffffff167f17307eab39ab6107e8899845ad3d59bd9653f200f220920489ca2b5937696c3183604051610a739190611b59565b60405180910390a35050565b610a90610a8a610d69565b83610e2a565b610acf576040517f08c379a0000000000000000000000000000000000000000000000000000000008152600401610ac690611d16565b60405180910390fd5b610adb84848484611164565b50505050565b6060610aec82610cfd565b610b2b576040517f08c379a0000000000000000000000000000000000000000000000000000000008152600401610b2290611cd6565b60405180910390fd5b6000610b356111c0565b90506000815111610b555760405180602001604052806000815250610b80565b80610b5f846111d7565b604051602001610b70929190611ace565b6040516020818303038152906040525b915050919050565b610b9181610cfd565b610bd0576040517f08c379a0000000000000000000000000000000000000000000000000000000008152600401610bc790611c76565b60405180910390fd5b6000610bdb82610702565b9050610be8813384610f08565b5050565b6000600560008473ffffffffffffffffffffffffffffffffffffffff1673ffffffffffffffffffffffffffffffffffffffff16815260200190815260200160002060008373ffffffffffffffffffffffffffffffffffffffff1673ffffffffffffffffffffffffffffffffffffffff16815260200190815260200160002060009054906101000a900460ff16905092915050565b600080823b905060008111915050919050565b60007f01ffc9a7000000000000000000000000000000000000000000000000000000007bffffffffffffffffffffffffffffffffffffffffffffffffffffffff1916827bffffffffffffffffffffffffffffffffffffffffffffffffffffffff1916149050919050565b60008073ffffffffffffffffffffffffffffffffffffffff166002600084815260200190815260200160002060009054906101000a900473ffffffffffffffffffffffffffffffffffffffff1673ffffffffffffffffffffffffffffffffffffffff1614159050919050565b600033905090565b816004600083815260200190815260200160002060006101000a81548173ffffffffffffffffffffffffffffffffffffffff021916908373ffffffffffffffffffffffffffffffffffffffff160217905550808273ffffffffffffffffffffffffffffffffffffffff16610de483610702565b73ffffffffffffffffffffffffffffffffffffffff167f8c5be1e5ebec7d5bd14f71427d1e84f3dd0314c0f7b2291e5b200ac8c7c3b92560405160405180910390a45050565b6000610e3582610cfd565b610e74576040517f08c379a0000000000000000000000000000000000000000000000000000000008152600401610e6b90611bf6565b60405180910390fd5b6000610e7f83610702565b90508073ffffffffffffffffffffffffffffffffffffffff168473ffffffffffffffffffffffffffffffffffffffff161480610eee57508373ffffffffffffffffffffffffffffffffffffffff16610ed68461048e565b73ffffffffffffffffffffffffffffffffffffffff16145b80610eff5750610efe8185610bec565b5b91505092915050565b8273ffffffffffffffffffffffffffffffffffffffff16610f2882610702565b73ffffffffffffffffffffffffffffffffffffffff1614610f7e576040517f08c379a0000000000000000000000000000000000000000000000000000000008152600401610f7590611cb6565b60405180910390fd5b600073ffffffffffffffffffffffffffffffffffffffff168273ffffffffffffffffffffffffffffffffffffffff161415610fee576040517f08c379a0000000000000000000000000000000000000000000000000000000008152600401610fe590611bb6565b60405180910390fd5b610ff9838383611338565b611004600082610d71565b6001600360008573ffffffffffffffffffffffffffffffffffffffff1673ffffffffffffffffffffffffffffffffffffffff16815260200190815260200160002060008282546110549190611e71565b925050819055506001600360008473ffffffffffffffffffffffffffffffffffffffff1673ffffffffffffffffffffffffffffffffffffffff16815260200190815260200160002060008282546110ab9190611dea565b92505081905550816002600083815260200190815260200160002060006101000a81548173ffffffffffffffffffffffffffffffffffffffff021916908373ffffffffffffffffffffffffffffffffffffffff160217905550808273ffffffffffffffffffffffffffffffffffffffff168473ffffffffffffffffffffffffffffffffffffffff167fddf252ad1be2c89b69c2b068fc378daa952ba7f163c4a11628f55a4df523b3ef60405160405180910390a4505050565b61116f848484610f08565b61117b8484848461133d565b6111ba576040517f08c379a00000000000000000000000000000000000000000000000000000000081526004016111b190611b96565b60405180910390fd5b50505050565b606060405180602001604052806000815250905090565b6060600082141561121f576040518060400160405280600181526020017f30000000000000000000000000000000000000000000000000000000000000008152509050611333565b600082905060005b6000821461125157808061123a90611fbe565b915050600a8261124a9190611e40565b9150611227565b60008167ffffffffffffffff81111561126d5761126c6120f4565b5b6040519080825280601f01601f19166020018201604052801561129f5781602001600182028036833780820191505090505b5090505b6000851461132c576001826112b89190611e71565b9150600a856112c79190612007565b60306112d39190611dea565b60f81b8183815181106112e9576112e86120c5565b5b60200101907effffffffffffffffffffffffffffffffffffffffffffffffffffffffffffff1916908160001a905350600a856113259190611e40565b94506112a3565b8093505050505b919050565b505050565b600061135e8473ffffffffffffffffffffffffffffffffffffffff16610c80565b156114c7578373ffffffffffffffffffffffffffffffffffffffff1663150b7a02611387610d69565b8786866040518563ffffffff1660e01b81526004016113a99493929190611b0d565b602060405180830381600087803b1580156113c357600080fd5b505af19250505080156113f457506040513d601f19601f820116820180604052508101906113f1919061179d565b60015b611477573d8060008114611424576040519150601f19603f3d011682016040523d82523d6000602084013e611429565b606091505b5060008151141561146f576040517f08c379a000000000000000000000000000000000000000000000000000000000815260040161146690611b96565b60405180910390fd5b805181602001fd5b63150b7a0260e01b7bffffffffffffffffffffffffffffffffffffffffffffffffffffffff1916817bffffffffffffffffffffffffffffffffffffffffffffffffffffffff1916149150506114cc565b600190505b949350505050565b60006114e76114e284611d76565b611d51565b90508281526020810184848401111561150357611502612128565b5b61150e848285611f19565b509392505050565b600081359050611525816124ff565b92915050565b60008135905061153a81612516565b92915050565b60008135905061154f8161252d565b92915050565b6000815190506115648161252d565b92915050565b600082601f83011261157f5761157e612123565b5b813561158f8482602086016114d4565b91505092915050565b6000813590506115a781612544565b92915050565b6000602082840312156115c3576115c2612132565b5b60006115d184828501611516565b91505092915050565b600080604083850312156115f1576115f0612132565b5b60006115ff85828601611516565b925050602061161085828601611516565b9150509250929050565b60008060006060848603121561163357611632612132565b5b600061164186828701611516565b935050602061165286828701611516565b925050604061166386828701611598565b9150509250925092565b6000806000806080858703121561168757611686612132565b5b600061169587828801611516565b94505060206116a687828801611516565b93505060406116b787828801611598565b925050606085013567ffffffffffffffff8111156116d8576116d761212d565b5b6116e48782880161156a565b91505092959194509250565b6000806040838503121561170757611706612132565b5b600061171585828601611516565b92505060206117268582860161152b565b9150509250929050565b6000806040838503121561174757611746612132565b5b600061175585828601611516565b925050602061176685828601611598565b9150509250929050565b60006020828403121561178657611785612132565b5b600061179484828501611540565b91505092915050565b6000602082840312156117b3576117b2612132565b5b60006117c184828501611555565b91505092915050565b6000602082840312156117e0576117df612132565b5b60006117ee84828501611598565b91505092915050565b6000806040838503121561180e5761180d612132565b5b600061181c85828601611598565b925050602061182d85828601611516565b9150509250929050565b61184081611ea5565b82525050565b61184f81611eb7565b82525050565b600061186082611da7565b61186a8185611dbd565b935061187a818560208601611f28565b61188381612137565b840191505092915050565b600061189982611db2565b6118a38185611dce565b93506118b3818560208601611f28565b6118bc81612137565b840191505092915050565b60006118d282611db2565b6118dc8185611ddf565b93506118ec818560208601611f28565b80840191505092915050565b6000611905603283611dce565b915061191082612148565b604082019050919050565b6000611928602483611dce565b915061193382612197565b604082019050919050565b600061194b601983611dce565b9150611956826121e6565b602082019050919050565b600061196e602c83611dce565b91506119798261220f565b604082019050919050565b6000611991603883611dce565b915061199c8261225e565b604082019050919050565b60006119b4602a83611dce565b91506119bf826122ad565b604082019050919050565b60006119d7602983611dce565b91506119e2826122fc565b604082019050919050565b60006119fa601783611dce565b9150611a058261234b565b602082019050919050565b6000611a1d602c83611dce565b9150611a2882612374565b604082019050919050565b6000611a40602983611dce565b9150611a4b826123c3565b604082019050919050565b6000611a63602f83611dce565b9150611a6e82612412565b604082019050919050565b6000611a86602183611dce565b9150611a9182612461565b604082019050919050565b6000611aa9603183611dce565b9150611ab4826124b0565b604082019050919050565b611ac881611f0f565b82525050565b6000611ada82856118c7565b9150611ae682846118c7565b91508190509392505050565b6000602082019050611b076000830184611837565b92915050565b6000608082019050611b226000830187611837565b611b2f6020830186611837565b611b3c6040830185611abf565b8181036060830152611b4e8184611855565b905095945050505050565b6000602082019050611b6e6000830184611846565b92915050565b60006020820190508181036000830152611b8e818461188e565b905092915050565b60006020820190508181036000830152611baf816118f8565b9050919050565b60006020820190508181036000830152611bcf8161191b565b9050919050565b60006020820190508181036000830152611bef8161193e565b9050919050565b60006020820190508181036000830152611c0f81611961565b9050919050565b60006020820190508181036000830152611c2f81611984565b9050919050565b60006020820190508181036000830152611c4f816119a7565b9050919050565b60006020820190508181036000830152611c6f816119ca565b9050919050565b60006020820190508181036000830152611c8f816119ed565b9050919050565b60006020820190508181036000830152611caf81611a10565b9050919050565b60006020820190508181036000830152611ccf81611a33565b9050919050565b60006020820190508181036000830152611cef81611a56565b9050919050565b60006020820190508181036000830152611d0f81611a79565b9050919050565b60006020820190508181036000830152611d2f81611a9c565b9050919050565b6000602082019050611d4b6000830184611abf565b92915050565b6000611d5b611d6c565b9050611d678282611f8d565b919050565b6000604051905090565b600067ffffffffffffffff821115611d9157611d906120f4565b5b611d9a82612137565b9050602081019050919050565b600081519050919050565b600081519050919050565b600082825260208201905092915050565b600082825260208201905092915050565b600081905092915050565b6000611df582611f0f565b9150611e0083611f0f565b9250827fffffffffffffffffffffffffffffffffffffffffffffffffffffffffffffffff03821115611e3557611e34612038565b5b828201905092915050565b6000611e4b82611f0f565b9150611e5683611f0f565b925082611e6657611e65612067565b5b828204905092915050565b6000611e7c82611f0f565b9150611e8783611f0f565b925082821015611e9a57611e99612038565b5b828203905092915050565b6000611eb082611eef565b9050919050565b60008115159050919050565b60007fffffffff0000000000000000000000000000000000000000000000000000000082169050919050565b600073ffffffffffffffffffffffffffffffffffffffff82169050919050565b6000819050919050565b82818337600083830152505050565b60005b83811015611f46578082015181840152602081019050611f2b565b83811115611f55576000848401525b50505050565b60006002820490506001821680611f7357607f821691505b60208210811415611f8757611f86612096565b5b50919050565b611f9682612137565b810181811067ffffffffffffffff82111715611fb557611fb46120f4565b5b80604052505050565b6000611fc982611f0f565b91507fffffffffffffffffffffffffffffffffffffffffffffffffffffffffffffffff821415611ffc57611ffb612038565b5b600182019050919050565b600061201282611f0f565b915061201d83611f0f565b92508261202d5761202c612067565b5b828206905092915050565b7f4e487b7100000000000000000000000000000000000000000000000000000000600052601160045260246000fd5b7f4e487b7100000000000000000000000000000000000000000000000000000000600052601260045260246000fd5b7f4e487b7100000000000000000000000000000000000000000000000000000000600052602260045260246000fd5b7f4e487b7100000000000000000000000000000000000000000000000000000000600052603260045260246000fd5b7f4e487b7100000000000000000000000000000000000000000000000000000000600052604160045260246000fd5b600080fd5b600080fd5b600080fd5b600080fd5b6000601f19601f8301169050919050565b7f4552433732313a207472616e7366657220746f206e6f6e20455243373231526560008201527f63656976657220696d706c656d656e7465720000000000000000000000000000602082015250565b7f4552433732313a207472616e7366657220746f20746865207a65726f2061646460008201527f7265737300000000000000000000000000000000000000000000000000000000602082015250565b7f4552433732313a20617070726f766520746f2063616c6c657200000000000000600082015250565b7f4552433732313a206f70657261746f7220717565727920666f72206e6f6e657860008201527f697374656e7420746f6b656e0000000000000000000000000000000000000000602082015250565b7f4552433732313a20617070726f76652063616c6c6572206973206e6f74206f7760008201527f6e6572206e6f7220617070726f76656420666f7220616c6c0000000000000000602082015250565b7f4552433732313a2062616c616e636520717565727920666f7220746865207a6560008201527f726f206164647265737300000000000000000000000000000000000000000000602082015250565b7f4552433732313a206f776e657220717565727920666f72206e6f6e657869737460008201527f656e7420746f6b656e0000000000000000000000000000000000000000000000602082015250565b7f546f6b656e496420646f6573206e6f742065786973742e000000000000000000600082015250565b7f4552433732313a20617070726f76656420717565727920666f72206e6f6e657860008201527f697374656e7420746f6b656e0000000000000000000000000000000000000000602082015250565b7f4552433732313a207472616e73666572206f6620746f6b656e2074686174206960008201527f73206e6f74206f776e0000000000000000000000000000000000000000000000602082015250565b7f4552433732314d657461646174613a2055524920717565727920666f72206e6f60008201527f6e6578697374656e7420746f6b656e0000000000000000000000000000000000602082015250565b7f4552433732313a20617070726f76616c20746f2063757272656e74206f776e6560008201527f7200000000000000000000000000000000000000000000000000000000000000602082015250565b7f4552433732313a207472616e736665722063616c6c6572206973206e6f74206f60008201527f776e6572206e6f7220617070726f766564000000000000000000000000000000602082015250565b61250881611ea5565b811461251357600080fd5b50565b61251f81611eb7565b811461252a57600080fd5b50565b61253681611ec3565b811461254157600080fd5b50565b61254d81611f0f565b811461255857600080fd5b5056fea2646970667358221220f87a27888a318c36e0745208ae301ebad8db8450e1e462ff99ee41e97fbf2ded64736f6c63430008060033",
  "immutableReferences": {},
  "source": "// SPDX-License-Identifier: MIT\n\npragma solidity >=0.4.22 <0.9.0;\n\nimport \"./token/ERC721/ERC721.sol\";\n\ncontract BUVMarket is ERC721('Blockchain Ultra-Ventures NFT', 'BUVNFT') {\n\n    constructor() {\n        _safeMint(msg.sender, 2000000000);\n    }\n\n    function buy(uint256 tokenId) public {\n        require(_exists(tokenId), \"TokenId does not exist.\");\n        address from = ownerOf(tokenId);\n        _transfer(from, msg.sender, tokenId);  \n    }\n\n    function sell(uint256 tokenId, address to) public {\n        require(_exists(tokenId), \"TokenId does not exist.\");\n        _transfer(msg.sender, to, tokenId);\n    }\n}",
  "sourcePath": "/home/sandeep/NFT_Market/contracts/BUVMarket.sol",
  "compiler": {
    "name": "solc",
    "version": "0.8.6+commit.11564f7e.Emscripten.clang"
  },
  "schemaVersion": "3.4.1",
  "updatedAt": "2021-07-13T20:24:35.772Z",
  "networkType": "ethereum",
  "devdoc": {
    "kind": "dev",
    "methods": {
      "approve(address,uint256)": {
        "details": "See {IERC721-approve}."
      },
      "balanceOf(address)": {
        "details": "See {IERC721-balanceOf}."
      },
      "getApproved(uint256)": {
        "details": "See {IERC721-getApproved}."
      },
      "isApprovedForAll(address,address)": {
        "details": "See {IERC721-isApprovedForAll}."
      },
      "name()": {
        "details": "See {IERC721Metadata-name}."
      },
      "ownerOf(uint256)": {
        "details": "See {IERC721-ownerOf}."
      },
      "safeTransferFrom(address,address,uint256)": {
        "details": "See {IERC721-safeTransferFrom}."
      },
      "safeTransferFrom(address,address,uint256,bytes)": {
        "details": "See {IERC721-safeTransferFrom}."
      },
      "setApprovalForAll(address,bool)": {
        "details": "See {IERC721-setApprovalForAll}."
      },
      "supportsInterface(bytes4)": {
        "details": "See {IERC165-supportsInterface}."
      },
      "symbol()": {
        "details": "See {IERC721Metadata-symbol}."
      },
      "tokenURI(uint256)": {
        "details": "See {IERC721Metadata-tokenURI}."
      },
      "transferFrom(address,address,uint256)": {
        "details": "See {IERC721-transferFrom}."
      }
    },
    "version": 1
  },
  "userdoc": {
    "kind": "user",
    "methods": {},
    "version": 1
  }
}