{
  "contractName": "ClashingImplementation",
  "abi": [
    {
      "inputs": [],
      "name": "admin",
      "outputs": [
        {
          "internalType": "address",
          "name": "",
          "type": "address"
        }
      ],
      "stateMutability": "pure",
      "type": "function"
    },
    {
      "inputs": [],
      "name": "delegatedFunction",
      "outputs": [
        {
          "internalType": "bool",
          "name": "",
          "type": "bool"
        }
      ],
      "stateMutability": "pure",
      "type": "function"
    }
  ],
  "bytecode": "0x608060405234801561001057600080fd5b50610154806100206000396000f3fe608060405234801561001057600080fd5b50600436106100365760003560e01c8063abf8e0e71461003b578063f851a44014610059575b600080fd5b610043610077565b60405161005091906100c5565b60405180910390f35b610061610080565b60405161006e91906100aa565b60405180910390f35b60006001905090565b60006311111142905090565b610095816100e0565b82525050565b6100a4816100f2565b82525050565b60006020820190506100bf600083018461008c565b92915050565b60006020820190506100da600083018461009b565b92915050565b60006100eb826100fe565b9050919050565b60008115159050919050565b600073ffffffffffffffffffffffffffffffffffffffff8216905091905056fea264697066735822122095d80c25a9ceb17ba00c552c8ba2326f41b12e0654f12e205638c2da12e869dc64736f6c63430008060033",
  "immutableReferences": {},
  "source": "// SPDX-License-Identifier: MIT\n\npragma solidity ^0.8.0;\n\n/**\n * @dev Implementation contract with an admin() function made to clash with\n * @dev TransparentUpgradeableProxy's to test correct functioning of the\n * @dev Transparent Proxy feature.\n */\ncontract ClashingImplementation {\n    function admin() external pure returns (address) {\n        return 0x0000000000000000000000000000000011111142;\n    }\n\n    function delegatedFunction() external pure returns (bool) {\n        return true;\n    }\n}\n",
  "sourcePath": "/home/sandeep/NFT_Market/contracts/mocks/ClashingImplementation.sol",
  "compiler": {
    "name": "solc",
    "version": "0.8.6+commit.11564f7e.Emscripten.clang"
  },
  "schemaVersion": "3.4.1",
  "updatedAt": "2021-07-13T14:33:10.108Z",
  "devdoc": {
    "details": "Implementation contract with an admin() function made to clash withTransparentUpgradeableProxy's to test correct functioning of theTransparent Proxy feature.",
    "kind": "dev",
    "methods": {},
    "version": 1
  },
  "userdoc": {
    "kind": "user",
    "methods": {},
    "version": 1
  }
}