{
  "contractName": "ConditionalEscrowMock",
  "abi": [
    {
      "anonymous": false,
      "inputs": [
        {
          "indexed": true,
          "internalType": "address",
          "name": "payee",
          "type": "address"
        },
        {
          "indexed": false,
          "internalType": "uint256",
          "name": "weiAmount",
          "type": "uint256"
        }
      ],
      "name": "Deposited",
      "type": "event"
    },
    {
      "anonymous": false,
      "inputs": [
        {
          "indexed": true,
          "internalType": "address",
          "name": "previousOwner",
          "type": "address"
        },
        {
          "indexed": true,
          "internalType": "address",
          "name": "newOwner",
          "type": "address"
        }
      ],
      "name": "OwnershipTransferred",
      "type": "event"
    },
    {
      "anonymous": false,
      "inputs": [
        {
          "indexed": true,
          "internalType": "address",
          "name": "payee",
          "type": "address"
        },
        {
          "indexed": false,
          "internalType": "uint256",
          "name": "weiAmount",
          "type": "uint256"
        }
      ],
      "name": "Withdrawn",
      "type": "event"
    },
    {
      "inputs": [
        {
          "internalType": "address",
          "name": "payee",
          "type": "address"
        }
      ],
      "name": "deposit",
      "outputs": [],
      "stateMutability": "payable",
      "type": "function"
    },
    {
      "inputs": [
        {
          "internalType": "address",
          "name": "payee",
          "type": "address"
        }
      ],
      "name": "depositsOf",
      "outputs": [
        {
          "internalType": "uint256",
          "name": "",
          "type": "uint256"
        }
      ],
      "stateMutability": "view",
      "type": "function"
    },
    {
      "inputs": [],
      "name": "owner",
      "outputs": [
        {
          "internalType": "address",
          "name": "",
          "type": "address"
        }
      ],
      "stateMutability": "view",
      "type": "function"
    },
    {
      "inputs": [],
      "name": "renounceOwnership",
      "outputs": [],
      "stateMutability": "nonpayable",
      "type": "function"
    },
    {
      "inputs": [
        {
          "internalType": "address",
          "name": "newOwner",
          "type": "address"
        }
      ],
      "name": "transferOwnership",
      "outputs": [],
      "stateMutability": "nonpayable",
      "type": "function"
    },
    {
      "inputs": [
        {
          "internalType": "address payable",
          "name": "payee",
          "type": "address"
        }
      ],
      "name": "withdraw",
      "outputs": [],
      "stateMutability": "nonpayable",
      "type": "function"
    },
    {
      "inputs": [
        {
          "internalType": "address",
          "name": "payee",
          "type": "address"
        },
        {
          "internalType": "bool",
          "name": "allowed",
          "type": "bool"
        }
      ],
      "name": "setAllowed",
      "outputs": [],
      "stateMutability": "nonpayable",
      "type": "function"
    },
    {
      "inputs": [
        {
          "internalType": "address",
          "name": "payee",
          "type": "address"
        }
      ],
      "name": "withdrawalAllowed",
      "outputs": [
        {
          "internalType": "bool",
          "name": "",
          "type": "bool"
        }
      ],
      "stateMutability": "view",
      "type": "function"
    }
  ],
  "bytecode": "0x608060405234801561001057600080fd5b5061002d61002261003260201b60201c565b61003a60201b60201c565b6100fe565b600033905090565b60008060009054906101000a900473ffffffffffffffffffffffffffffffffffffffff169050816000806101000a81548173ffffffffffffffffffffffffffffffffffffffff021916908373ffffffffffffffffffffffffffffffffffffffff1602179055508173ffffffffffffffffffffffffffffffffffffffff168173ffffffffffffffffffffffffffffffffffffffff167f8be0079c531659141344cd1fd0a4f28419497f9722a3daafe3b4186f6b6457e060405160405180910390a35050565b610ece8061010d6000396000f3fe60806040526004361061007b5760003560e01c80638da5cb5b1161004e5780638da5cb5b14610126578063e3a9db1a14610151578063f2fde38b1461018e578063f340fa01146101b75761007b565b80634697f05d1461008057806351cff8d9146100a9578063685ca194146100d2578063715018a61461010f575b600080fd5b34801561008c57600080fd5b506100a760048036038101906100a291906109cc565b6101d3565b005b3480156100b557600080fd5b506100d060048036038101906100cb919061099f565b61022e565b005b3480156100de57600080fd5b506100f960048036038101906100f49190610972565b610282565b6040516101069190610b3b565b60405180910390f35b34801561011b57600080fd5b506101246102d8565b005b34801561013257600080fd5b5061013b610360565b6040516101489190610b20565b60405180910390f35b34801561015d57600080fd5b5061017860048036038101906101739190610972565b610389565b6040516101859190610bf6565b60405180910390f35b34801561019a57600080fd5b506101b560048036038101906101b09190610972565b6103d2565b005b6101d160048036038101906101cc9190610972565b6104ca565b005b80600260008473ffffffffffffffffffffffffffffffffffffffff1673ffffffffffffffffffffffffffffffffffffffff16815260200190815260200160002060006101000a81548160ff0219169083151502179055505050565b61023781610282565b610276576040517f08c379a000000000000000000000000000000000000000000000000000000000815260040161026d90610bb6565b60405180910390fd5b61027f816105f3565b50565b6000600260008373ffffffffffffffffffffffffffffffffffffffff1673ffffffffffffffffffffffffffffffffffffffff16815260200190815260200160002060009054906101000a900460ff169050919050565b6102e0610773565b73ffffffffffffffffffffffffffffffffffffffff166102fe610360565b73ffffffffffffffffffffffffffffffffffffffff1614610354576040517f08c379a000000000000000000000000000000000000000000000000000000000815260040161034b90610bd6565b60405180910390fd5b61035e600061077b565b565b60008060009054906101000a900473ffffffffffffffffffffffffffffffffffffffff16905090565b6000600160008373ffffffffffffffffffffffffffffffffffffffff1673ffffffffffffffffffffffffffffffffffffffff168152602001908152602001600020549050919050565b6103da610773565b73ffffffffffffffffffffffffffffffffffffffff166103f8610360565b73ffffffffffffffffffffffffffffffffffffffff161461044e576040517f08c379a000000000000000000000000000000000000000000000000000000000815260040161044590610bd6565b60405180910390fd5b600073ffffffffffffffffffffffffffffffffffffffff168173ffffffffffffffffffffffffffffffffffffffff1614156104be576040517f08c379a00000000000000000000000000000000000000000000000000000000081526004016104b590610b56565b60405180910390fd5b6104c78161077b565b50565b6104d2610773565b73ffffffffffffffffffffffffffffffffffffffff166104f0610360565b73ffffffffffffffffffffffffffffffffffffffff1614610546576040517f08c379a000000000000000000000000000000000000000000000000000000000815260040161053d90610bd6565b60405180910390fd5b600034905080600160008473ffffffffffffffffffffffffffffffffffffffff1673ffffffffffffffffffffffffffffffffffffffff168152602001908152602001600020600082825461059a9190610c2d565b925050819055508173ffffffffffffffffffffffffffffffffffffffff167f2da466a7b24304f47e87fa2e1e5a81b9831ce54fec19055ce277ca2f39ba42c4826040516105e79190610bf6565b60405180910390a25050565b6105fb610773565b73ffffffffffffffffffffffffffffffffffffffff16610619610360565b73ffffffffffffffffffffffffffffffffffffffff161461066f576040517f08c379a000000000000000000000000000000000000000000000000000000000815260040161066690610bd6565b60405180910390fd5b6000600160008373ffffffffffffffffffffffffffffffffffffffff1673ffffffffffffffffffffffffffffffffffffffff1681526020019081526020016000205490506000600160008473ffffffffffffffffffffffffffffffffffffffff1673ffffffffffffffffffffffffffffffffffffffff16815260200190815260200160002081905550610721818373ffffffffffffffffffffffffffffffffffffffff1661083f90919063ffffffff16565b8173ffffffffffffffffffffffffffffffffffffffff167f7084f5476618d8e60b11ef0d7d3f06914655adb8793e28ff7f018d4c76d505d5826040516107679190610bf6565b60405180910390a25050565b600033905090565b60008060009054906101000a900473ffffffffffffffffffffffffffffffffffffffff169050816000806101000a81548173ffffffffffffffffffffffffffffffffffffffff021916908373ffffffffffffffffffffffffffffffffffffffff1602179055508173ffffffffffffffffffffffffffffffffffffffff168173ffffffffffffffffffffffffffffffffffffffff167f8be0079c531659141344cd1fd0a4f28419497f9722a3daafe3b4186f6b6457e060405160405180910390a35050565b80471015610882576040517f08c379a000000000000000000000000000000000000000000000000000000000815260040161087990610b96565b60405180910390fd5b60008273ffffffffffffffffffffffffffffffffffffffff16826040516108a890610b0b565b60006040518083038185875af1925050503d80600081146108e5576040519150601f19603f3d011682016040523d82523d6000602084013e6108ea565b606091505b505090508061092e576040517f08c379a000000000000000000000000000000000000000000000000000000000815260040161092590610b76565b60405180910390fd5b505050565b60008135905061094281610e53565b92915050565b60008135905061095781610e6a565b92915050565b60008135905061096c81610e81565b92915050565b60006020828403121561098857610987610d0c565b5b600061099684828501610933565b91505092915050565b6000602082840312156109b5576109b4610d0c565b5b60006109c384828501610948565b91505092915050565b600080604083850312156109e3576109e2610d0c565b5b60006109f185828601610933565b9250506020610a028582860161095d565b9150509250929050565b610a1581610c83565b82525050565b610a2481610ca7565b82525050565b6000610a37602683610c1c565b9150610a4282610d11565b604082019050919050565b6000610a5a603a83610c1c565b9150610a6582610d60565b604082019050919050565b6000610a7d601d83610c1c565b9150610a8882610daf565b602082019050919050565b6000610aa0603383610c1c565b9150610aab82610dd8565b604082019050919050565b6000610ac3602083610c1c565b9150610ace82610e27565b602082019050919050565b6000610ae6600083610c11565b9150610af182610e50565b600082019050919050565b610b0581610cd3565b82525050565b6000610b1682610ad9565b9150819050919050565b6000602082019050610b356000830184610a0c565b92915050565b6000602082019050610b506000830184610a1b565b92915050565b60006020820190508181036000830152610b6f81610a2a565b9050919050565b60006020820190508181036000830152610b8f81610a4d565b9050919050565b60006020820190508181036000830152610baf81610a70565b9050919050565b60006020820190508181036000830152610bcf81610a93565b9050919050565b60006020820190508181036000830152610bef81610ab6565b9050919050565b6000602082019050610c0b6000830184610afc565b92915050565b600081905092915050565b600082825260208201905092915050565b6000610c3882610cd3565b9150610c4383610cd3565b9250827fffffffffffffffffffffffffffffffffffffffffffffffffffffffffffffffff03821115610c7857610c77610cdd565b5b828201905092915050565b6000610c8e82610cb3565b9050919050565b6000610ca082610cb3565b9050919050565b60008115159050919050565b600073ffffffffffffffffffffffffffffffffffffffff82169050919050565b6000819050919050565b7f4e487b7100000000000000000000000000000000000000000000000000000000600052601160045260246000fd5b600080fd5b7f4f776e61626c653a206e6577206f776e657220697320746865207a65726f206160008201527f6464726573730000000000000000000000000000000000000000000000000000602082015250565b7f416464726573733a20756e61626c6520746f2073656e642076616c75652c207260008201527f6563697069656e74206d61792068617665207265766572746564000000000000602082015250565b7f416464726573733a20696e73756666696369656e742062616c616e6365000000600082015250565b7f436f6e646974696f6e616c457363726f773a207061796565206973206e6f742060008201527f616c6c6f77656420746f20776974686472617700000000000000000000000000602082015250565b7f4f776e61626c653a2063616c6c6572206973206e6f7420746865206f776e6572600082015250565b50565b610e5c81610c83565b8114610e6757600080fd5b50565b610e7381610c95565b8114610e7e57600080fd5b50565b610e8a81610ca7565b8114610e9557600080fd5b5056fea26469706673582212209c09ad92b88cd91b941151e5249e20f138d5c7d5f8b3211996aadca4606556cb64736f6c63430008060033",
  "immutableReferences": {},
  "source": "// SPDX-License-Identifier: MIT\n\npragma solidity ^0.8.0;\n\nimport \"../utils/escrow/ConditionalEscrow.sol\";\n\n// mock class using ConditionalEscrow\ncontract ConditionalEscrowMock is ConditionalEscrow {\n    mapping(address => bool) private _allowed;\n\n    function setAllowed(address payee, bool allowed) public {\n        _allowed[payee] = allowed;\n    }\n\n    function withdrawalAllowed(address payee) public view override returns (bool) {\n        return _allowed[payee];\n    }\n}\n",
  "sourcePath": "/home/sandeep/NFT_Market/contracts/mocks/ConditionalEscrowMock.sol",
  "compiler": {
    "name": "solc",
    "version": "0.8.6+commit.11564f7e.Emscripten.clang"
  },
  "schemaVersion": "3.4.1",
  "updatedAt": "2021-07-13T14:33:10.118Z",
  "devdoc": {
    "kind": "dev",
    "methods": {
      "deposit(address)": {
        "details": "Stores the sent amount as credit to be withdrawn.",
        "params": {
          "payee": "The destination address of the funds."
        }
      },
      "owner()": {
        "details": "Returns the address of the current owner."
      },
      "renounceOwnership()": {
        "details": "Leaves the contract without owner. It will not be possible to call `onlyOwner` functions anymore. Can only be called by the current owner. NOTE: Renouncing ownership will leave the contract without an owner, thereby removing any functionality that is only available to the owner."
      },
      "transferOwnership(address)": {
        "details": "Transfers ownership of the contract to a new account (`newOwner`). Can only be called by the current owner."
      },
      "withdraw(address)": {
        "details": "Withdraw accumulated balance for a payee, forwarding all gas to the recipient. WARNING: Forwarding all gas opens the door to reentrancy vulnerabilities. Make sure you trust the recipient, or are either following the checks-effects-interactions pattern or using {ReentrancyGuard}.",
        "params": {
          "payee": "The address whose funds will be withdrawn and transferred to."
        }
      },
      "withdrawalAllowed(address)": {
        "details": "Returns whether an address is allowed to withdraw their funds. To be implemented by derived contracts.",
        "params": {
          "payee": "The destination address of the funds."
        }
      }
    },
    "version": 1
  },
  "userdoc": {
    "kind": "user",
    "methods": {},
    "version": 1
  }
}