{
  "contractName": "ECDSAMock",
  "abi": [
    {
      "inputs": [
        {
          "internalType": "bytes32",
          "name": "hash",
          "type": "bytes32"
        },
        {
          "internalType": "bytes",
          "name": "signature",
          "type": "bytes"
        }
      ],
      "name": "recover",
      "outputs": [
        {
          "internalType": "address",
          "name": "",
          "type": "address"
        }
      ],
      "stateMutability": "pure",
      "type": "function"
    },
    {
      "inputs": [
        {
          "internalType": "bytes32",
          "name": "hash",
          "type": "bytes32"
        }
      ],
      "name": "toEthSignedMessageHash",
      "outputs": [
        {
          "internalType": "bytes32",
          "name": "",
          "type": "bytes32"
        }
      ],
      "stateMutability": "pure",
      "type": "function"
    }
  ],
  "bytecode": "0x608060405234801561001057600080fd5b5061095f806100206000396000f3fe608060405234801561001057600080fd5b50600436106100365760003560e01c806319045a251461003b578063918a15cf1461006b575b600080fd5b61005560048036038101906100509190610430565b61009b565b60405161006291906105a5565b60405180910390f35b61008560048036038101906100809190610403565b6100b8565b60405161009291906105c0565b60405180910390f35b60006100b082846100ca90919063ffffffff16565b905092915050565b60006100c382610179565b9050919050565b60006041825114156101095760008060006020850151925060408501519150606085015160001a90506100ff868285856101a9565b9350505050610173565b60408251141561013857600080602084015191506040840151905061012f858383610334565b92505050610173565b6040517f08c379a000000000000000000000000000000000000000000000000000000000815260040161016a90610640565b60405180910390fd5b92915050565b60008160405160200161018c919061057f565b604051602081830303815290604052805190602001209050919050565b60007f7fffffffffffffffffffffffffffffff5d576e7357a4501ddfe92f46681b20a08260001c1115610211576040517f08c379a000000000000000000000000000000000000000000000000000000000815260040161020890610660565b60405180910390fd5b601b8460ff1614806102265750601c8460ff16145b610265576040517f08c379a000000000000000000000000000000000000000000000000000000000815260040161025c90610680565b60405180910390fd5b60006001868686866040516000815260200160405260405161028a94939291906105db565b6020604051602081039080840390855afa1580156102ac573d6000803e3d6000fd5b505050602060405103519050600073ffffffffffffffffffffffffffffffffffffffff168173ffffffffffffffffffffffffffffffffffffffff161415610328576040517f08c379a000000000000000000000000000000000000000000000000000000000815260040161031f90610620565b60405180910390fd5b80915050949350505050565b60008060007f7fffffffffffffffffffffffffffffffffffffffffffffffffffffffffffffff84169150601b8460ff1c019050610373868287856101a9565b925050509392505050565b600061039161038c846106c5565b6106a0565b9050828152602081018484840111156103ad576103ac6107d9565b5b6103b884828561075b565b509392505050565b6000813590506103cf81610912565b92915050565b600082601f8301126103ea576103e96107d4565b5b81356103fa84826020860161037e565b91505092915050565b600060208284031215610419576104186107e3565b5b6000610427848285016103c0565b91505092915050565b60008060408385031215610447576104466107e3565b5b6000610455858286016103c0565b925050602083013567ffffffffffffffff811115610476576104756107de565b5b610482858286016103d5565b9150509250929050565b61049581610712565b82525050565b6104a481610724565b82525050565b6104bb6104b682610724565b61079b565b82525050565b60006104ce6018836106f6565b91506104d9826107f9565b602082019050919050565b60006104f1601f836106f6565b91506104fc82610822565b602082019050919050565b6000610514601c83610707565b915061051f8261084b565b601c82019050919050565b60006105376022836106f6565b915061054282610874565b604082019050919050565b600061055a6022836106f6565b9150610565826108c3565b604082019050919050565b6105798161074e565b82525050565b600061058a82610507565b915061059682846104aa565b60208201915081905092915050565b60006020820190506105ba600083018461048c565b92915050565b60006020820190506105d5600083018461049b565b92915050565b60006080820190506105f0600083018761049b565b6105fd6020830186610570565b61060a604083018561049b565b610617606083018461049b565b95945050505050565b60006020820190508181036000830152610639816104c1565b9050919050565b60006020820190508181036000830152610659816104e4565b9050919050565b600060208201905081810360008301526106798161052a565b9050919050565b600060208201905081810360008301526106998161054d565b9050919050565b60006106aa6106bb565b90506106b6828261076a565b919050565b6000604051905090565b600067ffffffffffffffff8211156106e0576106df6107a5565b5b6106e9826107e8565b9050602081019050919050565b600082825260208201905092915050565b600081905092915050565b600061071d8261072e565b9050919050565b6000819050919050565b600073ffffffffffffffffffffffffffffffffffffffff82169050919050565b600060ff82169050919050565b82818337600083830152505050565b610773826107e8565b810181811067ffffffffffffffff82111715610792576107916107a5565b5b80604052505050565b6000819050919050565b7f4e487b7100000000000000000000000000000000000000000000000000000000600052604160045260246000fd5b600080fd5b600080fd5b600080fd5b600080fd5b6000601f19601f8301169050919050565b7f45434453413a20696e76616c6964207369676e61747572650000000000000000600082015250565b7f45434453413a20696e76616c6964207369676e6174757265206c656e67746800600082015250565b7f19457468657265756d205369676e6564204d6573736167653a0a333200000000600082015250565b7f45434453413a20696e76616c6964207369676e6174757265202773272076616c60008201527f7565000000000000000000000000000000000000000000000000000000000000602082015250565b7f45434453413a20696e76616c6964207369676e6174757265202776272076616c60008201527f7565000000000000000000000000000000000000000000000000000000000000602082015250565b61091b81610724565b811461092657600080fd5b5056fea26469706673582212205b2b4514c46f088ac34931624f70a7f581912cb92a3a35862f1bf5246b33f58c64736f6c63430008060033",
  "immutableReferences": {},
  "source": "// SPDX-License-Identifier: MIT\n\npragma solidity ^0.8.0;\n\nimport \"../utils/cryptography/ECDSA.sol\";\n\ncontract ECDSAMock {\n    using ECDSA for bytes32;\n\n    function recover(bytes32 hash, bytes memory signature) public pure returns (address) {\n        return hash.recover(signature);\n    }\n\n    function toEthSignedMessageHash(bytes32 hash) public pure returns (bytes32) {\n        return hash.toEthSignedMessageHash();\n    }\n}\n",
  "sourcePath": "/home/sandeep/NFT_Market/contracts/mocks/ECDSAMock.sol",
  "compiler": {
    "name": "solc",
    "version": "0.8.6+commit.11564f7e.Emscripten.clang"
  },
  "schemaVersion": "3.4.1",
  "updatedAt": "2021-07-13T14:33:10.171Z",
  "devdoc": {
    "kind": "dev",
    "methods": {},
    "version": 1
  },
  "userdoc": {
    "kind": "user",
    "methods": {},
    "version": 1
  }
}