{
  "contractName": "ERC165CheckerMock",
  "abi": [
    {
      "inputs": [
        {
          "internalType": "address",
          "name": "account",
          "type": "address"
        }
      ],
      "name": "supportsERC165",
      "outputs": [
        {
          "internalType": "bool",
          "name": "",
          "type": "bool"
        }
      ],
      "stateMutability": "view",
      "type": "function"
    },
    {
      "inputs": [
        {
          "internalType": "address",
          "name": "account",
          "type": "address"
        },
        {
          "internalType": "bytes4",
          "name": "interfaceId",
          "type": "bytes4"
        }
      ],
      "name": "supportsInterface",
      "outputs": [
        {
          "internalType": "bool",
          "name": "",
          "type": "bool"
        }
      ],
      "stateMutability": "view",
      "type": "function"
    },
    {
      "inputs": [
        {
          "internalType": "address",
          "name": "account",
          "type": "address"
        },
        {
          "internalType": "bytes4[]",
          "name": "interfaceIds",
          "type": "bytes4[]"
        }
      ],
      "name": "supportsAllInterfaces",
      "outputs": [
        {
          "internalType": "bool",
          "name": "",
          "type": "bool"
        }
      ],
      "stateMutability": "view",
      "type": "function"
    },
    {
      "inputs": [
        {
          "internalType": "address",
          "name": "account",
          "type": "address"
        },
        {
          "internalType": "bytes4[]",
          "name": "interfaceIds",
          "type": "bytes4[]"
        }
      ],
      "name": "getSupportedInterfaces",
      "outputs": [
        {
          "internalType": "bool[]",
          "name": "",
          "type": "bool[]"
        }
      ],
      "stateMutability": "view",
      "type": "function"
    }
  ],
  "bytecode": "0x608060405234801561001057600080fd5b50610aba806100206000396000f3fe608060405234801561001057600080fd5b506004361061004c5760003560e01c80634b9dd9041461005157806377e6b4cc14610081578063c398a925146100b1578063d9057007146100e1575b600080fd5b61006b600480360381019061006691906105c0565b610111565b6040516100789190610796565b60405180910390f35b61009b600480360381019061009691906105c0565b610144565b6040516100a89190610774565b60405180910390f35b6100cb60048036038101906100c69190610593565b610177565b6040516100d89190610796565b60405180910390f35b6100fb60048036038101906100f6919061061c565b61019f565b6040516101089190610796565b60405180910390f35b600061013c828473ffffffffffffffffffffffffffffffffffffffff166101d290919063ffffffff16565b905092915050565b606061016f828473ffffffffffffffffffffffffffffffffffffffff1661024790919063ffffffff16565b905092915050565b60006101988273ffffffffffffffffffffffffffffffffffffffff16610319565b9050919050565b60006101ca828473ffffffffffffffffffffffffffffffffffffffff1661036690919063ffffffff16565b905092915050565b60006101dd83610319565b6101ea5760009050610241565b60005b825181101561023b5761021a8484838151811061020d5761020c6109bc565b5b602002602001015161038b565b610228576000915050610241565b808061023390610944565b9150506101ed565b50600190505b92915050565b60606000825167ffffffffffffffff811115610266576102656109eb565b5b6040519080825280602002602001820160405280156102945781602001602082028036833780820191505090505b5090506102a084610319565b1561030f5760005b835181101561030d576102d5858583815181106102c8576102c76109bc565b5b602002602001015161038b565b8282815181106102e8576102e76109bc565b5b602002602001019015159081151581525050808061030590610944565b9150506102a8565b505b8091505092915050565b6000610345827f01ffc9a70000000000000000000000000000000000000000000000000000000061038b565b801561035f575061035d8263ffffffff60e01b61038b565b155b9050919050565b600061037183610319565b80156103835750610382838361038b565b5b905092915050565b6000806301ffc9a760e01b836040516024016103a791906107b1565b604051602081830303815290604052907bffffffffffffffffffffffffffffffffffffffffffffffffffffffff19166020820180517bffffffffffffffffffffffffffffffffffffffffffffffffffffffff838183161783525050505090506000808573ffffffffffffffffffffffffffffffffffffffff1661753084604051610431919061075d565b6000604051808303818686fa925050503d806000811461046d576040519150601f19603f3d011682016040523d82523d6000602084013e610472565b606091505b509150915060208151101561048d57600093505050506104b0565b8180156104aa5750808060200190518101906104a9919061065c565b5b93505050505b92915050565b60006104c96104c4846107f1565b6107cc565b905080838252602082019050828560208602820111156104ec576104eb610a1f565b5b60005b8581101561051c5781610502888261057e565b8452602084019350602083019250506001810190506104ef565b5050509392505050565b60008135905061053581610a3f565b92915050565b600082601f8301126105505761054f610a1a565b5b81356105608482602086016104b6565b91505092915050565b60008151905061057881610a56565b92915050565b60008135905061058d81610a6d565b92915050565b6000602082840312156105a9576105a8610a29565b5b60006105b784828501610526565b91505092915050565b600080604083850312156105d7576105d6610a29565b5b60006105e585828601610526565b925050602083013567ffffffffffffffff81111561060657610605610a24565b5b6106128582860161053b565b9150509250929050565b6000806040838503121561063357610632610a29565b5b600061064185828601610526565b92505060206106528582860161057e565b9150509250929050565b60006020828403121561067257610671610a29565b5b600061068084828501610569565b91505092915050565b600061069583836106ff565b60208301905092915050565b60006106ac8261082d565b6106b68185610850565b93506106c18361081d565b8060005b838110156106f25781516106d98882610689565b97506106e483610843565b9250506001810190506106c5565b5085935050505092915050565b6107088161087e565b82525050565b6107178161087e565b82525050565b6107268161088a565b82525050565b600061073782610838565b6107418185610861565b93506107518185602086016108e0565b80840191505092915050565b6000610769828461072c565b915081905092915050565b6000602082019050818103600083015261078e81846106a1565b905092915050565b60006020820190506107ab600083018461070e565b92915050565b60006020820190506107c6600083018461071d565b92915050565b60006107d66107e7565b90506107e28282610913565b919050565b6000604051905090565b600067ffffffffffffffff82111561080c5761080b6109eb565b5b602082029050602081019050919050565b6000819050602082019050919050565b600081519050919050565b600081519050919050565b6000602082019050919050565b600082825260208201905092915050565b600081905092915050565b6000610877826108b6565b9050919050565b60008115159050919050565b60007fffffffff0000000000000000000000000000000000000000000000000000000082169050919050565b600073ffffffffffffffffffffffffffffffffffffffff82169050919050565b6000819050919050565b60005b838110156108fe5780820151818401526020810190506108e3565b8381111561090d576000848401525b50505050565b61091c82610a2e565b810181811067ffffffffffffffff8211171561093b5761093a6109eb565b5b80604052505050565b600061094f826108d6565b91507fffffffffffffffffffffffffffffffffffffffffffffffffffffffffffffffff8214156109825761098161098d565b5b600182019050919050565b7f4e487b7100000000000000000000000000000000000000000000000000000000600052601160045260246000fd5b7f4e487b7100000000000000000000000000000000000000000000000000000000600052603260045260246000fd5b7f4e487b7100000000000000000000000000000000000000000000000000000000600052604160045260246000fd5b600080fd5b600080fd5b600080fd5b600080fd5b6000601f19601f8301169050919050565b610a488161086c565b8114610a5357600080fd5b50565b610a5f8161087e565b8114610a6a57600080fd5b50565b610a768161088a565b8114610a8157600080fd5b5056fea264697066735822122095be48b99446423078f91840bb9b44de2f20a362df996d68b4af4c1a6a6ded1764736f6c63430008060033",
  "immutableReferences": {},
  "source": "// SPDX-License-Identifier: MIT\n\npragma solidity ^0.8.0;\n\nimport \"../utils/introspection/ERC165Checker.sol\";\n\ncontract ERC165CheckerMock {\n    using ERC165Checker for address;\n\n    function supportsERC165(address account) public view returns (bool) {\n        return account.supportsERC165();\n    }\n\n    function supportsInterface(address account, bytes4 interfaceId) public view returns (bool) {\n        return account.supportsInterface(interfaceId);\n    }\n\n    function supportsAllInterfaces(address account, bytes4[] memory interfaceIds) public view returns (bool) {\n        return account.supportsAllInterfaces(interfaceIds);\n    }\n\n    function getSupportedInterfaces(address account, bytes4[] memory interfaceIds) public view returns (bool[] memory) {\n        return account.getSupportedInterfaces(interfaceIds);\n    }\n}\n",
  "sourcePath": "/home/sandeep/NFT_Market/contracts/mocks/ERC165CheckerMock.sol",
  "compiler": {
    "name": "solc",
    "version": "0.8.6+commit.11564f7e.Emscripten.clang"
  },
  "schemaVersion": "3.4.1",
  "updatedAt": "2021-07-13T14:33:10.320Z",
  "devdoc": {
    "kind": "dev",
    "methods": {},
    "version": 1
  },
  "userdoc": {
    "kind": "user",
    "methods": {},
    "version": 1
  }
}