{
  "contractName": "ERC165InterfacesSupported",
  "abi": [
    {
      "inputs": [
        {
          "internalType": "bytes4[]",
          "name": "interfaceIds",
          "type": "bytes4[]"
        }
      ],
      "stateMutability": "nonpayable",
      "type": "constructor"
    },
    {
      "inputs": [],
      "name": "INTERFACE_ID_ERC165",
      "outputs": [
        {
          "internalType": "bytes4",
          "name": "",
          "type": "bytes4"
        }
      ],
      "stateMutability": "view",
      "type": "function"
    },
    {
      "inputs": [
        {
          "internalType": "bytes4",
          "name": "interfaceId",
          "type": "bytes4"
        }
      ],
      "name": "supportsInterface",
      "outputs": [
        {
          "internalType": "bool",
          "name": "",
          "type": "bool"
        }
      ],
      "stateMutability": "view",
      "type": "function"
    }
  ],
  "bytecode": "0x608060405234801561001057600080fd5b506040516106ff3803806106ff8339818101604052810190610032919061021f565b6100486301ffc9a760e01b61009760201b60201c565b60005b81518110156100905761007d82828151811061006a576100696103ec565b5b602002602001015161009760201b60201c565b808061008890610374565b91505061004b565b50506104d5565b63ffffffff60e01b817bffffffffffffffffffffffffffffffffffffffffffffffffffffffff19161415610100576040517f08c379a00000000000000000000000000000000000000000000000000000000081526004016100f79061028b565b60405180910390fd5b6001600080837bffffffffffffffffffffffffffffffffffffffffffffffffffffffff19167bffffffffffffffffffffffffffffffffffffffffffffffffffffffff1916815260200190815260200160002060006101000a81548160ff02191690831515021790555050565b600061017f61017a846102d0565b6102ab565b905080838252602082019050828560208602820111156101a2576101a161044f565b5b60005b858110156101d257816101b8888261020a565b8452602084019350602083019250506001810190506101a5565b5050509392505050565b600082601f8301126101f1576101f061044a565b5b815161020184826020860161016c565b91505092915050565b600081519050610219816104be565b92915050565b60006020828403121561023557610234610459565b5b600082015167ffffffffffffffff81111561025357610252610454565b5b61025f848285016101dc565b91505092915050565b6000610275602f836102fc565b91506102808261046f565b604082019050919050565b600060208201905081810360008301526102a481610268565b9050919050565b60006102b56102c6565b90506102c18282610343565b919050565b6000604051905090565b600067ffffffffffffffff8211156102eb576102ea61041b565b5b602082029050602081019050919050565b600082825260208201905092915050565b60007fffffffff0000000000000000000000000000000000000000000000000000000082169050919050565b6000819050919050565b61034c8261045e565b810181811067ffffffffffffffff8211171561036b5761036a61041b565b5b80604052505050565b600061037f82610339565b91507fffffffffffffffffffffffffffffffffffffffffffffffffffffffffffffffff8214156103b2576103b16103bd565b5b600182019050919050565b7f4e487b7100000000000000000000000000000000000000000000000000000000600052601160045260246000fd5b7f4e487b7100000000000000000000000000000000000000000000000000000000600052603260045260246000fd5b7f4e487b7100000000000000000000000000000000000000000000000000000000600052604160045260246000fd5b600080fd5b600080fd5b600080fd5b600080fd5b6000601f19601f8301169050919050565b7f455243313635496e7465726661636573537570706f727465643a20696e76616c60008201527f696420696e746572666163652069640000000000000000000000000000000000602082015250565b6104c78161030d565b81146104d257600080fd5b50565b61021b806104e46000396000f3fe608060405234801561001057600080fd5b50600436106100365760003560e01c806301ffc9a71461003b57806334d7006c1461006b575b600080fd5b61005560048036038101906100509190610110565b610089565b604051610062919061015b565b60405180910390f35b6100736100f0565b6040516100809190610176565b60405180910390f35b6000806000837bffffffffffffffffffffffffffffffffffffffffffffffffffffffff19167bffffffffffffffffffffffffffffffffffffffffffffffffffffffff1916815260200190815260200160002060009054906101000a900460ff169050919050565b6301ffc9a760e01b81565b60008135905061010a816101ce565b92915050565b600060208284031215610126576101256101c9565b5b6000610134848285016100fb565b91505092915050565b61014681610191565b82525050565b6101558161019d565b82525050565b6000602082019050610170600083018461013d565b92915050565b600060208201905061018b600083018461014c565b92915050565b60008115159050919050565b60007fffffffff0000000000000000000000000000000000000000000000000000000082169050919050565b600080fd5b6101d78161019d565b81146101e257600080fd5b5056fea264697066735822122063f518c7cda528d024bdbef7e94c25a955fa231b5cdd48599c4d1805b9e7d9df64736f6c63430008060033",
  "immutableReferences": {},
  "source": "// SPDX-License-Identifier: MIT\n\npragma solidity ^0.8.0;\n\nimport \"../../utils/introspection/IERC165.sol\";\n\n/**\n * https://eips.ethereum.org/EIPS/eip-214#specification\n * From the specification:\n * > Any attempts to make state-changing operations inside an execution instance with STATIC set to true will instead\n * throw an exception.\n * > These operations include [...], LOG0, LOG1, LOG2, [...]\n *\n * therefore, because this contract is staticcall'd we need to not emit events (which is how solidity-coverage works)\n * solidity-coverage ignores the /mocks folder, so we duplicate its implementation here to avoid instrumenting it\n */\ncontract SupportsInterfaceWithLookupMock is IERC165 {\n    /*\n     * bytes4(keccak256('supportsInterface(bytes4)')) == 0x01ffc9a7\n     */\n    bytes4 public constant INTERFACE_ID_ERC165 = 0x01ffc9a7;\n\n    /**\n     * @dev A mapping of interface id to whether or not it's supported.\n     */\n    mapping(bytes4 => bool) private _supportedInterfaces;\n\n    /**\n     * @dev A contract implementing SupportsInterfaceWithLookup\n     * implement ERC165 itself.\n     */\n    constructor() {\n        _registerInterface(INTERFACE_ID_ERC165);\n    }\n\n    /**\n     * @dev Implement supportsInterface(bytes4) using a lookup table.\n     */\n    function supportsInterface(bytes4 interfaceId) public view override returns (bool) {\n        return _supportedInterfaces[interfaceId];\n    }\n\n    /**\n     * @dev Private method for registering an interface.\n     */\n    function _registerInterface(bytes4 interfaceId) internal {\n        require(interfaceId != 0xffffffff, \"ERC165InterfacesSupported: invalid interface id\");\n        _supportedInterfaces[interfaceId] = true;\n    }\n}\n\ncontract ERC165InterfacesSupported is SupportsInterfaceWithLookupMock {\n    constructor(bytes4[] memory interfaceIds) {\n        for (uint256 i = 0; i < interfaceIds.length; i++) {\n            _registerInterface(interfaceIds[i]);\n        }\n    }\n}\n",
  "sourcePath": "/home/sandeep/NFT_Market/contracts/mocks/ERC165/ERC165InterfacesSupported.sol",
  "compiler": {
    "name": "solc",
    "version": "0.8.6+commit.11564f7e.Emscripten.clang"
  },
  "schemaVersion": "3.4.1",
  "updatedAt": "2021-07-13T14:33:10.311Z",
  "devdoc": {
    "kind": "dev",
    "methods": {
      "supportsInterface(bytes4)": {
        "details": "Implement supportsInterface(bytes4) using a lookup table."
      }
    },
    "version": 1
  },
  "userdoc": {
    "kind": "user",
    "methods": {},
    "version": 1
  }
}