{
  "contractName": "ERC1155PausableMock",
  "abi": [
    {
      "inputs": [
        {
          "internalType": "string",
          "name": "uri",
          "type": "string"
        }
      ],
      "stateMutability": "nonpayable",
      "type": "constructor"
    },
    {
      "anonymous": false,
      "inputs": [
        {
          "indexed": true,
          "internalType": "address",
          "name": "account",
          "type": "address"
        },
        {
          "indexed": true,
          "internalType": "address",
          "name": "operator",
          "type": "address"
        },
        {
          "indexed": false,
          "internalType": "bool",
          "name": "approved",
          "type": "bool"
        }
      ],
      "name": "ApprovalForAll",
      "type": "event"
    },
    {
      "anonymous": false,
      "inputs": [
        {
          "indexed": false,
          "internalType": "address",
          "name": "account",
          "type": "address"
        }
      ],
      "name": "Paused",
      "type": "event"
    },
    {
      "anonymous": false,
      "inputs": [
        {
          "indexed": true,
          "internalType": "address",
          "name": "operator",
          "type": "address"
        },
        {
          "indexed": true,
          "internalType": "address",
          "name": "from",
          "type": "address"
        },
        {
          "indexed": true,
          "internalType": "address",
          "name": "to",
          "type": "address"
        },
        {
          "indexed": false,
          "internalType": "uint256[]",
          "name": "ids",
          "type": "uint256[]"
        },
        {
          "indexed": false,
          "internalType": "uint256[]",
          "name": "values",
          "type": "uint256[]"
        }
      ],
      "name": "TransferBatch",
      "type": "event"
    },
    {
      "anonymous": false,
      "inputs": [
        {
          "indexed": true,
          "internalType": "address",
          "name": "operator",
          "type": "address"
        },
        {
          "indexed": true,
          "internalType": "address",
          "name": "from",
          "type": "address"
        },
        {
          "indexed": true,
          "internalType": "address",
          "name": "to",
          "type": "address"
        },
        {
          "indexed": false,
          "internalType": "uint256",
          "name": "id",
          "type": "uint256"
        },
        {
          "indexed": false,
          "internalType": "uint256",
          "name": "value",
          "type": "uint256"
        }
      ],
      "name": "TransferSingle",
      "type": "event"
    },
    {
      "anonymous": false,
      "inputs": [
        {
          "indexed": false,
          "internalType": "string",
          "name": "value",
          "type": "string"
        },
        {
          "indexed": true,
          "internalType": "uint256",
          "name": "id",
          "type": "uint256"
        }
      ],
      "name": "URI",
      "type": "event"
    },
    {
      "anonymous": false,
      "inputs": [
        {
          "indexed": false,
          "internalType": "address",
          "name": "account",
          "type": "address"
        }
      ],
      "name": "Unpaused",
      "type": "event"
    },
    {
      "inputs": [
        {
          "internalType": "address",
          "name": "account",
          "type": "address"
        },
        {
          "internalType": "uint256",
          "name": "id",
          "type": "uint256"
        }
      ],
      "name": "balanceOf",
      "outputs": [
        {
          "internalType": "uint256",
          "name": "",
          "type": "uint256"
        }
      ],
      "stateMutability": "view",
      "type": "function"
    },
    {
      "inputs": [
        {
          "internalType": "address[]",
          "name": "accounts",
          "type": "address[]"
        },
        {
          "internalType": "uint256[]",
          "name": "ids",
          "type": "uint256[]"
        }
      ],
      "name": "balanceOfBatch",
      "outputs": [
        {
          "internalType": "uint256[]",
          "name": "",
          "type": "uint256[]"
        }
      ],
      "stateMutability": "view",
      "type": "function"
    },
    {
      "inputs": [
        {
          "internalType": "address",
          "name": "owner",
          "type": "address"
        },
        {
          "internalType": "uint256",
          "name": "id",
          "type": "uint256"
        },
        {
          "internalType": "uint256",
          "name": "value",
          "type": "uint256"
        }
      ],
      "name": "burn",
      "outputs": [],
      "stateMutability": "nonpayable",
      "type": "function"
    },
    {
      "inputs": [
        {
          "internalType": "address",
          "name": "owner",
          "type": "address"
        },
        {
          "internalType": "uint256[]",
          "name": "ids",
          "type": "uint256[]"
        },
        {
          "internalType": "uint256[]",
          "name": "values",
          "type": "uint256[]"
        }
      ],
      "name": "burnBatch",
      "outputs": [],
      "stateMutability": "nonpayable",
      "type": "function"
    },
    {
      "inputs": [
        {
          "internalType": "address",
          "name": "account",
          "type": "address"
        },
        {
          "internalType": "address",
          "name": "operator",
          "type": "address"
        }
      ],
      "name": "isApprovedForAll",
      "outputs": [
        {
          "internalType": "bool",
          "name": "",
          "type": "bool"
        }
      ],
      "stateMutability": "view",
      "type": "function"
    },
    {
      "inputs": [
        {
          "internalType": "address",
          "name": "to",
          "type": "address"
        },
        {
          "internalType": "uint256",
          "name": "id",
          "type": "uint256"
        },
        {
          "internalType": "uint256",
          "name": "value",
          "type": "uint256"
        },
        {
          "internalType": "bytes",
          "name": "data",
          "type": "bytes"
        }
      ],
      "name": "mint",
      "outputs": [],
      "stateMutability": "nonpayable",
      "type": "function"
    },
    {
      "inputs": [
        {
          "internalType": "address",
          "name": "to",
          "type": "address"
        },
        {
          "internalType": "uint256[]",
          "name": "ids",
          "type": "uint256[]"
        },
        {
          "internalType": "uint256[]",
          "name": "values",
          "type": "uint256[]"
        },
        {
          "internalType": "bytes",
          "name": "data",
          "type": "bytes"
        }
      ],
      "name": "mintBatch",
      "outputs": [],
      "stateMutability": "nonpayable",
      "type": "function"
    },
    {
      "inputs": [],
      "name": "paused",
      "outputs": [
        {
          "internalType": "bool",
          "name": "",
          "type": "bool"
        }
      ],
      "stateMutability": "view",
      "type": "function"
    },
    {
      "inputs": [
        {
          "internalType": "address",
          "name": "from",
          "type": "address"
        },
        {
          "internalType": "address",
          "name": "to",
          "type": "address"
        },
        {
          "internalType": "uint256[]",
          "name": "ids",
          "type": "uint256[]"
        },
        {
          "internalType": "uint256[]",
          "name": "amounts",
          "type": "uint256[]"
        },
        {
          "internalType": "bytes",
          "name": "data",
          "type": "bytes"
        }
      ],
      "name": "safeBatchTransferFrom",
      "outputs": [],
      "stateMutability": "nonpayable",
      "type": "function"
    },
    {
      "inputs": [
        {
          "internalType": "address",
          "name": "from",
          "type": "address"
        },
        {
          "internalType": "address",
          "name": "to",
          "type": "address"
        },
        {
          "internalType": "uint256",
          "name": "id",
          "type": "uint256"
        },
        {
          "internalType": "uint256",
          "name": "amount",
          "type": "uint256"
        },
        {
          "internalType": "bytes",
          "name": "data",
          "type": "bytes"
        }
      ],
      "name": "safeTransferFrom",
      "outputs": [],
      "stateMutability": "nonpayable",
      "type": "function"
    },
    {
      "inputs": [
        {
          "internalType": "address",
          "name": "operator",
          "type": "address"
        },
        {
          "internalType": "bool",
          "name": "approved",
          "type": "bool"
        }
      ],
      "name": "setApprovalForAll",
      "outputs": [],
      "stateMutability": "nonpayable",
      "type": "function"
    },
    {
      "inputs": [
        {
          "internalType": "string",
          "name": "newuri",
          "type": "string"
        }
      ],
      "name": "setURI",
      "outputs": [],
      "stateMutability": "nonpayable",
      "type": "function"
    },
    {
      "inputs": [
        {
          "internalType": "bytes4",
          "name": "interfaceId",
          "type": "bytes4"
        }
      ],
      "name": "supportsInterface",
      "outputs": [
        {
          "internalType": "bool",
          "name": "",
          "type": "bool"
        }
      ],
      "stateMutability": "view",
      "type": "function"
    },
    {
      "inputs": [
        {
          "internalType": "uint256",
          "name": "",
          "type": "uint256"
        }
      ],
      "name": "uri",
      "outputs": [
        {
          "internalType": "string",
          "name": "",
          "type": "string"
        }
      ],
      "stateMutability": "view",
      "type": "function"
    },
    {
      "inputs": [],
      "name": "pause",
      "outputs": [],
      "stateMutability": "nonpayable",
      "type": "function"
    },
    {
      "inputs": [],
      "name": "unpause",
      "outputs": [],
      "stateMutability": "nonpayable",
      "type": "function"
    }
  ],
  "bytecode": "0x60806040523480156200001157600080fd5b5060405162003c3338038062003c338339818101604052810190620000379190620001b8565b80806200004a816200006e60201b60201c565b50506000600360006101000a81548160ff021916908315150217905550506200038d565b8060029080519060200190620000869291906200008a565b5050565b82805462000098906200029e565b90600052602060002090601f016020900481019282620000bc576000855562000108565b82601f10620000d757805160ff191683800117855562000108565b8280016001018555821562000108579182015b8281111562000107578251825591602001919060010190620000ea565b5b5090506200011791906200011b565b5090565b5b80821115620001365760008160009055506001016200011c565b5090565b6000620001516200014b8462000232565b62000209565b90508281526020810184848401111562000170576200016f6200036d565b5b6200017d84828562000268565b509392505050565b600082601f8301126200019d576200019c62000368565b5b8151620001af8482602086016200013a565b91505092915050565b600060208284031215620001d157620001d062000377565b5b600082015167ffffffffffffffff811115620001f257620001f162000372565b5b620002008482850162000185565b91505092915050565b60006200021562000228565b9050620002238282620002d4565b919050565b6000604051905090565b600067ffffffffffffffff82111562000250576200024f62000339565b5b6200025b826200037c565b9050602081019050919050565b60005b83811015620002885780820151818401526020810190506200026b565b8381111562000298576000848401525b50505050565b60006002820490506001821680620002b757607f821691505b60208210811415620002ce57620002cd6200030a565b5b50919050565b620002df826200037c565b810181811067ffffffffffffffff8211171562000301576200030062000339565b5b80604052505050565b7f4e487b7100000000000000000000000000000000000000000000000000000000600052602260045260246000fd5b7f4e487b7100000000000000000000000000000000000000000000000000000000600052604160045260246000fd5b600080fd5b600080fd5b600080fd5b600080fd5b6000601f19601f8301169050919050565b613896806200039d6000396000f3fe608060405234801561001057600080fd5b50600436106100ff5760003560e01c80635c975abb11610097578063a22cb46511610066578063a22cb46514610282578063e985e9c51461029e578063f242432a146102ce578063f5298aca146102ea576100ff565b80635c975abb146102225780636b20c45414610240578063731133e91461025c5780638456cb5914610278576100ff565b80631f7fdffa116100d35780631f7fdffa146101b05780632eb2c2d6146101cc5780633f4ba83a146101e85780634e1273f4146101f2576100ff565b8062fdd58e1461010457806301ffc9a71461013457806302fe5305146101645780630e89341c14610180575b600080fd5b61011e60048036038101906101199190612544565b610306565b60405161012b9190612e69565b60405180910390f35b61014e600480360381019061014991906126d2565b6103cf565b60405161015b9190612c2c565b60405180910390f35b61017e6004803603810190610179919061272c565b6104b1565b005b61019a60048036038101906101959190612775565b6104bd565b6040516101a79190612c47565b60405180910390f35b6101ca60048036038101906101c59190612449565b610551565b005b6101e660048036038101906101e19190612258565b610563565b005b6101f0610604565b005b61020c6004803603810190610207919061265a565b61060e565b6040516102199190612bd3565b60405180910390f35b61022a610727565b6040516102379190612c2c565b60405180910390f35b61025a600480360381019061025591906123be565b61073e565b005b610276600480360381019061027191906125d7565b61074e565b005b610280610760565b005b61029c60048036038101906102979190612504565b61076a565b005b6102b860048036038101906102b39190612218565b6108eb565b6040516102c59190612c2c565b60405180910390f35b6102e860048036038101906102e39190612327565b61097f565b005b61030460048036038101906102ff9190612584565b610a20565b005b60008073ffffffffffffffffffffffffffffffffffffffff168373ffffffffffffffffffffffffffffffffffffffff161415610377576040517f08c379a000000000000000000000000000000000000000000000000000000000815260040161036e90612cc9565b60405180910390fd5b60008083815260200190815260200160002060008473ffffffffffffffffffffffffffffffffffffffff1673ffffffffffffffffffffffffffffffffffffffff16815260200190815260200160002054905092915050565b60007fd9b67a26000000000000000000000000000000000000000000000000000000007bffffffffffffffffffffffffffffffffffffffffffffffffffffffff1916827bffffffffffffffffffffffffffffffffffffffffffffffffffffffff1916148061049a57507f0e89341c000000000000000000000000000000000000000000000000000000007bffffffffffffffffffffffffffffffffffffffffffffffffffffffff1916827bffffffffffffffffffffffffffffffffffffffffffffffffffffffff1916145b806104aa57506104a982610a30565b5b9050919050565b6104ba81610a9a565b50565b6060600280546104cc90613109565b80601f01602080910402602001604051908101604052809291908181526020018280546104f890613109565b80156105455780601f1061051a57610100808354040283529160200191610545565b820191906000526020600020905b81548152906001019060200180831161052857829003601f168201915b50505050509050919050565b61055d84848484610ab4565b50505050565b61056b610cd2565b73ffffffffffffffffffffffffffffffffffffffff168573ffffffffffffffffffffffffffffffffffffffff1614806105b157506105b0856105ab610cd2565b6108eb565b5b6105f0576040517f08c379a00000000000000000000000000000000000000000000000000000000081526004016105e790612d89565b60405180910390fd5b6105fd8585858585610cda565b5050505050565b61060c610fee565b565b60608151835114610654576040517f08c379a000000000000000000000000000000000000000000000000000000000815260040161064b90612e09565b60405180910390fd5b6000835167ffffffffffffffff81111561067157610670613242565b5b60405190808252806020026020018201604052801561069f5781602001602082028036833780820191505090505b50905060005b845181101561071c576106ec8582815181106106c4576106c3613213565b5b60200260200101518583815181106106df576106de613213565b5b6020026020010151610306565b8282815181106106ff576106fe613213565b5b602002602001018181525050806107159061316c565b90506106a5565b508091505092915050565b6000600360009054906101000a900460ff16905090565b610749838383611090565b505050565b61075a84848484611341565b50505050565b6107686114d7565b565b8173ffffffffffffffffffffffffffffffffffffffff16610789610cd2565b73ffffffffffffffffffffffffffffffffffffffff1614156107e0576040517f08c379a00000000000000000000000000000000000000000000000000000000081526004016107d790612de9565b60405180910390fd5b80600160006107ed610cd2565b73ffffffffffffffffffffffffffffffffffffffff1673ffffffffffffffffffffffffffffffffffffffff16815260200190815260200160002060008473ffffffffffffffffffffffffffffffffffffffff1673ffffffffffffffffffffffffffffffffffffffff16815260200190815260200160002060006101000a81548160ff0219169083151502179055508173ffffffffffffffffffffffffffffffffffffffff1661089a610cd2565b73ffffffffffffffffffffffffffffffffffffffff167f17307eab39ab6107e8899845ad3d59bd9653f200f220920489ca2b5937696c31836040516108df9190612c2c565b60405180910390a35050565b6000600160008473ffffffffffffffffffffffffffffffffffffffff1673ffffffffffffffffffffffffffffffffffffffff16815260200190815260200160002060008373ffffffffffffffffffffffffffffffffffffffff1673ffffffffffffffffffffffffffffffffffffffff16815260200190815260200160002060009054906101000a900460ff16905092915050565b610987610cd2565b73ffffffffffffffffffffffffffffffffffffffff168573ffffffffffffffffffffffffffffffffffffffff1614806109cd57506109cc856109c7610cd2565b6108eb565b5b610a0c576040517f08c379a0000000000000000000000000000000000000000000000000000000008152600401610a0390612d29565b60405180910390fd5b610a19858585858561157a565b5050505050565b610a2b8383836117fc565b505050565b60007f01ffc9a7000000000000000000000000000000000000000000000000000000007bffffffffffffffffffffffffffffffffffffffffffffffffffffffff1916827bffffffffffffffffffffffffffffffffffffffffffffffffffffffff1916149050919050565b8060029080519060200190610ab0929190611ef0565b5050565b600073ffffffffffffffffffffffffffffffffffffffff168473ffffffffffffffffffffffffffffffffffffffff161415610b24576040517f08c379a0000000000000000000000000000000000000000000000000000000008152600401610b1b90612e49565b60405180910390fd5b8151835114610b68576040517f08c379a0000000000000000000000000000000000000000000000000000000008152600401610b5f90612e29565b60405180910390fd5b6000610b72610cd2565b9050610b8381600087878787611a19565b60005b8451811015610c3c57838181518110610ba257610ba1613213565b5b6020026020010151600080878481518110610bc057610bbf613213565b5b6020026020010151815260200190815260200160002060008873ffffffffffffffffffffffffffffffffffffffff1673ffffffffffffffffffffffffffffffffffffffff1681526020019081526020016000206000828254610c229190612ffd565b925050819055508080610c349061316c565b915050610b86565b508473ffffffffffffffffffffffffffffffffffffffff16600073ffffffffffffffffffffffffffffffffffffffff168273ffffffffffffffffffffffffffffffffffffffff167f4a39dc06d4c0dbc64b70af90fd698a233a518aa5d07e595d983b8c0526c8f7fb8787604051610cb4929190612bf5565b60405180910390a4610ccb81600087878787611a2f565b5050505050565b600033905090565b8151835114610d1e576040517f08c379a0000000000000000000000000000000000000000000000000000000008152600401610d1590612e29565b60405180910390fd5b600073ffffffffffffffffffffffffffffffffffffffff168473ffffffffffffffffffffffffffffffffffffffff161415610d8e576040517f08c379a0000000000000000000000000000000000000000000000000000000008152600401610d8590612d69565b60405180910390fd5b6000610d98610cd2565b9050610da8818787878787611a19565b60005b8451811015610f59576000858281518110610dc957610dc8613213565b5b602002602001015190506000858381518110610de857610de7613213565b5b60200260200101519050600080600084815260200190815260200160002060008b73ffffffffffffffffffffffffffffffffffffffff1673ffffffffffffffffffffffffffffffffffffffff16815260200190815260200160002054905081811015610e89576040517f08c379a0000000000000000000000000000000000000000000000000000000008152600401610e8090612dc9565b60405180910390fd5b81810360008085815260200190815260200160002060008c73ffffffffffffffffffffffffffffffffffffffff1673ffffffffffffffffffffffffffffffffffffffff168152602001908152602001600020819055508160008085815260200190815260200160002060008b73ffffffffffffffffffffffffffffffffffffffff1673ffffffffffffffffffffffffffffffffffffffff1681526020019081526020016000206000828254610f3e9190612ffd565b9250508190555050505080610f529061316c565b9050610dab565b508473ffffffffffffffffffffffffffffffffffffffff168673ffffffffffffffffffffffffffffffffffffffff168273ffffffffffffffffffffffffffffffffffffffff167f4a39dc06d4c0dbc64b70af90fd698a233a518aa5d07e595d983b8c0526c8f7fb8787604051610fd0929190612bf5565b60405180910390a4610fe6818787878787611a2f565b505050505050565b610ff6610727565b611035576040517f08c379a000000000000000000000000000000000000000000000000000000000815260040161102c90612ca9565b60405180910390fd5b6000600360006101000a81548160ff0219169083151502179055507f5db9ee0a495bf2e6ff9c91a7834c1ba4fdd244a5e8aa4e537bd38aeae4b073aa611079610cd2565b6040516110869190612af6565b60405180910390a1565b600073ffffffffffffffffffffffffffffffffffffffff168373ffffffffffffffffffffffffffffffffffffffff161415611100576040517f08c379a00000000000000000000000000000000000000000000000000000000081526004016110f790612da9565b60405180910390fd5b8051825114611144576040517f08c379a000000000000000000000000000000000000000000000000000000000815260040161113b90612e29565b60405180910390fd5b600061114e610cd2565b905061116e81856000868660405180602001604052806000815250611a19565b60005b83518110156112bb57600084828151811061118f5761118e613213565b5b6020026020010151905060008483815181106111ae576111ad613213565b5b60200260200101519050600080600084815260200190815260200160002060008973ffffffffffffffffffffffffffffffffffffffff1673ffffffffffffffffffffffffffffffffffffffff1681526020019081526020016000205490508181101561124f576040517f08c379a000000000000000000000000000000000000000000000000000000000815260040161124690612ce9565b60405180910390fd5b81810360008085815260200190815260200160002060008a73ffffffffffffffffffffffffffffffffffffffff1673ffffffffffffffffffffffffffffffffffffffff1681526020019081526020016000208190555050505080806112b39061316c565b915050611171565b50600073ffffffffffffffffffffffffffffffffffffffff168473ffffffffffffffffffffffffffffffffffffffff168273ffffffffffffffffffffffffffffffffffffffff167f4a39dc06d4c0dbc64b70af90fd698a233a518aa5d07e595d983b8c0526c8f7fb8686604051611333929190612bf5565b60405180910390a450505050565b600073ffffffffffffffffffffffffffffffffffffffff168473ffffffffffffffffffffffffffffffffffffffff1614156113b1576040517f08c379a00000000000000000000000000000000000000000000000000000000081526004016113a890612e49565b60405180910390fd5b60006113bb610cd2565b90506113dc816000876113cd88611c16565b6113d688611c16565b87611a19565b8260008086815260200190815260200160002060008773ffffffffffffffffffffffffffffffffffffffff1673ffffffffffffffffffffffffffffffffffffffff168152602001908152602001600020600082825461143b9190612ffd565b925050819055508473ffffffffffffffffffffffffffffffffffffffff16600073ffffffffffffffffffffffffffffffffffffffff168273ffffffffffffffffffffffffffffffffffffffff167fc3d58168c5ae7397731d063d5bbf3d657854427343f4c083240f7aacaa2d0f6287876040516114b9929190612e84565b60405180910390a46114d081600087878787611c90565b5050505050565b6114df610727565b1561151f576040517f08c379a000000000000000000000000000000000000000000000000000000000815260040161151690612d49565b60405180910390fd5b6001600360006101000a81548160ff0219169083151502179055507f62e78cea01bee320cd4e420270b5ea74000d11b0c9f74754ebdbfc544b05a258611563610cd2565b6040516115709190612af6565b60405180910390a1565b600073ffffffffffffffffffffffffffffffffffffffff168473ffffffffffffffffffffffffffffffffffffffff1614156115ea576040517f08c379a00000000000000000000000000000000000000000000000000000000081526004016115e190612d69565b60405180910390fd5b60006115f4610cd2565b905061161481878761160588611c16565b61160e88611c16565b87611a19565b600080600086815260200190815260200160002060008873ffffffffffffffffffffffffffffffffffffffff1673ffffffffffffffffffffffffffffffffffffffff168152602001908152602001600020549050838110156116ab576040517f08c379a00000000000000000000000000000000000000000000000000000000081526004016116a290612dc9565b60405180910390fd5b83810360008087815260200190815260200160002060008973ffffffffffffffffffffffffffffffffffffffff1673ffffffffffffffffffffffffffffffffffffffff168152602001908152602001600020819055508360008087815260200190815260200160002060008873ffffffffffffffffffffffffffffffffffffffff1673ffffffffffffffffffffffffffffffffffffffff16815260200190815260200160002060008282546117609190612ffd565b925050819055508573ffffffffffffffffffffffffffffffffffffffff168773ffffffffffffffffffffffffffffffffffffffff168373ffffffffffffffffffffffffffffffffffffffff167fc3d58168c5ae7397731d063d5bbf3d657854427343f4c083240f7aacaa2d0f6288886040516117dd929190612e84565b60405180910390a46117f3828888888888611c90565b50505050505050565b600073ffffffffffffffffffffffffffffffffffffffff168373ffffffffffffffffffffffffffffffffffffffff16141561186c576040517f08c379a000000000000000000000000000000000000000000000000000000000815260040161186390612da9565b60405180910390fd5b6000611876610cd2565b90506118a68185600061188887611c16565b61189187611c16565b60405180602001604052806000815250611a19565b600080600085815260200190815260200160002060008673ffffffffffffffffffffffffffffffffffffffff1673ffffffffffffffffffffffffffffffffffffffff1681526020019081526020016000205490508281101561193d576040517f08c379a000000000000000000000000000000000000000000000000000000000815260040161193490612ce9565b60405180910390fd5b82810360008086815260200190815260200160002060008773ffffffffffffffffffffffffffffffffffffffff1673ffffffffffffffffffffffffffffffffffffffff16815260200190815260200160002081905550600073ffffffffffffffffffffffffffffffffffffffff168573ffffffffffffffffffffffffffffffffffffffff168373ffffffffffffffffffffffffffffffffffffffff167fc3d58168c5ae7397731d063d5bbf3d657854427343f4c083240f7aacaa2d0f628787604051611a0a929190612e84565b60405180910390a45050505050565b611a27868686868686611e77565b505050505050565b611a4e8473ffffffffffffffffffffffffffffffffffffffff16611ed5565b15611c0e578373ffffffffffffffffffffffffffffffffffffffff1663bc197c8187878686866040518663ffffffff1660e01b8152600401611a94959493929190612b11565b602060405180830381600087803b158015611aae57600080fd5b505af1925050508015611adf57506040513d601f19601f82011682018060405250810190611adc91906126ff565b60015b611b8557611aeb613271565b806308c379a01415611b485750611b0061376e565b80611b0b5750611b4a565b806040517f08c379a0000000000000000000000000000000000000000000000000000000008152600401611b3f9190612c47565b60405180910390fd5b505b6040517f08c379a0000000000000000000000000000000000000000000000000000000008152600401611b7c90612c69565b60405180910390fd5b63bc197c8160e01b7bffffffffffffffffffffffffffffffffffffffffffffffffffffffff1916817bffffffffffffffffffffffffffffffffffffffffffffffffffffffff191614611c0c576040517f08c379a0000000000000000000000000000000000000000000000000000000008152600401611c0390612c89565b60405180910390fd5b505b505050505050565b60606000600167ffffffffffffffff811115611c3557611c34613242565b5b604051908082528060200260200182016040528015611c635781602001602082028036833780820191505090505b5090508281600081518110611c7b57611c7a613213565b5b60200260200101818152505080915050919050565b611caf8473ffffffffffffffffffffffffffffffffffffffff16611ed5565b15611e6f578373ffffffffffffffffffffffffffffffffffffffff1663f23a6e6187878686866040518663ffffffff1660e01b8152600401611cf5959493929190612b79565b602060405180830381600087803b158015611d0f57600080fd5b505af1925050508015611d4057506040513d601f19601f82011682018060405250810190611d3d91906126ff565b60015b611de657611d4c613271565b806308c379a01415611da95750611d6161376e565b80611d6c5750611dab565b806040517f08c379a0000000000000000000000000000000000000000000000000000000008152600401611da09190612c47565b60405180910390fd5b505b6040517f08c379a0000000000000000000000000000000000000000000000000000000008152600401611ddd90612c69565b60405180910390fd5b63f23a6e6160e01b7bffffffffffffffffffffffffffffffffffffffffffffffffffffffff1916817bffffffffffffffffffffffffffffffffffffffffffffffffffffffff191614611e6d576040517f08c379a0000000000000000000000000000000000000000000000000000000008152600401611e6490612c89565b60405180910390fd5b505b505050505050565b611e85868686868686611ee8565b611e8d610727565b15611ecd576040517f08c379a0000000000000000000000000000000000000000000000000000000008152600401611ec490612d09565b60405180910390fd5b505050505050565b600080823b905060008111915050919050565b505050505050565b828054611efc90613109565b90600052602060002090601f016020900481019282611f1e5760008555611f65565b82601f10611f3757805160ff1916838001178555611f65565b82800160010185558215611f65579182015b82811115611f64578251825591602001919060010190611f49565b5b509050611f729190611f76565b5090565b5b80821115611f8f576000816000905550600101611f77565b5090565b6000611fa6611fa184612ed2565b612ead565b90508083825260208201905082856020860282011115611fc957611fc8613298565b5b60005b85811015611ff95781611fdf88826120f7565b845260208401935060208301925050600181019050611fcc565b5050509392505050565b600061201661201184612efe565b612ead565b9050808382526020820190508285602086028201111561203957612038613298565b5b60005b85811015612069578161204f8882612203565b84526020840193506020830192505060018101905061203c565b5050509392505050565b600061208661208184612f2a565b612ead565b9050828152602081018484840111156120a2576120a161329d565b5b6120ad8482856130c7565b509392505050565b60006120c86120c384612f5b565b612ead565b9050828152602081018484840111156120e4576120e361329d565b5b6120ef8482856130c7565b509392505050565b60008135905061210681613804565b92915050565b600082601f83011261212157612120613293565b5b8135612131848260208601611f93565b91505092915050565b600082601f83011261214f5761214e613293565b5b813561215f848260208601612003565b91505092915050565b6000813590506121778161381b565b92915050565b60008135905061218c81613832565b92915050565b6000815190506121a181613832565b92915050565b600082601f8301126121bc576121bb613293565b5b81356121cc848260208601612073565b91505092915050565b600082601f8301126121ea576121e9613293565b5b81356121fa8482602086016120b5565b91505092915050565b60008135905061221281613849565b92915050565b6000806040838503121561222f5761222e6132a7565b5b600061223d858286016120f7565b925050602061224e858286016120f7565b9150509250929050565b600080600080600060a08688031215612274576122736132a7565b5b6000612282888289016120f7565b9550506020612293888289016120f7565b945050604086013567ffffffffffffffff8111156122b4576122b36132a2565b5b6122c08882890161213a565b935050606086013567ffffffffffffffff8111156122e1576122e06132a2565b5b6122ed8882890161213a565b925050608086013567ffffffffffffffff81111561230e5761230d6132a2565b5b61231a888289016121a7565b9150509295509295909350565b600080600080600060a08688031215612343576123426132a7565b5b6000612351888289016120f7565b9550506020612362888289016120f7565b945050604061237388828901612203565b935050606061238488828901612203565b925050608086013567ffffffffffffffff8111156123a5576123a46132a2565b5b6123b1888289016121a7565b9150509295509295909350565b6000806000606084860312156123d7576123d66132a7565b5b60006123e5868287016120f7565b935050602084013567ffffffffffffffff811115612406576124056132a2565b5b6124128682870161213a565b925050604084013567ffffffffffffffff811115612433576124326132a2565b5b61243f8682870161213a565b9150509250925092565b60008060008060808587031215612463576124626132a7565b5b6000612471878288016120f7565b945050602085013567ffffffffffffffff811115612492576124916132a2565b5b61249e8782880161213a565b935050604085013567ffffffffffffffff8111156124bf576124be6132a2565b5b6124cb8782880161213a565b925050606085013567ffffffffffffffff8111156124ec576124eb6132a2565b5b6124f8878288016121a7565b91505092959194509250565b6000806040838503121561251b5761251a6132a7565b5b6000612529858286016120f7565b925050602061253a85828601612168565b9150509250929050565b6000806040838503121561255b5761255a6132a7565b5b6000612569858286016120f7565b925050602061257a85828601612203565b9150509250929050565b60008060006060848603121561259d5761259c6132a7565b5b60006125ab868287016120f7565b93505060206125bc86828701612203565b92505060406125cd86828701612203565b9150509250925092565b600080600080608085870312156125f1576125f06132a7565b5b60006125ff878288016120f7565b945050602061261087828801612203565b935050604061262187828801612203565b925050606085013567ffffffffffffffff811115612642576126416132a2565b5b61264e878288016121a7565b91505092959194509250565b60008060408385031215612671576126706132a7565b5b600083013567ffffffffffffffff81111561268f5761268e6132a2565b5b61269b8582860161210c565b925050602083013567ffffffffffffffff8111156126bc576126bb6132a2565b5b6126c88582860161213a565b9150509250929050565b6000602082840312156126e8576126e76132a7565b5b60006126f68482850161217d565b91505092915050565b600060208284031215612715576127146132a7565b5b600061272384828501612192565b91505092915050565b600060208284031215612742576127416132a7565b5b600082013567ffffffffffffffff8111156127605761275f6132a2565b5b61276c848285016121d5565b91505092915050565b60006020828403121561278b5761278a6132a7565b5b600061279984828501612203565b91505092915050565b60006127ae8383612ad8565b60208301905092915050565b6127c381613053565b82525050565b60006127d482612f9c565b6127de8185612fca565b93506127e983612f8c565b8060005b8381101561281a57815161280188826127a2565b975061280c83612fbd565b9250506001810190506127ed565b5085935050505092915050565b61283081613065565b82525050565b600061284182612fa7565b61284b8185612fdb565b935061285b8185602086016130d6565b612864816132ac565b840191505092915050565b600061287a82612fb2565b6128848185612fec565b93506128948185602086016130d6565b61289d816132ac565b840191505092915050565b60006128b5603483612fec565b91506128c0826132ca565b604082019050919050565b60006128d8602883612fec565b91506128e382613319565b604082019050919050565b60006128fb601483612fec565b915061290682613368565b602082019050919050565b600061291e602b83612fec565b915061292982613391565b604082019050919050565b6000612941602483612fec565b915061294c826133e0565b604082019050919050565b6000612964602c83612fec565b915061296f8261342f565b604082019050919050565b6000612987602983612fec565b91506129928261347e565b604082019050919050565b60006129aa601083612fec565b91506129b5826134cd565b602082019050919050565b60006129cd602583612fec565b91506129d8826134f6565b604082019050919050565b60006129f0603283612fec565b91506129fb82613545565b604082019050919050565b6000612a13602383612fec565b9150612a1e82613594565b604082019050919050565b6000612a36602a83612fec565b9150612a41826135e3565b604082019050919050565b6000612a59602983612fec565b9150612a6482613632565b604082019050919050565b6000612a7c602983612fec565b9150612a8782613681565b604082019050919050565b6000612a9f602883612fec565b9150612aaa826136d0565b604082019050919050565b6000612ac2602183612fec565b9150612acd8261371f565b604082019050919050565b612ae1816130bd565b82525050565b612af0816130bd565b82525050565b6000602082019050612b0b60008301846127ba565b92915050565b600060a082019050612b2660008301886127ba565b612b3360208301876127ba565b8181036040830152612b4581866127c9565b90508181036060830152612b5981856127c9565b90508181036080830152612b6d8184612836565b90509695505050505050565b600060a082019050612b8e60008301886127ba565b612b9b60208301876127ba565b612ba86040830186612ae7565b612bb56060830185612ae7565b8181036080830152612bc78184612836565b90509695505050505050565b60006020820190508181036000830152612bed81846127c9565b905092915050565b60006040820190508181036000830152612c0f81856127c9565b90508181036020830152612c2381846127c9565b90509392505050565b6000602082019050612c416000830184612827565b92915050565b60006020820190508181036000830152612c61818461286f565b905092915050565b60006020820190508181036000830152612c82816128a8565b9050919050565b60006020820190508181036000830152612ca2816128cb565b9050919050565b60006020820190508181036000830152612cc2816128ee565b9050919050565b60006020820190508181036000830152612ce281612911565b9050919050565b60006020820190508181036000830152612d0281612934565b9050919050565b60006020820190508181036000830152612d2281612957565b9050919050565b60006020820190508181036000830152612d428161297a565b9050919050565b60006020820190508181036000830152612d628161299d565b9050919050565b60006020820190508181036000830152612d82816129c0565b9050919050565b60006020820190508181036000830152612da2816129e3565b9050919050565b60006020820190508181036000830152612dc281612a06565b9050919050565b60006020820190508181036000830152612de281612a29565b9050919050565b60006020820190508181036000830152612e0281612a4c565b9050919050565b60006020820190508181036000830152612e2281612a6f565b9050919050565b60006020820190508181036000830152612e4281612a92565b9050919050565b60006020820190508181036000830152612e6281612ab5565b9050919050565b6000602082019050612e7e6000830184612ae7565b92915050565b6000604082019050612e996000830185612ae7565b612ea66020830184612ae7565b9392505050565b6000612eb7612ec8565b9050612ec3828261313b565b919050565b6000604051905090565b600067ffffffffffffffff821115612eed57612eec613242565b5b602082029050602081019050919050565b600067ffffffffffffffff821115612f1957612f18613242565b5b602082029050602081019050919050565b600067ffffffffffffffff821115612f4557612f44613242565b5b612f4e826132ac565b9050602081019050919050565b600067ffffffffffffffff821115612f7657612f75613242565b5b612f7f826132ac565b9050602081019050919050565b6000819050602082019050919050565b600081519050919050565b600081519050919050565b600081519050919050565b6000602082019050919050565b600082825260208201905092915050565b600082825260208201905092915050565b600082825260208201905092915050565b6000613008826130bd565b9150613013836130bd565b9250827fffffffffffffffffffffffffffffffffffffffffffffffffffffffffffffffff03821115613048576130476131b5565b5b828201905092915050565b600061305e8261309d565b9050919050565b60008115159050919050565b60007fffffffff0000000000000000000000000000000000000000000000000000000082169050919050565b600073ffffffffffffffffffffffffffffffffffffffff82169050919050565b6000819050919050565b82818337600083830152505050565b60005b838110156130f45780820151818401526020810190506130d9565b83811115613103576000848401525b50505050565b6000600282049050600182168061312157607f821691505b60208210811415613135576131346131e4565b5b50919050565b613144826132ac565b810181811067ffffffffffffffff8211171561316357613162613242565b5b80604052505050565b6000613177826130bd565b91507fffffffffffffffffffffffffffffffffffffffffffffffffffffffffffffffff8214156131aa576131a96131b5565b5b600182019050919050565b7f4e487b7100000000000000000000000000000000000000000000000000000000600052601160045260246000fd5b7f4e487b7100000000000000000000000000000000000000000000000000000000600052602260045260246000fd5b7f4e487b7100000000000000000000000000000000000000000000000000000000600052603260045260246000fd5b7f4e487b7100000000000000000000000000000000000000000000000000000000600052604160045260246000fd5b600060033d11156132905760046000803e61328d6000516132bd565b90505b90565b600080fd5b600080fd5b600080fd5b600080fd5b600080fd5b6000601f19601f8301169050919050565b60008160e01c9050919050565b7f455243313135353a207472616e7366657220746f206e6f6e204552433131353560008201527f526563656976657220696d706c656d656e746572000000000000000000000000602082015250565b7f455243313135353a204552433131353552656365697665722072656a6563746560008201527f6420746f6b656e73000000000000000000000000000000000000000000000000602082015250565b7f5061757361626c653a206e6f7420706175736564000000000000000000000000600082015250565b7f455243313135353a2062616c616e636520717565727920666f7220746865207a60008201527f65726f2061646472657373000000000000000000000000000000000000000000602082015250565b7f455243313135353a206275726e20616d6f756e7420657863656564732062616c60008201527f616e636500000000000000000000000000000000000000000000000000000000602082015250565b7f455243313135355061757361626c653a20746f6b656e207472616e736665722060008201527f7768696c65207061757365640000000000000000000000000000000000000000602082015250565b7f455243313135353a2063616c6c6572206973206e6f74206f776e6572206e6f7260008201527f20617070726f7665640000000000000000000000000000000000000000000000602082015250565b7f5061757361626c653a2070617573656400000000000000000000000000000000600082015250565b7f455243313135353a207472616e7366657220746f20746865207a65726f20616460008201527f6472657373000000000000000000000000000000000000000000000000000000602082015250565b7f455243313135353a207472616e736665722063616c6c6572206973206e6f742060008201527f6f776e6572206e6f7220617070726f7665640000000000000000000000000000602082015250565b7f455243313135353a206275726e2066726f6d20746865207a65726f206164647260008201527f6573730000000000000000000000000000000000000000000000000000000000602082015250565b7f455243313135353a20696e73756666696369656e742062616c616e636520666f60008201527f72207472616e7366657200000000000000000000000000000000000000000000602082015250565b7f455243313135353a2073657474696e6720617070726f76616c2073746174757360008201527f20666f722073656c660000000000000000000000000000000000000000000000602082015250565b7f455243313135353a206163636f756e747320616e6420696473206c656e67746860008201527f206d69736d617463680000000000000000000000000000000000000000000000602082015250565b7f455243313135353a2069647320616e6420616d6f756e7473206c656e6774682060008201527f6d69736d61746368000000000000000000000000000000000000000000000000602082015250565b7f455243313135353a206d696e7420746f20746865207a65726f2061646472657360008201527f7300000000000000000000000000000000000000000000000000000000000000602082015250565b600060443d101561377e57613801565b613786612ec8565b60043d036004823e80513d602482011167ffffffffffffffff821117156137ae575050613801565b808201805167ffffffffffffffff8111156137cc5750505050613801565b80602083010160043d0385018111156137e9575050505050613801565b6137f88260200185018661313b565b82955050505050505b90565b61380d81613053565b811461381857600080fd5b50565b61382481613065565b811461382f57600080fd5b50565b61383b81613071565b811461384657600080fd5b50565b613852816130bd565b811461385d57600080fd5b5056fea2646970667358221220e289d6ec31fe676a354573d608ed93121f46b7101eb6864480e32e531ade528564736f6c63430008060033",
  "immutableReferences": {},
  "source": "// SPDX-License-Identifier: MIT\n\npragma solidity ^0.8.0;\n\nimport \"./ERC1155Mock.sol\";\nimport \"../token/ERC1155/extensions/ERC1155Pausable.sol\";\n\ncontract ERC1155PausableMock is ERC1155Mock, ERC1155Pausable {\n    constructor(string memory uri) ERC1155Mock(uri) {}\n\n    function pause() external {\n        _pause();\n    }\n\n    function unpause() external {\n        _unpause();\n    }\n\n    function _beforeTokenTransfer(\n        address operator,\n        address from,\n        address to,\n        uint256[] memory ids,\n        uint256[] memory amounts,\n        bytes memory data\n    ) internal virtual override(ERC1155, ERC1155Pausable) {\n        super._beforeTokenTransfer(operator, from, to, ids, amounts, data);\n    }\n}\n",
  "sourcePath": "/home/sandeep/NFT_Market/contracts/mocks/ERC1155PausableMock.sol",
  "compiler": {
    "name": "solc",
    "version": "0.8.6+commit.11564f7e.Emscripten.clang"
  },
  "schemaVersion": "3.4.1",
  "updatedAt": "2021-07-13T14:33:10.242Z",
  "devdoc": {
    "kind": "dev",
    "methods": {
      "balanceOf(address,uint256)": {
        "details": "See {IERC1155-balanceOf}. Requirements: - `account` cannot be the zero address."
      },
      "balanceOfBatch(address[],uint256[])": {
        "details": "See {IERC1155-balanceOfBatch}. Requirements: - `accounts` and `ids` must have the same length."
      },
      "isApprovedForAll(address,address)": {
        "details": "See {IERC1155-isApprovedForAll}."
      },
      "paused()": {
        "details": "Returns true if the contract is paused, and false otherwise."
      },
      "safeBatchTransferFrom(address,address,uint256[],uint256[],bytes)": {
        "details": "See {IERC1155-safeBatchTransferFrom}."
      },
      "safeTransferFrom(address,address,uint256,uint256,bytes)": {
        "details": "See {IERC1155-safeTransferFrom}."
      },
      "setApprovalForAll(address,bool)": {
        "details": "See {IERC1155-setApprovalForAll}."
      },
      "supportsInterface(bytes4)": {
        "details": "See {IERC165-supportsInterface}."
      },
      "uri(uint256)": {
        "details": "See {IERC1155MetadataURI-uri}. This implementation returns the same URI for *all* token types. It relies on the token type ID substitution mechanism https://eips.ethereum.org/EIPS/eip-1155#metadata[defined in the EIP]. Clients calling this function must replace the `\\{id\\}` substring with the actual token type ID."
      }
    },
    "version": 1
  },
  "userdoc": {
    "kind": "user",
    "methods": {},
    "version": 1
  }
}