{
  "contractName": "ERC20PausableMock",
  "abi": [
    {
      "inputs": [
        {
          "internalType": "string",
          "name": "name",
          "type": "string"
        },
        {
          "internalType": "string",
          "name": "symbol",
          "type": "string"
        },
        {
          "internalType": "address",
          "name": "initialAccount",
          "type": "address"
        },
        {
          "internalType": "uint256",
          "name": "initialBalance",
          "type": "uint256"
        }
      ],
      "stateMutability": "nonpayable",
      "type": "constructor"
    },
    {
      "anonymous": false,
      "inputs": [
        {
          "indexed": true,
          "internalType": "address",
          "name": "owner",
          "type": "address"
        },
        {
          "indexed": true,
          "internalType": "address",
          "name": "spender",
          "type": "address"
        },
        {
          "indexed": false,
          "internalType": "uint256",
          "name": "value",
          "type": "uint256"
        }
      ],
      "name": "Approval",
      "type": "event"
    },
    {
      "anonymous": false,
      "inputs": [
        {
          "indexed": false,
          "internalType": "address",
          "name": "account",
          "type": "address"
        }
      ],
      "name": "Paused",
      "type": "event"
    },
    {
      "anonymous": false,
      "inputs": [
        {
          "indexed": true,
          "internalType": "address",
          "name": "from",
          "type": "address"
        },
        {
          "indexed": true,
          "internalType": "address",
          "name": "to",
          "type": "address"
        },
        {
          "indexed": false,
          "internalType": "uint256",
          "name": "value",
          "type": "uint256"
        }
      ],
      "name": "Transfer",
      "type": "event"
    },
    {
      "anonymous": false,
      "inputs": [
        {
          "indexed": false,
          "internalType": "address",
          "name": "account",
          "type": "address"
        }
      ],
      "name": "Unpaused",
      "type": "event"
    },
    {
      "inputs": [
        {
          "internalType": "address",
          "name": "owner",
          "type": "address"
        },
        {
          "internalType": "address",
          "name": "spender",
          "type": "address"
        }
      ],
      "name": "allowance",
      "outputs": [
        {
          "internalType": "uint256",
          "name": "",
          "type": "uint256"
        }
      ],
      "stateMutability": "view",
      "type": "function"
    },
    {
      "inputs": [
        {
          "internalType": "address",
          "name": "spender",
          "type": "address"
        },
        {
          "internalType": "uint256",
          "name": "amount",
          "type": "uint256"
        }
      ],
      "name": "approve",
      "outputs": [
        {
          "internalType": "bool",
          "name": "",
          "type": "bool"
        }
      ],
      "stateMutability": "nonpayable",
      "type": "function"
    },
    {
      "inputs": [
        {
          "internalType": "address",
          "name": "account",
          "type": "address"
        }
      ],
      "name": "balanceOf",
      "outputs": [
        {
          "internalType": "uint256",
          "name": "",
          "type": "uint256"
        }
      ],
      "stateMutability": "view",
      "type": "function"
    },
    {
      "inputs": [],
      "name": "decimals",
      "outputs": [
        {
          "internalType": "uint8",
          "name": "",
          "type": "uint8"
        }
      ],
      "stateMutability": "view",
      "type": "function"
    },
    {
      "inputs": [
        {
          "internalType": "address",
          "name": "spender",
          "type": "address"
        },
        {
          "internalType": "uint256",
          "name": "subtractedValue",
          "type": "uint256"
        }
      ],
      "name": "decreaseAllowance",
      "outputs": [
        {
          "internalType": "bool",
          "name": "",
          "type": "bool"
        }
      ],
      "stateMutability": "nonpayable",
      "type": "function"
    },
    {
      "inputs": [
        {
          "internalType": "address",
          "name": "spender",
          "type": "address"
        },
        {
          "internalType": "uint256",
          "name": "addedValue",
          "type": "uint256"
        }
      ],
      "name": "increaseAllowance",
      "outputs": [
        {
          "internalType": "bool",
          "name": "",
          "type": "bool"
        }
      ],
      "stateMutability": "nonpayable",
      "type": "function"
    },
    {
      "inputs": [],
      "name": "name",
      "outputs": [
        {
          "internalType": "string",
          "name": "",
          "type": "string"
        }
      ],
      "stateMutability": "view",
      "type": "function"
    },
    {
      "inputs": [],
      "name": "paused",
      "outputs": [
        {
          "internalType": "bool",
          "name": "",
          "type": "bool"
        }
      ],
      "stateMutability": "view",
      "type": "function"
    },
    {
      "inputs": [],
      "name": "symbol",
      "outputs": [
        {
          "internalType": "string",
          "name": "",
          "type": "string"
        }
      ],
      "stateMutability": "view",
      "type": "function"
    },
    {
      "inputs": [],
      "name": "totalSupply",
      "outputs": [
        {
          "internalType": "uint256",
          "name": "",
          "type": "uint256"
        }
      ],
      "stateMutability": "view",
      "type": "function"
    },
    {
      "inputs": [
        {
          "internalType": "address",
          "name": "recipient",
          "type": "address"
        },
        {
          "internalType": "uint256",
          "name": "amount",
          "type": "uint256"
        }
      ],
      "name": "transfer",
      "outputs": [
        {
          "internalType": "bool",
          "name": "",
          "type": "bool"
        }
      ],
      "stateMutability": "nonpayable",
      "type": "function"
    },
    {
      "inputs": [
        {
          "internalType": "address",
          "name": "sender",
          "type": "address"
        },
        {
          "internalType": "address",
          "name": "recipient",
          "type": "address"
        },
        {
          "internalType": "uint256",
          "name": "amount",
          "type": "uint256"
        }
      ],
      "name": "transferFrom",
      "outputs": [
        {
          "internalType": "bool",
          "name": "",
          "type": "bool"
        }
      ],
      "stateMutability": "nonpayable",
      "type": "function"
    },
    {
      "inputs": [],
      "name": "pause",
      "outputs": [],
      "stateMutability": "nonpayable",
      "type": "function"
    },
    {
      "inputs": [],
      "name": "unpause",
      "outputs": [],
      "stateMutability": "nonpayable",
      "type": "function"
    },
    {
      "inputs": [
        {
          "internalType": "address",
          "name": "to",
          "type": "address"
        },
        {
          "internalType": "uint256",
          "name": "amount",
          "type": "uint256"
        }
      ],
      "name": "mint",
      "outputs": [],
      "stateMutability": "nonpayable",
      "type": "function"
    },
    {
      "inputs": [
        {
          "internalType": "address",
          "name": "from",
          "type": "address"
        },
        {
          "internalType": "uint256",
          "name": "amount",
          "type": "uint256"
        }
      ],
      "name": "burn",
      "outputs": [],
      "stateMutability": "nonpayable",
      "type": "function"
    }
  ],
  "bytecode": "0x60806040523480156200001157600080fd5b50604051620025733803806200257383398181016040528101906200003791906200040a565b8383816003908051906020019062000051929190620002ae565b5080600490805190602001906200006a929190620002ae565b5050506000600560006101000a81548160ff0219169083151502179055506200009a8282620000a460201b60201c565b5050505062000885565b600073ffffffffffffffffffffffffffffffffffffffff168273ffffffffffffffffffffffffffffffffffffffff16141562000117576040517f08c379a00000000000000000000000000000000000000000000000000000000081526004016200010e9062000519565b60405180910390fd5b6200012b600083836200021d60201b60201c565b80600260008282546200013f9190620005ea565b92505081905550806000808473ffffffffffffffffffffffffffffffffffffffff1673ffffffffffffffffffffffffffffffffffffffff1681526020019081526020016000206000828254620001969190620005ea565b925050819055508173ffffffffffffffffffffffffffffffffffffffff16600073ffffffffffffffffffffffffffffffffffffffff167fddf252ad1be2c89b69c2b068fc378daa952ba7f163c4a11628f55a4df523b3ef83604051620001fd91906200055d565b60405180910390a362000219600083836200028d60201b60201c565b5050565b620002358383836200029260201b6200084f1760201c565b620002456200029760201b60201c565b1562000288576040517f08c379a00000000000000000000000000000000000000000000000000000000081526004016200027f906200053b565b60405180910390fd5b505050565b505050565b505050565b6000600560009054906101000a900460ff16905090565b828054620002bc90620006bb565b90600052602060002090601f016020900481019282620002e057600085556200032c565b82601f10620002fb57805160ff19168380011785556200032c565b828001600101855582156200032c579182015b828111156200032b5782518255916020019190600101906200030e565b5b5090506200033b91906200033f565b5090565b5b808211156200035a57600081600090555060010162000340565b5090565b6000620003756200036f84620005a3565b6200057a565b905082815260208101848484011115620003945762000393620007b9565b5b620003a184828562000685565b509392505050565b600081519050620003ba8162000851565b92915050565b600082601f830112620003d857620003d7620007b4565b5b8151620003ea8482602086016200035e565b91505092915050565b60008151905062000404816200086b565b92915050565b60008060008060808587031215620004275762000426620007c3565b5b600085015167ffffffffffffffff811115620004485762000447620007be565b5b6200045687828801620003c0565b945050602085015167ffffffffffffffff8111156200047a5762000479620007be565b5b6200048887828801620003c0565b93505060406200049b87828801620003a9565b9250506060620004ae87828801620003f3565b91505092959194509250565b6000620004c9601f83620005d9565b9150620004d682620007d9565b602082019050919050565b6000620004f0602a83620005d9565b9150620004fd8262000802565b604082019050919050565b62000513816200067b565b82525050565b600060208201905081810360008301526200053481620004ba565b9050919050565b600060208201905081810360008301526200055681620004e1565b9050919050565b600060208201905062000574600083018462000508565b92915050565b60006200058662000599565b9050620005948282620006f1565b919050565b6000604051905090565b600067ffffffffffffffff821115620005c157620005c062000785565b5b620005cc82620007c8565b9050602081019050919050565b600082825260208201905092915050565b6000620005f7826200067b565b915062000604836200067b565b9250827fffffffffffffffffffffffffffffffffffffffffffffffffffffffffffffffff038211156200063c576200063b62000727565b5b828201905092915050565b600062000654826200065b565b9050919050565b600073ffffffffffffffffffffffffffffffffffffffff82169050919050565b6000819050919050565b60005b83811015620006a557808201518184015260208101905062000688565b83811115620006b5576000848401525b50505050565b60006002820490506001821680620006d457607f821691505b60208210811415620006eb57620006ea62000756565b5b50919050565b620006fc82620007c8565b810181811067ffffffffffffffff821117156200071e576200071d62000785565b5b80604052505050565b7f4e487b7100000000000000000000000000000000000000000000000000000000600052601160045260246000fd5b7f4e487b7100000000000000000000000000000000000000000000000000000000600052602260045260246000fd5b7f4e487b7100000000000000000000000000000000000000000000000000000000600052604160045260246000fd5b600080fd5b600080fd5b600080fd5b600080fd5b6000601f19601f8301169050919050565b7f45524332303a206d696e7420746f20746865207a65726f206164647265737300600082015250565b7f45524332305061757361626c653a20746f6b656e207472616e7366657220776860008201527f696c652070617573656400000000000000000000000000000000000000000000602082015250565b6200085c8162000647565b81146200086857600080fd5b50565b62000876816200067b565b81146200088257600080fd5b50565b611cde80620008956000396000f3fe608060405234801561001057600080fd5b50600436106101005760003560e01c80635c975abb116100975780639dc29fac116100665780639dc29fac1461028b578063a457c2d7146102a7578063a9059cbb146102d7578063dd62ed3e1461030757610100565b80635c975abb1461021557806370a08231146102335780638456cb591461026357806395d89b411461026d57610100565b8063313ce567116100d3578063313ce567146101a157806339509351146101bf5780633f4ba83a146101ef57806340c10f19146101f957610100565b806306fdde0314610105578063095ea7b31461012357806318160ddd1461015357806323b872dd14610171575b600080fd5b61010d610337565b60405161011a919061151d565b60405180910390f35b61013d6004803603810190610138919061126b565b6103c9565b60405161014a9190611502565b60405180910390f35b61015b6103e7565b60405161016891906116df565b60405180910390f35b61018b60048036038101906101869190611218565b6103f1565b6040516101989190611502565b60405180910390f35b6101a96104e9565b6040516101b691906116fa565b60405180910390f35b6101d960048036038101906101d4919061126b565b6104f2565b6040516101e69190611502565b60405180910390f35b6101f761059e565b005b610213600480360381019061020e919061126b565b6105a8565b005b61021d6105b6565b60405161022a9190611502565b60405180910390f35b61024d600480360381019061024891906111ab565b6105cd565b60405161025a91906116df565b60405180910390f35b61026b610615565b005b61027561061f565b604051610282919061151d565b60405180910390f35b6102a560048036038101906102a0919061126b565b6106b1565b005b6102c160048036038101906102bc919061126b565b6106bf565b6040516102ce9190611502565b60405180910390f35b6102f160048036038101906102ec919061126b565b6107aa565b6040516102fe9190611502565b60405180910390f35b610321600480360381019061031c91906111d8565b6107c8565b60405161032e91906116df565b60405180910390f35b60606003805461034690611843565b80601f016020809104026020016040519081016040528092919081815260200182805461037290611843565b80156103bf5780601f10610394576101008083540402835291602001916103bf565b820191906000526020600020905b8154815290600101906020018083116103a257829003601f168201915b5050505050905090565b60006103dd6103d6610854565b848461085c565b6001905092915050565b6000600254905090565b60006103fe848484610a27565b6000600160008673ffffffffffffffffffffffffffffffffffffffff1673ffffffffffffffffffffffffffffffffffffffff1681526020019081526020016000206000610449610854565b73ffffffffffffffffffffffffffffffffffffffff1673ffffffffffffffffffffffffffffffffffffffff168152602001908152602001600020549050828110156104c9576040517f08c379a00000000000000000000000000000000000000000000000000000000081526004016104c0906115ff565b60405180910390fd5b6104dd856104d5610854565b85840361085c565b60019150509392505050565b60006012905090565b60006105946104ff610854565b84846001600061050d610854565b73ffffffffffffffffffffffffffffffffffffffff1673ffffffffffffffffffffffffffffffffffffffff16815260200190815260200160002060008873ffffffffffffffffffffffffffffffffffffffff1673ffffffffffffffffffffffffffffffffffffffff1681526020019081526020016000205461058f9190611731565b61085c565b6001905092915050565b6105a6610ca8565b565b6105b28282610d4a565b5050565b6000600560009054906101000a900460ff16905090565b60008060008373ffffffffffffffffffffffffffffffffffffffff1673ffffffffffffffffffffffffffffffffffffffff168152602001908152602001600020549050919050565b61061d610eaa565b565b60606004805461062e90611843565b80601f016020809104026020016040519081016040528092919081815260200182805461065a90611843565b80156106a75780601f1061067c576101008083540402835291602001916106a7565b820191906000526020600020905b81548152906001019060200180831161068a57829003601f168201915b5050505050905090565b6106bb8282610f4d565b5050565b600080600160006106ce610854565b73ffffffffffffffffffffffffffffffffffffffff1673ffffffffffffffffffffffffffffffffffffffff16815260200190815260200160002060008573ffffffffffffffffffffffffffffffffffffffff1673ffffffffffffffffffffffffffffffffffffffff1681526020019081526020016000205490508281101561078b576040517f08c379a00000000000000000000000000000000000000000000000000000000081526004016107829061167f565b60405180910390fd5b61079f610796610854565b8585840361085c565b600191505092915050565b60006107be6107b7610854565b8484610a27565b6001905092915050565b6000600160008473ffffffffffffffffffffffffffffffffffffffff1673ffffffffffffffffffffffffffffffffffffffff16815260200190815260200160002060008373ffffffffffffffffffffffffffffffffffffffff1673ffffffffffffffffffffffffffffffffffffffff16815260200190815260200160002054905092915050565b505050565b600033905090565b600073ffffffffffffffffffffffffffffffffffffffff168373ffffffffffffffffffffffffffffffffffffffff1614156108cc576040517f08c379a00000000000000000000000000000000000000000000000000000000081526004016108c39061165f565b60405180910390fd5b600073ffffffffffffffffffffffffffffffffffffffff168273ffffffffffffffffffffffffffffffffffffffff16141561093c576040517f08c379a00000000000000000000000000000000000000000000000000000000081526004016109339061159f565b60405180910390fd5b80600160008573ffffffffffffffffffffffffffffffffffffffff1673ffffffffffffffffffffffffffffffffffffffff16815260200190815260200160002060008473ffffffffffffffffffffffffffffffffffffffff1673ffffffffffffffffffffffffffffffffffffffff168152602001908152602001600020819055508173ffffffffffffffffffffffffffffffffffffffff168373ffffffffffffffffffffffffffffffffffffffff167f8c5be1e5ebec7d5bd14f71427d1e84f3dd0314c0f7b2291e5b200ac8c7c3b92583604051610a1a91906116df565b60405180910390a3505050565b600073ffffffffffffffffffffffffffffffffffffffff168373ffffffffffffffffffffffffffffffffffffffff161415610a97576040517f08c379a0000000000000000000000000000000000000000000000000000000008152600401610a8e9061163f565b60405180910390fd5b600073ffffffffffffffffffffffffffffffffffffffff168273ffffffffffffffffffffffffffffffffffffffff161415610b07576040517f08c379a0000000000000000000000000000000000000000000000000000000008152600401610afe9061153f565b60405180910390fd5b610b12838383611124565b60008060008573ffffffffffffffffffffffffffffffffffffffff1673ffffffffffffffffffffffffffffffffffffffff16815260200190815260200160002054905081811015610b98576040517f08c379a0000000000000000000000000000000000000000000000000000000008152600401610b8f906115bf565b60405180910390fd5b8181036000808673ffffffffffffffffffffffffffffffffffffffff1673ffffffffffffffffffffffffffffffffffffffff16815260200190815260200160002081905550816000808573ffffffffffffffffffffffffffffffffffffffff1673ffffffffffffffffffffffffffffffffffffffff1681526020019081526020016000206000828254610c2b9190611731565b925050819055508273ffffffffffffffffffffffffffffffffffffffff168473ffffffffffffffffffffffffffffffffffffffff167fddf252ad1be2c89b69c2b068fc378daa952ba7f163c4a11628f55a4df523b3ef84604051610c8f91906116df565b60405180910390a3610ca284848461117c565b50505050565b610cb06105b6565b610cef576040517f08c379a0000000000000000000000000000000000000000000000000000000008152600401610ce69061155f565b60405180910390fd5b6000600560006101000a81548160ff0219169083151502179055507f5db9ee0a495bf2e6ff9c91a7834c1ba4fdd244a5e8aa4e537bd38aeae4b073aa610d33610854565b604051610d4091906114e7565b60405180910390a1565b600073ffffffffffffffffffffffffffffffffffffffff168273ffffffffffffffffffffffffffffffffffffffff161415610dba576040517f08c379a0000000000000000000000000000000000000000000000000000000008152600401610db19061169f565b60405180910390fd5b610dc660008383611124565b8060026000828254610dd89190611731565b92505081905550806000808473ffffffffffffffffffffffffffffffffffffffff1673ffffffffffffffffffffffffffffffffffffffff1681526020019081526020016000206000828254610e2d9190611731565b925050819055508173ffffffffffffffffffffffffffffffffffffffff16600073ffffffffffffffffffffffffffffffffffffffff167fddf252ad1be2c89b69c2b068fc378daa952ba7f163c4a11628f55a4df523b3ef83604051610e9291906116df565b60405180910390a3610ea66000838361117c565b5050565b610eb26105b6565b15610ef2576040517f08c379a0000000000000000000000000000000000000000000000000000000008152600401610ee9906115df565b60405180910390fd5b6001600560006101000a81548160ff0219169083151502179055507f62e78cea01bee320cd4e420270b5ea74000d11b0c9f74754ebdbfc544b05a258610f36610854565b604051610f4391906114e7565b60405180910390a1565b600073ffffffffffffffffffffffffffffffffffffffff168273ffffffffffffffffffffffffffffffffffffffff161415610fbd576040517f08c379a0000000000000000000000000000000000000000000000000000000008152600401610fb49061161f565b60405180910390fd5b610fc982600083611124565b60008060008473ffffffffffffffffffffffffffffffffffffffff1673ffffffffffffffffffffffffffffffffffffffff1681526020019081526020016000205490508181101561104f576040517f08c379a00000000000000000000000000000000000000000000000000000000081526004016110469061157f565b60405180910390fd5b8181036000808573ffffffffffffffffffffffffffffffffffffffff1673ffffffffffffffffffffffffffffffffffffffff1681526020019081526020016000208190555081600260008282546110a69190611787565b92505081905550600073ffffffffffffffffffffffffffffffffffffffff168373ffffffffffffffffffffffffffffffffffffffff167fddf252ad1be2c89b69c2b068fc378daa952ba7f163c4a11628f55a4df523b3ef8460405161110b91906116df565b60405180910390a361111f8360008461117c565b505050565b61112f83838361084f565b6111376105b6565b15611177576040517f08c379a000000000000000000000000000000000000000000000000000000000815260040161116e906116bf565b60405180910390fd5b505050565b505050565b60008135905061119081611c7a565b92915050565b6000813590506111a581611c91565b92915050565b6000602082840312156111c1576111c06118d3565b5b60006111cf84828501611181565b91505092915050565b600080604083850312156111ef576111ee6118d3565b5b60006111fd85828601611181565b925050602061120e85828601611181565b9150509250929050565b600080600060608486031215611231576112306118d3565b5b600061123f86828701611181565b935050602061125086828701611181565b925050604061126186828701611196565b9150509250925092565b60008060408385031215611282576112816118d3565b5b600061129085828601611181565b92505060206112a185828601611196565b9150509250929050565b6112b4816117bb565b82525050565b6112c3816117cd565b82525050565b60006112d482611715565b6112de8185611720565b93506112ee818560208601611810565b6112f7816118d8565b840191505092915050565b600061130f602383611720565b915061131a826118e9565b604082019050919050565b6000611332601483611720565b915061133d82611938565b602082019050919050565b6000611355602283611720565b915061136082611961565b604082019050919050565b6000611378602283611720565b9150611383826119b0565b604082019050919050565b600061139b602683611720565b91506113a6826119ff565b604082019050919050565b60006113be601083611720565b91506113c982611a4e565b602082019050919050565b60006113e1602883611720565b91506113ec82611a77565b604082019050919050565b6000611404602183611720565b915061140f82611ac6565b604082019050919050565b6000611427602583611720565b915061143282611b15565b604082019050919050565b600061144a602483611720565b915061145582611b64565b604082019050919050565b600061146d602583611720565b915061147882611bb3565b604082019050919050565b6000611490601f83611720565b915061149b82611c02565b602082019050919050565b60006114b3602a83611720565b91506114be82611c2b565b604082019050919050565b6114d2816117f9565b82525050565b6114e181611803565b82525050565b60006020820190506114fc60008301846112ab565b92915050565b600060208201905061151760008301846112ba565b92915050565b6000602082019050818103600083015261153781846112c9565b905092915050565b6000602082019050818103600083015261155881611302565b9050919050565b6000602082019050818103600083015261157881611325565b9050919050565b6000602082019050818103600083015261159881611348565b9050919050565b600060208201905081810360008301526115b88161136b565b9050919050565b600060208201905081810360008301526115d88161138e565b9050919050565b600060208201905081810360008301526115f8816113b1565b9050919050565b60006020820190508181036000830152611618816113d4565b9050919050565b60006020820190508181036000830152611638816113f7565b9050919050565b600060208201905081810360008301526116588161141a565b9050919050565b600060208201905081810360008301526116788161143d565b9050919050565b6000602082019050818103600083015261169881611460565b9050919050565b600060208201905081810360008301526116b881611483565b9050919050565b600060208201905081810360008301526116d8816114a6565b9050919050565b60006020820190506116f460008301846114c9565b92915050565b600060208201905061170f60008301846114d8565b92915050565b600081519050919050565b600082825260208201905092915050565b600061173c826117f9565b9150611747836117f9565b9250827fffffffffffffffffffffffffffffffffffffffffffffffffffffffffffffffff0382111561177c5761177b611875565b5b828201905092915050565b6000611792826117f9565b915061179d836117f9565b9250828210156117b0576117af611875565b5b828203905092915050565b60006117c6826117d9565b9050919050565b60008115159050919050565b600073ffffffffffffffffffffffffffffffffffffffff82169050919050565b6000819050919050565b600060ff82169050919050565b60005b8381101561182e578082015181840152602081019050611813565b8381111561183d576000848401525b50505050565b6000600282049050600182168061185b57607f821691505b6020821081141561186f5761186e6118a4565b5b50919050565b7f4e487b7100000000000000000000000000000000000000000000000000000000600052601160045260246000fd5b7f4e487b7100000000000000000000000000000000000000000000000000000000600052602260045260246000fd5b600080fd5b6000601f19601f8301169050919050565b7f45524332303a207472616e7366657220746f20746865207a65726f206164647260008201527f6573730000000000000000000000000000000000000000000000000000000000602082015250565b7f5061757361626c653a206e6f7420706175736564000000000000000000000000600082015250565b7f45524332303a206275726e20616d6f756e7420657863656564732062616c616e60008201527f6365000000000000000000000000000000000000000000000000000000000000602082015250565b7f45524332303a20617070726f766520746f20746865207a65726f20616464726560008201527f7373000000000000000000000000000000000000000000000000000000000000602082015250565b7f45524332303a207472616e7366657220616d6f756e742065786365656473206260008201527f616c616e63650000000000000000000000000000000000000000000000000000602082015250565b7f5061757361626c653a2070617573656400000000000000000000000000000000600082015250565b7f45524332303a207472616e7366657220616d6f756e742065786365656473206160008201527f6c6c6f77616e6365000000000000000000000000000000000000000000000000602082015250565b7f45524332303a206275726e2066726f6d20746865207a65726f2061646472657360008201527f7300000000000000000000000000000000000000000000000000000000000000602082015250565b7f45524332303a207472616e736665722066726f6d20746865207a65726f20616460008201527f6472657373000000000000000000000000000000000000000000000000000000602082015250565b7f45524332303a20617070726f76652066726f6d20746865207a65726f2061646460008201527f7265737300000000000000000000000000000000000000000000000000000000602082015250565b7f45524332303a2064656372656173656420616c6c6f77616e63652062656c6f7760008201527f207a65726f000000000000000000000000000000000000000000000000000000602082015250565b7f45524332303a206d696e7420746f20746865207a65726f206164647265737300600082015250565b7f45524332305061757361626c653a20746f6b656e207472616e7366657220776860008201527f696c652070617573656400000000000000000000000000000000000000000000602082015250565b611c83816117bb565b8114611c8e57600080fd5b50565b611c9a816117f9565b8114611ca557600080fd5b5056fea2646970667358221220e660096ef27a20923aa023d3f02187b7127090cc55a016811f8ea6facc29800564736f6c63430008060033",
  "immutableReferences": {},
  "source": "// SPDX-License-Identifier: MIT\n\npragma solidity ^0.8.0;\n\nimport \"../token/ERC20/extensions/ERC20Pausable.sol\";\n\n// mock class using ERC20Pausable\ncontract ERC20PausableMock is ERC20Pausable {\n    constructor(\n        string memory name,\n        string memory symbol,\n        address initialAccount,\n        uint256 initialBalance\n    ) ERC20(name, symbol) {\n        _mint(initialAccount, initialBalance);\n    }\n\n    function pause() external {\n        _pause();\n    }\n\n    function unpause() external {\n        _unpause();\n    }\n\n    function mint(address to, uint256 amount) public {\n        _mint(to, amount);\n    }\n\n    function burn(address from, uint256 amount) public {\n        _burn(from, amount);\n    }\n}\n",
  "sourcePath": "/home/sandeep/NFT_Market/contracts/mocks/ERC20PausableMock.sol",
  "compiler": {
    "name": "solc",
    "version": "0.8.6+commit.11564f7e.Emscripten.clang"
  },
  "schemaVersion": "3.4.1",
  "updatedAt": "2021-07-13T14:33:10.371Z",
  "devdoc": {
    "kind": "dev",
    "methods": {
      "allowance(address,address)": {
        "details": "See {IERC20-allowance}."
      },
      "approve(address,uint256)": {
        "details": "See {IERC20-approve}. Requirements: - `spender` cannot be the zero address."
      },
      "balanceOf(address)": {
        "details": "See {IERC20-balanceOf}."
      },
      "decimals()": {
        "details": "Returns the number of decimals used to get its user representation. For example, if `decimals` equals `2`, a balance of `505` tokens should be displayed to a user as `5.05` (`505 / 10 ** 2`). Tokens usually opt for a value of 18, imitating the relationship between Ether and Wei. This is the value {ERC20} uses, unless this function is overridden; NOTE: This information is only used for _display_ purposes: it in no way affects any of the arithmetic of the contract, including {IERC20-balanceOf} and {IERC20-transfer}."
      },
      "decreaseAllowance(address,uint256)": {
        "details": "Atomically decreases the allowance granted to `spender` by the caller. This is an alternative to {approve} that can be used as a mitigation for problems described in {IERC20-approve}. Emits an {Approval} event indicating the updated allowance. Requirements: - `spender` cannot be the zero address. - `spender` must have allowance for the caller of at least `subtractedValue`."
      },
      "increaseAllowance(address,uint256)": {
        "details": "Atomically increases the allowance granted to `spender` by the caller. This is an alternative to {approve} that can be used as a mitigation for problems described in {IERC20-approve}. Emits an {Approval} event indicating the updated allowance. Requirements: - `spender` cannot be the zero address."
      },
      "name()": {
        "details": "Returns the name of the token."
      },
      "paused()": {
        "details": "Returns true if the contract is paused, and false otherwise."
      },
      "symbol()": {
        "details": "Returns the symbol of the token, usually a shorter version of the name."
      },
      "totalSupply()": {
        "details": "See {IERC20-totalSupply}."
      },
      "transfer(address,uint256)": {
        "details": "See {IERC20-transfer}. Requirements: - `recipient` cannot be the zero address. - the caller must have a balance of at least `amount`."
      },
      "transferFrom(address,address,uint256)": {
        "details": "See {IERC20-transferFrom}. Emits an {Approval} event indicating the updated allowance. This is not required by the EIP. See the note at the beginning of {ERC20}. Requirements: - `sender` and `recipient` cannot be the zero address. - `sender` must have a balance of at least `amount`. - the caller must have allowance for ``sender``'s tokens of at least `amount`."
      }
    },
    "version": 1
  },
  "userdoc": {
    "kind": "user",
    "methods": {},
    "version": 1
  }
}