{
  "contractName": "ERC20VotesCompMock",
  "abi": [
    {
      "inputs": [
        {
          "internalType": "string",
          "name": "name",
          "type": "string"
        },
        {
          "internalType": "string",
          "name": "symbol",
          "type": "string"
        }
      ],
      "stateMutability": "nonpayable",
      "type": "constructor"
    },
    {
      "anonymous": false,
      "inputs": [
        {
          "indexed": true,
          "internalType": "address",
          "name": "owner",
          "type": "address"
        },
        {
          "indexed": true,
          "internalType": "address",
          "name": "spender",
          "type": "address"
        },
        {
          "indexed": false,
          "internalType": "uint256",
          "name": "value",
          "type": "uint256"
        }
      ],
      "name": "Approval",
      "type": "event"
    },
    {
      "anonymous": false,
      "inputs": [
        {
          "indexed": true,
          "internalType": "address",
          "name": "delegator",
          "type": "address"
        },
        {
          "indexed": true,
          "internalType": "address",
          "name": "fromDelegate",
          "type": "address"
        },
        {
          "indexed": true,
          "internalType": "address",
          "name": "toDelegate",
          "type": "address"
        }
      ],
      "name": "DelegateChanged",
      "type": "event"
    },
    {
      "anonymous": false,
      "inputs": [
        {
          "indexed": true,
          "internalType": "address",
          "name": "delegate",
          "type": "address"
        },
        {
          "indexed": false,
          "internalType": "uint256",
          "name": "previousBalance",
          "type": "uint256"
        },
        {
          "indexed": false,
          "internalType": "uint256",
          "name": "newBalance",
          "type": "uint256"
        }
      ],
      "name": "DelegateVotesChanged",
      "type": "event"
    },
    {
      "anonymous": false,
      "inputs": [
        {
          "indexed": true,
          "internalType": "address",
          "name": "from",
          "type": "address"
        },
        {
          "indexed": true,
          "internalType": "address",
          "name": "to",
          "type": "address"
        },
        {
          "indexed": false,
          "internalType": "uint256",
          "name": "value",
          "type": "uint256"
        }
      ],
      "name": "Transfer",
      "type": "event"
    },
    {
      "inputs": [],
      "name": "DOMAIN_SEPARATOR",
      "outputs": [
        {
          "internalType": "bytes32",
          "name": "",
          "type": "bytes32"
        }
      ],
      "stateMutability": "view",
      "type": "function"
    },
    {
      "inputs": [
        {
          "internalType": "address",
          "name": "owner",
          "type": "address"
        },
        {
          "internalType": "address",
          "name": "spender",
          "type": "address"
        }
      ],
      "name": "allowance",
      "outputs": [
        {
          "internalType": "uint256",
          "name": "",
          "type": "uint256"
        }
      ],
      "stateMutability": "view",
      "type": "function"
    },
    {
      "inputs": [
        {
          "internalType": "address",
          "name": "spender",
          "type": "address"
        },
        {
          "internalType": "uint256",
          "name": "amount",
          "type": "uint256"
        }
      ],
      "name": "approve",
      "outputs": [
        {
          "internalType": "bool",
          "name": "",
          "type": "bool"
        }
      ],
      "stateMutability": "nonpayable",
      "type": "function"
    },
    {
      "inputs": [
        {
          "internalType": "address",
          "name": "account",
          "type": "address"
        }
      ],
      "name": "balanceOf",
      "outputs": [
        {
          "internalType": "uint256",
          "name": "",
          "type": "uint256"
        }
      ],
      "stateMutability": "view",
      "type": "function"
    },
    {
      "inputs": [
        {
          "internalType": "address",
          "name": "account",
          "type": "address"
        },
        {
          "internalType": "uint32",
          "name": "pos",
          "type": "uint32"
        }
      ],
      "name": "checkpoints",
      "outputs": [
        {
          "components": [
            {
              "internalType": "uint32",
              "name": "fromBlock",
              "type": "uint32"
            },
            {
              "internalType": "uint224",
              "name": "votes",
              "type": "uint224"
            }
          ],
          "internalType": "struct ERC20Votes.Checkpoint",
          "name": "",
          "type": "tuple"
        }
      ],
      "stateMutability": "view",
      "type": "function"
    },
    {
      "inputs": [],
      "name": "decimals",
      "outputs": [
        {
          "internalType": "uint8",
          "name": "",
          "type": "uint8"
        }
      ],
      "stateMutability": "view",
      "type": "function"
    },
    {
      "inputs": [
        {
          "internalType": "address",
          "name": "spender",
          "type": "address"
        },
        {
          "internalType": "uint256",
          "name": "subtractedValue",
          "type": "uint256"
        }
      ],
      "name": "decreaseAllowance",
      "outputs": [
        {
          "internalType": "bool",
          "name": "",
          "type": "bool"
        }
      ],
      "stateMutability": "nonpayable",
      "type": "function"
    },
    {
      "inputs": [
        {
          "internalType": "address",
          "name": "delegatee",
          "type": "address"
        }
      ],
      "name": "delegate",
      "outputs": [],
      "stateMutability": "nonpayable",
      "type": "function"
    },
    {
      "inputs": [
        {
          "internalType": "address",
          "name": "delegatee",
          "type": "address"
        },
        {
          "internalType": "uint256",
          "name": "nonce",
          "type": "uint256"
        },
        {
          "internalType": "uint256",
          "name": "expiry",
          "type": "uint256"
        },
        {
          "internalType": "uint8",
          "name": "v",
          "type": "uint8"
        },
        {
          "internalType": "bytes32",
          "name": "r",
          "type": "bytes32"
        },
        {
          "internalType": "bytes32",
          "name": "s",
          "type": "bytes32"
        }
      ],
      "name": "delegateBySig",
      "outputs": [],
      "stateMutability": "nonpayable",
      "type": "function"
    },
    {
      "inputs": [
        {
          "internalType": "address",
          "name": "account",
          "type": "address"
        }
      ],
      "name": "delegates",
      "outputs": [
        {
          "internalType": "address",
          "name": "",
          "type": "address"
        }
      ],
      "stateMutability": "view",
      "type": "function"
    },
    {
      "inputs": [
        {
          "internalType": "address",
          "name": "account",
          "type": "address"
        }
      ],
      "name": "getCurrentVotes",
      "outputs": [
        {
          "internalType": "uint96",
          "name": "",
          "type": "uint96"
        }
      ],
      "stateMutability": "view",
      "type": "function"
    },
    {
      "inputs": [
        {
          "internalType": "uint256",
          "name": "blockNumber",
          "type": "uint256"
        }
      ],
      "name": "getPastTotalSupply",
      "outputs": [
        {
          "internalType": "uint256",
          "name": "",
          "type": "uint256"
        }
      ],
      "stateMutability": "view",
      "type": "function"
    },
    {
      "inputs": [
        {
          "internalType": "address",
          "name": "account",
          "type": "address"
        },
        {
          "internalType": "uint256",
          "name": "blockNumber",
          "type": "uint256"
        }
      ],
      "name": "getPastVotes",
      "outputs": [
        {
          "internalType": "uint256",
          "name": "",
          "type": "uint256"
        }
      ],
      "stateMutability": "view",
      "type": "function"
    },
    {
      "inputs": [
        {
          "internalType": "address",
          "name": "account",
          "type": "address"
        },
        {
          "internalType": "uint256",
          "name": "blockNumber",
          "type": "uint256"
        }
      ],
      "name": "getPriorVotes",
      "outputs": [
        {
          "internalType": "uint96",
          "name": "",
          "type": "uint96"
        }
      ],
      "stateMutability": "view",
      "type": "function"
    },
    {
      "inputs": [
        {
          "internalType": "address",
          "name": "account",
          "type": "address"
        }
      ],
      "name": "getVotes",
      "outputs": [
        {
          "internalType": "uint256",
          "name": "",
          "type": "uint256"
        }
      ],
      "stateMutability": "view",
      "type": "function"
    },
    {
      "inputs": [
        {
          "internalType": "address",
          "name": "spender",
          "type": "address"
        },
        {
          "internalType": "uint256",
          "name": "addedValue",
          "type": "uint256"
        }
      ],
      "name": "increaseAllowance",
      "outputs": [
        {
          "internalType": "bool",
          "name": "",
          "type": "bool"
        }
      ],
      "stateMutability": "nonpayable",
      "type": "function"
    },
    {
      "inputs": [],
      "name": "name",
      "outputs": [
        {
          "internalType": "string",
          "name": "",
          "type": "string"
        }
      ],
      "stateMutability": "view",
      "type": "function"
    },
    {
      "inputs": [
        {
          "internalType": "address",
          "name": "owner",
          "type": "address"
        }
      ],
      "name": "nonces",
      "outputs": [
        {
          "internalType": "uint256",
          "name": "",
          "type": "uint256"
        }
      ],
      "stateMutability": "view",
      "type": "function"
    },
    {
      "inputs": [
        {
          "internalType": "address",
          "name": "account",
          "type": "address"
        }
      ],
      "name": "numCheckpoints",
      "outputs": [
        {
          "internalType": "uint32",
          "name": "",
          "type": "uint32"
        }
      ],
      "stateMutability": "view",
      "type": "function"
    },
    {
      "inputs": [
        {
          "internalType": "address",
          "name": "owner",
          "type": "address"
        },
        {
          "internalType": "address",
          "name": "spender",
          "type": "address"
        },
        {
          "internalType": "uint256",
          "name": "value",
          "type": "uint256"
        },
        {
          "internalType": "uint256",
          "name": "deadline",
          "type": "uint256"
        },
        {
          "internalType": "uint8",
          "name": "v",
          "type": "uint8"
        },
        {
          "internalType": "bytes32",
          "name": "r",
          "type": "bytes32"
        },
        {
          "internalType": "bytes32",
          "name": "s",
          "type": "bytes32"
        }
      ],
      "name": "permit",
      "outputs": [],
      "stateMutability": "nonpayable",
      "type": "function"
    },
    {
      "inputs": [],
      "name": "symbol",
      "outputs": [
        {
          "internalType": "string",
          "name": "",
          "type": "string"
        }
      ],
      "stateMutability": "view",
      "type": "function"
    },
    {
      "inputs": [],
      "name": "totalSupply",
      "outputs": [
        {
          "internalType": "uint256",
          "name": "",
          "type": "uint256"
        }
      ],
      "stateMutability": "view",
      "type": "function"
    },
    {
      "inputs": [
        {
          "internalType": "address",
          "name": "recipient",
          "type": "address"
        },
        {
          "internalType": "uint256",
          "name": "amount",
          "type": "uint256"
        }
      ],
      "name": "transfer",
      "outputs": [
        {
          "internalType": "bool",
          "name": "",
          "type": "bool"
        }
      ],
      "stateMutability": "nonpayable",
      "type": "function"
    },
    {
      "inputs": [
        {
          "internalType": "address",
          "name": "sender",
          "type": "address"
        },
        {
          "internalType": "address",
          "name": "recipient",
          "type": "address"
        },
        {
          "internalType": "uint256",
          "name": "amount",
          "type": "uint256"
        }
      ],
      "name": "transferFrom",
      "outputs": [
        {
          "internalType": "bool",
          "name": "",
          "type": "bool"
        }
      ],
      "stateMutability": "nonpayable",
      "type": "function"
    },
    {
      "inputs": [
        {
          "internalType": "address",
          "name": "account",
          "type": "address"
        },
        {
          "internalType": "uint256",
          "name": "amount",
          "type": "uint256"
        }
      ],
      "name": "mint",
      "outputs": [],
      "stateMutability": "nonpayable",
      "type": "function"
    },
    {
      "inputs": [
        {
          "internalType": "address",
          "name": "account",
          "type": "address"
        },
        {
          "internalType": "uint256",
          "name": "amount",
          "type": "uint256"
        }
      ],
      "name": "burn",
      "outputs": [],
      "stateMutability": "nonpayable",
      "type": "function"
    },
    {
      "inputs": [],
      "name": "getChainId",
      "outputs": [
        {
          "internalType": "uint256",
          "name": "",
          "type": "uint256"
        }
      ],
      "stateMutability": "view",
      "type": "function"
    }
  ],
  "bytecode": "0x6101406040527f6e71edae12b1b97f4d1f60370fef10105fa2faae0126114a169c64845d6126c9610120908152503480156200003a57600080fd5b506040516200418d3803806200418d8339818101604052810190620000609190620002be565b81806040518060400160405280600181526020017f310000000000000000000000000000000000000000000000000000000000000081525084848160039080519060200190620000b292919062000190565b508060049080519060200190620000cb92919062000190565b50505060008280519060200120905060008280519060200120905060007f8b73c3c69bb8fe3d512ecc4cf759cc79239f7b179b0ffacaa9a75d522b39400f90508260c081815250508160e081815250504660a08181525050620001368184846200015460201b60201c565b6080818152505080610100818152505050505050505050506200059f565b600083838346306040516020016200017195949392919062000376565b6040516020818303038152906040528051906020012090509392505050565b8280546200019e90620004b0565b90600052602060002090601f016020900481019282620001c257600085556200020e565b82601f10620001dd57805160ff19168380011785556200020e565b828001600101855582156200020e579182015b828111156200020d578251825591602001919060010190620001f0565b5b5090506200021d919062000221565b5090565b5b808211156200023c57600081600090555060010162000222565b5090565b6000620002576200025184620003fc565b620003d3565b9050828152602081018484840111156200027657620002756200057f565b5b620002838482856200047a565b509392505050565b600082601f830112620002a357620002a26200057a565b5b8151620002b584826020860162000240565b91505092915050565b60008060408385031215620002d857620002d762000589565b5b600083015167ffffffffffffffff811115620002f957620002f862000584565b5b62000307858286016200028b565b925050602083015167ffffffffffffffff8111156200032b576200032a62000584565b5b62000339858286016200028b565b9150509250929050565b6200034e8162000432565b82525050565b6200035f8162000446565b82525050565b620003708162000470565b82525050565b600060a0820190506200038d600083018862000354565b6200039c602083018762000354565b620003ab604083018662000354565b620003ba606083018562000365565b620003c9608083018462000343565b9695505050505050565b6000620003df620003f2565b9050620003ed8282620004e6565b919050565b6000604051905090565b600067ffffffffffffffff8211156200041a57620004196200054b565b5b62000425826200058e565b9050602081019050919050565b60006200043f8262000450565b9050919050565b6000819050919050565b600073ffffffffffffffffffffffffffffffffffffffff82169050919050565b6000819050919050565b60005b838110156200049a5780820151818401526020810190506200047d565b83811115620004aa576000848401525b50505050565b60006002820490506001821680620004c957607f821691505b60208210811415620004e057620004df6200051c565b5b50919050565b620004f1826200058e565b810181811067ffffffffffffffff821117156200051357620005126200054b565b5b80604052505050565b7f4e487b7100000000000000000000000000000000000000000000000000000000600052602260045260246000fd5b7f4e487b7100000000000000000000000000000000000000000000000000000000600052604160045260246000fd5b600080fd5b600080fd5b600080fd5b600080fd5b6000601f19601f8301169050919050565b60805160a05160c05160e0516101005161012051613b9e620005ef6000396000610f08015260006116450152600061168701526000611666015260006115f20152600061161a0152613b9e6000f3fe608060405234801561001057600080fd5b50600436106101a95760003560e01c806370a08231116100f9578063a457c2d711610097578063c3cda52011610071578063c3cda52014610556578063d505accf14610572578063dd62ed3e1461058e578063f1127ed8146105be576101a9565b8063a457c2d7146104c6578063a9059cbb146104f6578063b4b5ea5714610526576101a9565b80638e539e8c116100d35780638e539e8c1461042c57806395d89b411461045c5780639ab24eb01461047a5780639dc29fac146104aa576101a9565b806370a082311461039c578063782d6fe1146103cc5780637ecebe00146103fc576101a9565b80633644e5151161016657806340c10f191161014057806340c10f1914610304578063587cde1e146103205780635c19a95c146103505780636fcfff451461036c576101a9565b80633644e5151461028657806339509351146102a45780633a46b1a8146102d4576101a9565b806306fdde03146101ae578063095ea7b3146101cc57806318160ddd146101fc57806323b872dd1461021a578063313ce5671461024a5780633408e47014610268575b600080fd5b6101b66105ee565b6040516101c39190612ea8565b60405180910390f35b6101e660048036038101906101e1919061277d565b610680565b6040516101f39190612d34565b60405180910390f35b61020461069e565b60405161021191906131a5565b60405180910390f35b610234600480360381019061022f9190612688565b6106a8565b6040516102419190612d34565b60405180910390f35b6102526107a0565b60405161025f9190613204565b60405180910390f35b6102706107a9565b60405161027d91906131a5565b60405180910390f35b61028e6107b1565b60405161029b9190612d4f565b60405180910390f35b6102be60048036038101906102b9919061277d565b6107c0565b6040516102cb9190612d34565b60405180910390f35b6102ee60048036038101906102e9919061277d565b61086c565b6040516102fb91906131a5565b60405180910390f35b61031e6004803603810190610319919061277d565b610900565b005b61033a6004803603810190610335919061261b565b61090e565b6040516103479190612d19565b60405180910390f35b61036a6004803603810190610365919061261b565b610977565b005b6103866004803603810190610381919061261b565b61098b565b60405161039391906131e9565b60405180910390f35b6103b660048036038101906103b1919061261b565b6109df565b6040516103c391906131a5565b60405180910390f35b6103e660048036038101906103e1919061277d565b610a27565b6040516103f3919061321f565b60405180910390f35b6104166004803603810190610411919061261b565b610a43565b60405161042391906131a5565b60405180910390f35b6104466004803603810190610441919061288a565b610a93565b60405161045391906131a5565b60405180910390f35b610464610ae9565b6040516104719190612ea8565b60405180910390f35b610494600480360381019061048f919061261b565b610b7b565b6040516104a191906131a5565b60405180910390f35b6104c460048036038101906104bf919061277d565b610c8c565b005b6104e060048036038101906104db919061277d565b610c9a565b6040516104ed9190612d34565b60405180910390f35b610510600480360381019061050b919061277d565b610d85565b60405161051d9190612d34565b60405180910390f35b610540600480360381019061053b919061261b565b610da3565b60405161054d919061321f565b60405180910390f35b610570600480360381019061056b91906127bd565b610dbd565b005b61058c600480360381019061058791906126db565b610ec1565b005b6105a860048036038101906105a39190612648565b611003565b6040516105b591906131a5565b60405180910390f35b6105d860048036038101906105d3919061284a565b61108a565b6040516105e5919061318a565b60405180910390f35b6060600380546105fd906133fe565b80601f0160208091040260200160405190810160405280929190818152602001828054610629906133fe565b80156106765780601f1061064b57610100808354040283529160200191610676565b820191906000526020600020905b81548152906001019060200180831161065957829003601f168201915b5050505050905090565b600061069461068d61119a565b84846111a2565b6001905092915050565b6000600254905090565b60006106b584848461136d565b6000600160008673ffffffffffffffffffffffffffffffffffffffff1673ffffffffffffffffffffffffffffffffffffffff168152602001908152602001600020600061070061119a565b73ffffffffffffffffffffffffffffffffffffffff1673ffffffffffffffffffffffffffffffffffffffff16815260200190815260200160002054905082811015610780576040517f08c379a00000000000000000000000000000000000000000000000000000000081526004016107779061306a565b60405180910390fd5b6107948561078c61119a565b8584036111a2565b60019150509392505050565b60006012905090565b600046905090565b60006107bb6115ee565b905090565b60006108626107cd61119a565b8484600160006107db61119a565b73ffffffffffffffffffffffffffffffffffffffff1673ffffffffffffffffffffffffffffffffffffffff16815260200190815260200160002060008873ffffffffffffffffffffffffffffffffffffffff1673ffffffffffffffffffffffffffffffffffffffff1681526020019081526020016000205461085d9190613261565b6111a2565b6001905092915050565b60004382106108b0576040517f08c379a00000000000000000000000000000000000000000000000000000000081526004016108a790612f2a565b60405180910390fd5b6108f8600760008573ffffffffffffffffffffffffffffffffffffffff1673ffffffffffffffffffffffffffffffffffffffff168152602001908152602001600020836116b1565b905092915050565b61090a82826117bd565b5050565b6000600660008373ffffffffffffffffffffffffffffffffffffffff1673ffffffffffffffffffffffffffffffffffffffff16815260200190815260200160002060009054906101000a900473ffffffffffffffffffffffffffffffffffffffff169050919050565b61098861098261119a565b8261184a565b50565b60006109d8600760008473ffffffffffffffffffffffffffffffffffffffff1673ffffffffffffffffffffffffffffffffffffffff16815260200190815260200160002080549050611964565b9050919050565b60008060008373ffffffffffffffffffffffffffffffffffffffff1673ffffffffffffffffffffffffffffffffffffffff168152602001908152602001600020549050919050565b6000610a3b610a36848461086c565b6119b7565b905092915050565b6000610a8c600560008473ffffffffffffffffffffffffffffffffffffffff1673ffffffffffffffffffffffffffffffffffffffff168152602001908152602001600020611a12565b9050919050565b6000438210610ad7576040517f08c379a0000000000000000000000000000000000000000000000000000000008152600401610ace90612f2a565b60405180910390fd5b610ae26008836116b1565b9050919050565b606060048054610af8906133fe565b80601f0160208091040260200160405190810160405280929190818152602001828054610b24906133fe565b8015610b715780601f10610b4657610100808354040283529160200191610b71565b820191906000526020600020905b815481529060010190602001808311610b5457829003601f168201915b5050505050905090565b600080600760008473ffffffffffffffffffffffffffffffffffffffff1673ffffffffffffffffffffffffffffffffffffffff16815260200190815260200160002080549050905060008114610c6357600760008473ffffffffffffffffffffffffffffffffffffffff1673ffffffffffffffffffffffffffffffffffffffff168152602001908152602001600020600182610c1791906132e8565b81548110610c2857610c276134c7565b5b9060005260206000200160000160049054906101000a90047bffffffffffffffffffffffffffffffffffffffffffffffffffffffff16610c66565b60005b7bffffffffffffffffffffffffffffffffffffffffffffffffffffffff16915050919050565b610c968282611a20565b5050565b60008060016000610ca961119a565b73ffffffffffffffffffffffffffffffffffffffff1673ffffffffffffffffffffffffffffffffffffffff16815260200190815260200160002060008573ffffffffffffffffffffffffffffffffffffffff1673ffffffffffffffffffffffffffffffffffffffff16815260200190815260200160002054905082811015610d66576040517f08c379a0000000000000000000000000000000000000000000000000000000008152600401610d5d9061314a565b60405180910390fd5b610d7a610d7161119a565b858584036111a2565b600191505092915050565b6000610d99610d9261119a565b848461136d565b6001905092915050565b6000610db6610db183610b7b565b6119b7565b9050919050565b83421115610e00576040517f08c379a0000000000000000000000000000000000000000000000000000000008152600401610df790612f4a565b60405180910390fd5b6000610e62610e5a7fe48329057bfd03d55e49b547132e39cffd9c1820ad7b9d4c5307691425d15adf898989604051602001610e3f9493929190612dcb565b60405160208183030381529060405280519060200120611a3e565b858585611a58565b9050610e6d81611be3565b8614610eae576040517f08c379a0000000000000000000000000000000000000000000000000000000008152600401610ea590612f8a565b60405180910390fd5b610eb8818861184a565b50505050505050565b83421115610f04576040517f08c379a0000000000000000000000000000000000000000000000000000000008152600401610efb90612fca565b60405180910390fd5b60007f0000000000000000000000000000000000000000000000000000000000000000888888610f338c611be3565b89604051602001610f4996959493929190612d6a565b6040516020818303038152906040528051906020012090506000610f6c82611a3e565b90506000610f7c82878787611a58565b90508973ffffffffffffffffffffffffffffffffffffffff168173ffffffffffffffffffffffffffffffffffffffff1614610fec576040517f08c379a0000000000000000000000000000000000000000000000000000000008152600401610fe39061304a565b60405180910390fd5b610ff78a8a8a6111a2565b50505050505050505050565b6000600160008473ffffffffffffffffffffffffffffffffffffffff1673ffffffffffffffffffffffffffffffffffffffff16815260200190815260200160002060008373ffffffffffffffffffffffffffffffffffffffff1673ffffffffffffffffffffffffffffffffffffffff16815260200190815260200160002054905092915050565b611092612574565b600760008473ffffffffffffffffffffffffffffffffffffffff1673ffffffffffffffffffffffffffffffffffffffff1681526020019081526020016000208263ffffffff16815481106110e9576110e86134c7565b5b906000526020600020016040518060400160405290816000820160009054906101000a900463ffffffff1663ffffffff1663ffffffff1681526020016000820160049054906101000a90047bffffffffffffffffffffffffffffffffffffffffffffffffffffffff167bffffffffffffffffffffffffffffffffffffffffffffffffffffffff167bffffffffffffffffffffffffffffffffffffffffffffffffffffffff1681525050905092915050565b600033905090565b600073ffffffffffffffffffffffffffffffffffffffff168373ffffffffffffffffffffffffffffffffffffffff161415611212576040517f08c379a00000000000000000000000000000000000000000000000000000000081526004016112099061312a565b60405180910390fd5b600073ffffffffffffffffffffffffffffffffffffffff168273ffffffffffffffffffffffffffffffffffffffff161415611282576040517f08c379a000000000000000000000000000000000000000000000000000000000815260040161127990612faa565b60405180910390fd5b80600160008573ffffffffffffffffffffffffffffffffffffffff1673ffffffffffffffffffffffffffffffffffffffff16815260200190815260200160002060008473ffffffffffffffffffffffffffffffffffffffff1673ffffffffffffffffffffffffffffffffffffffff168152602001908152602001600020819055508173ffffffffffffffffffffffffffffffffffffffff168373ffffffffffffffffffffffffffffffffffffffff167f8c5be1e5ebec7d5bd14f71427d1e84f3dd0314c0f7b2291e5b200ac8c7c3b9258360405161136091906131a5565b60405180910390a3505050565b600073ffffffffffffffffffffffffffffffffffffffff168373ffffffffffffffffffffffffffffffffffffffff1614156113dd576040517f08c379a00000000000000000000000000000000000000000000000000000000081526004016113d4906130ea565b60405180910390fd5b600073ffffffffffffffffffffffffffffffffffffffff168273ffffffffffffffffffffffffffffffffffffffff16141561144d576040517f08c379a000000000000000000000000000000000000000000000000000000000815260040161144490612eea565b60405180910390fd5b611458838383611c41565b60008060008573ffffffffffffffffffffffffffffffffffffffff1673ffffffffffffffffffffffffffffffffffffffff168152602001908152602001600020549050818110156114de576040517f08c379a00000000000000000000000000000000000000000000000000000000081526004016114d590612fea565b60405180910390fd5b8181036000808673ffffffffffffffffffffffffffffffffffffffff1673ffffffffffffffffffffffffffffffffffffffff16815260200190815260200160002081905550816000808573ffffffffffffffffffffffffffffffffffffffff1673ffffffffffffffffffffffffffffffffffffffff16815260200190815260200160002060008282546115719190613261565b925050819055508273ffffffffffffffffffffffffffffffffffffffff168473ffffffffffffffffffffffffffffffffffffffff167fddf252ad1be2c89b69c2b068fc378daa952ba7f163c4a11628f55a4df523b3ef846040516115d591906131a5565b60405180910390a36115e8848484611c46565b50505050565b60007f0000000000000000000000000000000000000000000000000000000000000000461415611640577f000000000000000000000000000000000000000000000000000000000000000090506116ae565b6116ab7f00000000000000000000000000000000000000000000000000000000000000007f00000000000000000000000000000000000000000000000000000000000000007f0000000000000000000000000000000000000000000000000000000000000000611c71565b90505b90565b6000808380549050905060005b818110156117305760006116d28284611cab565b9050848682815481106116e8576116e76134c7565b5b9060005260206000200160000160009054906101000a900463ffffffff1663ffffffff16111561171a5780925061172a565b6001816117279190613261565b91505b506116be565b60008214611792578460018361174691906132e8565b81548110611757576117566134c7565b5b9060005260206000200160000160049054906101000a90047bffffffffffffffffffffffffffffffffffffffffffffffffffffffff16611795565b60005b7bffffffffffffffffffffffffffffffffffffffffffffffffffffffff169250505092915050565b6117c78282611cd1565b6117cf611e31565b7bffffffffffffffffffffffffffffffffffffffffffffffffffffffff166117f561069e565b1115611836576040517f08c379a000000000000000000000000000000000000000000000000000000000815260040161182d9061308a565b60405180910390fd5b6118446008611e4783611e5d565b50505050565b60006118558361090e565b90506000611862846109df565b905082600660008673ffffffffffffffffffffffffffffffffffffffff1673ffffffffffffffffffffffffffffffffffffffff16815260200190815260200160002060006101000a81548173ffffffffffffffffffffffffffffffffffffffff021916908373ffffffffffffffffffffffffffffffffffffffff1602179055508273ffffffffffffffffffffffffffffffffffffffff168273ffffffffffffffffffffffffffffffffffffffff168573ffffffffffffffffffffffffffffffffffffffff167f3134e8a2e6d97e929a7e54011ea5485d7d196dd5f0ba4d4ef95803e8e3fc257f60405160405180910390a461195e8284836120d5565b50505050565b600063ffffffff80168211156119af576040517f08c379a00000000000000000000000000000000000000000000000000000000081526004016119a69061310a565b60405180910390fd5b819050919050565b60006bffffffffffffffffffffffff8016821115611a0a576040517f08c379a0000000000000000000000000000000000000000000000000000000008152600401611a0190612f0a565b60405180910390fd5b819050919050565b600081600001549050919050565b611a2a82826122ce565b611a3860086124a583611e5d565b50505050565b6000611a51611a4b6115ee565b836124bb565b9050919050565b60007f7fffffffffffffffffffffffffffffff5d576e7357a4501ddfe92f46681b20a08260001c1115611ac0576040517f08c379a0000000000000000000000000000000000000000000000000000000008152600401611ab79061300a565b60405180910390fd5b601b8460ff161480611ad55750601c8460ff16145b611b14576040517f08c379a0000000000000000000000000000000000000000000000000000000008152600401611b0b9061302a565b60405180910390fd5b600060018686868660405160008152602001604052604051611b399493929190612e63565b6020604051602081039080840390855afa158015611b5b573d6000803e3d6000fd5b505050602060405103519050600073ffffffffffffffffffffffffffffffffffffffff168173ffffffffffffffffffffffffffffffffffffffff161415611bd7576040517f08c379a0000000000000000000000000000000000000000000000000000000008152600401611bce90612eca565b60405180910390fd5b80915050949350505050565b600080600560008473ffffffffffffffffffffffffffffffffffffffff1673ffffffffffffffffffffffffffffffffffffffff1681526020019081526020016000209050611c3081611a12565b9150611c3b816124ee565b50919050565b505050565b611c51838383612504565b611c6c611c5d8461090e565b611c668461090e565b836120d5565b505050565b60008383834630604051602001611c8c959493929190612e10565b6040516020818303038152906040528051906020012090509392505050565b60006002828418611cbc91906132b7565b828416611cc99190613261565b905092915050565b600073ffffffffffffffffffffffffffffffffffffffff168273ffffffffffffffffffffffffffffffffffffffff161415611d41576040517f08c379a0000000000000000000000000000000000000000000000000000000008152600401611d389061316a565b60405180910390fd5b611d4d60008383611c41565b8060026000828254611d5f9190613261565b92505081905550806000808473ffffffffffffffffffffffffffffffffffffffff1673ffffffffffffffffffffffffffffffffffffffff1681526020019081526020016000206000828254611db49190613261565b925050819055508173ffffffffffffffffffffffffffffffffffffffff16600073ffffffffffffffffffffffffffffffffffffffff167fddf252ad1be2c89b69c2b068fc378daa952ba7f163c4a11628f55a4df523b3ef83604051611e1991906131a5565b60405180910390a3611e2d60008383611c46565b5050565b60006bffffffffffffffffffffffff8016905090565b60008183611e559190613261565b905092915050565b60008060008580549050905060008114611ecb5785600182611e7f91906132e8565b81548110611e9057611e8f6134c7565b5b9060005260206000200160000160049054906101000a90047bffffffffffffffffffffffffffffffffffffffffffffffffffffffff16611ece565b60005b7bffffffffffffffffffffffffffffffffffffffffffffffffffffffff169250611efc83858763ffffffff16565b9150600081118015611f4f57504386600183611f1891906132e8565b81548110611f2957611f286134c7565b5b9060005260206000200160000160009054906101000a900463ffffffff1663ffffffff16145b15611fdc57611f5d82612509565b86600183611f6b91906132e8565b81548110611f7c57611f7b6134c7565b5b9060005260206000200160000160046101000a8154817bffffffffffffffffffffffffffffffffffffffffffffffffffffffff02191690837bffffffffffffffffffffffffffffffffffffffffffffffffffffffff1602179055506120cc565b856040518060400160405280611ff143611964565b63ffffffff16815260200161200585612509565b7bffffffffffffffffffffffffffffffffffffffffffffffffffffffff168152509080600181540180825580915050600190039060005260206000200160009091909190915060008201518160000160006101000a81548163ffffffff021916908363ffffffff16021790555060208201518160000160046101000a8154817bffffffffffffffffffffffffffffffffffffffffffffffffffffffff02191690837bffffffffffffffffffffffffffffffffffffffffffffffffffffffff16021790555050505b50935093915050565b8173ffffffffffffffffffffffffffffffffffffffff168373ffffffffffffffffffffffffffffffffffffffff16141580156121115750600081115b156122c957600073ffffffffffffffffffffffffffffffffffffffff168373ffffffffffffffffffffffffffffffffffffffff16146121ef57600080612198600760008773ffffffffffffffffffffffffffffffffffffffff1673ffffffffffffffffffffffffffffffffffffffff1681526020019081526020016000206124a585611e5d565b915091508473ffffffffffffffffffffffffffffffffffffffff167fdec2bacdd2f05b59de34da9b523dff8be42e5e38e818c82fdb0bae774387a72483836040516121e49291906131c0565b60405180910390a250505b600073ffffffffffffffffffffffffffffffffffffffff168273ffffffffffffffffffffffffffffffffffffffff16146122c857600080612271600760008673ffffffffffffffffffffffffffffffffffffffff1673ffffffffffffffffffffffffffffffffffffffff168152602001908152602001600020611e4785611e5d565b915091508373ffffffffffffffffffffffffffffffffffffffff167fdec2bacdd2f05b59de34da9b523dff8be42e5e38e818c82fdb0bae774387a72483836040516122bd9291906131c0565b60405180910390a250505b5b505050565b600073ffffffffffffffffffffffffffffffffffffffff168273ffffffffffffffffffffffffffffffffffffffff16141561233e576040517f08c379a0000000000000000000000000000000000000000000000000000000008152600401612335906130ca565b60405180910390fd5b61234a82600083611c41565b60008060008473ffffffffffffffffffffffffffffffffffffffff1673ffffffffffffffffffffffffffffffffffffffff168152602001908152602001600020549050818110156123d0576040517f08c379a00000000000000000000000000000000000000000000000000000000081526004016123c790612f6a565b60405180910390fd5b8181036000808573ffffffffffffffffffffffffffffffffffffffff1673ffffffffffffffffffffffffffffffffffffffff16815260200190815260200160002081905550816002600082825461242791906132e8565b92505081905550600073ffffffffffffffffffffffffffffffffffffffff168373ffffffffffffffffffffffffffffffffffffffff167fddf252ad1be2c89b69c2b068fc378daa952ba7f163c4a11628f55a4df523b3ef8460405161248c91906131a5565b60405180910390a36124a083600084611c46565b505050565b600081836124b391906132e8565b905092915050565b600082826040516020016124d0929190612ce2565b60405160208183030381529060405280519060200120905092915050565b6001816000016000828254019250508190555050565b505050565b60007bffffffffffffffffffffffffffffffffffffffffffffffffffffffff801682111561256c576040517f08c379a0000000000000000000000000000000000000000000000000000000008152600401612563906130aa565b60405180910390fd5b819050919050565b6040518060400160405280600063ffffffff16815260200160007bffffffffffffffffffffffffffffffffffffffffffffffffffffffff1681525090565b6000813590506125c181613af5565b92915050565b6000813590506125d681613b0c565b92915050565b6000813590506125eb81613b23565b92915050565b60008135905061260081613b3a565b92915050565b60008135905061261581613b51565b92915050565b600060208284031215612631576126306134f6565b5b600061263f848285016125b2565b91505092915050565b6000806040838503121561265f5761265e6134f6565b5b600061266d858286016125b2565b925050602061267e858286016125b2565b9150509250929050565b6000806000606084860312156126a1576126a06134f6565b5b60006126af868287016125b2565b93505060206126c0868287016125b2565b92505060406126d1868287016125dc565b9150509250925092565b600080600080600080600060e0888a0312156126fa576126f96134f6565b5b60006127088a828b016125b2565b97505060206127198a828b016125b2565b965050604061272a8a828b016125dc565b955050606061273b8a828b016125dc565b945050608061274c8a828b01612606565b93505060a061275d8a828b016125c7565b92505060c061276e8a828b016125c7565b91505092959891949750929550565b60008060408385031215612794576127936134f6565b5b60006127a2858286016125b2565b92505060206127b3858286016125dc565b9150509250929050565b60008060008060008060c087890312156127da576127d96134f6565b5b60006127e889828a016125b2565b96505060206127f989828a016125dc565b955050604061280a89828a016125dc565b945050606061281b89828a01612606565b935050608061282c89828a016125c7565b92505060a061283d89828a016125c7565b9150509295509295509295565b60008060408385031215612861576128606134f6565b5b600061286f858286016125b2565b9250506020612880858286016125f1565b9150509250929050565b6000602082840312156128a05761289f6134f6565b5b60006128ae848285016125dc565b91505092915050565b6128c08161331c565b82525050565b6128cf8161332e565b82525050565b6128de8161333a565b82525050565b6128f56128f08261333a565b613430565b82525050565b60006129068261323a565b6129108185613245565b93506129208185602086016133cb565b612929816134fb565b840191505092915050565b6000612941601883613245565b915061294c8261350c565b602082019050919050565b6000612964602383613245565b915061296f82613535565b604082019050919050565b6000612987602683613245565b915061299282613584565b604082019050919050565b60006129aa601f83613245565b91506129b5826135d3565b602082019050919050565b60006129cd601d83613245565b91506129d8826135fc565b602082019050919050565b60006129f0602283613245565b91506129fb82613625565b604082019050919050565b6000612a13601983613245565b9150612a1e82613674565b602082019050919050565b6000612a36602283613245565b9150612a418261369d565b604082019050919050565b6000612a59600283613256565b9150612a64826136ec565b600282019050919050565b6000612a7c601d83613245565b9150612a8782613715565b602082019050919050565b6000612a9f602683613245565b9150612aaa8261373e565b604082019050919050565b6000612ac2602283613245565b9150612acd8261378d565b604082019050919050565b6000612ae5602283613245565b9150612af0826137dc565b604082019050919050565b6000612b08601e83613245565b9150612b138261382b565b602082019050919050565b6000612b2b602883613245565b9150612b3682613854565b604082019050919050565b6000612b4e603083613245565b9150612b59826138a3565b604082019050919050565b6000612b71602783613245565b9150612b7c826138f2565b604082019050919050565b6000612b94602183613245565b9150612b9f82613941565b604082019050919050565b6000612bb7602583613245565b9150612bc282613990565b604082019050919050565b6000612bda602683613245565b9150612be5826139df565b604082019050919050565b6000612bfd602483613245565b9150612c0882613a2e565b604082019050919050565b6000612c20602583613245565b9150612c2b82613a7d565b604082019050919050565b6000612c43601f83613245565b9150612c4e82613acc565b602082019050919050565b604082016000820151612c6f6000850182612ca6565b506020820151612c826020850182612c88565b50505050565b612c9181613364565b82525050565b612ca08161338c565b82525050565b612caf81613396565b82525050565b612cbe81613396565b82525050565b612ccd816133a6565b82525050565b612cdc816133b3565b82525050565b6000612ced82612a4c565b9150612cf982856128e4565b602082019150612d0982846128e4565b6020820191508190509392505050565b6000602082019050612d2e60008301846128b7565b92915050565b6000602082019050612d4960008301846128c6565b92915050565b6000602082019050612d6460008301846128d5565b92915050565b600060c082019050612d7f60008301896128d5565b612d8c60208301886128b7565b612d9960408301876128b7565b612da66060830186612c97565b612db36080830185612c97565b612dc060a0830184612c97565b979650505050505050565b6000608082019050612de060008301876128d5565b612ded60208301866128b7565b612dfa6040830185612c97565b612e076060830184612c97565b95945050505050565b600060a082019050612e2560008301886128d5565b612e3260208301876128d5565b612e3f60408301866128d5565b612e4c6060830185612c97565b612e5960808301846128b7565b9695505050505050565b6000608082019050612e7860008301876128d5565b612e856020830186612cc4565b612e9260408301856128d5565b612e9f60608301846128d5565b95945050505050565b60006020820190508181036000830152612ec281846128fb565b905092915050565b60006020820190508181036000830152612ee381612934565b9050919050565b60006020820190508181036000830152612f0381612957565b9050919050565b60006020820190508181036000830152612f238161297a565b9050919050565b60006020820190508181036000830152612f438161299d565b9050919050565b60006020820190508181036000830152612f63816129c0565b9050919050565b60006020820190508181036000830152612f83816129e3565b9050919050565b60006020820190508181036000830152612fa381612a06565b9050919050565b60006020820190508181036000830152612fc381612a29565b9050919050565b60006020820190508181036000830152612fe381612a6f565b9050919050565b6000602082019050818103600083015261300381612a92565b9050919050565b6000602082019050818103600083015261302381612ab5565b9050919050565b6000602082019050818103600083015261304381612ad8565b9050919050565b6000602082019050818103600083015261306381612afb565b9050919050565b6000602082019050818103600083015261308381612b1e565b9050919050565b600060208201905081810360008301526130a381612b41565b9050919050565b600060208201905081810360008301526130c381612b64565b9050919050565b600060208201905081810360008301526130e381612b87565b9050919050565b6000602082019050818103600083015261310381612baa565b9050919050565b6000602082019050818103600083015261312381612bcd565b9050919050565b6000602082019050818103600083015261314381612bf0565b9050919050565b6000602082019050818103600083015261316381612c13565b9050919050565b6000602082019050818103600083015261318381612c36565b9050919050565b600060408201905061319f6000830184612c59565b92915050565b60006020820190506131ba6000830184612c97565b92915050565b60006040820190506131d56000830185612c97565b6131e26020830184612c97565b9392505050565b60006020820190506131fe6000830184612cb5565b92915050565b60006020820190506132196000830184612cc4565b92915050565b60006020820190506132346000830184612cd3565b92915050565b600081519050919050565b600082825260208201905092915050565b600081905092915050565b600061326c8261338c565b91506132778361338c565b9250827fffffffffffffffffffffffffffffffffffffffffffffffffffffffffffffffff038211156132ac576132ab61343a565b5b828201905092915050565b60006132c28261338c565b91506132cd8361338c565b9250826132dd576132dc613469565b5b828204905092915050565b60006132f38261338c565b91506132fe8361338c565b9250828210156133115761331061343a565b5b828203905092915050565b600061332782613344565b9050919050565b60008115159050919050565b6000819050919050565b600073ffffffffffffffffffffffffffffffffffffffff82169050919050565b60007bffffffffffffffffffffffffffffffffffffffffffffffffffffffff82169050919050565b6000819050919050565b600063ffffffff82169050919050565b600060ff82169050919050565b60006bffffffffffffffffffffffff82169050919050565b60005b838110156133e95780820151818401526020810190506133ce565b838111156133f8576000848401525b50505050565b6000600282049050600182168061341657607f821691505b6020821081141561342a57613429613498565b5b50919050565b6000819050919050565b7f4e487b7100000000000000000000000000000000000000000000000000000000600052601160045260246000fd5b7f4e487b7100000000000000000000000000000000000000000000000000000000600052601260045260246000fd5b7f4e487b7100000000000000000000000000000000000000000000000000000000600052602260045260246000fd5b7f4e487b7100000000000000000000000000000000000000000000000000000000600052603260045260246000fd5b600080fd5b6000601f19601f8301169050919050565b7f45434453413a20696e76616c6964207369676e61747572650000000000000000600082015250565b7f45524332303a207472616e7366657220746f20746865207a65726f206164647260008201527f6573730000000000000000000000000000000000000000000000000000000000602082015250565b7f53616665436173743a2076616c756520646f65736e27742066697420696e203960008201527f3620626974730000000000000000000000000000000000000000000000000000602082015250565b7f4552433230566f7465733a20626c6f636b206e6f7420796574206d696e656400600082015250565b7f4552433230566f7465733a207369676e61747572652065787069726564000000600082015250565b7f45524332303a206275726e20616d6f756e7420657863656564732062616c616e60008201527f6365000000000000000000000000000000000000000000000000000000000000602082015250565b7f4552433230566f7465733a20696e76616c6964206e6f6e636500000000000000600082015250565b7f45524332303a20617070726f766520746f20746865207a65726f20616464726560008201527f7373000000000000000000000000000000000000000000000000000000000000602082015250565b7f1901000000000000000000000000000000000000000000000000000000000000600082015250565b7f45524332305065726d69743a206578706972656420646561646c696e65000000600082015250565b7f45524332303a207472616e7366657220616d6f756e742065786365656473206260008201527f616c616e63650000000000000000000000000000000000000000000000000000602082015250565b7f45434453413a20696e76616c6964207369676e6174757265202773272076616c60008201527f7565000000000000000000000000000000000000000000000000000000000000602082015250565b7f45434453413a20696e76616c6964207369676e6174757265202776272076616c60008201527f7565000000000000000000000000000000000000000000000000000000000000602082015250565b7f45524332305065726d69743a20696e76616c6964207369676e61747572650000600082015250565b7f45524332303a207472616e7366657220616d6f756e742065786365656473206160008201527f6c6c6f77616e6365000000000000000000000000000000000000000000000000602082015250565b7f4552433230566f7465733a20746f74616c20737570706c79207269736b73206f60008201527f766572666c6f77696e6720766f74657300000000000000000000000000000000602082015250565b7f53616665436173743a2076616c756520646f65736e27742066697420696e203260008201527f3234206269747300000000000000000000000000000000000000000000000000602082015250565b7f45524332303a206275726e2066726f6d20746865207a65726f2061646472657360008201527f7300000000000000000000000000000000000000000000000000000000000000602082015250565b7f45524332303a207472616e736665722066726f6d20746865207a65726f20616460008201527f6472657373000000000000000000000000000000000000000000000000000000602082015250565b7f53616665436173743a2076616c756520646f65736e27742066697420696e203360008201527f3220626974730000000000000000000000000000000000000000000000000000602082015250565b7f45524332303a20617070726f76652066726f6d20746865207a65726f2061646460008201527f7265737300000000000000000000000000000000000000000000000000000000602082015250565b7f45524332303a2064656372656173656420616c6c6f77616e63652062656c6f7760008201527f207a65726f000000000000000000000000000000000000000000000000000000602082015250565b7f45524332303a206d696e7420746f20746865207a65726f206164647265737300600082015250565b613afe8161331c565b8114613b0957600080fd5b50565b613b158161333a565b8114613b2057600080fd5b50565b613b2c8161338c565b8114613b3757600080fd5b50565b613b4381613396565b8114613b4e57600080fd5b50565b613b5a816133a6565b8114613b6557600080fd5b5056fea2646970667358221220a02da7b2f42959a6811fb8394c4493e812ad5dac16a1f33467ae1f66d9bc510d64736f6c63430008060033",
  "immutableReferences": {
    "13407": [
      {
        "length": 32,
        "start": 3848
      }
    ],
    "18437": [
      {
        "length": 32,
        "start": 5658
      }
    ],
    "18439": [
      {
        "length": 32,
        "start": 5618
      }
    ],
    "18441": [
      {
        "length": 32,
        "start": 5734
      }
    ],
    "18443": [
      {
        "length": 32,
        "start": 5767
      }
    ],
    "18445": [
      {
        "length": 32,
        "start": 5701
      }
    ]
  },
  "source": "// SPDX-License-Identifier: MIT\n\npragma solidity ^0.8.0;\n\nimport \"../token/ERC20/extensions/ERC20VotesComp.sol\";\n\ncontract ERC20VotesCompMock is ERC20VotesComp {\n    constructor(string memory name, string memory symbol) ERC20(name, symbol) ERC20Permit(name) {}\n\n    function mint(address account, uint256 amount) public {\n        _mint(account, amount);\n    }\n\n    function burn(address account, uint256 amount) public {\n        _burn(account, amount);\n    }\n\n    function getChainId() external view returns (uint256) {\n        return block.chainid;\n    }\n}\n",
  "sourcePath": "/home/sandeep/NFT_Market/contracts/mocks/ERC20VotesCompMock.sol",
  "compiler": {
    "name": "solc",
    "version": "0.8.6+commit.11564f7e.Emscripten.clang"
  },
  "schemaVersion": "3.4.1",
  "updatedAt": "2021-07-13T14:33:10.411Z",
  "devdoc": {
    "kind": "dev",
    "methods": {
      "DOMAIN_SEPARATOR()": {
        "details": "See {IERC20Permit-DOMAIN_SEPARATOR}."
      },
      "allowance(address,address)": {
        "details": "See {IERC20-allowance}."
      },
      "approve(address,uint256)": {
        "details": "See {IERC20-approve}. Requirements: - `spender` cannot be the zero address."
      },
      "balanceOf(address)": {
        "details": "See {IERC20-balanceOf}."
      },
      "checkpoints(address,uint32)": {
        "details": "Get the `pos`-th checkpoint for `account`."
      },
      "decimals()": {
        "details": "Returns the number of decimals used to get its user representation. For example, if `decimals` equals `2`, a balance of `505` tokens should be displayed to a user as `5.05` (`505 / 10 ** 2`). Tokens usually opt for a value of 18, imitating the relationship between Ether and Wei. This is the value {ERC20} uses, unless this function is overridden; NOTE: This information is only used for _display_ purposes: it in no way affects any of the arithmetic of the contract, including {IERC20-balanceOf} and {IERC20-transfer}."
      },
      "decreaseAllowance(address,uint256)": {
        "details": "Atomically decreases the allowance granted to `spender` by the caller. This is an alternative to {approve} that can be used as a mitigation for problems described in {IERC20-approve}. Emits an {Approval} event indicating the updated allowance. Requirements: - `spender` cannot be the zero address. - `spender` must have allowance for the caller of at least `subtractedValue`."
      },
      "delegate(address)": {
        "details": "Delegate votes from the sender to `delegatee`."
      },
      "delegateBySig(address,uint256,uint256,uint8,bytes32,bytes32)": {
        "details": "Delegates votes from signer to `delegatee`"
      },
      "delegates(address)": {
        "details": "Get the address `account` is currently delegating to."
      },
      "getCurrentVotes(address)": {
        "details": "Comp version of the {getVotes} accessor, with `uint96` return type."
      },
      "getPastTotalSupply(uint256)": {
        "details": "Retrieve the `totalSupply` at the end of `blockNumber`. Note, this value is the sum of all balances. It is but NOT the sum of all the delegated votes! Requirements: - `blockNumber` must have been already mined"
      },
      "getPastVotes(address,uint256)": {
        "details": "Retrieve the number of votes for `account` at the end of `blockNumber`. Requirements: - `blockNumber` must have been already mined"
      },
      "getPriorVotes(address,uint256)": {
        "details": "Comp version of the {getPastVotes} accessor, with `uint96` return type."
      },
      "getVotes(address)": {
        "details": "Gets the current votes balance for `account`"
      },
      "increaseAllowance(address,uint256)": {
        "details": "Atomically increases the allowance granted to `spender` by the caller. This is an alternative to {approve} that can be used as a mitigation for problems described in {IERC20-approve}. Emits an {Approval} event indicating the updated allowance. Requirements: - `spender` cannot be the zero address."
      },
      "name()": {
        "details": "Returns the name of the token."
      },
      "nonces(address)": {
        "details": "See {IERC20Permit-nonces}."
      },
      "numCheckpoints(address)": {
        "details": "Get number of checkpoints for `account`."
      },
      "permit(address,address,uint256,uint256,uint8,bytes32,bytes32)": {
        "details": "See {IERC20Permit-permit}."
      },
      "symbol()": {
        "details": "Returns the symbol of the token, usually a shorter version of the name."
      },
      "totalSupply()": {
        "details": "See {IERC20-totalSupply}."
      },
      "transfer(address,uint256)": {
        "details": "See {IERC20-transfer}. Requirements: - `recipient` cannot be the zero address. - the caller must have a balance of at least `amount`."
      },
      "transferFrom(address,address,uint256)": {
        "details": "See {IERC20-transferFrom}. Emits an {Approval} event indicating the updated allowance. This is not required by the EIP. See the note at the beginning of {ERC20}. Requirements: - `sender` and `recipient` cannot be the zero address. - `sender` must have a balance of at least `amount`. - the caller must have allowance for ``sender``'s tokens of at least `amount`."
      }
    },
    "version": 1
  },
  "userdoc": {
    "kind": "user",
    "methods": {},
    "version": 1
  }
}