{
  "contractName": "ERC777SenderRecipientMock",
  "abi": [
    {
      "anonymous": false,
      "inputs": [],
      "name": "BeforeTokenTransfer",
      "type": "event"
    },
    {
      "anonymous": false,
      "inputs": [
        {
          "indexed": false,
          "internalType": "address",
          "name": "operator",
          "type": "address"
        },
        {
          "indexed": false,
          "internalType": "address",
          "name": "from",
          "type": "address"
        },
        {
          "indexed": false,
          "internalType": "address",
          "name": "to",
          "type": "address"
        },
        {
          "indexed": false,
          "internalType": "uint256",
          "name": "amount",
          "type": "uint256"
        },
        {
          "indexed": false,
          "internalType": "bytes",
          "name": "data",
          "type": "bytes"
        },
        {
          "indexed": false,
          "internalType": "bytes",
          "name": "operatorData",
          "type": "bytes"
        },
        {
          "indexed": false,
          "internalType": "address",
          "name": "token",
          "type": "address"
        },
        {
          "indexed": false,
          "internalType": "uint256",
          "name": "fromBalance",
          "type": "uint256"
        },
        {
          "indexed": false,
          "internalType": "uint256",
          "name": "toBalance",
          "type": "uint256"
        }
      ],
      "name": "TokensReceivedCalled",
      "type": "event"
    },
    {
      "anonymous": false,
      "inputs": [
        {
          "indexed": false,
          "internalType": "address",
          "name": "operator",
          "type": "address"
        },
        {
          "indexed": false,
          "internalType": "address",
          "name": "from",
          "type": "address"
        },
        {
          "indexed": false,
          "internalType": "address",
          "name": "to",
          "type": "address"
        },
        {
          "indexed": false,
          "internalType": "uint256",
          "name": "amount",
          "type": "uint256"
        },
        {
          "indexed": false,
          "internalType": "bytes",
          "name": "data",
          "type": "bytes"
        },
        {
          "indexed": false,
          "internalType": "bytes",
          "name": "operatorData",
          "type": "bytes"
        },
        {
          "indexed": false,
          "internalType": "address",
          "name": "token",
          "type": "address"
        },
        {
          "indexed": false,
          "internalType": "uint256",
          "name": "fromBalance",
          "type": "uint256"
        },
        {
          "indexed": false,
          "internalType": "uint256",
          "name": "toBalance",
          "type": "uint256"
        }
      ],
      "name": "TokensToSendCalled",
      "type": "event"
    },
    {
      "inputs": [
        {
          "internalType": "bytes32",
          "name": "interfaceHash",
          "type": "bytes32"
        },
        {
          "internalType": "address",
          "name": "account",
          "type": "address"
        }
      ],
      "name": "canImplementInterfaceForAddress",
      "outputs": [
        {
          "internalType": "bytes32",
          "name": "",
          "type": "bytes32"
        }
      ],
      "stateMutability": "view",
      "type": "function"
    },
    {
      "inputs": [
        {
          "internalType": "address",
          "name": "operator",
          "type": "address"
        },
        {
          "internalType": "address",
          "name": "from",
          "type": "address"
        },
        {
          "internalType": "address",
          "name": "to",
          "type": "address"
        },
        {
          "internalType": "uint256",
          "name": "amount",
          "type": "uint256"
        },
        {
          "internalType": "bytes",
          "name": "userData",
          "type": "bytes"
        },
        {
          "internalType": "bytes",
          "name": "operatorData",
          "type": "bytes"
        }
      ],
      "name": "tokensToSend",
      "outputs": [],
      "stateMutability": "nonpayable",
      "type": "function"
    },
    {
      "inputs": [
        {
          "internalType": "address",
          "name": "operator",
          "type": "address"
        },
        {
          "internalType": "address",
          "name": "from",
          "type": "address"
        },
        {
          "internalType": "address",
          "name": "to",
          "type": "address"
        },
        {
          "internalType": "uint256",
          "name": "amount",
          "type": "uint256"
        },
        {
          "internalType": "bytes",
          "name": "userData",
          "type": "bytes"
        },
        {
          "internalType": "bytes",
          "name": "operatorData",
          "type": "bytes"
        }
      ],
      "name": "tokensReceived",
      "outputs": [],
      "stateMutability": "nonpayable",
      "type": "function"
    },
    {
      "inputs": [
        {
          "internalType": "address",
          "name": "account",
          "type": "address"
        }
      ],
      "name": "senderFor",
      "outputs": [],
      "stateMutability": "nonpayable",
      "type": "function"
    },
    {
      "inputs": [
        {
          "internalType": "address",
          "name": "sender",
          "type": "address"
        }
      ],
      "name": "registerSender",
      "outputs": [],
      "stateMutability": "nonpayable",
      "type": "function"
    },
    {
      "inputs": [
        {
          "internalType": "address",
          "name": "account",
          "type": "address"
        }
      ],
      "name": "recipientFor",
      "outputs": [],
      "stateMutability": "nonpayable",
      "type": "function"
    },
    {
      "inputs": [
        {
          "internalType": "address",
          "name": "recipient",
          "type": "address"
        }
      ],
      "name": "registerRecipient",
      "outputs": [],
      "stateMutability": "nonpayable",
      "type": "function"
    },
    {
      "inputs": [
        {
          "internalType": "bool",
          "name": "shouldRevert",
          "type": "bool"
        }
      ],
      "name": "setShouldRevertSend",
      "outputs": [],
      "stateMutability": "nonpayable",
      "type": "function"
    },
    {
      "inputs": [
        {
          "internalType": "bool",
          "name": "shouldRevert",
          "type": "bool"
        }
      ],
      "name": "setShouldRevertReceive",
      "outputs": [],
      "stateMutability": "nonpayable",
      "type": "function"
    },
    {
      "inputs": [
        {
          "internalType": "contract IERC777",
          "name": "token",
          "type": "address"
        },
        {
          "internalType": "address",
          "name": "to",
          "type": "address"
        },
        {
          "internalType": "uint256",
          "name": "amount",
          "type": "uint256"
        },
        {
          "internalType": "bytes",
          "name": "data",
          "type": "bytes"
        }
      ],
      "name": "send",
      "outputs": [],
      "stateMutability": "nonpayable",
      "type": "function"
    },
    {
      "inputs": [
        {
          "internalType": "contract IERC777",
          "name": "token",
          "type": "address"
        },
        {
          "internalType": "uint256",
          "name": "amount",
          "type": "uint256"
        },
        {
          "internalType": "bytes",
          "name": "data",
          "type": "bytes"
        }
      ],
      "name": "burn",
      "outputs": [],
      "stateMutability": "nonpayable",
      "type": "function"
    }
  ],
  "bytecode": "0x6080604052731820a4b7618bde71dce8cdc73aab6c95905fad24600160026101000a81548173ffffffffffffffffffffffffffffffffffffffff021916908373ffffffffffffffffffffffffffffffffffffffff16021790555034801561006557600080fd5b506111c0806100756000396000f3fe608060405234801561001057600080fd5b50600436106100a85760003560e01c806375ab97821161007157806375ab97821461014d578063a8badaa514610169578063c97e18fc14610185578063d2de6474146101a1578063e0eb2180146101bd578063e1ecbd30146101d9576100a8565b806223de29146100ad578063249cb3fa146100c95780633836ef89146100f957806344d17187146101155780634e4ae5a514610131575b600080fd5b6100c760048036038101906100c29190610b08565b6101f5565b005b6100e360048036038101906100de9190610c04565b61038b565b6040516100f09190610f25565b60405180910390f35b610113600480360381019061010e9190610c44565b610421565b005b61012f600480360381019061012a9190610cc7565b610496565b005b61014b60048036038101906101469190610bd7565b610508565b005b61016760048036038101906101629190610b08565b610525565b005b610183600480360381019061017e9190610adb565b6106bd565b005b61019f600480360381019061019a9190610bd7565b610771565b005b6101bb60048036038101906101b69190610adb565b61078d565b005b6101d760048036038101906101d29190610adb565b6107fe565b005b6101f360048036038101906101ee9190610adb565b61086f565b005b60018054906101000a900460ff161561020d57600080fd5b6000610217610923565b905060008173ffffffffffffffffffffffffffffffffffffffff166370a082318a6040518263ffffffff1660e01b81526004016102549190610df6565b60206040518083038186803b15801561026c57600080fd5b505afa158015610280573d6000803e3d6000fd5b505050506040513d601f19601f820116820180604052508101906102a49190610d36565b905060008273ffffffffffffffffffffffffffffffffffffffff166370a082318a6040518263ffffffff1660e01b81526004016102e19190610df6565b60206040518083038186803b1580156102f957600080fd5b505afa15801561030d573d6000803e3d6000fd5b505050506040513d601f19601f820116820180604052508101906103319190610d36565b90507f47e915878c47f3ec4d7ff646a2becb229f64fd2abe4d2b5e2bb4275b0cf50d4e8b8b8b8b8b8b8b8b8b8b8b6040516103769b9a99989796959493929190610e11565b60405180910390a15050505050505050505050565b600080600084815260200190815260200160002060008373ffffffffffffffffffffffffffffffffffffffff1673ffffffffffffffffffffffffffffffffffffffff16815260200190815260200160002060009054906101000a900460ff166103f7576000801b610419565b7fa2ef4600d742022d532d4747cb3547474667d6f13804902513b2ec01c848f4b45b905092915050565b8373ffffffffffffffffffffffffffffffffffffffff16639bd9bbc68484846040518463ffffffff1660e01b815260040161045e93929190610ee7565b600060405180830381600087803b15801561047857600080fd5b505af115801561048c573d6000803e3d6000fd5b5050505050505050565b8273ffffffffffffffffffffffffffffffffffffffff1663fe9d930383836040518363ffffffff1660e01b81526004016104d1929190610f40565b600060405180830381600087803b1580156104eb57600080fd5b505af11580156104ff573d6000803e3d6000fd5b50505050505050565b80600160006101000a81548160ff02191690831515021790555050565b600160009054906101000a900460ff161561053f57600080fd5b6000610549610923565b905060008173ffffffffffffffffffffffffffffffffffffffff166370a082318a6040518263ffffffff1660e01b81526004016105869190610df6565b60206040518083038186803b15801561059e57600080fd5b505afa1580156105b2573d6000803e3d6000fd5b505050506040513d601f19601f820116820180604052508101906105d69190610d36565b905060008273ffffffffffffffffffffffffffffffffffffffff166370a082318a6040518263ffffffff1660e01b81526004016106139190610df6565b60206040518083038186803b15801561062b57600080fd5b505afa15801561063f573d6000803e3d6000fd5b505050506040513d601f19601f820116820180604052508101906106639190610d36565b90507faa3e88aca472e90221daf7d3d601abafb62b120319089d7a2c2f63588da855298b8b8b8b8b8b8b8b8b8b8b6040516106a89b9a99989796959493929190610e11565b60405180910390a15050505050505050505050565b600160029054906101000a900473ffffffffffffffffffffffffffffffffffffffff1673ffffffffffffffffffffffffffffffffffffffff166329965a1d307fb281fc8c12954d22544db45de3159a39272895b169a852b314f9cc762e44c53b846040518463ffffffff1660e01b815260040161073c93929190610eb0565b600060405180830381600087803b15801561075657600080fd5b505af115801561076a573d6000803e3d6000fd5b5050505050565b806001806101000a81548160ff02191690831515021790555050565b6107b77f29ddb589b1fb5fc7cf394961c1adf5f8c6454761adf795e67fe149f658abe8958261092b565b60003090508073ffffffffffffffffffffffffffffffffffffffff168273ffffffffffffffffffffffffffffffffffffffff1614156107fa576107f98161086f565b5b5050565b6108287fb281fc8c12954d22544db45de3159a39272895b169a852b314f9cc762e44c53b8261092b565b60003090508073ffffffffffffffffffffffffffffffffffffffff168273ffffffffffffffffffffffffffffffffffffffff16141561086b5761086a816106bd565b5b5050565b600160029054906101000a900473ffffffffffffffffffffffffffffffffffffffff1673ffffffffffffffffffffffffffffffffffffffff166329965a1d307f29ddb589b1fb5fc7cf394961c1adf5f8c6454761adf795e67fe149f658abe895846040518463ffffffff1660e01b81526004016108ee93929190610eb0565b600060405180830381600087803b15801561090857600080fd5b505af115801561091c573d6000803e3d6000fd5b5050505050565b600033905090565b600160008084815260200190815260200160002060008373ffffffffffffffffffffffffffffffffffffffff1673ffffffffffffffffffffffffffffffffffffffff16815260200190815260200160002060006101000a81548160ff0219169083151502179055505050565b60006109aa6109a584610f95565b610f70565b9050828152602081018484840111156109c6576109c56110f7565b5b6109d1848285611046565b509392505050565b6000813590506109e881611117565b92915050565b6000813590506109fd8161112e565b92915050565b600081359050610a1281611145565b92915050565b60008083601f840112610a2e57610a2d6110ed565b5b8235905067ffffffffffffffff811115610a4b57610a4a6110e8565b5b602083019150836001820283011115610a6757610a666110f2565b5b9250929050565b600082601f830112610a8357610a826110ed565b5b8135610a93848260208601610997565b91505092915050565b600081359050610aab8161115c565b92915050565b600081359050610ac081611173565b92915050565b600081519050610ad581611173565b92915050565b600060208284031215610af157610af0611101565b5b6000610aff848285016109d9565b91505092915050565b60008060008060008060008060c0898b031215610b2857610b27611101565b5b6000610b368b828c016109d9565b9850506020610b478b828c016109d9565b9750506040610b588b828c016109d9565b9650506060610b698b828c01610ab1565b955050608089013567ffffffffffffffff811115610b8a57610b896110fc565b5b610b968b828c01610a18565b945094505060a089013567ffffffffffffffff811115610bb957610bb86110fc565b5b610bc58b828c01610a18565b92509250509295985092959890939650565b600060208284031215610bed57610bec611101565b5b6000610bfb848285016109ee565b91505092915050565b60008060408385031215610c1b57610c1a611101565b5b6000610c2985828601610a03565b9250506020610c3a858286016109d9565b9150509250929050565b60008060008060808587031215610c5e57610c5d611101565b5b6000610c6c87828801610a9c565b9450506020610c7d878288016109d9565b9350506040610c8e87828801610ab1565b925050606085013567ffffffffffffffff811115610caf57610cae6110fc565b5b610cbb87828801610a6e565b91505092959194509250565b600080600060608486031215610ce057610cdf611101565b5b6000610cee86828701610a9c565b9350506020610cff86828701610ab1565b925050604084013567ffffffffffffffff811115610d2057610d1f6110fc565b5b610d2c86828701610a6e565b9150509250925092565b600060208284031215610d4c57610d4b611101565b5b6000610d5a84828501610ac6565b91505092915050565b610d6c81610fe2565b82525050565b610d7b81611000565b82525050565b6000610d8d8385610fd1565b9350610d9a838584611046565b610da383611106565b840190509392505050565b6000610db982610fc6565b610dc38185610fd1565b9350610dd3818560208601611055565b610ddc81611106565b840191505092915050565b610df08161103c565b82525050565b6000602082019050610e0b6000830184610d63565b92915050565b600061012082019050610e27600083018e610d63565b610e34602083018d610d63565b610e41604083018c610d63565b610e4e606083018b610de7565b8181036080830152610e6181898b610d81565b905081810360a0830152610e76818789610d81565b9050610e8560c0830186610d63565b610e9260e0830185610de7565b610ea0610100830184610de7565b9c9b505050505050505050505050565b6000606082019050610ec56000830186610d63565b610ed26020830185610d72565b610edf6040830184610d63565b949350505050565b6000606082019050610efc6000830186610d63565b610f096020830185610de7565b8181036040830152610f1b8184610dae565b9050949350505050565b6000602082019050610f3a6000830184610d72565b92915050565b6000604082019050610f556000830185610de7565b8181036020830152610f678184610dae565b90509392505050565b6000610f7a610f8b565b9050610f868282611088565b919050565b6000604051905090565b600067ffffffffffffffff821115610fb057610faf6110b9565b5b610fb982611106565b9050602081019050919050565b600081519050919050565b600082825260208201905092915050565b6000610fed8261101c565b9050919050565b60008115159050919050565b6000819050919050565b600061101582610fe2565b9050919050565b600073ffffffffffffffffffffffffffffffffffffffff82169050919050565b6000819050919050565b82818337600083830152505050565b60005b83811015611073578082015181840152602081019050611058565b83811115611082576000848401525b50505050565b61109182611106565b810181811067ffffffffffffffff821117156110b0576110af6110b9565b5b80604052505050565b7f4e487b7100000000000000000000000000000000000000000000000000000000600052604160045260246000fd5b600080fd5b600080fd5b600080fd5b600080fd5b600080fd5b600080fd5b6000601f19601f8301169050919050565b61112081610fe2565b811461112b57600080fd5b50565b61113781610ff4565b811461114257600080fd5b50565b61114e81611000565b811461115957600080fd5b50565b6111658161100a565b811461117057600080fd5b50565b61117c8161103c565b811461118757600080fd5b5056fea2646970667358221220c70c974f1decba70b500aa46513ae7640a2c62c2e5ee344346346e55a4cc54cd64736f6c63430008060033",
  "immutableReferences": {},
  "source": "// SPDX-License-Identifier: MIT\n\npragma solidity ^0.8.0;\n\nimport \"../token/ERC777/IERC777.sol\";\nimport \"../token/ERC777/IERC777Sender.sol\";\nimport \"../token/ERC777/IERC777Recipient.sol\";\nimport \"../utils/Context.sol\";\nimport \"../utils/introspection/IERC1820Registry.sol\";\nimport \"../utils/introspection/ERC1820Implementer.sol\";\n\ncontract ERC777SenderRecipientMock is Context, IERC777Sender, IERC777Recipient, ERC1820Implementer {\n    event TokensToSendCalled(\n        address operator,\n        address from,\n        address to,\n        uint256 amount,\n        bytes data,\n        bytes operatorData,\n        address token,\n        uint256 fromBalance,\n        uint256 toBalance\n    );\n\n    event TokensReceivedCalled(\n        address operator,\n        address from,\n        address to,\n        uint256 amount,\n        bytes data,\n        bytes operatorData,\n        address token,\n        uint256 fromBalance,\n        uint256 toBalance\n    );\n\n    // Emitted in ERC777Mock. Here for easier decoding\n    event BeforeTokenTransfer();\n\n    bool private _shouldRevertSend;\n    bool private _shouldRevertReceive;\n\n    IERC1820Registry private _erc1820 = IERC1820Registry(0x1820a4B7618BdE71Dce8cdc73aAB6C95905faD24);\n\n    bytes32 private constant _TOKENS_SENDER_INTERFACE_HASH = keccak256(\"ERC777TokensSender\");\n    bytes32 private constant _TOKENS_RECIPIENT_INTERFACE_HASH = keccak256(\"ERC777TokensRecipient\");\n\n    function tokensToSend(\n        address operator,\n        address from,\n        address to,\n        uint256 amount,\n        bytes calldata userData,\n        bytes calldata operatorData\n    ) external override {\n        if (_shouldRevertSend) {\n            revert();\n        }\n\n        IERC777 token = IERC777(_msgSender());\n\n        uint256 fromBalance = token.balanceOf(from);\n        // when called due to burn, to will be the zero address, which will have a balance of 0\n        uint256 toBalance = token.balanceOf(to);\n\n        emit TokensToSendCalled(\n            operator,\n            from,\n            to,\n            amount,\n            userData,\n            operatorData,\n            address(token),\n            fromBalance,\n            toBalance\n        );\n    }\n\n    function tokensReceived(\n        address operator,\n        address from,\n        address to,\n        uint256 amount,\n        bytes calldata userData,\n        bytes calldata operatorData\n    ) external override {\n        if (_shouldRevertReceive) {\n            revert();\n        }\n\n        IERC777 token = IERC777(_msgSender());\n\n        uint256 fromBalance = token.balanceOf(from);\n        // when called due to burn, to will be the zero address, which will have a balance of 0\n        uint256 toBalance = token.balanceOf(to);\n\n        emit TokensReceivedCalled(\n            operator,\n            from,\n            to,\n            amount,\n            userData,\n            operatorData,\n            address(token),\n            fromBalance,\n            toBalance\n        );\n    }\n\n    function senderFor(address account) public {\n        _registerInterfaceForAddress(_TOKENS_SENDER_INTERFACE_HASH, account);\n\n        address self = address(this);\n        if (account == self) {\n            registerSender(self);\n        }\n    }\n\n    function registerSender(address sender) public {\n        _erc1820.setInterfaceImplementer(address(this), _TOKENS_SENDER_INTERFACE_HASH, sender);\n    }\n\n    function recipientFor(address account) public {\n        _registerInterfaceForAddress(_TOKENS_RECIPIENT_INTERFACE_HASH, account);\n\n        address self = address(this);\n        if (account == self) {\n            registerRecipient(self);\n        }\n    }\n\n    function registerRecipient(address recipient) public {\n        _erc1820.setInterfaceImplementer(address(this), _TOKENS_RECIPIENT_INTERFACE_HASH, recipient);\n    }\n\n    function setShouldRevertSend(bool shouldRevert) public {\n        _shouldRevertSend = shouldRevert;\n    }\n\n    function setShouldRevertReceive(bool shouldRevert) public {\n        _shouldRevertReceive = shouldRevert;\n    }\n\n    function send(\n        IERC777 token,\n        address to,\n        uint256 amount,\n        bytes memory data\n    ) public {\n        // This is 777's send function, not the Solidity send function\n        token.send(to, amount, data); // solhint-disable-line check-send-result\n    }\n\n    function burn(\n        IERC777 token,\n        uint256 amount,\n        bytes memory data\n    ) public {\n        token.burn(amount, data);\n    }\n}\n",
  "sourcePath": "/home/sandeep/NFT_Market/contracts/mocks/ERC777SenderRecipientMock.sol",
  "compiler": {
    "name": "solc",
    "version": "0.8.6+commit.11564f7e.Emscripten.clang"
  },
  "schemaVersion": "3.4.1",
  "updatedAt": "2021-07-13T14:33:10.600Z",
  "devdoc": {
    "kind": "dev",
    "methods": {
      "canImplementInterfaceForAddress(bytes32,address)": {
        "details": "See {IERC1820Implementer-canImplementInterfaceForAddress}."
      },
      "tokensReceived(address,address,address,uint256,bytes,bytes)": {
        "details": "Called by an {IERC777} token contract whenever tokens are being moved or created into a registered account (`to`). The type of operation is conveyed by `from` being the zero address or not. This call occurs _after_ the token contract's state is updated, so {IERC777-balanceOf}, etc., can be used to query the post-operation state. This function may revert to prevent the operation from being executed."
      },
      "tokensToSend(address,address,address,uint256,bytes,bytes)": {
        "details": "Called by an {IERC777} token contract whenever a registered holder's (`from`) tokens are about to be moved or destroyed. The type of operation is conveyed by `to` being the zero address or not. This call occurs _before_ the token contract's state is updated, so {IERC777-balanceOf}, etc., can be used to query the pre-operation state. This function may revert to prevent the operation from being executed."
      }
    },
    "version": 1
  },
  "userdoc": {
    "kind": "user",
    "methods": {},
    "version": 1
  }
}