{
  "contractName": "ERC721EnumerableMock",
  "abi": [
    {
      "inputs": [
        {
          "internalType": "string",
          "name": "name",
          "type": "string"
        },
        {
          "internalType": "string",
          "name": "symbol",
          "type": "string"
        }
      ],
      "stateMutability": "nonpayable",
      "type": "constructor"
    },
    {
      "anonymous": false,
      "inputs": [
        {
          "indexed": true,
          "internalType": "address",
          "name": "owner",
          "type": "address"
        },
        {
          "indexed": true,
          "internalType": "address",
          "name": "approved",
          "type": "address"
        },
        {
          "indexed": true,
          "internalType": "uint256",
          "name": "tokenId",
          "type": "uint256"
        }
      ],
      "name": "Approval",
      "type": "event"
    },
    {
      "anonymous": false,
      "inputs": [
        {
          "indexed": true,
          "internalType": "address",
          "name": "owner",
          "type": "address"
        },
        {
          "indexed": true,
          "internalType": "address",
          "name": "operator",
          "type": "address"
        },
        {
          "indexed": false,
          "internalType": "bool",
          "name": "approved",
          "type": "bool"
        }
      ],
      "name": "ApprovalForAll",
      "type": "event"
    },
    {
      "anonymous": false,
      "inputs": [
        {
          "indexed": true,
          "internalType": "address",
          "name": "from",
          "type": "address"
        },
        {
          "indexed": true,
          "internalType": "address",
          "name": "to",
          "type": "address"
        },
        {
          "indexed": true,
          "internalType": "uint256",
          "name": "tokenId",
          "type": "uint256"
        }
      ],
      "name": "Transfer",
      "type": "event"
    },
    {
      "inputs": [
        {
          "internalType": "address",
          "name": "to",
          "type": "address"
        },
        {
          "internalType": "uint256",
          "name": "tokenId",
          "type": "uint256"
        }
      ],
      "name": "approve",
      "outputs": [],
      "stateMutability": "nonpayable",
      "type": "function"
    },
    {
      "inputs": [
        {
          "internalType": "address",
          "name": "owner",
          "type": "address"
        }
      ],
      "name": "balanceOf",
      "outputs": [
        {
          "internalType": "uint256",
          "name": "",
          "type": "uint256"
        }
      ],
      "stateMutability": "view",
      "type": "function"
    },
    {
      "inputs": [
        {
          "internalType": "uint256",
          "name": "tokenId",
          "type": "uint256"
        }
      ],
      "name": "getApproved",
      "outputs": [
        {
          "internalType": "address",
          "name": "",
          "type": "address"
        }
      ],
      "stateMutability": "view",
      "type": "function"
    },
    {
      "inputs": [
        {
          "internalType": "address",
          "name": "owner",
          "type": "address"
        },
        {
          "internalType": "address",
          "name": "operator",
          "type": "address"
        }
      ],
      "name": "isApprovedForAll",
      "outputs": [
        {
          "internalType": "bool",
          "name": "",
          "type": "bool"
        }
      ],
      "stateMutability": "view",
      "type": "function"
    },
    {
      "inputs": [],
      "name": "name",
      "outputs": [
        {
          "internalType": "string",
          "name": "",
          "type": "string"
        }
      ],
      "stateMutability": "view",
      "type": "function"
    },
    {
      "inputs": [
        {
          "internalType": "uint256",
          "name": "tokenId",
          "type": "uint256"
        }
      ],
      "name": "ownerOf",
      "outputs": [
        {
          "internalType": "address",
          "name": "",
          "type": "address"
        }
      ],
      "stateMutability": "view",
      "type": "function"
    },
    {
      "inputs": [
        {
          "internalType": "address",
          "name": "from",
          "type": "address"
        },
        {
          "internalType": "address",
          "name": "to",
          "type": "address"
        },
        {
          "internalType": "uint256",
          "name": "tokenId",
          "type": "uint256"
        }
      ],
      "name": "safeTransferFrom",
      "outputs": [],
      "stateMutability": "nonpayable",
      "type": "function"
    },
    {
      "inputs": [
        {
          "internalType": "address",
          "name": "from",
          "type": "address"
        },
        {
          "internalType": "address",
          "name": "to",
          "type": "address"
        },
        {
          "internalType": "uint256",
          "name": "tokenId",
          "type": "uint256"
        },
        {
          "internalType": "bytes",
          "name": "_data",
          "type": "bytes"
        }
      ],
      "name": "safeTransferFrom",
      "outputs": [],
      "stateMutability": "nonpayable",
      "type": "function"
    },
    {
      "inputs": [
        {
          "internalType": "address",
          "name": "operator",
          "type": "address"
        },
        {
          "internalType": "bool",
          "name": "approved",
          "type": "bool"
        }
      ],
      "name": "setApprovalForAll",
      "outputs": [],
      "stateMutability": "nonpayable",
      "type": "function"
    },
    {
      "inputs": [
        {
          "internalType": "bytes4",
          "name": "interfaceId",
          "type": "bytes4"
        }
      ],
      "name": "supportsInterface",
      "outputs": [
        {
          "internalType": "bool",
          "name": "",
          "type": "bool"
        }
      ],
      "stateMutability": "view",
      "type": "function"
    },
    {
      "inputs": [],
      "name": "symbol",
      "outputs": [
        {
          "internalType": "string",
          "name": "",
          "type": "string"
        }
      ],
      "stateMutability": "view",
      "type": "function"
    },
    {
      "inputs": [
        {
          "internalType": "uint256",
          "name": "index",
          "type": "uint256"
        }
      ],
      "name": "tokenByIndex",
      "outputs": [
        {
          "internalType": "uint256",
          "name": "",
          "type": "uint256"
        }
      ],
      "stateMutability": "view",
      "type": "function"
    },
    {
      "inputs": [
        {
          "internalType": "address",
          "name": "owner",
          "type": "address"
        },
        {
          "internalType": "uint256",
          "name": "index",
          "type": "uint256"
        }
      ],
      "name": "tokenOfOwnerByIndex",
      "outputs": [
        {
          "internalType": "uint256",
          "name": "",
          "type": "uint256"
        }
      ],
      "stateMutability": "view",
      "type": "function"
    },
    {
      "inputs": [
        {
          "internalType": "uint256",
          "name": "tokenId",
          "type": "uint256"
        }
      ],
      "name": "tokenURI",
      "outputs": [
        {
          "internalType": "string",
          "name": "",
          "type": "string"
        }
      ],
      "stateMutability": "view",
      "type": "function"
    },
    {
      "inputs": [],
      "name": "totalSupply",
      "outputs": [
        {
          "internalType": "uint256",
          "name": "",
          "type": "uint256"
        }
      ],
      "stateMutability": "view",
      "type": "function"
    },
    {
      "inputs": [
        {
          "internalType": "address",
          "name": "from",
          "type": "address"
        },
        {
          "internalType": "address",
          "name": "to",
          "type": "address"
        },
        {
          "internalType": "uint256",
          "name": "tokenId",
          "type": "uint256"
        }
      ],
      "name": "transferFrom",
      "outputs": [],
      "stateMutability": "nonpayable",
      "type": "function"
    },
    {
      "inputs": [
        {
          "internalType": "string",
          "name": "newBaseTokenURI",
          "type": "string"
        }
      ],
      "name": "setBaseURI",
      "outputs": [],
      "stateMutability": "nonpayable",
      "type": "function"
    },
    {
      "inputs": [],
      "name": "baseURI",
      "outputs": [
        {
          "internalType": "string",
          "name": "",
          "type": "string"
        }
      ],
      "stateMutability": "view",
      "type": "function"
    },
    {
      "inputs": [
        {
          "internalType": "uint256",
          "name": "tokenId",
          "type": "uint256"
        }
      ],
      "name": "exists",
      "outputs": [
        {
          "internalType": "bool",
          "name": "",
          "type": "bool"
        }
      ],
      "stateMutability": "view",
      "type": "function"
    },
    {
      "inputs": [
        {
          "internalType": "address",
          "name": "to",
          "type": "address"
        },
        {
          "internalType": "uint256",
          "name": "tokenId",
          "type": "uint256"
        }
      ],
      "name": "mint",
      "outputs": [],
      "stateMutability": "nonpayable",
      "type": "function"
    },
    {
      "inputs": [
        {
          "internalType": "address",
          "name": "to",
          "type": "address"
        },
        {
          "internalType": "uint256",
          "name": "tokenId",
          "type": "uint256"
        },
        {
          "internalType": "bytes",
          "name": "_data",
          "type": "bytes"
        }
      ],
      "name": "safeMint",
      "outputs": [],
      "stateMutability": "nonpayable",
      "type": "function"
    },
    {
      "inputs": [
        {
          "internalType": "address",
          "name": "to",
          "type": "address"
        },
        {
          "internalType": "uint256",
          "name": "tokenId",
          "type": "uint256"
        }
      ],
      "name": "safeMint",
      "outputs": [],
      "stateMutability": "nonpayable",
      "type": "function"
    },
    {
      "inputs": [
        {
          "internalType": "uint256",
          "name": "tokenId",
          "type": "uint256"
        }
      ],
      "name": "burn",
      "outputs": [],
      "stateMutability": "nonpayable",
      "type": "function"
    }
  ],
  "bytecode": "0x60806040523480156200001157600080fd5b5060405162003741380380620037418339818101604052810190620000379190620001a3565b818181600090805190602001906200005192919062000075565b5080600190805190602001906200006a92919062000075565b5050505050620003ac565b8280546200008390620002bd565b90600052602060002090601f016020900481019282620000a75760008555620000f3565b82601f10620000c257805160ff1916838001178555620000f3565b82800160010185558215620000f3579182015b82811115620000f2578251825591602001919060010190620000d5565b5b50905062000102919062000106565b5090565b5b808211156200012157600081600090555060010162000107565b5090565b60006200013c620001368462000251565b62000228565b9050828152602081018484840111156200015b576200015a6200038c565b5b6200016884828562000287565b509392505050565b600082601f83011262000188576200018762000387565b5b81516200019a84826020860162000125565b91505092915050565b60008060408385031215620001bd57620001bc62000396565b5b600083015167ffffffffffffffff811115620001de57620001dd62000391565b5b620001ec8582860162000170565b925050602083015167ffffffffffffffff81111562000210576200020f62000391565b5b6200021e8582860162000170565b9150509250929050565b60006200023462000247565b9050620002428282620002f3565b919050565b6000604051905090565b600067ffffffffffffffff8211156200026f576200026e62000358565b5b6200027a826200039b565b9050602081019050919050565b60005b83811015620002a75780820151818401526020810190506200028a565b83811115620002b7576000848401525b50505050565b60006002820490506001821680620002d657607f821691505b60208210811415620002ed57620002ec62000329565b5b50919050565b620002fe826200039b565b810181811067ffffffffffffffff8211171562000320576200031f62000358565b5b80604052505050565b7f4e487b7100000000000000000000000000000000000000000000000000000000600052602260045260246000fd5b7f4e487b7100000000000000000000000000000000000000000000000000000000600052604160045260246000fd5b600080fd5b600080fd5b600080fd5b600080fd5b6000601f19601f8301169050919050565b61338580620003bc6000396000f3fe608060405234801561001057600080fd5b506004361061014d5760003560e01c80634f6ccce7116100c357806395d89b411161007c57806395d89b41146103c0578063a1448194146103de578063a22cb465146103fa578063b88d4fde14610416578063c87b56dd14610432578063e985e9c5146104625761014d565b80634f6ccce7146102da57806355f804b31461030a5780636352211e146103265780636c0360eb1461035657806370a08231146103745780638832e6e3146103a45761014d565b806323b872dd1161011557806323b872dd1461020a5780632f745c591461022657806340c10f191461025657806342842e0e1461027257806342966c681461028e5780634f558e79146102aa5761014d565b806301ffc9a71461015257806306fdde0314610182578063081812fc146101a0578063095ea7b3146101d057806318160ddd146101ec575b600080fd5b61016c6004803603810190610167919061238e565b610492565b60405161017991906127ed565b60405180910390f35b61018a61050c565b6040516101979190612808565b60405180910390f35b6101ba60048036038101906101b59190612435565b61059e565b6040516101c79190612786565b60405180910390f35b6101ea60048036038101906101e591906122df565b610623565b005b6101f461073b565b6040516102019190612a2a565b60405180910390f35b610224600480360381019061021f91906121c9565b610748565b005b610240600480360381019061023b91906122df565b6107a8565b60405161024d9190612a2a565b60405180910390f35b610270600480360381019061026b91906122df565b61084d565b005b61028c600480360381019061028791906121c9565b61085b565b005b6102a860048036038101906102a39190612435565b61087b565b005b6102c460048036038101906102bf9190612435565b610887565b6040516102d191906127ed565b60405180910390f35b6102f460048036038101906102ef9190612435565b610899565b6040516103019190612a2a565b60405180910390f35b610324600480360381019061031f91906123e8565b61090a565b005b610340600480360381019061033b9190612435565b610920565b60405161034d9190612786565b60405180910390f35b61035e6109d2565b60405161036b9190612808565b60405180910390f35b61038e6004803603810190610389919061215c565b6109e1565b60405161039b9190612a2a565b60405180910390f35b6103be60048036038101906103b9919061231f565b610a99565b005b6103c8610aa9565b6040516103d59190612808565b60405180910390f35b6103f860048036038101906103f391906122df565b610b3b565b005b610414600480360381019061040f919061229f565b610b49565b005b610430600480360381019061042b919061221c565b610cca565b005b61044c60048036038101906104479190612435565b610d2c565b6040516104599190612808565b60405180910390f35b61047c60048036038101906104779190612189565b610dd3565b60405161048991906127ed565b60405180910390f35b60007f780e9d63000000000000000000000000000000000000000000000000000000007bffffffffffffffffffffffffffffffffffffffffffffffffffffffff1916827bffffffffffffffffffffffffffffffffffffffffffffffffffffffff19161480610505575061050482610e67565b5b9050919050565b60606000805461051b90612c4f565b80601f016020809104026020016040519081016040528092919081815260200182805461054790612c4f565b80156105945780601f1061056957610100808354040283529160200191610594565b820191906000526020600020905b81548152906001019060200180831161057757829003601f168201915b5050505050905090565b60006105a982610f49565b6105e8576040517f08c379a00000000000000000000000000000000000000000000000000000000081526004016105df9061296a565b60405180910390fd5b6004600083815260200190815260200160002060009054906101000a900473ffffffffffffffffffffffffffffffffffffffff169050919050565b600061062e82610920565b90508073ffffffffffffffffffffffffffffffffffffffff168373ffffffffffffffffffffffffffffffffffffffff16141561069f576040517f08c379a0000000000000000000000000000000000000000000000000000000008152600401610696906129ca565b60405180910390fd5b8073ffffffffffffffffffffffffffffffffffffffff166106be610fb5565b73ffffffffffffffffffffffffffffffffffffffff1614806106ed57506106ec816106e7610fb5565b610dd3565b5b61072c576040517f08c379a0000000000000000000000000000000000000000000000000000000008152600401610723906128ea565b60405180910390fd5b6107368383610fbd565b505050565b6000600880549050905090565b610759610753610fb5565b82611076565b610798576040517f08c379a000000000000000000000000000000000000000000000000000000000815260040161078f906129ea565b60405180910390fd5b6107a3838383611154565b505050565b60006107b3836109e1565b82106107f4576040517f08c379a00000000000000000000000000000000000000000000000000000000081526004016107eb9061282a565b60405180910390fd5b600660008473ffffffffffffffffffffffffffffffffffffffff1673ffffffffffffffffffffffffffffffffffffffff168152602001908152602001600020600083815260200190815260200160002054905092915050565b61085782826113b0565b5050565b61087683838360405180602001604052806000815250610cca565b505050565b6108848161157e565b50565b600061089282610f49565b9050919050565b60006108a361073b565b82106108e4576040517f08c379a00000000000000000000000000000000000000000000000000000000081526004016108db90612a0a565b60405180910390fd5b600882815481106108f8576108f7612de8565b5b90600052602060002001549050919050565b8181600a919061091b929190611f8a565b505050565b6000806002600084815260200190815260200160002060009054906101000a900473ffffffffffffffffffffffffffffffffffffffff169050600073ffffffffffffffffffffffffffffffffffffffff168173ffffffffffffffffffffffffffffffffffffffff1614156109c9576040517f08c379a00000000000000000000000000000000000000000000000000000000081526004016109c09061292a565b60405180910390fd5b80915050919050565b60606109dc61168f565b905090565b60008073ffffffffffffffffffffffffffffffffffffffff168273ffffffffffffffffffffffffffffffffffffffff161415610a52576040517f08c379a0000000000000000000000000000000000000000000000000000000008152600401610a499061290a565b60405180910390fd5b600360008373ffffffffffffffffffffffffffffffffffffffff1673ffffffffffffffffffffffffffffffffffffffff168152602001908152602001600020549050919050565b610aa4838383611721565b505050565b606060018054610ab890612c4f565b80601f0160208091040260200160405190810160405280929190818152602001828054610ae490612c4f565b8015610b315780601f10610b0657610100808354040283529160200191610b31565b820191906000526020600020905b815481529060010190602001808311610b1457829003601f168201915b5050505050905090565b610b45828261177c565b5050565b610b51610fb5565b73ffffffffffffffffffffffffffffffffffffffff168273ffffffffffffffffffffffffffffffffffffffff161415610bbf576040517f08c379a0000000000000000000000000000000000000000000000000000000008152600401610bb6906128aa565b60405180910390fd5b8060056000610bcc610fb5565b73ffffffffffffffffffffffffffffffffffffffff1673ffffffffffffffffffffffffffffffffffffffff16815260200190815260200160002060008473ffffffffffffffffffffffffffffffffffffffff1673ffffffffffffffffffffffffffffffffffffffff16815260200190815260200160002060006101000a81548160ff0219169083151502179055508173ffffffffffffffffffffffffffffffffffffffff16610c79610fb5565b73ffffffffffffffffffffffffffffffffffffffff167f17307eab39ab6107e8899845ad3d59bd9653f200f220920489ca2b5937696c3183604051610cbe91906127ed565b60405180910390a35050565b610cdb610cd5610fb5565b83611076565b610d1a576040517f08c379a0000000000000000000000000000000000000000000000000000000008152600401610d11906129ea565b60405180910390fd5b610d268484848461179a565b50505050565b6060610d3782610f49565b610d76576040517f08c379a0000000000000000000000000000000000000000000000000000000008152600401610d6d906129aa565b60405180910390fd5b6000610d8061168f565b90506000815111610da05760405180602001604052806000815250610dcb565b80610daa846117f6565b604051602001610dbb929190612762565b6040516020818303038152906040525b915050919050565b6000600560008473ffffffffffffffffffffffffffffffffffffffff1673ffffffffffffffffffffffffffffffffffffffff16815260200190815260200160002060008373ffffffffffffffffffffffffffffffffffffffff1673ffffffffffffffffffffffffffffffffffffffff16815260200190815260200160002060009054906101000a900460ff16905092915050565b60007f80ac58cd000000000000000000000000000000000000000000000000000000007bffffffffffffffffffffffffffffffffffffffffffffffffffffffff1916827bffffffffffffffffffffffffffffffffffffffffffffffffffffffff19161480610f3257507f5b5e139f000000000000000000000000000000000000000000000000000000007bffffffffffffffffffffffffffffffffffffffffffffffffffffffff1916827bffffffffffffffffffffffffffffffffffffffffffffffffffffffff1916145b80610f425750610f4182611957565b5b9050919050565b60008073ffffffffffffffffffffffffffffffffffffffff166002600084815260200190815260200160002060009054906101000a900473ffffffffffffffffffffffffffffffffffffffff1673ffffffffffffffffffffffffffffffffffffffff1614159050919050565b600033905090565b816004600083815260200190815260200160002060006101000a81548173ffffffffffffffffffffffffffffffffffffffff021916908373ffffffffffffffffffffffffffffffffffffffff160217905550808273ffffffffffffffffffffffffffffffffffffffff1661103083610920565b73ffffffffffffffffffffffffffffffffffffffff167f8c5be1e5ebec7d5bd14f71427d1e84f3dd0314c0f7b2291e5b200ac8c7c3b92560405160405180910390a45050565b600061108182610f49565b6110c0576040517f08c379a00000000000000000000000000000000000000000000000000000000081526004016110b7906128ca565b60405180910390fd5b60006110cb83610920565b90508073ffffffffffffffffffffffffffffffffffffffff168473ffffffffffffffffffffffffffffffffffffffff16148061113a57508373ffffffffffffffffffffffffffffffffffffffff166111228461059e565b73ffffffffffffffffffffffffffffffffffffffff16145b8061114b575061114a8185610dd3565b5b91505092915050565b8273ffffffffffffffffffffffffffffffffffffffff1661117482610920565b73ffffffffffffffffffffffffffffffffffffffff16146111ca576040517f08c379a00000000000000000000000000000000000000000000000000000000081526004016111c19061298a565b60405180910390fd5b600073ffffffffffffffffffffffffffffffffffffffff168273ffffffffffffffffffffffffffffffffffffffff16141561123a576040517f08c379a00000000000000000000000000000000000000000000000000000000081526004016112319061288a565b60405180910390fd5b6112458383836119c1565b611250600082610fbd565b6001600360008573ffffffffffffffffffffffffffffffffffffffff1673ffffffffffffffffffffffffffffffffffffffff16815260200190815260200160002060008282546112a09190612b65565b925050819055506001600360008473ffffffffffffffffffffffffffffffffffffffff1673ffffffffffffffffffffffffffffffffffffffff16815260200190815260200160002060008282546112f79190612ade565b92505081905550816002600083815260200190815260200160002060006101000a81548173ffffffffffffffffffffffffffffffffffffffff021916908373ffffffffffffffffffffffffffffffffffffffff160217905550808273ffffffffffffffffffffffffffffffffffffffff168473ffffffffffffffffffffffffffffffffffffffff167fddf252ad1be2c89b69c2b068fc378daa952ba7f163c4a11628f55a4df523b3ef60405160405180910390a4505050565b600073ffffffffffffffffffffffffffffffffffffffff168273ffffffffffffffffffffffffffffffffffffffff161415611420576040517f08c379a00000000000000000000000000000000000000000000000000000000081526004016114179061294a565b60405180910390fd5b61142981610f49565b15611469576040517f08c379a00000000000000000000000000000000000000000000000000000000081526004016114609061286a565b60405180910390fd5b611475600083836119c1565b6001600360008473ffffffffffffffffffffffffffffffffffffffff1673ffffffffffffffffffffffffffffffffffffffff16815260200190815260200160002060008282546114c59190612ade565b92505081905550816002600083815260200190815260200160002060006101000a81548173ffffffffffffffffffffffffffffffffffffffff021916908373ffffffffffffffffffffffffffffffffffffffff160217905550808273ffffffffffffffffffffffffffffffffffffffff16600073ffffffffffffffffffffffffffffffffffffffff167fddf252ad1be2c89b69c2b068fc378daa952ba7f163c4a11628f55a4df523b3ef60405160405180910390a45050565b600061158982610920565b9050611597816000846119c1565b6115a2600083610fbd565b6001600360008373ffffffffffffffffffffffffffffffffffffffff1673ffffffffffffffffffffffffffffffffffffffff16815260200190815260200160002060008282546115f29190612b65565b925050819055506002600083815260200190815260200160002060006101000a81549073ffffffffffffffffffffffffffffffffffffffff021916905581600073ffffffffffffffffffffffffffffffffffffffff168273ffffffffffffffffffffffffffffffffffffffff167fddf252ad1be2c89b69c2b068fc378daa952ba7f163c4a11628f55a4df523b3ef60405160405180910390a45050565b6060600a805461169e90612c4f565b80601f01602080910402602001604051908101604052809291908181526020018280546116ca90612c4f565b80156117175780601f106116ec57610100808354040283529160200191611717565b820191906000526020600020905b8154815290600101906020018083116116fa57829003601f168201915b5050505050905090565b61172b83836113b0565b6117386000848484611ad5565b611777576040517f08c379a000000000000000000000000000000000000000000000000000000000815260040161176e9061284a565b60405180910390fd5b505050565b611796828260405180602001604052806000815250611721565b5050565b6117a5848484611154565b6117b184848484611ad5565b6117f0576040517f08c379a00000000000000000000000000000000000000000000000000000000081526004016117e79061284a565b60405180910390fd5b50505050565b6060600082141561183e576040518060400160405280600181526020017f30000000000000000000000000000000000000000000000000000000000000008152509050611952565b600082905060005b6000821461187057808061185990612cb2565b915050600a826118699190612b34565b9150611846565b60008167ffffffffffffffff81111561188c5761188b612e17565b5b6040519080825280601f01601f1916602001820160405280156118be5781602001600182028036833780820191505090505b5090505b6000851461194b576001826118d79190612b65565b9150600a856118e69190612cfb565b60306118f29190612ade565b60f81b81838151811061190857611907612de8565b5b60200101907effffffffffffffffffffffffffffffffffffffffffffffffffffffffffffff1916908160001a905350600a856119449190612b34565b94506118c2565b8093505050505b919050565b60007f01ffc9a7000000000000000000000000000000000000000000000000000000007bffffffffffffffffffffffffffffffffffffffffffffffffffffffff1916827bffffffffffffffffffffffffffffffffffffffffffffffffffffffff1916149050919050565b6119cc838383611c6c565b600073ffffffffffffffffffffffffffffffffffffffff168373ffffffffffffffffffffffffffffffffffffffff161415611a0f57611a0a81611c71565b611a4e565b8173ffffffffffffffffffffffffffffffffffffffff168373ffffffffffffffffffffffffffffffffffffffff1614611a4d57611a4c8382611cba565b5b5b600073ffffffffffffffffffffffffffffffffffffffff168273ffffffffffffffffffffffffffffffffffffffff161415611a9157611a8c81611e27565b611ad0565b8273ffffffffffffffffffffffffffffffffffffffff168273ffffffffffffffffffffffffffffffffffffffff1614611acf57611ace8282611ef8565b5b5b505050565b6000611af68473ffffffffffffffffffffffffffffffffffffffff16611f77565b15611c5f578373ffffffffffffffffffffffffffffffffffffffff1663150b7a02611b1f610fb5565b8786866040518563ffffffff1660e01b8152600401611b4194939291906127a1565b602060405180830381600087803b158015611b5b57600080fd5b505af1925050508015611b8c57506040513d601f19601f82011682018060405250810190611b8991906123bb565b60015b611c0f573d8060008114611bbc576040519150601f19603f3d011682016040523d82523d6000602084013e611bc1565b606091505b50600081511415611c07576040517f08c379a0000000000000000000000000000000000000000000000000000000008152600401611bfe9061284a565b60405180910390fd5b805181602001fd5b63150b7a0260e01b7bffffffffffffffffffffffffffffffffffffffffffffffffffffffff1916817bffffffffffffffffffffffffffffffffffffffffffffffffffffffff191614915050611c64565b600190505b949350505050565b505050565b6008805490506009600083815260200190815260200160002081905550600881908060018154018082558091505060019003906000526020600020016000909190919091505550565b60006001611cc7846109e1565b611cd19190612b65565b9050600060076000848152602001908152602001600020549050818114611db6576000600660008673ffffffffffffffffffffffffffffffffffffffff1673ffffffffffffffffffffffffffffffffffffffff168152602001908152602001600020600084815260200190815260200160002054905080600660008773ffffffffffffffffffffffffffffffffffffffff1673ffffffffffffffffffffffffffffffffffffffff168152602001908152602001600020600084815260200190815260200160002081905550816007600083815260200190815260200160002081905550505b6007600084815260200190815260200160002060009055600660008573ffffffffffffffffffffffffffffffffffffffff1673ffffffffffffffffffffffffffffffffffffffff16815260200190815260200160002060008381526020019081526020016000206000905550505050565b60006001600880549050611e3b9190612b65565b9050600060096000848152602001908152602001600020549050600060088381548110611e6b57611e6a612de8565b5b906000526020600020015490508060088381548110611e8d57611e8c612de8565b5b906000526020600020018190555081600960008381526020019081526020016000208190555060096000858152602001908152602001600020600090556008805480611edc57611edb612db9565b5b6001900381819060005260206000200160009055905550505050565b6000611f03836109e1565b905081600660008573ffffffffffffffffffffffffffffffffffffffff1673ffffffffffffffffffffffffffffffffffffffff168152602001908152602001600020600083815260200190815260200160002081905550806007600084815260200190815260200160002081905550505050565b600080823b905060008111915050919050565b828054611f9690612c4f565b90600052602060002090601f016020900481019282611fb85760008555611fff565b82601f10611fd157803560ff1916838001178555611fff565b82800160010185558215611fff579182015b82811115611ffe578235825591602001919060010190611fe3565b5b50905061200c9190612010565b5090565b5b80821115612029576000816000905550600101612011565b5090565b600061204061203b84612a6a565b612a45565b90508281526020810184848401111561205c5761205b612e55565b5b612067848285612c0d565b509392505050565b60008135905061207e816132f3565b92915050565b6000813590506120938161330a565b92915050565b6000813590506120a881613321565b92915050565b6000815190506120bd81613321565b92915050565b600082601f8301126120d8576120d7612e4b565b5b81356120e884826020860161202d565b91505092915050565b60008083601f84011261210757612106612e4b565b5b8235905067ffffffffffffffff81111561212457612123612e46565b5b6020830191508360018202830111156121405761213f612e50565b5b9250929050565b60008135905061215681613338565b92915050565b60006020828403121561217257612171612e5f565b5b60006121808482850161206f565b91505092915050565b600080604083850312156121a05761219f612e5f565b5b60006121ae8582860161206f565b92505060206121bf8582860161206f565b9150509250929050565b6000806000606084860312156121e2576121e1612e5f565b5b60006121f08682870161206f565b93505060206122018682870161206f565b925050604061221286828701612147565b9150509250925092565b6000806000806080858703121561223657612235612e5f565b5b60006122448782880161206f565b94505060206122558782880161206f565b935050604061226687828801612147565b925050606085013567ffffffffffffffff81111561228757612286612e5a565b5b612293878288016120c3565b91505092959194509250565b600080604083850312156122b6576122b5612e5f565b5b60006122c48582860161206f565b92505060206122d585828601612084565b9150509250929050565b600080604083850312156122f6576122f5612e5f565b5b60006123048582860161206f565b925050602061231585828601612147565b9150509250929050565b60008060006060848603121561233857612337612e5f565b5b60006123468682870161206f565b935050602061235786828701612147565b925050604084013567ffffffffffffffff81111561237857612377612e5a565b5b612384868287016120c3565b9150509250925092565b6000602082840312156123a4576123a3612e5f565b5b60006123b284828501612099565b91505092915050565b6000602082840312156123d1576123d0612e5f565b5b60006123df848285016120ae565b91505092915050565b600080602083850312156123ff576123fe612e5f565b5b600083013567ffffffffffffffff81111561241d5761241c612e5a565b5b612429858286016120f1565b92509250509250929050565b60006020828403121561244b5761244a612e5f565b5b600061245984828501612147565b91505092915050565b61246b81612b99565b82525050565b61247a81612bab565b82525050565b600061248b82612a9b565b6124958185612ab1565b93506124a5818560208601612c1c565b6124ae81612e64565b840191505092915050565b60006124c482612aa6565b6124ce8185612ac2565b93506124de818560208601612c1c565b6124e781612e64565b840191505092915050565b60006124fd82612aa6565b6125078185612ad3565b9350612517818560208601612c1c565b80840191505092915050565b6000612530602b83612ac2565b915061253b82612e75565b604082019050919050565b6000612553603283612ac2565b915061255e82612ec4565b604082019050919050565b6000612576601c83612ac2565b915061258182612f13565b602082019050919050565b6000612599602483612ac2565b91506125a482612f3c565b604082019050919050565b60006125bc601983612ac2565b91506125c782612f8b565b602082019050919050565b60006125df602c83612ac2565b91506125ea82612fb4565b604082019050919050565b6000612602603883612ac2565b915061260d82613003565b604082019050919050565b6000612625602a83612ac2565b915061263082613052565b604082019050919050565b6000612648602983612ac2565b9150612653826130a1565b604082019050919050565b600061266b602083612ac2565b9150612676826130f0565b602082019050919050565b600061268e602c83612ac2565b915061269982613119565b604082019050919050565b60006126b1602983612ac2565b91506126bc82613168565b604082019050919050565b60006126d4602f83612ac2565b91506126df826131b7565b604082019050919050565b60006126f7602183612ac2565b915061270282613206565b604082019050919050565b600061271a603183612ac2565b915061272582613255565b604082019050919050565b600061273d602c83612ac2565b9150612748826132a4565b604082019050919050565b61275c81612c03565b82525050565b600061276e82856124f2565b915061277a82846124f2565b91508190509392505050565b600060208201905061279b6000830184612462565b92915050565b60006080820190506127b66000830187612462565b6127c36020830186612462565b6127d06040830185612753565b81810360608301526127e28184612480565b905095945050505050565b60006020820190506128026000830184612471565b92915050565b6000602082019050818103600083015261282281846124b9565b905092915050565b6000602082019050818103600083015261284381612523565b9050919050565b6000602082019050818103600083015261286381612546565b9050919050565b6000602082019050818103600083015261288381612569565b9050919050565b600060208201905081810360008301526128a38161258c565b9050919050565b600060208201905081810360008301526128c3816125af565b9050919050565b600060208201905081810360008301526128e3816125d2565b9050919050565b60006020820190508181036000830152612903816125f5565b9050919050565b6000602082019050818103600083015261292381612618565b9050919050565b600060208201905081810360008301526129438161263b565b9050919050565b600060208201905081810360008301526129638161265e565b9050919050565b6000602082019050818103600083015261298381612681565b9050919050565b600060208201905081810360008301526129a3816126a4565b9050919050565b600060208201905081810360008301526129c3816126c7565b9050919050565b600060208201905081810360008301526129e3816126ea565b9050919050565b60006020820190508181036000830152612a038161270d565b9050919050565b60006020820190508181036000830152612a2381612730565b9050919050565b6000602082019050612a3f6000830184612753565b92915050565b6000612a4f612a60565b9050612a5b8282612c81565b919050565b6000604051905090565b600067ffffffffffffffff821115612a8557612a84612e17565b5b612a8e82612e64565b9050602081019050919050565b600081519050919050565b600081519050919050565b600082825260208201905092915050565b600082825260208201905092915050565b600081905092915050565b6000612ae982612c03565b9150612af483612c03565b9250827fffffffffffffffffffffffffffffffffffffffffffffffffffffffffffffffff03821115612b2957612b28612d2c565b5b828201905092915050565b6000612b3f82612c03565b9150612b4a83612c03565b925082612b5a57612b59612d5b565b5b828204905092915050565b6000612b7082612c03565b9150612b7b83612c03565b925082821015612b8e57612b8d612d2c565b5b828203905092915050565b6000612ba482612be3565b9050919050565b60008115159050919050565b60007fffffffff0000000000000000000000000000000000000000000000000000000082169050919050565b600073ffffffffffffffffffffffffffffffffffffffff82169050919050565b6000819050919050565b82818337600083830152505050565b60005b83811015612c3a578082015181840152602081019050612c1f565b83811115612c49576000848401525b50505050565b60006002820490506001821680612c6757607f821691505b60208210811415612c7b57612c7a612d8a565b5b50919050565b612c8a82612e64565b810181811067ffffffffffffffff82111715612ca957612ca8612e17565b5b80604052505050565b6000612cbd82612c03565b91507fffffffffffffffffffffffffffffffffffffffffffffffffffffffffffffffff821415612cf057612cef612d2c565b5b600182019050919050565b6000612d0682612c03565b9150612d1183612c03565b925082612d2157612d20612d5b565b5b828206905092915050565b7f4e487b7100000000000000000000000000000000000000000000000000000000600052601160045260246000fd5b7f4e487b7100000000000000000000000000000000000000000000000000000000600052601260045260246000fd5b7f4e487b7100000000000000000000000000000000000000000000000000000000600052602260045260246000fd5b7f4e487b7100000000000000000000000000000000000000000000000000000000600052603160045260246000fd5b7f4e487b7100000000000000000000000000000000000000000000000000000000600052603260045260246000fd5b7f4e487b7100000000000000000000000000000000000000000000000000000000600052604160045260246000fd5b600080fd5b600080fd5b600080fd5b600080fd5b600080fd5b600080fd5b6000601f19601f8301169050919050565b7f455243373231456e756d657261626c653a206f776e657220696e646578206f7560008201527f74206f6620626f756e6473000000000000000000000000000000000000000000602082015250565b7f4552433732313a207472616e7366657220746f206e6f6e20455243373231526560008201527f63656976657220696d706c656d656e7465720000000000000000000000000000602082015250565b7f4552433732313a20746f6b656e20616c7265616479206d696e74656400000000600082015250565b7f4552433732313a207472616e7366657220746f20746865207a65726f2061646460008201527f7265737300000000000000000000000000000000000000000000000000000000602082015250565b7f4552433732313a20617070726f766520746f2063616c6c657200000000000000600082015250565b7f4552433732313a206f70657261746f7220717565727920666f72206e6f6e657860008201527f697374656e7420746f6b656e0000000000000000000000000000000000000000602082015250565b7f4552433732313a20617070726f76652063616c6c6572206973206e6f74206f7760008201527f6e6572206e6f7220617070726f76656420666f7220616c6c0000000000000000602082015250565b7f4552433732313a2062616c616e636520717565727920666f7220746865207a6560008201527f726f206164647265737300000000000000000000000000000000000000000000602082015250565b7f4552433732313a206f776e657220717565727920666f72206e6f6e657869737460008201527f656e7420746f6b656e0000000000000000000000000000000000000000000000602082015250565b7f4552433732313a206d696e7420746f20746865207a65726f2061646472657373600082015250565b7f4552433732313a20617070726f76656420717565727920666f72206e6f6e657860008201527f697374656e7420746f6b656e0000000000000000000000000000000000000000602082015250565b7f4552433732313a207472616e73666572206f6620746f6b656e2074686174206960008201527f73206e6f74206f776e0000000000000000000000000000000000000000000000602082015250565b7f4552433732314d657461646174613a2055524920717565727920666f72206e6f60008201527f6e6578697374656e7420746f6b656e0000000000000000000000000000000000602082015250565b7f4552433732313a20617070726f76616c20746f2063757272656e74206f776e6560008201527f7200000000000000000000000000000000000000000000000000000000000000602082015250565b7f4552433732313a207472616e736665722063616c6c6572206973206e6f74206f60008201527f776e6572206e6f7220617070726f766564000000000000000000000000000000602082015250565b7f455243373231456e756d657261626c653a20676c6f62616c20696e646578206f60008201527f7574206f6620626f756e64730000000000000000000000000000000000000000602082015250565b6132fc81612b99565b811461330757600080fd5b50565b61331381612bab565b811461331e57600080fd5b50565b61332a81612bb7565b811461333557600080fd5b50565b61334181612c03565b811461334c57600080fd5b5056fea2646970667358221220aad2436e6d47ca4d7c76848ee65b5d803a7bd31310a32a85f2c3e557212ec6b664736f6c63430008060033",
  "immutableReferences": {},
  "source": "// SPDX-License-Identifier: MIT\n\npragma solidity ^0.8.0;\n\nimport \"../token/ERC721/extensions/ERC721Enumerable.sol\";\n\n/**\n * @title ERC721Mock\n * This mock just provides a public safeMint, mint, and burn functions for testing purposes\n */\ncontract ERC721EnumerableMock is ERC721Enumerable {\n    string private _baseTokenURI;\n\n    constructor(string memory name, string memory symbol) ERC721(name, symbol) {}\n\n    function _baseURI() internal view virtual override returns (string memory) {\n        return _baseTokenURI;\n    }\n\n    function setBaseURI(string calldata newBaseTokenURI) public {\n        _baseTokenURI = newBaseTokenURI;\n    }\n\n    function baseURI() public view returns (string memory) {\n        return _baseURI();\n    }\n\n    function exists(uint256 tokenId) public view returns (bool) {\n        return _exists(tokenId);\n    }\n\n    function mint(address to, uint256 tokenId) public {\n        _mint(to, tokenId);\n    }\n\n    function safeMint(address to, uint256 tokenId) public {\n        _safeMint(to, tokenId);\n    }\n\n    function safeMint(\n        address to,\n        uint256 tokenId,\n        bytes memory _data\n    ) public {\n        _safeMint(to, tokenId, _data);\n    }\n\n    function burn(uint256 tokenId) public {\n        _burn(tokenId);\n    }\n}\n",
  "sourcePath": "/home/sandeep/NFT_Market/contracts/mocks/ERC721EnumerableMock.sol",
  "compiler": {
    "name": "solc",
    "version": "0.8.6+commit.11564f7e.Emscripten.clang"
  },
  "schemaVersion": "3.4.1",
  "updatedAt": "2021-07-13T14:33:10.498Z",
  "devdoc": {
    "kind": "dev",
    "methods": {
      "approve(address,uint256)": {
        "details": "See {IERC721-approve}."
      },
      "balanceOf(address)": {
        "details": "See {IERC721-balanceOf}."
      },
      "getApproved(uint256)": {
        "details": "See {IERC721-getApproved}."
      },
      "isApprovedForAll(address,address)": {
        "details": "See {IERC721-isApprovedForAll}."
      },
      "name()": {
        "details": "See {IERC721Metadata-name}."
      },
      "ownerOf(uint256)": {
        "details": "See {IERC721-ownerOf}."
      },
      "safeTransferFrom(address,address,uint256)": {
        "details": "See {IERC721-safeTransferFrom}."
      },
      "safeTransferFrom(address,address,uint256,bytes)": {
        "details": "See {IERC721-safeTransferFrom}."
      },
      "setApprovalForAll(address,bool)": {
        "details": "See {IERC721-setApprovalForAll}."
      },
      "supportsInterface(bytes4)": {
        "details": "See {IERC165-supportsInterface}."
      },
      "symbol()": {
        "details": "See {IERC721Metadata-symbol}."
      },
      "tokenByIndex(uint256)": {
        "details": "See {IERC721Enumerable-tokenByIndex}."
      },
      "tokenOfOwnerByIndex(address,uint256)": {
        "details": "See {IERC721Enumerable-tokenOfOwnerByIndex}."
      },
      "tokenURI(uint256)": {
        "details": "See {IERC721Metadata-tokenURI}."
      },
      "totalSupply()": {
        "details": "See {IERC721Enumerable-totalSupply}."
      },
      "transferFrom(address,address,uint256)": {
        "details": "See {IERC721-transferFrom}."
      }
    },
    "title": "ERC721Mock This mock just provides a public safeMint, mint, and burn functions for testing purposes",
    "version": 1
  },
  "userdoc": {
    "kind": "user",
    "methods": {},
    "version": 1
  }
}