{
  "contractName": "ERC721BurnableMock",
  "abi": [
    {
      "inputs": [
        {
          "internalType": "string",
          "name": "name",
          "type": "string"
        },
        {
          "internalType": "string",
          "name": "symbol",
          "type": "string"
        }
      ],
      "stateMutability": "nonpayable",
      "type": "constructor"
    },
    {
      "anonymous": false,
      "inputs": [
        {
          "indexed": true,
          "internalType": "address",
          "name": "owner",
          "type": "address"
        },
        {
          "indexed": true,
          "internalType": "address",
          "name": "approved",
          "type": "address"
        },
        {
          "indexed": true,
          "internalType": "uint256",
          "name": "tokenId",
          "type": "uint256"
        }
      ],
      "name": "Approval",
      "type": "event"
    },
    {
      "anonymous": false,
      "inputs": [
        {
          "indexed": true,
          "internalType": "address",
          "name": "owner",
          "type": "address"
        },
        {
          "indexed": true,
          "internalType": "address",
          "name": "operator",
          "type": "address"
        },
        {
          "indexed": false,
          "internalType": "bool",
          "name": "approved",
          "type": "bool"
        }
      ],
      "name": "ApprovalForAll",
      "type": "event"
    },
    {
      "anonymous": false,
      "inputs": [
        {
          "indexed": true,
          "internalType": "address",
          "name": "from",
          "type": "address"
        },
        {
          "indexed": true,
          "internalType": "address",
          "name": "to",
          "type": "address"
        },
        {
          "indexed": true,
          "internalType": "uint256",
          "name": "tokenId",
          "type": "uint256"
        }
      ],
      "name": "Transfer",
      "type": "event"
    },
    {
      "inputs": [
        {
          "internalType": "address",
          "name": "to",
          "type": "address"
        },
        {
          "internalType": "uint256",
          "name": "tokenId",
          "type": "uint256"
        }
      ],
      "name": "approve",
      "outputs": [],
      "stateMutability": "nonpayable",
      "type": "function"
    },
    {
      "inputs": [
        {
          "internalType": "address",
          "name": "owner",
          "type": "address"
        }
      ],
      "name": "balanceOf",
      "outputs": [
        {
          "internalType": "uint256",
          "name": "",
          "type": "uint256"
        }
      ],
      "stateMutability": "view",
      "type": "function"
    },
    {
      "inputs": [
        {
          "internalType": "uint256",
          "name": "tokenId",
          "type": "uint256"
        }
      ],
      "name": "burn",
      "outputs": [],
      "stateMutability": "nonpayable",
      "type": "function"
    },
    {
      "inputs": [
        {
          "internalType": "uint256",
          "name": "tokenId",
          "type": "uint256"
        }
      ],
      "name": "getApproved",
      "outputs": [
        {
          "internalType": "address",
          "name": "",
          "type": "address"
        }
      ],
      "stateMutability": "view",
      "type": "function"
    },
    {
      "inputs": [
        {
          "internalType": "address",
          "name": "owner",
          "type": "address"
        },
        {
          "internalType": "address",
          "name": "operator",
          "type": "address"
        }
      ],
      "name": "isApprovedForAll",
      "outputs": [
        {
          "internalType": "bool",
          "name": "",
          "type": "bool"
        }
      ],
      "stateMutability": "view",
      "type": "function"
    },
    {
      "inputs": [],
      "name": "name",
      "outputs": [
        {
          "internalType": "string",
          "name": "",
          "type": "string"
        }
      ],
      "stateMutability": "view",
      "type": "function"
    },
    {
      "inputs": [
        {
          "internalType": "uint256",
          "name": "tokenId",
          "type": "uint256"
        }
      ],
      "name": "ownerOf",
      "outputs": [
        {
          "internalType": "address",
          "name": "",
          "type": "address"
        }
      ],
      "stateMutability": "view",
      "type": "function"
    },
    {
      "inputs": [
        {
          "internalType": "address",
          "name": "from",
          "type": "address"
        },
        {
          "internalType": "address",
          "name": "to",
          "type": "address"
        },
        {
          "internalType": "uint256",
          "name": "tokenId",
          "type": "uint256"
        }
      ],
      "name": "safeTransferFrom",
      "outputs": [],
      "stateMutability": "nonpayable",
      "type": "function"
    },
    {
      "inputs": [
        {
          "internalType": "address",
          "name": "from",
          "type": "address"
        },
        {
          "internalType": "address",
          "name": "to",
          "type": "address"
        },
        {
          "internalType": "uint256",
          "name": "tokenId",
          "type": "uint256"
        },
        {
          "internalType": "bytes",
          "name": "_data",
          "type": "bytes"
        }
      ],
      "name": "safeTransferFrom",
      "outputs": [],
      "stateMutability": "nonpayable",
      "type": "function"
    },
    {
      "inputs": [
        {
          "internalType": "address",
          "name": "operator",
          "type": "address"
        },
        {
          "internalType": "bool",
          "name": "approved",
          "type": "bool"
        }
      ],
      "name": "setApprovalForAll",
      "outputs": [],
      "stateMutability": "nonpayable",
      "type": "function"
    },
    {
      "inputs": [
        {
          "internalType": "bytes4",
          "name": "interfaceId",
          "type": "bytes4"
        }
      ],
      "name": "supportsInterface",
      "outputs": [
        {
          "internalType": "bool",
          "name": "",
          "type": "bool"
        }
      ],
      "stateMutability": "view",
      "type": "function"
    },
    {
      "inputs": [],
      "name": "symbol",
      "outputs": [
        {
          "internalType": "string",
          "name": "",
          "type": "string"
        }
      ],
      "stateMutability": "view",
      "type": "function"
    },
    {
      "inputs": [
        {
          "internalType": "uint256",
          "name": "tokenId",
          "type": "uint256"
        }
      ],
      "name": "tokenURI",
      "outputs": [
        {
          "internalType": "string",
          "name": "",
          "type": "string"
        }
      ],
      "stateMutability": "view",
      "type": "function"
    },
    {
      "inputs": [
        {
          "internalType": "address",
          "name": "from",
          "type": "address"
        },
        {
          "internalType": "address",
          "name": "to",
          "type": "address"
        },
        {
          "internalType": "uint256",
          "name": "tokenId",
          "type": "uint256"
        }
      ],
      "name": "transferFrom",
      "outputs": [],
      "stateMutability": "nonpayable",
      "type": "function"
    },
    {
      "inputs": [
        {
          "internalType": "uint256",
          "name": "tokenId",
          "type": "uint256"
        }
      ],
      "name": "exists",
      "outputs": [
        {
          "internalType": "bool",
          "name": "",
          "type": "bool"
        }
      ],
      "stateMutability": "view",
      "type": "function"
    },
    {
      "inputs": [
        {
          "internalType": "address",
          "name": "to",
          "type": "address"
        },
        {
          "internalType": "uint256",
          "name": "tokenId",
          "type": "uint256"
        }
      ],
      "name": "mint",
      "outputs": [],
      "stateMutability": "nonpayable",
      "type": "function"
    },
    {
      "inputs": [
        {
          "internalType": "address",
          "name": "to",
          "type": "address"
        },
        {
          "internalType": "uint256",
          "name": "tokenId",
          "type": "uint256"
        },
        {
          "internalType": "bytes",
          "name": "_data",
          "type": "bytes"
        }
      ],
      "name": "safeMint",
      "outputs": [],
      "stateMutability": "nonpayable",
      "type": "function"
    },
    {
      "inputs": [
        {
          "internalType": "address",
          "name": "to",
          "type": "address"
        },
        {
          "internalType": "uint256",
          "name": "tokenId",
          "type": "uint256"
        }
      ],
      "name": "safeMint",
      "outputs": [],
      "stateMutability": "nonpayable",
      "type": "function"
    }
  ],
  "bytecode": "0x60806040523480156200001157600080fd5b5060405162002e3a38038062002e3a8339818101604052810190620000379190620001a3565b818181600090805190602001906200005192919062000075565b5080600190805190602001906200006a92919062000075565b5050505050620003ac565b8280546200008390620002bd565b90600052602060002090601f016020900481019282620000a75760008555620000f3565b82601f10620000c257805160ff1916838001178555620000f3565b82800160010185558215620000f3579182015b82811115620000f2578251825591602001919060010190620000d5565b5b50905062000102919062000106565b5090565b5b808211156200012157600081600090555060010162000107565b5090565b60006200013c620001368462000251565b62000228565b9050828152602081018484840111156200015b576200015a6200038c565b5b6200016884828562000287565b509392505050565b600082601f83011262000188576200018762000387565b5b81516200019a84826020860162000125565b91505092915050565b60008060408385031215620001bd57620001bc62000396565b5b600083015167ffffffffffffffff811115620001de57620001dd62000391565b5b620001ec8582860162000170565b925050602083015167ffffffffffffffff81111562000210576200020f62000391565b5b6200021e8582860162000170565b9150509250929050565b60006200023462000247565b9050620002428282620002f3565b919050565b6000604051905090565b600067ffffffffffffffff8211156200026f576200026e62000358565b5b6200027a826200039b565b9050602081019050919050565b60005b83811015620002a75780820151818401526020810190506200028a565b83811115620002b7576000848401525b50505050565b60006002820490506001821680620002d657607f821691505b60208210811415620002ed57620002ec62000329565b5b50919050565b620002fe826200039b565b810181811067ffffffffffffffff8211171562000320576200031f62000358565b5b80604052505050565b7f4e487b7100000000000000000000000000000000000000000000000000000000600052602260045260246000fd5b7f4e487b7100000000000000000000000000000000000000000000000000000000600052604160045260246000fd5b600080fd5b600080fd5b600080fd5b600080fd5b6000601f19601f8301169050919050565b612a7e80620003bc6000396000f3fe608060405234801561001057600080fd5b50600436106101165760003560e01c80636352211e116100a2578063a144819411610071578063a1448194146102ef578063a22cb4651461030b578063b88d4fde14610327578063c87b56dd14610343578063e985e9c51461037357610116565b80636352211e1461025557806370a08231146102855780638832e6e3146102b557806395d89b41146102d157610116565b806323b872dd116100e957806323b872dd146101b557806340c10f19146101d157806342842e0e146101ed57806342966c68146102095780634f558e791461022557610116565b806301ffc9a71461011b57806306fdde031461014b578063081812fc14610169578063095ea7b314610199575b600080fd5b61013560048036038101906101309190611b9f565b6103a3565b6040516101429190611f8e565b60405180910390f35b610153610485565b6040516101609190611fa9565b60405180910390f35b610183600480360381019061017e9190611bf9565b610517565b6040516101909190611f27565b60405180910390f35b6101b360048036038101906101ae9190611af0565b61059c565b005b6101cf60048036038101906101ca91906119da565b6106b4565b005b6101eb60048036038101906101e69190611af0565b610714565b005b610207600480360381019061020291906119da565b610722565b005b610223600480360381019061021e9190611bf9565b610742565b005b61023f600480360381019061023a9190611bf9565b61079e565b60405161024c9190611f8e565b60405180910390f35b61026f600480360381019061026a9190611bf9565b6107b0565b60405161027c9190611f27565b60405180910390f35b61029f600480360381019061029a919061196d565b610862565b6040516102ac91906121ab565b60405180910390f35b6102cf60048036038101906102ca9190611b30565b61091a565b005b6102d961092a565b6040516102e69190611fa9565b60405180910390f35b61030960048036038101906103049190611af0565b6109bc565b005b61032560048036038101906103209190611ab0565b6109ca565b005b610341600480360381019061033c9190611a2d565b610b4b565b005b61035d60048036038101906103589190611bf9565b610bad565b60405161036a9190611fa9565b60405180910390f35b61038d6004803603810190610388919061199a565b610c54565b60405161039a9190611f8e565b60405180910390f35b60007f80ac58cd000000000000000000000000000000000000000000000000000000007bffffffffffffffffffffffffffffffffffffffffffffffffffffffff1916827bffffffffffffffffffffffffffffffffffffffffffffffffffffffff1916148061046e57507f5b5e139f000000000000000000000000000000000000000000000000000000007bffffffffffffffffffffffffffffffffffffffffffffffffffffffff1916827bffffffffffffffffffffffffffffffffffffffffffffffffffffffff1916145b8061047e575061047d82610ce8565b5b9050919050565b606060008054610494906123d0565b80601f01602080910402602001604051908101604052809291908181526020018280546104c0906123d0565b801561050d5780601f106104e25761010080835404028352916020019161050d565b820191906000526020600020905b8154815290600101906020018083116104f057829003601f168201915b5050505050905090565b600061052282610d52565b610561576040517f08c379a0000000000000000000000000000000000000000000000000000000008152600401610558906120eb565b60405180910390fd5b6004600083815260200190815260200160002060009054906101000a900473ffffffffffffffffffffffffffffffffffffffff169050919050565b60006105a7826107b0565b90508073ffffffffffffffffffffffffffffffffffffffff168373ffffffffffffffffffffffffffffffffffffffff161415610618576040517f08c379a000000000000000000000000000000000000000000000000000000000815260040161060f9061214b565b60405180910390fd5b8073ffffffffffffffffffffffffffffffffffffffff16610637610dbe565b73ffffffffffffffffffffffffffffffffffffffff161480610666575061066581610660610dbe565b610c54565b5b6106a5576040517f08c379a000000000000000000000000000000000000000000000000000000000815260040161069c9061206b565b60405180910390fd5b6106af8383610dc6565b505050565b6106c56106bf610dbe565b82610e7f565b610704576040517f08c379a00000000000000000000000000000000000000000000000000000000081526004016106fb9061216b565b60405180910390fd5b61070f838383610f5d565b505050565b61071e82826111b9565b5050565b61073d83838360405180602001604052806000815250610b4b565b505050565b61075361074d610dbe565b82610e7f565b610792576040517f08c379a00000000000000000000000000000000000000000000000000000000081526004016107899061218b565b60405180910390fd5b61079b81611387565b50565b60006107a982610d52565b9050919050565b6000806002600084815260200190815260200160002060009054906101000a900473ffffffffffffffffffffffffffffffffffffffff169050600073ffffffffffffffffffffffffffffffffffffffff168173ffffffffffffffffffffffffffffffffffffffff161415610859576040517f08c379a0000000000000000000000000000000000000000000000000000000008152600401610850906120ab565b60405180910390fd5b80915050919050565b60008073ffffffffffffffffffffffffffffffffffffffff168273ffffffffffffffffffffffffffffffffffffffff1614156108d3576040517f08c379a00000000000000000000000000000000000000000000000000000000081526004016108ca9061208b565b60405180910390fd5b600360008373ffffffffffffffffffffffffffffffffffffffff1673ffffffffffffffffffffffffffffffffffffffff168152602001908152602001600020549050919050565b610925838383611498565b505050565b606060018054610939906123d0565b80601f0160208091040260200160405190810160405280929190818152602001828054610965906123d0565b80156109b25780601f10610987576101008083540402835291602001916109b2565b820191906000526020600020905b81548152906001019060200180831161099557829003601f168201915b5050505050905090565b6109c682826114f3565b5050565b6109d2610dbe565b73ffffffffffffffffffffffffffffffffffffffff168273ffffffffffffffffffffffffffffffffffffffff161415610a40576040517f08c379a0000000000000000000000000000000000000000000000000000000008152600401610a379061202b565b60405180910390fd5b8060056000610a4d610dbe565b73ffffffffffffffffffffffffffffffffffffffff1673ffffffffffffffffffffffffffffffffffffffff16815260200190815260200160002060008473ffffffffffffffffffffffffffffffffffffffff1673ffffffffffffffffffffffffffffffffffffffff16815260200190815260200160002060006101000a81548160ff0219169083151502179055508173ffffffffffffffffffffffffffffffffffffffff16610afa610dbe565b73ffffffffffffffffffffffffffffffffffffffff167f17307eab39ab6107e8899845ad3d59bd9653f200f220920489ca2b5937696c3183604051610b3f9190611f8e565b60405180910390a35050565b610b5c610b56610dbe565b83610e7f565b610b9b576040517f08c379a0000000000000000000000000000000000000000000000000000000008152600401610b929061216b565b60405180910390fd5b610ba784848484611511565b50505050565b6060610bb882610d52565b610bf7576040517f08c379a0000000000000000000000000000000000000000000000000000000008152600401610bee9061212b565b60405180910390fd5b6000610c0161156d565b90506000815111610c215760405180602001604052806000815250610c4c565b80610c2b84611584565b604051602001610c3c929190611f03565b6040516020818303038152906040525b915050919050565b6000600560008473ffffffffffffffffffffffffffffffffffffffff1673ffffffffffffffffffffffffffffffffffffffff16815260200190815260200160002060008373ffffffffffffffffffffffffffffffffffffffff1673ffffffffffffffffffffffffffffffffffffffff16815260200190815260200160002060009054906101000a900460ff16905092915050565b60007f01ffc9a7000000000000000000000000000000000000000000000000000000007bffffffffffffffffffffffffffffffffffffffffffffffffffffffff1916827bffffffffffffffffffffffffffffffffffffffffffffffffffffffff1916149050919050565b60008073ffffffffffffffffffffffffffffffffffffffff166002600084815260200190815260200160002060009054906101000a900473ffffffffffffffffffffffffffffffffffffffff1673ffffffffffffffffffffffffffffffffffffffff1614159050919050565b600033905090565b816004600083815260200190815260200160002060006101000a81548173ffffffffffffffffffffffffffffffffffffffff021916908373ffffffffffffffffffffffffffffffffffffffff160217905550808273ffffffffffffffffffffffffffffffffffffffff16610e39836107b0565b73ffffffffffffffffffffffffffffffffffffffff167f8c5be1e5ebec7d5bd14f71427d1e84f3dd0314c0f7b2291e5b200ac8c7c3b92560405160405180910390a45050565b6000610e8a82610d52565b610ec9576040517f08c379a0000000000000000000000000000000000000000000000000000000008152600401610ec09061204b565b60405180910390fd5b6000610ed4836107b0565b90508073ffffffffffffffffffffffffffffffffffffffff168473ffffffffffffffffffffffffffffffffffffffff161480610f4357508373ffffffffffffffffffffffffffffffffffffffff16610f2b84610517565b73ffffffffffffffffffffffffffffffffffffffff16145b80610f545750610f538185610c54565b5b91505092915050565b8273ffffffffffffffffffffffffffffffffffffffff16610f7d826107b0565b73ffffffffffffffffffffffffffffffffffffffff1614610fd3576040517f08c379a0000000000000000000000000000000000000000000000000000000008152600401610fca9061210b565b60405180910390fd5b600073ffffffffffffffffffffffffffffffffffffffff168273ffffffffffffffffffffffffffffffffffffffff161415611043576040517f08c379a000000000000000000000000000000000000000000000000000000000815260040161103a9061200b565b60405180910390fd5b61104e8383836116e5565b611059600082610dc6565b6001600360008573ffffffffffffffffffffffffffffffffffffffff1673ffffffffffffffffffffffffffffffffffffffff16815260200190815260200160002060008282546110a991906122e6565b925050819055506001600360008473ffffffffffffffffffffffffffffffffffffffff1673ffffffffffffffffffffffffffffffffffffffff1681526020019081526020016000206000828254611100919061225f565b92505081905550816002600083815260200190815260200160002060006101000a81548173ffffffffffffffffffffffffffffffffffffffff021916908373ffffffffffffffffffffffffffffffffffffffff160217905550808273ffffffffffffffffffffffffffffffffffffffff168473ffffffffffffffffffffffffffffffffffffffff167fddf252ad1be2c89b69c2b068fc378daa952ba7f163c4a11628f55a4df523b3ef60405160405180910390a4505050565b600073ffffffffffffffffffffffffffffffffffffffff168273ffffffffffffffffffffffffffffffffffffffff161415611229576040517f08c379a0000000000000000000000000000000000000000000000000000000008152600401611220906120cb565b60405180910390fd5b61123281610d52565b15611272576040517f08c379a000000000000000000000000000000000000000000000000000000000815260040161126990611feb565b60405180910390fd5b61127e600083836116e5565b6001600360008473ffffffffffffffffffffffffffffffffffffffff1673ffffffffffffffffffffffffffffffffffffffff16815260200190815260200160002060008282546112ce919061225f565b92505081905550816002600083815260200190815260200160002060006101000a81548173ffffffffffffffffffffffffffffffffffffffff021916908373ffffffffffffffffffffffffffffffffffffffff160217905550808273ffffffffffffffffffffffffffffffffffffffff16600073ffffffffffffffffffffffffffffffffffffffff167fddf252ad1be2c89b69c2b068fc378daa952ba7f163c4a11628f55a4df523b3ef60405160405180910390a45050565b6000611392826107b0565b90506113a0816000846116e5565b6113ab600083610dc6565b6001600360008373ffffffffffffffffffffffffffffffffffffffff1673ffffffffffffffffffffffffffffffffffffffff16815260200190815260200160002060008282546113fb91906122e6565b925050819055506002600083815260200190815260200160002060006101000a81549073ffffffffffffffffffffffffffffffffffffffff021916905581600073ffffffffffffffffffffffffffffffffffffffff168273ffffffffffffffffffffffffffffffffffffffff167fddf252ad1be2c89b69c2b068fc378daa952ba7f163c4a11628f55a4df523b3ef60405160405180910390a45050565b6114a283836111b9565b6114af60008484846116ea565b6114ee576040517f08c379a00000000000000000000000000000000000000000000000000000000081526004016114e590611fcb565b60405180910390fd5b505050565b61150d828260405180602001604052806000815250611498565b5050565b61151c848484610f5d565b611528848484846116ea565b611567576040517f08c379a000000000000000000000000000000000000000000000000000000000815260040161155e90611fcb565b60405180910390fd5b50505050565b606060405180602001604052806000815250905090565b606060008214156115cc576040518060400160405280600181526020017f300000000000000000000000000000000000000000000000000000000000000081525090506116e0565b600082905060005b600082146115fe5780806115e790612433565b915050600a826115f791906122b5565b91506115d4565b60008167ffffffffffffffff81111561161a57611619612569565b5b6040519080825280601f01601f19166020018201604052801561164c5781602001600182028036833780820191505090505b5090505b600085146116d95760018261166591906122e6565b9150600a85611674919061247c565b6030611680919061225f565b60f81b8183815181106116965761169561253a565b5b60200101907effffffffffffffffffffffffffffffffffffffffffffffffffffffffffffff1916908160001a905350600a856116d291906122b5565b9450611650565b8093505050505b919050565b505050565b600061170b8473ffffffffffffffffffffffffffffffffffffffff16611881565b15611874578373ffffffffffffffffffffffffffffffffffffffff1663150b7a02611734610dbe565b8786866040518563ffffffff1660e01b81526004016117569493929190611f42565b602060405180830381600087803b15801561177057600080fd5b505af19250505080156117a157506040513d601f19601f8201168201806040525081019061179e9190611bcc565b60015b611824573d80600081146117d1576040519150601f19603f3d011682016040523d82523d6000602084013e6117d6565b606091505b5060008151141561181c576040517f08c379a000000000000000000000000000000000000000000000000000000000815260040161181390611fcb565b60405180910390fd5b805181602001fd5b63150b7a0260e01b7bffffffffffffffffffffffffffffffffffffffffffffffffffffffff1916817bffffffffffffffffffffffffffffffffffffffffffffffffffffffff191614915050611879565b600190505b949350505050565b600080823b905060008111915050919050565b60006118a76118a2846121eb565b6121c6565b9050828152602081018484840111156118c3576118c261259d565b5b6118ce84828561238e565b509392505050565b6000813590506118e5816129ec565b92915050565b6000813590506118fa81612a03565b92915050565b60008135905061190f81612a1a565b92915050565b60008151905061192481612a1a565b92915050565b600082601f83011261193f5761193e612598565b5b813561194f848260208601611894565b91505092915050565b60008135905061196781612a31565b92915050565b600060208284031215611983576119826125a7565b5b6000611991848285016118d6565b91505092915050565b600080604083850312156119b1576119b06125a7565b5b60006119bf858286016118d6565b92505060206119d0858286016118d6565b9150509250929050565b6000806000606084860312156119f3576119f26125a7565b5b6000611a01868287016118d6565b9350506020611a12868287016118d6565b9250506040611a2386828701611958565b9150509250925092565b60008060008060808587031215611a4757611a466125a7565b5b6000611a55878288016118d6565b9450506020611a66878288016118d6565b9350506040611a7787828801611958565b925050606085013567ffffffffffffffff811115611a9857611a976125a2565b5b611aa48782880161192a565b91505092959194509250565b60008060408385031215611ac757611ac66125a7565b5b6000611ad5858286016118d6565b9250506020611ae6858286016118eb565b9150509250929050565b60008060408385031215611b0757611b066125a7565b5b6000611b15858286016118d6565b9250506020611b2685828601611958565b9150509250929050565b600080600060608486031215611b4957611b486125a7565b5b6000611b57868287016118d6565b9350506020611b6886828701611958565b925050604084013567ffffffffffffffff811115611b8957611b886125a2565b5b611b958682870161192a565b9150509250925092565b600060208284031215611bb557611bb46125a7565b5b6000611bc384828501611900565b91505092915050565b600060208284031215611be257611be16125a7565b5b6000611bf084828501611915565b91505092915050565b600060208284031215611c0f57611c0e6125a7565b5b6000611c1d84828501611958565b91505092915050565b611c2f8161231a565b82525050565b611c3e8161232c565b82525050565b6000611c4f8261221c565b611c598185612232565b9350611c6981856020860161239d565b611c72816125ac565b840191505092915050565b6000611c8882612227565b611c928185612243565b9350611ca281856020860161239d565b611cab816125ac565b840191505092915050565b6000611cc182612227565b611ccb8185612254565b9350611cdb81856020860161239d565b80840191505092915050565b6000611cf4603283612243565b9150611cff826125bd565b604082019050919050565b6000611d17601c83612243565b9150611d228261260c565b602082019050919050565b6000611d3a602483612243565b9150611d4582612635565b604082019050919050565b6000611d5d601983612243565b9150611d6882612684565b602082019050919050565b6000611d80602c83612243565b9150611d8b826126ad565b604082019050919050565b6000611da3603883612243565b9150611dae826126fc565b604082019050919050565b6000611dc6602a83612243565b9150611dd18261274b565b604082019050919050565b6000611de9602983612243565b9150611df48261279a565b604082019050919050565b6000611e0c602083612243565b9150611e17826127e9565b602082019050919050565b6000611e2f602c83612243565b9150611e3a82612812565b604082019050919050565b6000611e52602983612243565b9150611e5d82612861565b604082019050919050565b6000611e75602f83612243565b9150611e80826128b0565b604082019050919050565b6000611e98602183612243565b9150611ea3826128ff565b604082019050919050565b6000611ebb603183612243565b9150611ec68261294e565b604082019050919050565b6000611ede603083612243565b9150611ee98261299d565b604082019050919050565b611efd81612384565b82525050565b6000611f0f8285611cb6565b9150611f1b8284611cb6565b91508190509392505050565b6000602082019050611f3c6000830184611c26565b92915050565b6000608082019050611f576000830187611c26565b611f646020830186611c26565b611f716040830185611ef4565b8181036060830152611f838184611c44565b905095945050505050565b6000602082019050611fa36000830184611c35565b92915050565b60006020820190508181036000830152611fc38184611c7d565b905092915050565b60006020820190508181036000830152611fe481611ce7565b9050919050565b6000602082019050818103600083015261200481611d0a565b9050919050565b6000602082019050818103600083015261202481611d2d565b9050919050565b6000602082019050818103600083015261204481611d50565b9050919050565b6000602082019050818103600083015261206481611d73565b9050919050565b6000602082019050818103600083015261208481611d96565b9050919050565b600060208201905081810360008301526120a481611db9565b9050919050565b600060208201905081810360008301526120c481611ddc565b9050919050565b600060208201905081810360008301526120e481611dff565b9050919050565b6000602082019050818103600083015261210481611e22565b9050919050565b6000602082019050818103600083015261212481611e45565b9050919050565b6000602082019050818103600083015261214481611e68565b9050919050565b6000602082019050818103600083015261216481611e8b565b9050919050565b6000602082019050818103600083015261218481611eae565b9050919050565b600060208201905081810360008301526121a481611ed1565b9050919050565b60006020820190506121c06000830184611ef4565b92915050565b60006121d06121e1565b90506121dc8282612402565b919050565b6000604051905090565b600067ffffffffffffffff82111561220657612205612569565b5b61220f826125ac565b9050602081019050919050565b600081519050919050565b600081519050919050565b600082825260208201905092915050565b600082825260208201905092915050565b600081905092915050565b600061226a82612384565b915061227583612384565b9250827fffffffffffffffffffffffffffffffffffffffffffffffffffffffffffffffff038211156122aa576122a96124ad565b5b828201905092915050565b60006122c082612384565b91506122cb83612384565b9250826122db576122da6124dc565b5b828204905092915050565b60006122f182612384565b91506122fc83612384565b92508282101561230f5761230e6124ad565b5b828203905092915050565b600061232582612364565b9050919050565b60008115159050919050565b60007fffffffff0000000000000000000000000000000000000000000000000000000082169050919050565b600073ffffffffffffffffffffffffffffffffffffffff82169050919050565b6000819050919050565b82818337600083830152505050565b60005b838110156123bb5780820151818401526020810190506123a0565b838111156123ca576000848401525b50505050565b600060028204905060018216806123e857607f821691505b602082108114156123fc576123fb61250b565b5b50919050565b61240b826125ac565b810181811067ffffffffffffffff8211171561242a57612429612569565b5b80604052505050565b600061243e82612384565b91507fffffffffffffffffffffffffffffffffffffffffffffffffffffffffffffffff821415612471576124706124ad565b5b600182019050919050565b600061248782612384565b915061249283612384565b9250826124a2576124a16124dc565b5b828206905092915050565b7f4e487b7100000000000000000000000000000000000000000000000000000000600052601160045260246000fd5b7f4e487b7100000000000000000000000000000000000000000000000000000000600052601260045260246000fd5b7f4e487b7100000000000000000000000000000000000000000000000000000000600052602260045260246000fd5b7f4e487b7100000000000000000000000000000000000000000000000000000000600052603260045260246000fd5b7f4e487b7100000000000000000000000000000000000000000000000000000000600052604160045260246000fd5b600080fd5b600080fd5b600080fd5b600080fd5b6000601f19601f8301169050919050565b7f4552433732313a207472616e7366657220746f206e6f6e20455243373231526560008201527f63656976657220696d706c656d656e7465720000000000000000000000000000602082015250565b7f4552433732313a20746f6b656e20616c7265616479206d696e74656400000000600082015250565b7f4552433732313a207472616e7366657220746f20746865207a65726f2061646460008201527f7265737300000000000000000000000000000000000000000000000000000000602082015250565b7f4552433732313a20617070726f766520746f2063616c6c657200000000000000600082015250565b7f4552433732313a206f70657261746f7220717565727920666f72206e6f6e657860008201527f697374656e7420746f6b656e0000000000000000000000000000000000000000602082015250565b7f4552433732313a20617070726f76652063616c6c6572206973206e6f74206f7760008201527f6e6572206e6f7220617070726f76656420666f7220616c6c0000000000000000602082015250565b7f4552433732313a2062616c616e636520717565727920666f7220746865207a6560008201527f726f206164647265737300000000000000000000000000000000000000000000602082015250565b7f4552433732313a206f776e657220717565727920666f72206e6f6e657869737460008201527f656e7420746f6b656e0000000000000000000000000000000000000000000000602082015250565b7f4552433732313a206d696e7420746f20746865207a65726f2061646472657373600082015250565b7f4552433732313a20617070726f76656420717565727920666f72206e6f6e657860008201527f697374656e7420746f6b656e0000000000000000000000000000000000000000602082015250565b7f4552433732313a207472616e73666572206f6620746f6b656e2074686174206960008201527f73206e6f74206f776e0000000000000000000000000000000000000000000000602082015250565b7f4552433732314d657461646174613a2055524920717565727920666f72206e6f60008201527f6e6578697374656e7420746f6b656e0000000000000000000000000000000000602082015250565b7f4552433732313a20617070726f76616c20746f2063757272656e74206f776e6560008201527f7200000000000000000000000000000000000000000000000000000000000000602082015250565b7f4552433732313a207472616e736665722063616c6c6572206973206e6f74206f60008201527f776e6572206e6f7220617070726f766564000000000000000000000000000000602082015250565b7f4552433732314275726e61626c653a2063616c6c6572206973206e6f74206f7760008201527f6e6572206e6f7220617070726f76656400000000000000000000000000000000602082015250565b6129f58161231a565b8114612a0057600080fd5b50565b612a0c8161232c565b8114612a1757600080fd5b50565b612a2381612338565b8114612a2e57600080fd5b50565b612a3a81612384565b8114612a4557600080fd5b5056fea2646970667358221220a541fe2ea1d436e7aac9a77de95e0abde274032f5271a698328c59451cd526a664736f6c63430008060033",
  "immutableReferences": {},
  "source": "// SPDX-License-Identifier: MIT\n\npragma solidity ^0.8.0;\n\nimport \"../token/ERC721/extensions/ERC721Burnable.sol\";\n\ncontract ERC721BurnableMock is ERC721Burnable {\n    constructor(string memory name, string memory symbol) ERC721(name, symbol) {}\n\n    function exists(uint256 tokenId) public view returns (bool) {\n        return _exists(tokenId);\n    }\n\n    function mint(address to, uint256 tokenId) public {\n        _mint(to, tokenId);\n    }\n\n    function safeMint(address to, uint256 tokenId) public {\n        _safeMint(to, tokenId);\n    }\n\n    function safeMint(\n        address to,\n        uint256 tokenId,\n        bytes memory _data\n    ) public {\n        _safeMint(to, tokenId, _data);\n    }\n}\n",
  "sourcePath": "/home/sandeep/NFT_Market/contracts/mocks/ERC721BurnableMock.sol",
  "compiler": {
    "name": "solc",
    "version": "0.8.6+commit.11564f7e.Emscripten.clang"
  },
  "schemaVersion": "3.4.1",
  "updatedAt": "2021-07-13T14:33:10.486Z",
  "devdoc": {
    "kind": "dev",
    "methods": {
      "approve(address,uint256)": {
        "details": "See {IERC721-approve}."
      },
      "balanceOf(address)": {
        "details": "See {IERC721-balanceOf}."
      },
      "burn(uint256)": {
        "details": "Burns `tokenId`. See {ERC721-_burn}. Requirements: - The caller must own `tokenId` or be an approved operator."
      },
      "getApproved(uint256)": {
        "details": "See {IERC721-getApproved}."
      },
      "isApprovedForAll(address,address)": {
        "details": "See {IERC721-isApprovedForAll}."
      },
      "name()": {
        "details": "See {IERC721Metadata-name}."
      },
      "ownerOf(uint256)": {
        "details": "See {IERC721-ownerOf}."
      },
      "safeTransferFrom(address,address,uint256)": {
        "details": "See {IERC721-safeTransferFrom}."
      },
      "safeTransferFrom(address,address,uint256,bytes)": {
        "details": "See {IERC721-safeTransferFrom}."
      },
      "setApprovalForAll(address,bool)": {
        "details": "See {IERC721-setApprovalForAll}."
      },
      "supportsInterface(bytes4)": {
        "details": "See {IERC165-supportsInterface}."
      },
      "symbol()": {
        "details": "See {IERC721Metadata-symbol}."
      },
      "tokenURI(uint256)": {
        "details": "See {IERC721Metadata-tokenURI}."
      },
      "transferFrom(address,address,uint256)": {
        "details": "See {IERC721-transferFrom}."
      }
    },
    "version": 1
  },
  "userdoc": {
    "kind": "user",
    "methods": {},
    "version": 1
  }
}