{
  "contractName": "Market",
  "abi": [
    {
      "inputs": [
        {
          "internalType": "address",
          "name": "token_",
          "type": "address"
        },
        {
          "internalType": "uint256",
          "name": "price_",
          "type": "uint256"
        }
      ],
      "stateMutability": "nonpayable",
      "type": "constructor"
    },
    {
      "anonymous": false,
      "inputs": [
        {
          "indexed": true,
          "internalType": "address",
          "name": "owner",
          "type": "address"
        },
        {
          "indexed": true,
          "internalType": "address",
          "name": "approved",
          "type": "address"
        },
        {
          "indexed": true,
          "internalType": "uint256",
          "name": "tokenId",
          "type": "uint256"
        }
      ],
      "name": "Approval",
      "type": "event"
    },
    {
      "anonymous": false,
      "inputs": [
        {
          "indexed": true,
          "internalType": "address",
          "name": "owner",
          "type": "address"
        },
        {
          "indexed": true,
          "internalType": "address",
          "name": "operator",
          "type": "address"
        },
        {
          "indexed": false,
          "internalType": "bool",
          "name": "approved",
          "type": "bool"
        }
      ],
      "name": "ApprovalForAll",
      "type": "event"
    },
    {
      "anonymous": false,
      "inputs": [
        {
          "indexed": true,
          "internalType": "address",
          "name": "from",
          "type": "address"
        },
        {
          "indexed": true,
          "internalType": "address",
          "name": "to",
          "type": "address"
        },
        {
          "indexed": true,
          "internalType": "uint256",
          "name": "tokenId",
          "type": "uint256"
        }
      ],
      "name": "Transfer",
      "type": "event"
    },
    {
      "inputs": [
        {
          "internalType": "address",
          "name": "to",
          "type": "address"
        },
        {
          "internalType": "uint256",
          "name": "tokenId",
          "type": "uint256"
        }
      ],
      "name": "approve",
      "outputs": [],
      "stateMutability": "nonpayable",
      "type": "function"
    },
    {
      "inputs": [
        {
          "internalType": "address",
          "name": "owner",
          "type": "address"
        }
      ],
      "name": "balanceOf",
      "outputs": [
        {
          "internalType": "uint256",
          "name": "",
          "type": "uint256"
        }
      ],
      "stateMutability": "view",
      "type": "function",
      "constant": true
    },
    {
      "inputs": [
        {
          "internalType": "uint256",
          "name": "tokenId",
          "type": "uint256"
        }
      ],
      "name": "getApproved",
      "outputs": [
        {
          "internalType": "address",
          "name": "",
          "type": "address"
        }
      ],
      "stateMutability": "view",
      "type": "function",
      "constant": true
    },
    {
      "inputs": [
        {
          "internalType": "address",
          "name": "owner",
          "type": "address"
        },
        {
          "internalType": "address",
          "name": "operator",
          "type": "address"
        }
      ],
      "name": "isApprovedForAll",
      "outputs": [
        {
          "internalType": "bool",
          "name": "",
          "type": "bool"
        }
      ],
      "stateMutability": "view",
      "type": "function",
      "constant": true
    },
    {
      "inputs": [],
      "name": "name",
      "outputs": [
        {
          "internalType": "string",
          "name": "",
          "type": "string"
        }
      ],
      "stateMutability": "view",
      "type": "function",
      "constant": true
    },
    {
      "inputs": [
        {
          "internalType": "uint256",
          "name": "tokenId",
          "type": "uint256"
        }
      ],
      "name": "ownerOf",
      "outputs": [
        {
          "internalType": "address",
          "name": "",
          "type": "address"
        }
      ],
      "stateMutability": "view",
      "type": "function",
      "constant": true
    },
    {
      "inputs": [
        {
          "internalType": "address",
          "name": "from",
          "type": "address"
        },
        {
          "internalType": "address",
          "name": "to",
          "type": "address"
        },
        {
          "internalType": "uint256",
          "name": "tokenId",
          "type": "uint256"
        }
      ],
      "name": "safeTransferFrom",
      "outputs": [],
      "stateMutability": "nonpayable",
      "type": "function"
    },
    {
      "inputs": [
        {
          "internalType": "address",
          "name": "from",
          "type": "address"
        },
        {
          "internalType": "address",
          "name": "to",
          "type": "address"
        },
        {
          "internalType": "uint256",
          "name": "tokenId",
          "type": "uint256"
        },
        {
          "internalType": "bytes",
          "name": "_data",
          "type": "bytes"
        }
      ],
      "name": "safeTransferFrom",
      "outputs": [],
      "stateMutability": "nonpayable",
      "type": "function"
    },
    {
      "inputs": [
        {
          "internalType": "address",
          "name": "operator",
          "type": "address"
        },
        {
          "internalType": "bool",
          "name": "approved",
          "type": "bool"
        }
      ],
      "name": "setApprovalForAll",
      "outputs": [],
      "stateMutability": "nonpayable",
      "type": "function"
    },
    {
      "inputs": [
        {
          "internalType": "bytes4",
          "name": "interfaceId",
          "type": "bytes4"
        }
      ],
      "name": "supportsInterface",
      "outputs": [
        {
          "internalType": "bool",
          "name": "",
          "type": "bool"
        }
      ],
      "stateMutability": "view",
      "type": "function",
      "constant": true
    },
    {
      "inputs": [],
      "name": "symbol",
      "outputs": [
        {
          "internalType": "string",
          "name": "",
          "type": "string"
        }
      ],
      "stateMutability": "view",
      "type": "function",
      "constant": true
    },
    {
      "inputs": [],
      "name": "tokenCounter",
      "outputs": [
        {
          "internalType": "uint256",
          "name": "",
          "type": "uint256"
        }
      ],
      "stateMutability": "view",
      "type": "function",
      "constant": true
    },
    {
      "inputs": [
        {
          "internalType": "uint256",
          "name": "tokenId",
          "type": "uint256"
        }
      ],
      "name": "tokenURI",
      "outputs": [
        {
          "internalType": "string",
          "name": "",
          "type": "string"
        }
      ],
      "stateMutability": "view",
      "type": "function",
      "constant": true
    },
    {
      "inputs": [
        {
          "internalType": "address",
          "name": "from",
          "type": "address"
        },
        {
          "internalType": "address",
          "name": "to",
          "type": "address"
        },
        {
          "internalType": "uint256",
          "name": "tokenId",
          "type": "uint256"
        }
      ],
      "name": "transferFrom",
      "outputs": [],
      "stateMutability": "nonpayable",
      "type": "function"
    },
    {
      "inputs": [],
      "name": "mktOwnerOf",
      "outputs": [
        {
          "internalType": "address",
          "name": "",
          "type": "address"
        }
      ],
      "stateMutability": "view",
      "type": "function",
      "constant": true
    },
    {
      "inputs": [
        {
          "internalType": "uint256",
          "name": "tokenId",
          "type": "uint256"
        }
      ],
      "name": "tokenPrice",
      "outputs": [
        {
          "internalType": "uint256",
          "name": "",
          "type": "uint256"
        }
      ],
      "stateMutability": "view",
      "type": "function",
      "constant": true
    },
    {
      "inputs": [
        {
          "internalType": "address",
          "name": "account",
          "type": "address"
        }
      ],
      "name": "accountBal",
      "outputs": [
        {
          "internalType": "uint256",
          "name": "",
          "type": "uint256"
        }
      ],
      "stateMutability": "view",
      "type": "function",
      "constant": true
    },
    {
      "inputs": [
        {
          "internalType": "address",
          "name": "recipient",
          "type": "address"
        },
        {
          "internalType": "uint256",
          "name": "amount",
          "type": "uint256"
        }
      ],
      "name": "transferToken",
      "outputs": [
        {
          "internalType": "bool",
          "name": "",
          "type": "bool"
        }
      ],
      "stateMutability": "nonpayable",
      "type": "function"
    },
    {
      "inputs": [
        {
          "internalType": "uint256",
          "name": "price_",
          "type": "uint256"
        }
      ],
      "name": "create",
      "outputs": [],
      "stateMutability": "nonpayable",
      "type": "function"
    },
    {
      "inputs": [
        {
          "internalType": "uint256",
          "name": "tokenId",
          "type": "uint256"
        }
      ],
      "name": "buy",
      "outputs": [],
      "stateMutability": "nonpayable",
      "type": "function"
    },
    {
      "inputs": [
        {
          "internalType": "uint256",
          "name": "tokenId",
          "type": "uint256"
        },
        {
          "internalType": "address",
          "name": "to",
          "type": "address"
        }
      ],
      "name": "sell",
      "outputs": [],
      "stateMutability": "nonpayable",
      "type": "function"
    }
  ],
  "bytecode": "0x60806040523480156200001157600080fd5b5060405162003dac38038062003dac833981810160405281019062000037919062000756565b6040518060400160405280600b81526020017f4d61726b6574706c6163650000000000000000000000000000000000000000008152506040518060400160405280600381526020017f4d4b5400000000000000000000000000000000000000000000000000000000008152508160009080519060200190620000bb92919062000661565b508060019080519060200190620000d492919062000661565b50505081600660006101000a81548173ffffffffffffffffffffffffffffffffffffffff021916908373ffffffffffffffffffffffffffffffffffffffff1602179055506001600881905550620f424060098190555033600760006101000a81548173ffffffffffffffffffffffffffffffffffffffff021916908373ffffffffffffffffffffffffffffffffffffffff16021790555080600a60006009548152602001908152602001600020819055506200019933600954620001a160201b60201c565b505062000c24565b620001c3828260405180602001604052806000815250620001c760201b60201c565b5050565b620001d983836200023560201b60201c565b620001ee60008484846200041b60201b60201c565b62000230576040517f08c379a00000000000000000000000000000000000000000000000000000000081526004016200022790620008fb565b60405180910390fd5b505050565b600073ffffffffffffffffffffffffffffffffffffffff168273ffffffffffffffffffffffffffffffffffffffff161415620002a8576040517f08c379a00000000000000000000000000000000000000000000000000000000081526004016200029f906200093f565b60405180910390fd5b620002b981620005d560201b60201c565b15620002fc576040517f08c379a0000000000000000000000000000000000000000000000000000000008152600401620002f3906200091d565b60405180910390fd5b62000310600083836200064160201b60201c565b6001600360008473ffffffffffffffffffffffffffffffffffffffff1673ffffffffffffffffffffffffffffffffffffffff16815260200190815260200160002060008282546200036291906200098e565b92505081905550816002600083815260200190815260200160002060006101000a81548173ffffffffffffffffffffffffffffffffffffffff021916908373ffffffffffffffffffffffffffffffffffffffff160217905550808273ffffffffffffffffffffffffffffffffffffffff16600073ffffffffffffffffffffffffffffffffffffffff167fddf252ad1be2c89b69c2b068fc378daa952ba7f163c4a11628f55a4df523b3ef60405160405180910390a45050565b6000620004498473ffffffffffffffffffffffffffffffffffffffff166200064660201b620013c31760201c565b15620005c8578373ffffffffffffffffffffffffffffffffffffffff1663150b7a026200047b6200065960201b60201c565b8786866040518563ffffffff1660e01b81526004016200049f9493929190620008a7565b602060405180830381600087803b158015620004ba57600080fd5b505af1925050508015620004ee57506040513d601f19601f82011682018060405250810190620004eb91906200079d565b60015b62000577573d806000811462000521576040519150601f19603f3d011682016040523d82523d6000602084013e62000526565b606091505b506000815114156200056f576040517f08c379a00000000000000000000000000000000000000000000000000000000081526004016200056690620008fb565b60405180910390fd5b805181602001fd5b63150b7a0260e01b7bffffffffffffffffffffffffffffffffffffffffffffffffffffffff1916817bffffffffffffffffffffffffffffffffffffffffffffffffffffffff191614915050620005cd565b600190505b949350505050565b60008073ffffffffffffffffffffffffffffffffffffffff166002600084815260200190815260200160002060009054906101000a900473ffffffffffffffffffffffffffffffffffffffff1673ffffffffffffffffffffffffffffffffffffffff1614159050919050565b505050565b600080823b905060008111915050919050565b600033905090565b8280546200066f9062000a8b565b90600052602060002090601f016020900481019282620006935760008555620006df565b82601f10620006ae57805160ff1916838001178555620006df565b82800160010185558215620006df579182015b82811115620006de578251825591602001919060010190620006c1565b5b509050620006ee9190620006f2565b5090565b5b808211156200070d576000816000905550600101620006f3565b5090565b600081519050620007228162000bd6565b92915050565b600081519050620007398162000bf0565b92915050565b600081519050620007508162000c0a565b92915050565b6000806040838503121562000770576200076f62000b1f565b5b6000620007808582860162000711565b925050602062000793858286016200073f565b9150509250929050565b600060208284031215620007b657620007b562000b1f565b5b6000620007c68482850162000728565b91505092915050565b620007da81620009eb565b82525050565b6000620007ed8262000961565b620007f981856200096c565b93506200080b81856020860162000a55565b620008168162000b24565b840191505092915050565b6000620008306032836200097d565b91506200083d8262000b35565b604082019050919050565b600062000857601c836200097d565b9150620008648262000b84565b602082019050919050565b60006200087e6020836200097d565b91506200088b8262000bad565b602082019050919050565b620008a18162000a4b565b82525050565b6000608082019050620008be6000830187620007cf565b620008cd6020830186620007cf565b620008dc604083018562000896565b8181036060830152620008f08184620007e0565b905095945050505050565b60006020820190508181036000830152620009168162000821565b9050919050565b60006020820190508181036000830152620009388162000848565b9050919050565b600060208201905081810360008301526200095a816200086f565b9050919050565b600081519050919050565b600082825260208201905092915050565b600082825260208201905092915050565b60006200099b8262000a4b565b9150620009a88362000a4b565b9250827fffffffffffffffffffffffffffffffffffffffffffffffffffffffffffffffff03821115620009e057620009df62000ac1565b5b828201905092915050565b6000620009f88262000a2b565b9050919050565b60007fffffffff0000000000000000000000000000000000000000000000000000000082169050919050565b600073ffffffffffffffffffffffffffffffffffffffff82169050919050565b6000819050919050565b60005b8381101562000a7557808201518184015260208101905062000a58565b8381111562000a85576000848401525b50505050565b6000600282049050600182168062000aa457607f821691505b6020821081141562000abb5762000aba62000af0565b5b50919050565b7f4e487b7100000000000000000000000000000000000000000000000000000000600052601160045260246000fd5b7f4e487b7100000000000000000000000000000000000000000000000000000000600052602260045260246000fd5b600080fd5b6000601f19601f8301169050919050565b7f4552433732313a207472616e7366657220746f206e6f6e20455243373231526560008201527f63656976657220696d706c656d656e7465720000000000000000000000000000602082015250565b7f4552433732313a20746f6b656e20616c7265616479206d696e74656400000000600082015250565b7f4552433732313a206d696e7420746f20746865207a65726f2061646472657373600082015250565b62000be181620009eb565b811462000bed57600080fd5b50565b62000bfb81620009ff565b811462000c0757600080fd5b50565b62000c158162000a4b565b811462000c2157600080fd5b50565b6131788062000c346000396000f3fe608060405234801561001057600080fd5b50600436106101375760003560e01c806370a08231116100b8578063b88d4fde1161007c578063b88d4fde1461035e578063c87b56dd1461037a578063d082e381146103aa578063d4ddce8a146103c8578063d96a094a146103f8578063e985e9c51461041457610137565b806370a08231146102a8578063780900dc146102d857806387838bf1146102f457806395d89b4114610324578063a22cb4651461034257610137565b80631072cbea116100ff5780631072cbea146101f457806323b872dd146102245780634189a68e1461024057806342842e0e1461025c5780636352211e1461027857610137565b806301ffc9a71461013c578063043e89401461016c57806306fdde031461018a578063081812fc146101a8578063095ea7b3146101d8575b600080fd5b61015660048036038101906101519190612151565b610444565b604051610163919061261c565b60405180910390f35b610174610526565b604051610181919061258c565b60405180910390f35b610192610550565b60405161019f9190612637565b60405180910390f35b6101c260048036038101906101bd91906121ab565b6105e2565b6040516101cf919061258c565b60405180910390f35b6101f260048036038101906101ed91906120e4565b610667565b005b61020e600480360381019061020991906120e4565b61077f565b60405161021b919061261c565b60405180910390f35b61023e60048036038101906102399190611fce565b610838565b005b61025a60048036038101906102559190612205565b610898565b005b61027660048036038101906102719190611fce565b610b2e565b005b610292600480360381019061028d91906121ab565b610b4e565b60405161029f919061258c565b60405180910390f35b6102c260048036038101906102bd9190611f61565b610c00565b6040516102cf9190612879565b60405180910390f35b6102f260048036038101906102ed91906121ab565b610cb8565b005b61030e60048036038101906103099190611f61565b610d15565b60405161031b9190612879565b60405180910390f35b61032c610dc9565b6040516103399190612637565b60405180910390f35b61035c600480360381019061035791906120a4565b610e5b565b005b61037860048036038101906103739190612021565b610fdc565b005b610394600480360381019061038f91906121ab565b61103e565b6040516103a19190612637565b60405180910390f35b6103b26110e5565b6040516103bf9190612879565b60405180910390f35b6103e260048036038101906103dd91906121ab565b6110eb565b6040516103ef9190612879565b60405180910390f35b610412600480360381019061040d91906121ab565b611108565b005b61042e60048036038101906104299190611f8e565b61132f565b60405161043b919061261c565b60405180910390f35b60007f80ac58cd000000000000000000000000000000000000000000000000000000007bffffffffffffffffffffffffffffffffffffffffffffffffffffffff1916827bffffffffffffffffffffffffffffffffffffffffffffffffffffffff1916148061050f57507f5b5e139f000000000000000000000000000000000000000000000000000000007bffffffffffffffffffffffffffffffffffffffffffffffffffffffff1916827bffffffffffffffffffffffffffffffffffffffffffffffffffffffff1916145b8061051f575061051e826113d6565b5b9050919050565b6000600760009054906101000a900473ffffffffffffffffffffffffffffffffffffffff16905090565b60606000805461055f90612a9e565b80601f016020809104026020016040519081016040528092919081815260200182805461058b90612a9e565b80156105d85780601f106105ad576101008083540402835291602001916105d8565b820191906000526020600020905b8154815290600101906020018083116105bb57829003601f168201915b5050505050905090565b60006105ed82611440565b61062c576040517f08c379a0000000000000000000000000000000000000000000000000000000008152600401610623906127d9565b60405180910390fd5b6004600083815260200190815260200160002060009054906101000a900473ffffffffffffffffffffffffffffffffffffffff169050919050565b600061067282610b4e565b90508073ffffffffffffffffffffffffffffffffffffffff168373ffffffffffffffffffffffffffffffffffffffff1614156106e3576040517f08c379a00000000000000000000000000000000000000000000000000000000081526004016106da90612839565b60405180910390fd5b8073ffffffffffffffffffffffffffffffffffffffff166107026114ac565b73ffffffffffffffffffffffffffffffffffffffff16148061073157506107308161072b6114ac565b61132f565b5b610770576040517f08c379a000000000000000000000000000000000000000000000000000000000815260040161076790612739565b60405180910390fd5b61077a83836114b4565b505050565b6000600660009054906101000a900473ffffffffffffffffffffffffffffffffffffffff1673ffffffffffffffffffffffffffffffffffffffff1663a9059cbb84846040518363ffffffff1660e01b81526004016107de9291906125f3565b602060405180830381600087803b1580156107f857600080fd5b505af115801561080c573d6000803e3d6000fd5b505050506040513d601f19601f820116820180604052508101906108309190612124565b905092915050565b6108496108436114ac565b8261156d565b610888576040517f08c379a000000000000000000000000000000000000000000000000000000000815260040161087f90612859565b60405180910390fd5b61089383838361164b565b505050565b6108a182611440565b6108e0576040517f08c379a00000000000000000000000000000000000000000000000000000000081526004016108d790612799565b60405180910390fd5b60006108eb83610b4e565b90503373ffffffffffffffffffffffffffffffffffffffff168173ffffffffffffffffffffffffffffffffffffffff161461095b576040517f08c379a0000000000000000000000000000000000000000000000000000000008152600401610952906126b9565b60405180910390fd5b600a600084815260200190815260200160002054600660009054906101000a900473ffffffffffffffffffffffffffffffffffffffff1673ffffffffffffffffffffffffffffffffffffffff166370a08231846040518263ffffffff1660e01b81526004016109ca919061258c565b60206040518083038186803b1580156109e257600080fd5b505afa1580156109f6573d6000803e3d6000fd5b505050506040513d601f19601f82011682018060405250810190610a1a91906121d8565b1015610a5b576040517f08c379a0000000000000000000000000000000000000000000000000000000008152600401610a5290612699565b60405180910390fd5b610a6633838561164b565b600660009054906101000a900473ffffffffffffffffffffffffffffffffffffffff1673ffffffffffffffffffffffffffffffffffffffff1663a9059cbb82600a6000878152602001908152602001600020546040518363ffffffff1660e01b8152600401610ad69291906125f3565b602060405180830381600087803b158015610af057600080fd5b505af1158015610b04573d6000803e3d6000fd5b505050506040513d601f19601f82011682018060405250810190610b289190612124565b50505050565b610b4983838360405180602001604052806000815250610fdc565b505050565b6000806002600084815260200190815260200160002060009054906101000a900473ffffffffffffffffffffffffffffffffffffffff169050600073ffffffffffffffffffffffffffffffffffffffff168173ffffffffffffffffffffffffffffffffffffffff161415610bf7576040517f08c379a0000000000000000000000000000000000000000000000000000000008152600401610bee90612779565b60405180910390fd5b80915050919050565b60008073ffffffffffffffffffffffffffffffffffffffff168273ffffffffffffffffffffffffffffffffffffffff161415610c71576040517f08c379a0000000000000000000000000000000000000000000000000000000008152600401610c6890612759565b60405180910390fd5b600360008373ffffffffffffffffffffffffffffffffffffffff1673ffffffffffffffffffffffffffffffffffffffff168152602001908152602001600020549050919050565b600160096000828254610ccb919061292d565b9250508190555080600a6000600954815260200190815260200160002081905550610cf8336009546118a7565b600160086000828254610d0b919061292d565b9250508190555050565b6000600660009054906101000a900473ffffffffffffffffffffffffffffffffffffffff1673ffffffffffffffffffffffffffffffffffffffff166370a08231836040518263ffffffff1660e01b8152600401610d72919061258c565b60206040518083038186803b158015610d8a57600080fd5b505afa158015610d9e573d6000803e3d6000fd5b505050506040513d601f19601f82011682018060405250810190610dc291906121d8565b9050919050565b606060018054610dd890612a9e565b80601f0160208091040260200160405190810160405280929190818152602001828054610e0490612a9e565b8015610e515780601f10610e2657610100808354040283529160200191610e51565b820191906000526020600020905b815481529060010190602001808311610e3457829003601f168201915b5050505050905090565b610e636114ac565b73ffffffffffffffffffffffffffffffffffffffff168273ffffffffffffffffffffffffffffffffffffffff161415610ed1576040517f08c379a0000000000000000000000000000000000000000000000000000000008152600401610ec8906126f9565b60405180910390fd5b8060056000610ede6114ac565b73ffffffffffffffffffffffffffffffffffffffff1673ffffffffffffffffffffffffffffffffffffffff16815260200190815260200160002060008473ffffffffffffffffffffffffffffffffffffffff1673ffffffffffffffffffffffffffffffffffffffff16815260200190815260200160002060006101000a81548160ff0219169083151502179055508173ffffffffffffffffffffffffffffffffffffffff16610f8b6114ac565b73ffffffffffffffffffffffffffffffffffffffff167f17307eab39ab6107e8899845ad3d59bd9653f200f220920489ca2b5937696c3183604051610fd0919061261c565b60405180910390a35050565b610fed610fe76114ac565b8361156d565b61102c576040517f08c379a000000000000000000000000000000000000000000000000000000000815260040161102390612859565b60405180910390fd5b611038848484846118c5565b50505050565b606061104982611440565b611088576040517f08c379a000000000000000000000000000000000000000000000000000000000815260040161107f90612819565b60405180910390fd5b6000611092611921565b905060008151116110b257604051806020016040528060008152506110dd565b806110bc84611938565b6040516020016110cd929190612568565b6040516020818303038152906040525b915050919050565b60085481565b6000600a6000838152602001908152602001600020549050919050565b61111181611440565b611150576040517f08c379a000000000000000000000000000000000000000000000000000000000815260040161114790612799565b60405180910390fd5b600061115b82610b4e565b9050600a600083815260200190815260200160002054600660009054906101000a900473ffffffffffffffffffffffffffffffffffffffff1673ffffffffffffffffffffffffffffffffffffffff166370a08231836040518263ffffffff1660e01b81526004016111cc919061258c565b60206040518083038186803b1580156111e457600080fd5b505afa1580156111f8573d6000803e3d6000fd5b505050506040513d601f19601f8201168201806040525081019061121c91906121d8565b101561125d576040517f08c379a000000000000000000000000000000000000000000000000000000000815260040161125490612699565b60405180910390fd5b61126881338461164b565b600660009054906101000a900473ffffffffffffffffffffffffffffffffffffffff1673ffffffffffffffffffffffffffffffffffffffff1663a9059cbb82600a6000868152602001908152602001600020546040518363ffffffff1660e01b81526004016112d89291906125f3565b602060405180830381600087803b1580156112f257600080fd5b505af1158015611306573d6000803e3d6000fd5b505050506040513d601f19601f8201168201806040525081019061132a9190612124565b505050565b6000600560008473ffffffffffffffffffffffffffffffffffffffff1673ffffffffffffffffffffffffffffffffffffffff16815260200190815260200160002060008373ffffffffffffffffffffffffffffffffffffffff1673ffffffffffffffffffffffffffffffffffffffff16815260200190815260200160002060009054906101000a900460ff16905092915050565b600080823b905060008111915050919050565b60007f01ffc9a7000000000000000000000000000000000000000000000000000000007bffffffffffffffffffffffffffffffffffffffffffffffffffffffff1916827bffffffffffffffffffffffffffffffffffffffffffffffffffffffff1916149050919050565b60008073ffffffffffffffffffffffffffffffffffffffff166002600084815260200190815260200160002060009054906101000a900473ffffffffffffffffffffffffffffffffffffffff1673ffffffffffffffffffffffffffffffffffffffff1614159050919050565b600033905090565b816004600083815260200190815260200160002060006101000a81548173ffffffffffffffffffffffffffffffffffffffff021916908373ffffffffffffffffffffffffffffffffffffffff160217905550808273ffffffffffffffffffffffffffffffffffffffff1661152783610b4e565b73ffffffffffffffffffffffffffffffffffffffff167f8c5be1e5ebec7d5bd14f71427d1e84f3dd0314c0f7b2291e5b200ac8c7c3b92560405160405180910390a45050565b600061157882611440565b6115b7576040517f08c379a00000000000000000000000000000000000000000000000000000000081526004016115ae90612719565b60405180910390fd5b60006115c283610b4e565b90508073ffffffffffffffffffffffffffffffffffffffff168473ffffffffffffffffffffffffffffffffffffffff16148061163157508373ffffffffffffffffffffffffffffffffffffffff16611619846105e2565b73ffffffffffffffffffffffffffffffffffffffff16145b806116425750611641818561132f565b5b91505092915050565b8273ffffffffffffffffffffffffffffffffffffffff1661166b82610b4e565b73ffffffffffffffffffffffffffffffffffffffff16146116c1576040517f08c379a00000000000000000000000000000000000000000000000000000000081526004016116b8906127f9565b60405180910390fd5b600073ffffffffffffffffffffffffffffffffffffffff168273ffffffffffffffffffffffffffffffffffffffff161415611731576040517f08c379a0000000000000000000000000000000000000000000000000000000008152600401611728906126d9565b60405180910390fd5b61173c838383611a99565b6117476000826114b4565b6001600360008573ffffffffffffffffffffffffffffffffffffffff1673ffffffffffffffffffffffffffffffffffffffff168152602001908152602001600020600082825461179791906129b4565b925050819055506001600360008473ffffffffffffffffffffffffffffffffffffffff1673ffffffffffffffffffffffffffffffffffffffff16815260200190815260200160002060008282546117ee919061292d565b92505081905550816002600083815260200190815260200160002060006101000a81548173ffffffffffffffffffffffffffffffffffffffff021916908373ffffffffffffffffffffffffffffffffffffffff160217905550808273ffffffffffffffffffffffffffffffffffffffff168473ffffffffffffffffffffffffffffffffffffffff167fddf252ad1be2c89b69c2b068fc378daa952ba7f163c4a11628f55a4df523b3ef60405160405180910390a4505050565b6118c1828260405180602001604052806000815250611a9e565b5050565b6118d084848461164b565b6118dc84848484611af9565b61191b576040517f08c379a000000000000000000000000000000000000000000000000000000000815260040161191290612659565b60405180910390fd5b50505050565b606060405180602001604052806000815250905090565b60606000821415611980576040518060400160405280600181526020017f30000000000000000000000000000000000000000000000000000000000000008152509050611a94565b600082905060005b600082146119b257808061199b90612b01565b915050600a826119ab9190612983565b9150611988565b60008167ffffffffffffffff8111156119ce576119cd612c37565b5b6040519080825280601f01601f191660200182016040528015611a005781602001600182028036833780820191505090505b5090505b60008514611a8d57600182611a1991906129b4565b9150600a85611a289190612b4a565b6030611a34919061292d565b60f81b818381518110611a4a57611a49612c08565b5b60200101907effffffffffffffffffffffffffffffffffffffffffffffffffffffffffffff1916908160001a905350600a85611a869190612983565b9450611a04565b8093505050505b919050565b505050565b611aa88383611c90565b611ab56000848484611af9565b611af4576040517f08c379a0000000000000000000000000000000000000000000000000000000008152600401611aeb90612659565b60405180910390fd5b505050565b6000611b1a8473ffffffffffffffffffffffffffffffffffffffff166113c3565b15611c83578373ffffffffffffffffffffffffffffffffffffffff1663150b7a02611b436114ac565b8786866040518563ffffffff1660e01b8152600401611b6594939291906125a7565b602060405180830381600087803b158015611b7f57600080fd5b505af1925050508015611bb057506040513d601f19601f82011682018060405250810190611bad919061217e565b60015b611c33573d8060008114611be0576040519150601f19603f3d011682016040523d82523d6000602084013e611be5565b606091505b50600081511415611c2b576040517f08c379a0000000000000000000000000000000000000000000000000000000008152600401611c2290612659565b60405180910390fd5b805181602001fd5b63150b7a0260e01b7bffffffffffffffffffffffffffffffffffffffffffffffffffffffff1916817bffffffffffffffffffffffffffffffffffffffffffffffffffffffff191614915050611c88565b600190505b949350505050565b600073ffffffffffffffffffffffffffffffffffffffff168273ffffffffffffffffffffffffffffffffffffffff161415611d00576040517f08c379a0000000000000000000000000000000000000000000000000000000008152600401611cf7906127b9565b60405180910390fd5b611d0981611440565b15611d49576040517f08c379a0000000000000000000000000000000000000000000000000000000008152600401611d4090612679565b60405180910390fd5b611d5560008383611a99565b6001600360008473ffffffffffffffffffffffffffffffffffffffff1673ffffffffffffffffffffffffffffffffffffffff1681526020019081526020016000206000828254611da5919061292d565b92505081905550816002600083815260200190815260200160002060006101000a81548173ffffffffffffffffffffffffffffffffffffffff021916908373ffffffffffffffffffffffffffffffffffffffff160217905550808273ffffffffffffffffffffffffffffffffffffffff16600073ffffffffffffffffffffffffffffffffffffffff167fddf252ad1be2c89b69c2b068fc378daa952ba7f163c4a11628f55a4df523b3ef60405160405180910390a45050565b6000611e71611e6c846128b9565b612894565b905082815260208101848484011115611e8d57611e8c612c6b565b5b611e98848285612a5c565b509392505050565b600081359050611eaf816130e6565b92915050565b600081359050611ec4816130fd565b92915050565b600081519050611ed9816130fd565b92915050565b600081359050611eee81613114565b92915050565b600081519050611f0381613114565b92915050565b600082601f830112611f1e57611f1d612c66565b5b8135611f2e848260208601611e5e565b91505092915050565b600081359050611f468161312b565b92915050565b600081519050611f5b8161312b565b92915050565b600060208284031215611f7757611f76612c75565b5b6000611f8584828501611ea0565b91505092915050565b60008060408385031215611fa557611fa4612c75565b5b6000611fb385828601611ea0565b9250506020611fc485828601611ea0565b9150509250929050565b600080600060608486031215611fe757611fe6612c75565b5b6000611ff586828701611ea0565b935050602061200686828701611ea0565b925050604061201786828701611f37565b9150509250925092565b6000806000806080858703121561203b5761203a612c75565b5b600061204987828801611ea0565b945050602061205a87828801611ea0565b935050604061206b87828801611f37565b925050606085013567ffffffffffffffff81111561208c5761208b612c70565b5b61209887828801611f09565b91505092959194509250565b600080604083850312156120bb576120ba612c75565b5b60006120c985828601611ea0565b92505060206120da85828601611eb5565b9150509250929050565b600080604083850312156120fb576120fa612c75565b5b600061210985828601611ea0565b925050602061211a85828601611f37565b9150509250929050565b60006020828403121561213a57612139612c75565b5b600061214884828501611eca565b91505092915050565b60006020828403121561216757612166612c75565b5b600061217584828501611edf565b91505092915050565b60006020828403121561219457612193612c75565b5b60006121a284828501611ef4565b91505092915050565b6000602082840312156121c1576121c0612c75565b5b60006121cf84828501611f37565b91505092915050565b6000602082840312156121ee576121ed612c75565b5b60006121fc84828501611f4c565b91505092915050565b6000806040838503121561221c5761221b612c75565b5b600061222a85828601611f37565b925050602061223b85828601611ea0565b9150509250929050565b61224e816129e8565b82525050565b61225d816129fa565b82525050565b600061226e826128ea565b6122788185612900565b9350612288818560208601612a6b565b61229181612c7a565b840191505092915050565b60006122a7826128f5565b6122b18185612911565b93506122c1818560208601612a6b565b6122ca81612c7a565b840191505092915050565b60006122e0826128f5565b6122ea8185612922565b93506122fa818560208601612a6b565b80840191505092915050565b6000612313603283612911565b915061231e82612c8b565b604082019050919050565b6000612336601c83612911565b915061234182612cda565b602082019050919050565b6000612359602083612911565b915061236482612d03565b602082019050919050565b600061237c601f83612911565b915061238782612d2c565b602082019050919050565b600061239f602483612911565b91506123aa82612d55565b604082019050919050565b60006123c2601983612911565b91506123cd82612da4565b602082019050919050565b60006123e5602c83612911565b91506123f082612dcd565b604082019050919050565b6000612408603883612911565b915061241382612e1c565b604082019050919050565b600061242b602a83612911565b915061243682612e6b565b604082019050919050565b600061244e602983612911565b915061245982612eba565b604082019050919050565b6000612471601783612911565b915061247c82612f09565b602082019050919050565b6000612494602083612911565b915061249f82612f32565b602082019050919050565b60006124b7602c83612911565b91506124c282612f5b565b604082019050919050565b60006124da602983612911565b91506124e582612faa565b604082019050919050565b60006124fd602f83612911565b915061250882612ff9565b604082019050919050565b6000612520602183612911565b915061252b82613048565b604082019050919050565b6000612543603183612911565b915061254e82613097565b604082019050919050565b61256281612a52565b82525050565b600061257482856122d5565b915061258082846122d5565b91508190509392505050565b60006020820190506125a16000830184612245565b92915050565b60006080820190506125bc6000830187612245565b6125c96020830186612245565b6125d66040830185612559565b81810360608301526125e88184612263565b905095945050505050565b60006040820190506126086000830185612245565b6126156020830184612559565b9392505050565b60006020820190506126316000830184612254565b92915050565b60006020820190508181036000830152612651818461229c565b905092915050565b6000602082019050818103600083015261267281612306565b9050919050565b6000602082019050818103600083015261269281612329565b9050919050565b600060208201905081810360008301526126b28161234c565b9050919050565b600060208201905081810360008301526126d28161236f565b9050919050565b600060208201905081810360008301526126f281612392565b9050919050565b60006020820190508181036000830152612712816123b5565b9050919050565b60006020820190508181036000830152612732816123d8565b9050919050565b60006020820190508181036000830152612752816123fb565b9050919050565b600060208201905081810360008301526127728161241e565b9050919050565b6000602082019050818103600083015261279281612441565b9050919050565b600060208201905081810360008301526127b281612464565b9050919050565b600060208201905081810360008301526127d281612487565b9050919050565b600060208201905081810360008301526127f2816124aa565b9050919050565b60006020820190508181036000830152612812816124cd565b9050919050565b60006020820190508181036000830152612832816124f0565b9050919050565b6000602082019050818103600083015261285281612513565b9050919050565b6000602082019050818103600083015261287281612536565b9050919050565b600060208201905061288e6000830184612559565b92915050565b600061289e6128af565b90506128aa8282612ad0565b919050565b6000604051905090565b600067ffffffffffffffff8211156128d4576128d3612c37565b5b6128dd82612c7a565b9050602081019050919050565b600081519050919050565b600081519050919050565b600082825260208201905092915050565b600082825260208201905092915050565b600081905092915050565b600061293882612a52565b915061294383612a52565b9250827fffffffffffffffffffffffffffffffffffffffffffffffffffffffffffffffff0382111561297857612977612b7b565b5b828201905092915050565b600061298e82612a52565b915061299983612a52565b9250826129a9576129a8612baa565b5b828204905092915050565b60006129bf82612a52565b91506129ca83612a52565b9250828210156129dd576129dc612b7b565b5b828203905092915050565b60006129f382612a32565b9050919050565b60008115159050919050565b60007fffffffff0000000000000000000000000000000000000000000000000000000082169050919050565b600073ffffffffffffffffffffffffffffffffffffffff82169050919050565b6000819050919050565b82818337600083830152505050565b60005b83811015612a89578082015181840152602081019050612a6e565b83811115612a98576000848401525b50505050565b60006002820490506001821680612ab657607f821691505b60208210811415612aca57612ac9612bd9565b5b50919050565b612ad982612c7a565b810181811067ffffffffffffffff82111715612af857612af7612c37565b5b80604052505050565b6000612b0c82612a52565b91507fffffffffffffffffffffffffffffffffffffffffffffffffffffffffffffffff821415612b3f57612b3e612b7b565b5b600182019050919050565b6000612b5582612a52565b9150612b6083612a52565b925082612b7057612b6f612baa565b5b828206905092915050565b7f4e487b7100000000000000000000000000000000000000000000000000000000600052601160045260246000fd5b7f4e487b7100000000000000000000000000000000000000000000000000000000600052601260045260246000fd5b7f4e487b7100000000000000000000000000000000000000000000000000000000600052602260045260246000fd5b7f4e487b7100000000000000000000000000000000000000000000000000000000600052603260045260246000fd5b7f4e487b7100000000000000000000000000000000000000000000000000000000600052604160045260246000fd5b600080fd5b600080fd5b600080fd5b600080fd5b6000601f19601f8301169050919050565b7f4552433732313a207472616e7366657220746f206e6f6e20455243373231526560008201527f63656976657220696d706c656d656e7465720000000000000000000000000000602082015250565b7f4552433732313a20746f6b656e20616c7265616479206d696e74656400000000600082015250565b7f496e73756666696369656e742062616c616e636520696e206163636f756e742e600082015250565b7f52657175657374206e6f742066726f6d20746f6b656e4964206f776e65722e00600082015250565b7f4552433732313a207472616e7366657220746f20746865207a65726f2061646460008201527f7265737300000000000000000000000000000000000000000000000000000000602082015250565b7f4552433732313a20617070726f766520746f2063616c6c657200000000000000600082015250565b7f4552433732313a206f70657261746f7220717565727920666f72206e6f6e657860008201527f697374656e7420746f6b656e0000000000000000000000000000000000000000602082015250565b7f4552433732313a20617070726f76652063616c6c6572206973206e6f74206f7760008201527f6e6572206e6f7220617070726f76656420666f7220616c6c0000000000000000602082015250565b7f4552433732313a2062616c616e636520717565727920666f7220746865207a6560008201527f726f206164647265737300000000000000000000000000000000000000000000602082015250565b7f4552433732313a206f776e657220717565727920666f72206e6f6e657869737460008201527f656e7420746f6b656e0000000000000000000000000000000000000000000000602082015250565b7f546f6b656e496420646f6573206e6f742065786973742e000000000000000000600082015250565b7f4552433732313a206d696e7420746f20746865207a65726f2061646472657373600082015250565b7f4552433732313a20617070726f76656420717565727920666f72206e6f6e657860008201527f697374656e7420746f6b656e0000000000000000000000000000000000000000602082015250565b7f4552433732313a207472616e73666572206f6620746f6b656e2074686174206960008201527f73206e6f74206f776e0000000000000000000000000000000000000000000000602082015250565b7f4552433732314d657461646174613a2055524920717565727920666f72206e6f60008201527f6e6578697374656e7420746f6b656e0000000000000000000000000000000000602082015250565b7f4552433732313a20617070726f76616c20746f2063757272656e74206f776e6560008201527f7200000000000000000000000000000000000000000000000000000000000000602082015250565b7f4552433732313a207472616e736665722063616c6c6572206973206e6f74206f60008201527f776e6572206e6f7220617070726f766564000000000000000000000000000000602082015250565b6130ef816129e8565b81146130fa57600080fd5b50565b613106816129fa565b811461311157600080fd5b50565b61311d81612a06565b811461312857600080fd5b50565b61313481612a52565b811461313f57600080fd5b5056fea2646970667358221220736d5476fe7ac3ee79a781039aa2abd6fdd798a06c877e71692edbea8d0bfef464736f6c63430008060033",
  "immutableReferences": {},
  "source": "// SPDX-License-Identifier: MIT\n\npragma solidity >=0.4.22 <0.9.0;\n\nimport \"./token/ERC721/ERC721.sol\";\nimport \"./Token.sol\";\n\ncontract Market is ERC721('Marketplace', 'MKT') {\n    Token _token;\n\n    address _marketOwner;\n    \n    uint256 public tokenCounter;\n    uint256 _tokedIdIndex;\n\n    mapping(uint256 => uint256) _price;\n\n    constructor(address token_, uint256 price_) {\n        _token = Token(token_);\n\n        tokenCounter = 1;\n        _tokedIdIndex = 1000000;\n\n        _marketOwner = msg.sender;\n        _price[_tokedIdIndex] = price_;\n\n        _safeMint(msg.sender, _tokedIdIndex);\n    }\n\n    function mktOwnerOf() public view returns (address) {\n        return _marketOwner;\n    }\n\n    function tokenPrice(uint tokenId) public view returns (uint256) {\n        return _price[tokenId];\n    }\n\n    function accountBal(address account) public view returns (uint256) {\n        return _token.balanceOf(account);\n    }\n\n    // Need help...\n    // the following function throws error: 'transfer amount exceeds balance'.\n    // when i try to trf zero amount it works fine.\n    // not sure what's wrong.\n\n    function transferToken(address recipient, uint256 amount) public returns (bool) {\n        return _token.transfer(recipient, amount);\n    }\n\n    function create(uint256 price_) public {\n        //require(_marketOwner == msg.sender, \"Request not from owner of the contract.\");\n\n        _tokedIdIndex += 1;\n        _price[_tokedIdIndex] = price_;\n        \n        _safeMint(msg.sender, _tokedIdIndex);\n        \n        tokenCounter += 1;\n    }\n\n    function buy(uint256 tokenId) public {\n        require(_exists(tokenId), \"TokenId does not exist.\");\n        \n        address _tokenIdOwner = ownerOf(tokenId);\n        \n        require(_token.balanceOf(_tokenIdOwner) >= _price[tokenId], \"Insufficient balance in account.\");\n\n        _transfer(_tokenIdOwner, msg.sender, tokenId);\n        _token.transfer(_tokenIdOwner, _price[tokenId]);\n    }\n\n    function sell(uint256 tokenId, address to) public {\n        require(_exists(tokenId), \"TokenId does not exist.\");\n        \n        address _tokenIdOwner = ownerOf(tokenId);\n        \n        require(_tokenIdOwner == msg.sender, \"Request not from tokenId owner.\");\n        require(_token.balanceOf(to) >= _price[tokenId], \"Insufficient balance in account.\");\n        \n        _transfer(msg.sender, to, tokenId);\n\n        // Need help...\n        // the below command does not seem to tranfer tokens from 'to' address as required.\n        // not sure how to do it.\n\n        _token.transfer(_tokenIdOwner, _price[tokenId]);\n    }\n}",
  "sourcePath": "/home/sandeep/NFT_Market/contracts/Market.sol",
  "compiler": {
    "name": "solc",
    "version": "0.8.6+commit.11564f7e.Emscripten.clang"
  },
  "schemaVersion": "3.4.1",
  "updatedAt": "2021-07-14T18:03:11.655Z",
  "networkType": "ethereum",
  "devdoc": {
    "kind": "dev",
    "methods": {
      "approve(address,uint256)": {
        "details": "See {IERC721-approve}."
      },
      "balanceOf(address)": {
        "details": "See {IERC721-balanceOf}."
      },
      "getApproved(uint256)": {
        "details": "See {IERC721-getApproved}."
      },
      "isApprovedForAll(address,address)": {
        "details": "See {IERC721-isApprovedForAll}."
      },
      "name()": {
        "details": "See {IERC721Metadata-name}."
      },
      "ownerOf(uint256)": {
        "details": "See {IERC721-ownerOf}."
      },
      "safeTransferFrom(address,address,uint256)": {
        "details": "See {IERC721-safeTransferFrom}."
      },
      "safeTransferFrom(address,address,uint256,bytes)": {
        "details": "See {IERC721-safeTransferFrom}."
      },
      "setApprovalForAll(address,bool)": {
        "details": "See {IERC721-setApprovalForAll}."
      },
      "supportsInterface(bytes4)": {
        "details": "See {IERC165-supportsInterface}."
      },
      "symbol()": {
        "details": "See {IERC721Metadata-symbol}."
      },
      "tokenURI(uint256)": {
        "details": "See {IERC721Metadata-tokenURI}."
      },
      "transferFrom(address,address,uint256)": {
        "details": "See {IERC721-transferFrom}."
      }
    },
    "version": 1
  },
  "userdoc": {
    "kind": "user",
    "methods": {},
    "version": 1
  }
}