{
  "contractName": "Market",
  "abi": [
    {
      "inputs": [],
      "stateMutability": "nonpayable",
      "type": "constructor"
    },
    {
      "anonymous": false,
      "inputs": [
        {
          "indexed": true,
          "internalType": "address",
          "name": "owner",
          "type": "address"
        },
        {
          "indexed": true,
          "internalType": "address",
          "name": "approved",
          "type": "address"
        },
        {
          "indexed": true,
          "internalType": "uint256",
          "name": "tokenId",
          "type": "uint256"
        }
      ],
      "name": "Approval",
      "type": "event"
    },
    {
      "anonymous": false,
      "inputs": [
        {
          "indexed": true,
          "internalType": "address",
          "name": "owner",
          "type": "address"
        },
        {
          "indexed": true,
          "internalType": "address",
          "name": "operator",
          "type": "address"
        },
        {
          "indexed": false,
          "internalType": "bool",
          "name": "approved",
          "type": "bool"
        }
      ],
      "name": "ApprovalForAll",
      "type": "event"
    },
    {
      "anonymous": false,
      "inputs": [
        {
          "indexed": true,
          "internalType": "address",
          "name": "from",
          "type": "address"
        },
        {
          "indexed": true,
          "internalType": "address",
          "name": "to",
          "type": "address"
        },
        {
          "indexed": true,
          "internalType": "uint256",
          "name": "tokenId",
          "type": "uint256"
        }
      ],
      "name": "Transfer",
      "type": "event"
    },
    {
      "inputs": [
        {
          "internalType": "address",
          "name": "to",
          "type": "address"
        },
        {
          "internalType": "uint256",
          "name": "tokenId",
          "type": "uint256"
        }
      ],
      "name": "approve",
      "outputs": [],
      "stateMutability": "nonpayable",
      "type": "function"
    },
    {
      "inputs": [
        {
          "internalType": "address",
          "name": "owner",
          "type": "address"
        }
      ],
      "name": "balanceOf",
      "outputs": [
        {
          "internalType": "uint256",
          "name": "",
          "type": "uint256"
        }
      ],
      "stateMutability": "view",
      "type": "function",
      "constant": true
    },
    {
      "inputs": [
        {
          "internalType": "uint256",
          "name": "tokenId",
          "type": "uint256"
        }
      ],
      "name": "getApproved",
      "outputs": [
        {
          "internalType": "address",
          "name": "",
          "type": "address"
        }
      ],
      "stateMutability": "view",
      "type": "function",
      "constant": true
    },
    {
      "inputs": [
        {
          "internalType": "address",
          "name": "owner",
          "type": "address"
        },
        {
          "internalType": "address",
          "name": "operator",
          "type": "address"
        }
      ],
      "name": "isApprovedForAll",
      "outputs": [
        {
          "internalType": "bool",
          "name": "",
          "type": "bool"
        }
      ],
      "stateMutability": "view",
      "type": "function",
      "constant": true
    },
    {
      "inputs": [],
      "name": "name",
      "outputs": [
        {
          "internalType": "string",
          "name": "",
          "type": "string"
        }
      ],
      "stateMutability": "view",
      "type": "function",
      "constant": true
    },
    {
      "inputs": [
        {
          "internalType": "uint256",
          "name": "tokenId",
          "type": "uint256"
        }
      ],
      "name": "ownerOf",
      "outputs": [
        {
          "internalType": "address",
          "name": "",
          "type": "address"
        }
      ],
      "stateMutability": "view",
      "type": "function",
      "constant": true
    },
    {
      "inputs": [
        {
          "internalType": "address",
          "name": "from",
          "type": "address"
        },
        {
          "internalType": "address",
          "name": "to",
          "type": "address"
        },
        {
          "internalType": "uint256",
          "name": "tokenId",
          "type": "uint256"
        }
      ],
      "name": "safeTransferFrom",
      "outputs": [],
      "stateMutability": "nonpayable",
      "type": "function"
    },
    {
      "inputs": [
        {
          "internalType": "address",
          "name": "from",
          "type": "address"
        },
        {
          "internalType": "address",
          "name": "to",
          "type": "address"
        },
        {
          "internalType": "uint256",
          "name": "tokenId",
          "type": "uint256"
        },
        {
          "internalType": "bytes",
          "name": "_data",
          "type": "bytes"
        }
      ],
      "name": "safeTransferFrom",
      "outputs": [],
      "stateMutability": "nonpayable",
      "type": "function"
    },
    {
      "inputs": [
        {
          "internalType": "address",
          "name": "operator",
          "type": "address"
        },
        {
          "internalType": "bool",
          "name": "approved",
          "type": "bool"
        }
      ],
      "name": "setApprovalForAll",
      "outputs": [],
      "stateMutability": "nonpayable",
      "type": "function"
    },
    {
      "inputs": [
        {
          "internalType": "bytes4",
          "name": "interfaceId",
          "type": "bytes4"
        }
      ],
      "name": "supportsInterface",
      "outputs": [
        {
          "internalType": "bool",
          "name": "",
          "type": "bool"
        }
      ],
      "stateMutability": "view",
      "type": "function",
      "constant": true
    },
    {
      "inputs": [],
      "name": "symbol",
      "outputs": [
        {
          "internalType": "string",
          "name": "",
          "type": "string"
        }
      ],
      "stateMutability": "view",
      "type": "function",
      "constant": true
    },
    {
      "inputs": [],
      "name": "tokenCounter",
      "outputs": [
        {
          "internalType": "uint256",
          "name": "",
          "type": "uint256"
        }
      ],
      "stateMutability": "view",
      "type": "function",
      "constant": true
    },
    {
      "inputs": [
        {
          "internalType": "uint256",
          "name": "tokenId",
          "type": "uint256"
        }
      ],
      "name": "tokenURI",
      "outputs": [
        {
          "internalType": "string",
          "name": "",
          "type": "string"
        }
      ],
      "stateMutability": "view",
      "type": "function",
      "constant": true
    },
    {
      "inputs": [
        {
          "internalType": "address",
          "name": "from",
          "type": "address"
        },
        {
          "internalType": "address",
          "name": "to",
          "type": "address"
        },
        {
          "internalType": "uint256",
          "name": "tokenId",
          "type": "uint256"
        }
      ],
      "name": "transferFrom",
      "outputs": [],
      "stateMutability": "nonpayable",
      "type": "function"
    },
    {
      "inputs": [],
      "name": "create",
      "outputs": [],
      "stateMutability": "nonpayable",
      "type": "function"
    },
    {
      "inputs": [],
      "name": "mktOwnerOf",
      "outputs": [
        {
          "internalType": "address",
          "name": "",
          "type": "address"
        }
      ],
      "stateMutability": "view",
      "type": "function",
      "constant": true
    },
    {
      "inputs": [
        {
          "internalType": "uint256",
          "name": "tokenId",
          "type": "uint256"
        }
      ],
      "name": "buy",
      "outputs": [],
      "stateMutability": "nonpayable",
      "type": "function"
    },
    {
      "inputs": [
        {
          "internalType": "uint256",
          "name": "tokenId",
          "type": "uint256"
        },
        {
          "internalType": "address",
          "name": "to",
          "type": "address"
        }
      ],
      "name": "sell",
      "outputs": [],
      "stateMutability": "nonpayable",
      "type": "function"
    }
  ],
  "bytecode": "0x60806040523480156200001157600080fd5b506040518060400160405280600b81526020017f4d61726b6574706c6163650000000000000000000000000000000000000000008152506040518060400160405280600381526020017f4d4b540000000000000000000000000000000000000000000000000000000000815250816000908051906020019062000096929190620005df565b508060019080519060200190620000af929190620005df565b50505033600660006101000a81548173ffffffffffffffffffffffffffffffffffffffff021916908373ffffffffffffffffffffffffffffffffffffffff1602179055506001600781905550620f424060088190555062000119336008546200011f60201b60201c565b62000af9565b620001418282604051806020016040528060008152506200014560201b60201c565b5050565b620001578383620001b360201b60201c565b6200016c60008484846200039960201b60201c565b620001ae576040517f08c379a0000000000000000000000000000000000000000000000000000000008152600401620001a59062000804565b60405180910390fd5b505050565b600073ffffffffffffffffffffffffffffffffffffffff168273ffffffffffffffffffffffffffffffffffffffff16141562000226576040517f08c379a00000000000000000000000000000000000000000000000000000000081526004016200021d9062000848565b60405180910390fd5b62000237816200055360201b60201c565b156200027a576040517f08c379a0000000000000000000000000000000000000000000000000000000008152600401620002719062000826565b60405180910390fd5b6200028e60008383620005bf60201b60201c565b6001600360008473ffffffffffffffffffffffffffffffffffffffff1673ffffffffffffffffffffffffffffffffffffffff1681526020019081526020016000206000828254620002e0919062000897565b92505081905550816002600083815260200190815260200160002060006101000a81548173ffffffffffffffffffffffffffffffffffffffff021916908373ffffffffffffffffffffffffffffffffffffffff160217905550808273ffffffffffffffffffffffffffffffffffffffff16600073ffffffffffffffffffffffffffffffffffffffff167fddf252ad1be2c89b69c2b068fc378daa952ba7f163c4a11628f55a4df523b3ef60405160405180910390a45050565b6000620003c78473ffffffffffffffffffffffffffffffffffffffff16620005c460201b62000e651760201c565b1562000546578373ffffffffffffffffffffffffffffffffffffffff1663150b7a02620003f9620005d760201b60201c565b8786866040518563ffffffff1660e01b81526004016200041d9493929190620007b0565b602060405180830381600087803b1580156200043857600080fd5b505af19250505080156200046c57506040513d601f19601f82011682018060405250810190620004699190620006a6565b60015b620004f5573d80600081146200049f576040519150601f19603f3d011682016040523d82523d6000602084013e620004a4565b606091505b50600081511415620004ed576040517f08c379a0000000000000000000000000000000000000000000000000000000008152600401620004e49062000804565b60405180910390fd5b805181602001fd5b63150b7a0260e01b7bffffffffffffffffffffffffffffffffffffffffffffffffffffffff1916817bffffffffffffffffffffffffffffffffffffffffffffffffffffffff1916149150506200054b565b600190505b949350505050565b60008073ffffffffffffffffffffffffffffffffffffffff166002600084815260200190815260200160002060009054906101000a900473ffffffffffffffffffffffffffffffffffffffff1673ffffffffffffffffffffffffffffffffffffffff1614159050919050565b505050565b600080823b905060008111915050919050565b600033905090565b828054620005ed9062000994565b90600052602060002090601f0160209004810192826200061157600085556200065d565b82601f106200062c57805160ff19168380011785556200065d565b828001600101855582156200065d579182015b828111156200065c5782518255916020019190600101906200063f565b5b5090506200066c919062000670565b5090565b5b808211156200068b57600081600090555060010162000671565b5090565b600081519050620006a08162000adf565b92915050565b600060208284031215620006bf57620006be62000a28565b5b6000620006cf848285016200068f565b91505092915050565b620006e381620008f4565b82525050565b6000620006f6826200086a565b62000702818562000875565b9350620007148185602086016200095e565b6200071f8162000a2d565b840191505092915050565b60006200073960328362000886565b9150620007468262000a3e565b604082019050919050565b600062000760601c8362000886565b91506200076d8262000a8d565b602082019050919050565b60006200078760208362000886565b9150620007948262000ab6565b602082019050919050565b620007aa8162000954565b82525050565b6000608082019050620007c76000830187620006d8565b620007d66020830186620006d8565b620007e560408301856200079f565b8181036060830152620007f98184620006e9565b905095945050505050565b600060208201905081810360008301526200081f816200072a565b9050919050565b60006020820190508181036000830152620008418162000751565b9050919050565b60006020820190508181036000830152620008638162000778565b9050919050565b600081519050919050565b600082825260208201905092915050565b600082825260208201905092915050565b6000620008a48262000954565b9150620008b18362000954565b9250827fffffffffffffffffffffffffffffffffffffffffffffffffffffffffffffffff03821115620008e957620008e8620009ca565b5b828201905092915050565b6000620009018262000934565b9050919050565b60007fffffffff0000000000000000000000000000000000000000000000000000000082169050919050565b600073ffffffffffffffffffffffffffffffffffffffff82169050919050565b6000819050919050565b60005b838110156200097e57808201518184015260208101905062000961565b838111156200098e576000848401525b50505050565b60006002820490506001821680620009ad57607f821691505b60208210811415620009c457620009c3620009f9565b5b50919050565b7f4e487b7100000000000000000000000000000000000000000000000000000000600052601160045260246000fd5b7f4e487b7100000000000000000000000000000000000000000000000000000000600052602260045260246000fd5b600080fd5b6000601f19601f8301169050919050565b7f4552433732313a207472616e7366657220746f206e6f6e20455243373231526560008201527f63656976657220696d706c656d656e7465720000000000000000000000000000602082015250565b7f4552433732313a20746f6b656e20616c7265616479206d696e74656400000000600082015250565b7f4552433732313a206d696e7420746f20746865207a65726f2061646472657373600082015250565b62000aea8162000908565b811462000af657600080fd5b50565b612b938062000b096000396000f3fe608060405234801561001057600080fd5b50600436106101165760003560e01c806370a08231116100a2578063c87b56dd11610071578063c87b56dd146102dd578063d082e3811461030d578063d96a094a1461032b578063e985e9c514610347578063efc81a8c1461037757610116565b806370a082311461025757806395d89b4114610287578063a22cb465146102a5578063b88d4fde146102c157610116565b8063095ea7b3116100e9578063095ea7b3146101b757806323b872dd146101d35780634189a68e146101ef57806342842e0e1461020b5780636352211e1461022757610116565b806301ffc9a71461011b578063043e89401461014b57806306fdde0314610169578063081812fc14610187575b600080fd5b61013560048036038101906101309190611b9c565b610381565b6040516101429190612011565b60405180910390f35b610153610463565b6040516101609190611faa565b60405180910390f35b61017161048d565b60405161017e919061202c565b60405180910390f35b6101a1600480360381019061019c9190611bf6565b61051f565b6040516101ae9190611faa565b60405180910390f35b6101d160048036038101906101cc9190611b5c565b6105a4565b005b6101ed60048036038101906101e89190611a46565b6106bc565b005b61020960048036038101906102049190611c23565b61071c565b005b61022560048036038101906102209190611a46565b6107ef565b005b610241600480360381019061023c9190611bf6565b61080f565b60405161024e9190611faa565b60405180910390f35b610271600480360381019061026c91906119d9565b6108c1565b60405161027e919061226e565b60405180910390f35b61028f610979565b60405161029c919061202c565b60405180910390f35b6102bf60048036038101906102ba9190611b1c565b610a0b565b005b6102db60048036038101906102d69190611a99565b610b8c565b005b6102f760048036038101906102f29190611bf6565b610bee565b604051610304919061202c565b60405180910390f35b610315610c95565b604051610322919061226e565b60405180910390f35b61034560048036038101906103409190611bf6565b610c9b565b005b610361600480360381019061035c9190611a06565b610cff565b60405161036e9190612011565b60405180910390f35b61037f610d93565b005b60007f80ac58cd000000000000000000000000000000000000000000000000000000007bffffffffffffffffffffffffffffffffffffffffffffffffffffffff1916827bffffffffffffffffffffffffffffffffffffffffffffffffffffffff1916148061044c57507f5b5e139f000000000000000000000000000000000000000000000000000000007bffffffffffffffffffffffffffffffffffffffffffffffffffffffff1916827bffffffffffffffffffffffffffffffffffffffffffffffffffffffff1916145b8061045c575061045b82610e78565b5b9050919050565b6000600660009054906101000a900473ffffffffffffffffffffffffffffffffffffffff16905090565b60606000805461049c90612493565b80601f01602080910402602001604051908101604052809291908181526020018280546104c890612493565b80156105155780601f106104ea57610100808354040283529160200191610515565b820191906000526020600020905b8154815290600101906020018083116104f857829003601f168201915b5050505050905090565b600061052a82610ee2565b610569576040517f08c379a0000000000000000000000000000000000000000000000000000000008152600401610560906121ce565b60405180910390fd5b6004600083815260200190815260200160002060009054906101000a900473ffffffffffffffffffffffffffffffffffffffff169050919050565b60006105af8261080f565b90508073ffffffffffffffffffffffffffffffffffffffff168373ffffffffffffffffffffffffffffffffffffffff161415610620576040517f08c379a00000000000000000000000000000000000000000000000000000000081526004016106179061222e565b60405180910390fd5b8073ffffffffffffffffffffffffffffffffffffffff1661063f610f4e565b73ffffffffffffffffffffffffffffffffffffffff16148061066e575061066d81610668610f4e565b610cff565b5b6106ad576040517f08c379a00000000000000000000000000000000000000000000000000000000081526004016106a49061212e565b60405180910390fd5b6106b78383610f56565b505050565b6106cd6106c7610f4e565b8261100f565b61070c576040517f08c379a00000000000000000000000000000000000000000000000000000000081526004016107039061224e565b60405180910390fd5b6107178383836110ed565b505050565b61072582610ee2565b610764576040517f08c379a000000000000000000000000000000000000000000000000000000000815260040161075b9061218e565b60405180910390fd5b600061076f8361080f565b90503373ffffffffffffffffffffffffffffffffffffffff168173ffffffffffffffffffffffffffffffffffffffff16146107df576040517f08c379a00000000000000000000000000000000000000000000000000000000081526004016107d6906120ae565b60405180910390fd5b6107ea3383856110ed565b505050565b61080a83838360405180602001604052806000815250610b8c565b505050565b6000806002600084815260200190815260200160002060009054906101000a900473ffffffffffffffffffffffffffffffffffffffff169050600073ffffffffffffffffffffffffffffffffffffffff168173ffffffffffffffffffffffffffffffffffffffff1614156108b8576040517f08c379a00000000000000000000000000000000000000000000000000000000081526004016108af9061216e565b60405180910390fd5b80915050919050565b60008073ffffffffffffffffffffffffffffffffffffffff168273ffffffffffffffffffffffffffffffffffffffff161415610932576040517f08c379a00000000000000000000000000000000000000000000000000000000081526004016109299061214e565b60405180910390fd5b600360008373ffffffffffffffffffffffffffffffffffffffff1673ffffffffffffffffffffffffffffffffffffffff168152602001908152602001600020549050919050565b60606001805461098890612493565b80601f01602080910402602001604051908101604052809291908181526020018280546109b490612493565b8015610a015780601f106109d657610100808354040283529160200191610a01565b820191906000526020600020905b8154815290600101906020018083116109e457829003601f168201915b5050505050905090565b610a13610f4e565b73ffffffffffffffffffffffffffffffffffffffff168273ffffffffffffffffffffffffffffffffffffffff161415610a81576040517f08c379a0000000000000000000000000000000000000000000000000000000008152600401610a78906120ee565b60405180910390fd5b8060056000610a8e610f4e565b73ffffffffffffffffffffffffffffffffffffffff1673ffffffffffffffffffffffffffffffffffffffff16815260200190815260200160002060008473ffffffffffffffffffffffffffffffffffffffff1673ffffffffffffffffffffffffffffffffffffffff16815260200190815260200160002060006101000a81548160ff0219169083151502179055508173ffffffffffffffffffffffffffffffffffffffff16610b3b610f4e565b73ffffffffffffffffffffffffffffffffffffffff167f17307eab39ab6107e8899845ad3d59bd9653f200f220920489ca2b5937696c3183604051610b809190612011565b60405180910390a35050565b610b9d610b97610f4e565b8361100f565b610bdc576040517f08c379a0000000000000000000000000000000000000000000000000000000008152600401610bd39061224e565b60405180910390fd5b610be884848484611349565b50505050565b6060610bf982610ee2565b610c38576040517f08c379a0000000000000000000000000000000000000000000000000000000008152600401610c2f9061220e565b60405180910390fd5b6000610c426113a5565b90506000815111610c625760405180602001604052806000815250610c8d565b80610c6c846113bc565b604051602001610c7d929190611f86565b6040516020818303038152906040525b915050919050565b60075481565b610ca481610ee2565b610ce3576040517f08c379a0000000000000000000000000000000000000000000000000000000008152600401610cda9061218e565b60405180910390fd5b6000610cee8261080f565b9050610cfb8133846110ed565b5050565b6000600560008473ffffffffffffffffffffffffffffffffffffffff1673ffffffffffffffffffffffffffffffffffffffff16815260200190815260200160002060008373ffffffffffffffffffffffffffffffffffffffff1673ffffffffffffffffffffffffffffffffffffffff16815260200190815260200160002060009054906101000a900460ff16905092915050565b3373ffffffffffffffffffffffffffffffffffffffff16600660009054906101000a900473ffffffffffffffffffffffffffffffffffffffff1673ffffffffffffffffffffffffffffffffffffffff1614610e23576040517f08c379a0000000000000000000000000000000000000000000000000000000008152600401610e1a9061206e565b60405180910390fd5b600160086000828254610e369190612322565b92505081905550610e493360085461151d565b600160076000828254610e5c9190612322565b92505081905550565b600080823b905060008111915050919050565b60007f01ffc9a7000000000000000000000000000000000000000000000000000000007bffffffffffffffffffffffffffffffffffffffffffffffffffffffff1916827bffffffffffffffffffffffffffffffffffffffffffffffffffffffff1916149050919050565b60008073ffffffffffffffffffffffffffffffffffffffff166002600084815260200190815260200160002060009054906101000a900473ffffffffffffffffffffffffffffffffffffffff1673ffffffffffffffffffffffffffffffffffffffff1614159050919050565b600033905090565b816004600083815260200190815260200160002060006101000a81548173ffffffffffffffffffffffffffffffffffffffff021916908373ffffffffffffffffffffffffffffffffffffffff160217905550808273ffffffffffffffffffffffffffffffffffffffff16610fc98361080f565b73ffffffffffffffffffffffffffffffffffffffff167f8c5be1e5ebec7d5bd14f71427d1e84f3dd0314c0f7b2291e5b200ac8c7c3b92560405160405180910390a45050565b600061101a82610ee2565b611059576040517f08c379a00000000000000000000000000000000000000000000000000000000081526004016110509061210e565b60405180910390fd5b60006110648361080f565b90508073ffffffffffffffffffffffffffffffffffffffff168473ffffffffffffffffffffffffffffffffffffffff1614806110d357508373ffffffffffffffffffffffffffffffffffffffff166110bb8461051f565b73ffffffffffffffffffffffffffffffffffffffff16145b806110e457506110e38185610cff565b5b91505092915050565b8273ffffffffffffffffffffffffffffffffffffffff1661110d8261080f565b73ffffffffffffffffffffffffffffffffffffffff1614611163576040517f08c379a000000000000000000000000000000000000000000000000000000000815260040161115a906121ee565b60405180910390fd5b600073ffffffffffffffffffffffffffffffffffffffff168273ffffffffffffffffffffffffffffffffffffffff1614156111d3576040517f08c379a00000000000000000000000000000000000000000000000000000000081526004016111ca906120ce565b60405180910390fd5b6111de83838361153b565b6111e9600082610f56565b6001600360008573ffffffffffffffffffffffffffffffffffffffff1673ffffffffffffffffffffffffffffffffffffffff168152602001908152602001600020600082825461123991906123a9565b925050819055506001600360008473ffffffffffffffffffffffffffffffffffffffff1673ffffffffffffffffffffffffffffffffffffffff16815260200190815260200160002060008282546112909190612322565b92505081905550816002600083815260200190815260200160002060006101000a81548173ffffffffffffffffffffffffffffffffffffffff021916908373ffffffffffffffffffffffffffffffffffffffff160217905550808273ffffffffffffffffffffffffffffffffffffffff168473ffffffffffffffffffffffffffffffffffffffff167fddf252ad1be2c89b69c2b068fc378daa952ba7f163c4a11628f55a4df523b3ef60405160405180910390a4505050565b6113548484846110ed565b61136084848484611540565b61139f576040517f08c379a00000000000000000000000000000000000000000000000000000000081526004016113969061204e565b60405180910390fd5b50505050565b606060405180602001604052806000815250905090565b60606000821415611404576040518060400160405280600181526020017f30000000000000000000000000000000000000000000000000000000000000008152509050611518565b600082905060005b6000821461143657808061141f906124f6565b915050600a8261142f9190612378565b915061140c565b60008167ffffffffffffffff8111156114525761145161262c565b5b6040519080825280601f01601f1916602001820160405280156114845781602001600182028036833780820191505090505b5090505b600085146115115760018261149d91906123a9565b9150600a856114ac919061253f565b60306114b89190612322565b60f81b8183815181106114ce576114cd6125fd565b5b60200101907effffffffffffffffffffffffffffffffffffffffffffffffffffffffffffff1916908160001a905350600a8561150a9190612378565b9450611488565b8093505050505b919050565b6115378282604051806020016040528060008152506116d7565b5050565b505050565b60006115618473ffffffffffffffffffffffffffffffffffffffff16610e65565b156116ca578373ffffffffffffffffffffffffffffffffffffffff1663150b7a0261158a610f4e565b8786866040518563ffffffff1660e01b81526004016115ac9493929190611fc5565b602060405180830381600087803b1580156115c657600080fd5b505af19250505080156115f757506040513d601f19601f820116820180604052508101906115f49190611bc9565b60015b61167a573d8060008114611627576040519150601f19603f3d011682016040523d82523d6000602084013e61162c565b606091505b50600081511415611672576040517f08c379a00000000000000000000000000000000000000000000000000000000081526004016116699061204e565b60405180910390fd5b805181602001fd5b63150b7a0260e01b7bffffffffffffffffffffffffffffffffffffffffffffffffffffffff1916817bffffffffffffffffffffffffffffffffffffffffffffffffffffffff1916149150506116cf565b600190505b949350505050565b6116e18383611732565b6116ee6000848484611540565b61172d576040517f08c379a00000000000000000000000000000000000000000000000000000000081526004016117249061204e565b60405180910390fd5b505050565b600073ffffffffffffffffffffffffffffffffffffffff168273ffffffffffffffffffffffffffffffffffffffff1614156117a2576040517f08c379a0000000000000000000000000000000000000000000000000000000008152600401611799906121ae565b60405180910390fd5b6117ab81610ee2565b156117eb576040517f08c379a00000000000000000000000000000000000000000000000000000000081526004016117e29061208e565b60405180910390fd5b6117f76000838361153b565b6001600360008473ffffffffffffffffffffffffffffffffffffffff1673ffffffffffffffffffffffffffffffffffffffff16815260200190815260200160002060008282546118479190612322565b92505081905550816002600083815260200190815260200160002060006101000a81548173ffffffffffffffffffffffffffffffffffffffff021916908373ffffffffffffffffffffffffffffffffffffffff160217905550808273ffffffffffffffffffffffffffffffffffffffff16600073ffffffffffffffffffffffffffffffffffffffff167fddf252ad1be2c89b69c2b068fc378daa952ba7f163c4a11628f55a4df523b3ef60405160405180910390a45050565b600061191361190e846122ae565b612289565b90508281526020810184848401111561192f5761192e612660565b5b61193a848285612451565b509392505050565b60008135905061195181612b01565b92915050565b60008135905061196681612b18565b92915050565b60008135905061197b81612b2f565b92915050565b60008151905061199081612b2f565b92915050565b600082601f8301126119ab576119aa61265b565b5b81356119bb848260208601611900565b91505092915050565b6000813590506119d381612b46565b92915050565b6000602082840312156119ef576119ee61266a565b5b60006119fd84828501611942565b91505092915050565b60008060408385031215611a1d57611a1c61266a565b5b6000611a2b85828601611942565b9250506020611a3c85828601611942565b9150509250929050565b600080600060608486031215611a5f57611a5e61266a565b5b6000611a6d86828701611942565b9350506020611a7e86828701611942565b9250506040611a8f868287016119c4565b9150509250925092565b60008060008060808587031215611ab357611ab261266a565b5b6000611ac187828801611942565b9450506020611ad287828801611942565b9350506040611ae3878288016119c4565b925050606085013567ffffffffffffffff811115611b0457611b03612665565b5b611b1087828801611996565b91505092959194509250565b60008060408385031215611b3357611b3261266a565b5b6000611b4185828601611942565b9250506020611b5285828601611957565b9150509250929050565b60008060408385031215611b7357611b7261266a565b5b6000611b8185828601611942565b9250506020611b92858286016119c4565b9150509250929050565b600060208284031215611bb257611bb161266a565b5b6000611bc08482850161196c565b91505092915050565b600060208284031215611bdf57611bde61266a565b5b6000611bed84828501611981565b91505092915050565b600060208284031215611c0c57611c0b61266a565b5b6000611c1a848285016119c4565b91505092915050565b60008060408385031215611c3a57611c3961266a565b5b6000611c48858286016119c4565b9250506020611c5985828601611942565b9150509250929050565b611c6c816123dd565b82525050565b611c7b816123ef565b82525050565b6000611c8c826122df565b611c9681856122f5565b9350611ca6818560208601612460565b611caf8161266f565b840191505092915050565b6000611cc5826122ea565b611ccf8185612306565b9350611cdf818560208601612460565b611ce88161266f565b840191505092915050565b6000611cfe826122ea565b611d088185612317565b9350611d18818560208601612460565b80840191505092915050565b6000611d31603283612306565b9150611d3c82612680565b604082019050919050565b6000611d54602783612306565b9150611d5f826126cf565b604082019050919050565b6000611d77601c83612306565b9150611d828261271e565b602082019050919050565b6000611d9a601f83612306565b9150611da582612747565b602082019050919050565b6000611dbd602483612306565b9150611dc882612770565b604082019050919050565b6000611de0601983612306565b9150611deb826127bf565b602082019050919050565b6000611e03602c83612306565b9150611e0e826127e8565b604082019050919050565b6000611e26603883612306565b9150611e3182612837565b604082019050919050565b6000611e49602a83612306565b9150611e5482612886565b604082019050919050565b6000611e6c602983612306565b9150611e77826128d5565b604082019050919050565b6000611e8f601783612306565b9150611e9a82612924565b602082019050919050565b6000611eb2602083612306565b9150611ebd8261294d565b602082019050919050565b6000611ed5602c83612306565b9150611ee082612976565b604082019050919050565b6000611ef8602983612306565b9150611f03826129c5565b604082019050919050565b6000611f1b602f83612306565b9150611f2682612a14565b604082019050919050565b6000611f3e602183612306565b9150611f4982612a63565b604082019050919050565b6000611f61603183612306565b9150611f6c82612ab2565b604082019050919050565b611f8081612447565b82525050565b6000611f928285611cf3565b9150611f9e8284611cf3565b91508190509392505050565b6000602082019050611fbf6000830184611c63565b92915050565b6000608082019050611fda6000830187611c63565b611fe76020830186611c63565b611ff46040830185611f77565b81810360608301526120068184611c81565b905095945050505050565b60006020820190506120266000830184611c72565b92915050565b600060208201905081810360008301526120468184611cba565b905092915050565b6000602082019050818103600083015261206781611d24565b9050919050565b6000602082019050818103600083015261208781611d47565b9050919050565b600060208201905081810360008301526120a781611d6a565b9050919050565b600060208201905081810360008301526120c781611d8d565b9050919050565b600060208201905081810360008301526120e781611db0565b9050919050565b6000602082019050818103600083015261210781611dd3565b9050919050565b6000602082019050818103600083015261212781611df6565b9050919050565b6000602082019050818103600083015261214781611e19565b9050919050565b6000602082019050818103600083015261216781611e3c565b9050919050565b6000602082019050818103600083015261218781611e5f565b9050919050565b600060208201905081810360008301526121a781611e82565b9050919050565b600060208201905081810360008301526121c781611ea5565b9050919050565b600060208201905081810360008301526121e781611ec8565b9050919050565b6000602082019050818103600083015261220781611eeb565b9050919050565b6000602082019050818103600083015261222781611f0e565b9050919050565b6000602082019050818103600083015261224781611f31565b9050919050565b6000602082019050818103600083015261226781611f54565b9050919050565b60006020820190506122836000830184611f77565b92915050565b60006122936122a4565b905061229f82826124c5565b919050565b6000604051905090565b600067ffffffffffffffff8211156122c9576122c861262c565b5b6122d28261266f565b9050602081019050919050565b600081519050919050565b600081519050919050565b600082825260208201905092915050565b600082825260208201905092915050565b600081905092915050565b600061232d82612447565b915061233883612447565b9250827fffffffffffffffffffffffffffffffffffffffffffffffffffffffffffffffff0382111561236d5761236c612570565b5b828201905092915050565b600061238382612447565b915061238e83612447565b92508261239e5761239d61259f565b5b828204905092915050565b60006123b482612447565b91506123bf83612447565b9250828210156123d2576123d1612570565b5b828203905092915050565b60006123e882612427565b9050919050565b60008115159050919050565b60007fffffffff0000000000000000000000000000000000000000000000000000000082169050919050565b600073ffffffffffffffffffffffffffffffffffffffff82169050919050565b6000819050919050565b82818337600083830152505050565b60005b8381101561247e578082015181840152602081019050612463565b8381111561248d576000848401525b50505050565b600060028204905060018216806124ab57607f821691505b602082108114156124bf576124be6125ce565b5b50919050565b6124ce8261266f565b810181811067ffffffffffffffff821117156124ed576124ec61262c565b5b80604052505050565b600061250182612447565b91507fffffffffffffffffffffffffffffffffffffffffffffffffffffffffffffffff82141561253457612533612570565b5b600182019050919050565b600061254a82612447565b915061255583612447565b9250826125655761256461259f565b5b828206905092915050565b7f4e487b7100000000000000000000000000000000000000000000000000000000600052601160045260246000fd5b7f4e487b7100000000000000000000000000000000000000000000000000000000600052601260045260246000fd5b7f4e487b7100000000000000000000000000000000000000000000000000000000600052602260045260246000fd5b7f4e487b7100000000000000000000000000000000000000000000000000000000600052603260045260246000fd5b7f4e487b7100000000000000000000000000000000000000000000000000000000600052604160045260246000fd5b600080fd5b600080fd5b600080fd5b600080fd5b6000601f19601f8301169050919050565b7f4552433732313a207472616e7366657220746f206e6f6e20455243373231526560008201527f63656976657220696d706c656d656e7465720000000000000000000000000000602082015250565b7f52657175657374206e6f742066726f6d206f776e6572206f662074686520636f60008201527f6e74726163742e00000000000000000000000000000000000000000000000000602082015250565b7f4552433732313a20746f6b656e20616c7265616479206d696e74656400000000600082015250565b7f52657175657374206e6f742066726f6d20746f6b656e4964206f776e65722e00600082015250565b7f4552433732313a207472616e7366657220746f20746865207a65726f2061646460008201527f7265737300000000000000000000000000000000000000000000000000000000602082015250565b7f4552433732313a20617070726f766520746f2063616c6c657200000000000000600082015250565b7f4552433732313a206f70657261746f7220717565727920666f72206e6f6e657860008201527f697374656e7420746f6b656e0000000000000000000000000000000000000000602082015250565b7f4552433732313a20617070726f76652063616c6c6572206973206e6f74206f7760008201527f6e6572206e6f7220617070726f76656420666f7220616c6c0000000000000000602082015250565b7f4552433732313a2062616c616e636520717565727920666f7220746865207a6560008201527f726f206164647265737300000000000000000000000000000000000000000000602082015250565b7f4552433732313a206f776e657220717565727920666f72206e6f6e657869737460008201527f656e7420746f6b656e0000000000000000000000000000000000000000000000602082015250565b7f546f6b656e496420646f6573206e6f742065786973742e000000000000000000600082015250565b7f4552433732313a206d696e7420746f20746865207a65726f2061646472657373600082015250565b7f4552433732313a20617070726f76656420717565727920666f72206e6f6e657860008201527f697374656e7420746f6b656e0000000000000000000000000000000000000000602082015250565b7f4552433732313a207472616e73666572206f6620746f6b656e2074686174206960008201527f73206e6f74206f776e0000000000000000000000000000000000000000000000602082015250565b7f4552433732314d657461646174613a2055524920717565727920666f72206e6f60008201527f6e6578697374656e7420746f6b656e0000000000000000000000000000000000602082015250565b7f4552433732313a20617070726f76616c20746f2063757272656e74206f776e6560008201527f7200000000000000000000000000000000000000000000000000000000000000602082015250565b7f4552433732313a207472616e736665722063616c6c6572206973206e6f74206f60008201527f776e6572206e6f7220617070726f766564000000000000000000000000000000602082015250565b612b0a816123dd565b8114612b1557600080fd5b50565b612b21816123ef565b8114612b2c57600080fd5b50565b612b38816123fb565b8114612b4357600080fd5b50565b612b4f81612447565b8114612b5a57600080fd5b5056fea2646970667358221220033905ffe290696fc9e8082ead563de0430aa63d3c0b686555fa4e03bfb2318564736f6c63430008060033",
  "immutableReferences": {},
  "source": "// SPDX-License-Identifier: MIT\n\npragma solidity >=0.4.22 <0.9.0;\n\nimport \"./token/ERC721/ERC721.sol\";\n\ncontract Market is ERC721('Marketplace', 'MKT') {\n    address _marketOwner;\n    \n    uint256 public tokenCounter;\n    uint256 _tokedIdIndex;\n\n    constructor() {\n        _marketOwner = msg.sender;\n\n        tokenCounter = 1;\n        _tokedIdIndex = 1000000;\n\n        _safeMint(msg.sender, _tokedIdIndex);\n    }\n\n    function create() public {\n        require(_marketOwner == msg.sender, \"Request not from owner of the contract.\");\n\n        _tokedIdIndex += 1;\n        \n        _safeMint(msg.sender, _tokedIdIndex);\n        \n        tokenCounter += 1;\n    }\n\n    function mktOwnerOf() public view returns (address) {\n        return _marketOwner;\n    }\n\n    function buy(uint256 tokenId) public {\n        require(_exists(tokenId), \"TokenId does not exist.\");\n\n        address _tokenIdOwner = ownerOf(tokenId);\n        \n        _transfer(_tokenIdOwner, msg.sender, tokenId);\n    }\n\n    function sell(uint256 tokenId, address to) public {\n        require(_exists(tokenId), \"TokenId does not exist.\");\n        \n        address _tokenIdOwner = ownerOf(tokenId);\n        \n        require(_tokenIdOwner == msg.sender, \"Request not from tokenId owner.\");\n        \n        _transfer(msg.sender, to, tokenId);\n    }\n}",
  "sourcePath": "/home/sandeep/NFT_Market/contracts/Market.sol",
  "compiler": {
    "name": "solc",
    "version": "0.8.6+commit.11564f7e.Emscripten.clang"
  },
  "schemaVersion": "3.4.1",
  "updatedAt": "2021-07-14T03:41:15.424Z",
  "networkType": "ethereum",
  "devdoc": {
    "kind": "dev",
    "methods": {
      "approve(address,uint256)": {
        "details": "See {IERC721-approve}."
      },
      "balanceOf(address)": {
        "details": "See {IERC721-balanceOf}."
      },
      "getApproved(uint256)": {
        "details": "See {IERC721-getApproved}."
      },
      "isApprovedForAll(address,address)": {
        "details": "See {IERC721-isApprovedForAll}."
      },
      "name()": {
        "details": "See {IERC721Metadata-name}."
      },
      "ownerOf(uint256)": {
        "details": "See {IERC721-ownerOf}."
      },
      "safeTransferFrom(address,address,uint256)": {
        "details": "See {IERC721-safeTransferFrom}."
      },
      "safeTransferFrom(address,address,uint256,bytes)": {
        "details": "See {IERC721-safeTransferFrom}."
      },
      "setApprovalForAll(address,bool)": {
        "details": "See {IERC721-setApprovalForAll}."
      },
      "supportsInterface(bytes4)": {
        "details": "See {IERC165-supportsInterface}."
      },
      "symbol()": {
        "details": "See {IERC721Metadata-symbol}."
      },
      "tokenURI(uint256)": {
        "details": "See {IERC721Metadata-tokenURI}."
      },
      "transferFrom(address,address,uint256)": {
        "details": "See {IERC721-transferFrom}."
      }
    },
    "version": 1
  },
  "userdoc": {
    "kind": "user",
    "methods": {},
    "version": 1
  }
}