{
  "contractName": "MathMock",
  "abi": [
    {
      "inputs": [
        {
          "internalType": "uint256",
          "name": "a",
          "type": "uint256"
        },
        {
          "internalType": "uint256",
          "name": "b",
          "type": "uint256"
        }
      ],
      "name": "max",
      "outputs": [
        {
          "internalType": "uint256",
          "name": "",
          "type": "uint256"
        }
      ],
      "stateMutability": "pure",
      "type": "function"
    },
    {
      "inputs": [
        {
          "internalType": "uint256",
          "name": "a",
          "type": "uint256"
        },
        {
          "internalType": "uint256",
          "name": "b",
          "type": "uint256"
        }
      ],
      "name": "min",
      "outputs": [
        {
          "internalType": "uint256",
          "name": "",
          "type": "uint256"
        }
      ],
      "stateMutability": "pure",
      "type": "function"
    },
    {
      "inputs": [
        {
          "internalType": "uint256",
          "name": "a",
          "type": "uint256"
        },
        {
          "internalType": "uint256",
          "name": "b",
          "type": "uint256"
        }
      ],
      "name": "average",
      "outputs": [
        {
          "internalType": "uint256",
          "name": "",
          "type": "uint256"
        }
      ],
      "stateMutability": "pure",
      "type": "function"
    },
    {
      "inputs": [
        {
          "internalType": "uint256",
          "name": "a",
          "type": "uint256"
        },
        {
          "internalType": "uint256",
          "name": "b",
          "type": "uint256"
        }
      ],
      "name": "ceilDiv",
      "outputs": [
        {
          "internalType": "uint256",
          "name": "",
          "type": "uint256"
        }
      ],
      "stateMutability": "pure",
      "type": "function"
    }
  ],
  "bytecode": "0x608060405234801561001057600080fd5b506103ea806100206000396000f3fe608060405234801561001057600080fd5b506004361061004c5760003560e01c80632b7423ab146100515780636d5433e6146100815780637ae2b5c7146100b15780639cb35327146100e1575b600080fd5b61006b6004803603810190610066919061020e565b610111565b604051610078919061025d565b60405180910390f35b61009b6004803603810190610096919061020e565b610125565b6040516100a8919061025d565b60405180910390f35b6100cb60048036038101906100c6919061020e565b610139565b6040516100d8919061025d565b60405180910390f35b6100fb60048036038101906100f6919061020e565b61014d565b604051610108919061025d565b60405180910390f35b600061011d8383610161565b905092915050565b60006101318383610187565b905092915050565b600061014583836101a1565b905092915050565b600061015983836101ba565b905092915050565b6000600282841861017291906102ce565b82841661017f9190610278565b905092915050565b6000818310156101975781610199565b825b905092915050565b60008183106101b057816101b2565b825b905092915050565b60008082846101c99190610309565b146101d55760016101d8565b60005b60ff1682846101e791906102ce565b6101f19190610278565b905092915050565b6000813590506102088161039d565b92915050565b6000806040838503121561022557610224610398565b5b6000610233858286016101f9565b9250506020610244858286016101f9565b9150509250929050565b610257816102ff565b82525050565b6000602082019050610272600083018461024e565b92915050565b6000610283826102ff565b915061028e836102ff565b9250827fffffffffffffffffffffffffffffffffffffffffffffffffffffffffffffffff038211156102c3576102c261033a565b5b828201905092915050565b60006102d9826102ff565b91506102e4836102ff565b9250826102f4576102f3610369565b5b828204905092915050565b6000819050919050565b6000610314826102ff565b915061031f836102ff565b92508261032f5761032e610369565b5b828206905092915050565b7f4e487b7100000000000000000000000000000000000000000000000000000000600052601160045260246000fd5b7f4e487b7100000000000000000000000000000000000000000000000000000000600052601260045260246000fd5b600080fd5b6103a6816102ff565b81146103b157600080fd5b5056fea264697066735822122077d8699df0a1e6a201b16f6c580851db4ecc2b1adfe5817d844f183c7ac1de2064736f6c63430008060033",
  "immutableReferences": {},
  "source": "// SPDX-License-Identifier: MIT\n\npragma solidity ^0.8.0;\n\nimport \"../utils/math/Math.sol\";\n\ncontract MathMock {\n    function max(uint256 a, uint256 b) public pure returns (uint256) {\n        return Math.max(a, b);\n    }\n\n    function min(uint256 a, uint256 b) public pure returns (uint256) {\n        return Math.min(a, b);\n    }\n\n    function average(uint256 a, uint256 b) public pure returns (uint256) {\n        return Math.average(a, b);\n    }\n\n    function ceilDiv(uint256 a, uint256 b) public pure returns (uint256) {\n        return Math.ceilDiv(a, b);\n    }\n}\n",
  "sourcePath": "/home/sandeep/NFT_Market/contracts/mocks/MathMock.sol",
  "compiler": {
    "name": "solc",
    "version": "0.8.6+commit.11564f7e.Emscripten.clang"
  },
  "schemaVersion": "3.4.1",
  "updatedAt": "2021-07-13T14:33:10.655Z",
  "devdoc": {
    "kind": "dev",
    "methods": {},
    "version": 1
  },
  "userdoc": {
    "kind": "user",
    "methods": {},
    "version": 1
  }
}