{
  "contractName": "MerkleProofWrapper",
  "abi": [
    {
      "inputs": [
        {
          "internalType": "bytes32[]",
          "name": "proof",
          "type": "bytes32[]"
        },
        {
          "internalType": "bytes32",
          "name": "root",
          "type": "bytes32"
        },
        {
          "internalType": "bytes32",
          "name": "leaf",
          "type": "bytes32"
        }
      ],
      "name": "verify",
      "outputs": [
        {
          "internalType": "bool",
          "name": "",
          "type": "bool"
        }
      ],
      "stateMutability": "pure",
      "type": "function"
    }
  ],
  "bytecode": "0x608060405234801561001057600080fd5b506104af806100206000396000f3fe608060405234801561001057600080fd5b506004361061002b5760003560e01c80635a9a49c714610030575b600080fd5b61004a600480360381019061004591906101df565b610060565b60405161005791906102a0565b60405180910390f35b600061006d848484610076565b90509392505050565b60008082905060005b855181101561011e57600086828151811061009d5761009c6103df565b5b602002602001015190508083116100de5782816040516020016100c1929190610274565b60405160208183030381529060405280519060200120925061010a565b80836040516020016100f1929190610274565b6040516020818303038152906040528051906020012092505b5080806101169061035d565b91505061007f565b508381149150509392505050565b600061013f61013a846102e0565b6102bb565b9050808382526020820190508285602086028201111561016257610161610442565b5b60005b85811015610192578161017888826101ca565b845260208401935060208301925050600181019050610165565b5050509392505050565b600082601f8301126101b1576101b061043d565b5b81356101c184826020860161012c565b91505092915050565b6000813590506101d981610462565b92915050565b6000806000606084860312156101f8576101f761044c565b5b600084013567ffffffffffffffff81111561021657610215610447565b5b6102228682870161019c565b9350506020610233868287016101ca565b9250506040610244868287016101ca565b9150509250925092565b6102578161030c565b82525050565b61026e61026982610318565b6103a6565b82525050565b6000610280828561025d565b602082019150610290828461025d565b6020820191508190509392505050565b60006020820190506102b5600083018461024e565b92915050565b60006102c56102d6565b90506102d1828261032c565b919050565b6000604051905090565b600067ffffffffffffffff8211156102fb576102fa61040e565b5b602082029050602081019050919050565b60008115159050919050565b6000819050919050565b6000819050919050565b61033582610451565b810181811067ffffffffffffffff821117156103545761035361040e565b5b80604052505050565b600061036882610322565b91507fffffffffffffffffffffffffffffffffffffffffffffffffffffffffffffffff82141561039b5761039a6103b0565b5b600182019050919050565b6000819050919050565b7f4e487b7100000000000000000000000000000000000000000000000000000000600052601160045260246000fd5b7f4e487b7100000000000000000000000000000000000000000000000000000000600052603260045260246000fd5b7f4e487b7100000000000000000000000000000000000000000000000000000000600052604160045260246000fd5b600080fd5b600080fd5b600080fd5b600080fd5b6000601f19601f8301169050919050565b61046b81610318565b811461047657600080fd5b5056fea2646970667358221220c1dede8078e73f873a1d63bc1478a9fe5b89fa1b89c90fa274012773e4fc06b864736f6c63430008060033",
  "immutableReferences": {},
  "source": "// SPDX-License-Identifier: MIT\n\npragma solidity ^0.8.0;\n\nimport \"../utils/cryptography/MerkleProof.sol\";\n\ncontract MerkleProofWrapper {\n    function verify(\n        bytes32[] memory proof,\n        bytes32 root,\n        bytes32 leaf\n    ) public pure returns (bool) {\n        return MerkleProof.verify(proof, root, leaf);\n    }\n}\n",
  "sourcePath": "/home/sandeep/NFT_Market/contracts/mocks/MerkleProofWrapper.sol",
  "compiler": {
    "name": "solc",
    "version": "0.8.6+commit.11564f7e.Emscripten.clang"
  },
  "schemaVersion": "3.4.1",
  "updatedAt": "2021-07-13T14:33:10.660Z",
  "devdoc": {
    "kind": "dev",
    "methods": {},
    "version": 1
  },
  "userdoc": {
    "kind": "user",
    "methods": {},
    "version": 1
  }
}