{
  "contractName": "NFTMarket",
  "abi": [
    {
      "inputs": [
        {
          "internalType": "address payable",
          "name": "buvNft_",
          "type": "address"
        },
        {
          "internalType": "address payable",
          "name": "buvToken_",
          "type": "address"
        },
        {
          "internalType": "uint256",
          "name": "tokenId_",
          "type": "uint256"
        },
        {
          "internalType": "uint256",
          "name": "price_",
          "type": "uint256"
        }
      ],
      "stateMutability": "nonpayable",
      "type": "constructor"
    },
    {
      "inputs": [
        {
          "internalType": "uint256",
          "name": "",
          "type": "uint256"
        }
      ],
      "name": "_basePrice",
      "outputs": [
        {
          "internalType": "uint256",
          "name": "",
          "type": "uint256"
        }
      ],
      "stateMutability": "view",
      "type": "function"
    }
  ],
  "bytecode": "0x608060405234801561001057600080fd5b5060405161030c38038061030c833981810160405281019061003291906100fe565b826000806101000a81548173ffffffffffffffffffffffffffffffffffffffff021916908373ffffffffffffffffffffffffffffffffffffffff16021790555083600160006101000a81548173ffffffffffffffffffffffffffffffffffffffff021916908373ffffffffffffffffffffffffffffffffffffffff160217905550806002600084815260200190815260200160002081905550505050506101d4565b6000815190506100e3816101a6565b92915050565b6000815190506100f8816101bd565b92915050565b60008060008060808587031215610118576101176101a1565b5b6000610126878288016100d4565b9450506020610137878288016100d4565b9350506040610148878288016100e9565b9250506060610159878288016100e9565b91505092959194509250565b600061017082610177565b9050919050565b600073ffffffffffffffffffffffffffffffffffffffff82169050919050565b6000819050919050565b600080fd5b6101af81610165565b81146101ba57600080fd5b50565b6101c681610197565b81146101d157600080fd5b50565b610129806101e36000396000f3fe6080604052348015600f57600080fd5b506004361060285760003560e01c80639e2ece5414602d575b600080fd5b60436004803603810190603f91906082565b6057565b604051604e919060b7565b60405180910390f35b60026020528060005260406000206000915090505481565b600081359050607c8160df565b92915050565b600060208284031215609557609460da565b5b600060a184828501606f565b91505092915050565b60b18160d0565b82525050565b600060208201905060ca600083018460aa565b92915050565b6000819050919050565b600080fd5b60e68160d0565b811460f057600080fd5b5056fea264697066735822122067511fa7dac473db01da673c3aba5c67f6d5de8bb32d8b9c1b3895bfe57b4cc264736f6c63430008060033",
  "immutableReferences": {},
  "source": "// SPDX-License-Identifier: MIT\n\npragma solidity >=0.4.22 <0.9.0;\n\nimport \"./BUVToken.sol\";\nimport \"./BUVNFT.sol\";\n\ncontract NFTMarket {\n    \n    BUVToken _buvToken;\n    BUVNFT _buvNft;\n\n    mapping(uint256 => uint256) public _basePrice;\n\n    constructor(address payable buvNft_, address payable buvToken_, uint256 tokenId_, uint256 price_) {\n        _buvToken = BUVToken(buvToken_);\n        _buvNft = BUVNFT(buvNft_);\n        _basePrice[tokenId_] = price_; \n    }\n\n\n}",
  "sourcePath": "/home/sandeep/NFT_Market/contracts/BUVMarket.sol",
  "compiler": {
    "name": "solc",
    "version": "0.8.6+commit.11564f7e.Emscripten.clang"
  },
  "schemaVersion": "3.4.1",
  "updatedAt": "2021-07-13T18:34:20.431Z",
  "devdoc": {
    "kind": "dev",
    "methods": {},
    "version": 1
  },
  "userdoc": {
    "kind": "user",
    "methods": {},
    "version": 1
  }
}