{
  "contractName": "SampleGramps",
  "abi": [
    {
      "inputs": [],
      "name": "gramps",
      "outputs": [
        {
          "internalType": "string",
          "name": "",
          "type": "string"
        }
      ],
      "stateMutability": "view",
      "type": "function"
    },
    {
      "inputs": [],
      "name": "isHuman",
      "outputs": [
        {
          "internalType": "bool",
          "name": "",
          "type": "bool"
        }
      ],
      "stateMutability": "view",
      "type": "function"
    },
    {
      "inputs": [],
      "name": "initialize",
      "outputs": [],
      "stateMutability": "nonpayable",
      "type": "function"
    },
    {
      "inputs": [
        {
          "internalType": "string",
          "name": "value",
          "type": "string"
        }
      ],
      "name": "initialize",
      "outputs": [],
      "stateMutability": "nonpayable",
      "type": "function"
    }
  ],
  "bytecode": "0x608060405234801561001057600080fd5b50610790806100206000396000f3fe608060405234801561001057600080fd5b506004361061004c5760003560e01c80634a6c9db6146100515780638129fc1c1461006f578063f62d188814610079578063fa39851f14610095575b600080fd5b6100596100b3565b6040516100669190610508565b60405180910390f35b6100776100c6565b005b610093600480360381019061008e9190610454565b6101ba565b005b61009d6102b3565b6040516100aa9190610523565b60405180910390f35b600060029054906101000a900460ff1681565b600060019054906101000a900460ff16806100ec575060008054906101000a900460ff16155b61012b576040517f08c379a000000000000000000000000000000000000000000000000000000000815260040161012290610545565b60405180910390fd5b60008060019054906101000a900460ff16159050801561017b576001600060016101000a81548160ff02191690831515021790555060016000806101000a81548160ff0219169083151502179055505b6001600060026101000a81548160ff02191690831515021790555080156101b75760008060016101000a81548160ff0219169083151502179055505b50565b600060019054906101000a900460ff16806101e0575060008054906101000a900460ff16155b61021f576040517f08c379a000000000000000000000000000000000000000000000000000000000815260040161021690610545565b60405180910390fd5b60008060019054906101000a900460ff16159050801561026f576001600060016101000a81548160ff02191690831515021790555060016000806101000a81548160ff0219169083151502179055505b6102776100c6565b816001908051906020019061028d929190610341565b5080156102af5760008060016101000a81548160ff0219169083151502179055505b5050565b600180546102c090610625565b80601f01602080910402602001604051908101604052809291908181526020018280546102ec90610625565b80156103395780601f1061030e57610100808354040283529160200191610339565b820191906000526020600020905b81548152906001019060200180831161031c57829003601f168201915b505050505081565b82805461034d90610625565b90600052602060002090601f01602090048101928261036f57600085556103b6565b82601f1061038857805160ff19168380011785556103b6565b828001600101855582156103b6579182015b828111156103b557825182559160200191906001019061039a565b5b5090506103c391906103c7565b5090565b5b808211156103e05760008160009055506001016103c8565b5090565b60006103f76103f28461058a565b610565565b905082815260208101848484011115610413576104126106eb565b5b61041e8482856105e3565b509392505050565b600082601f83011261043b5761043a6106e6565b5b813561044b8482602086016103e4565b91505092915050565b60006020828403121561046a576104696106f5565b5b600082013567ffffffffffffffff811115610488576104876106f0565b5b61049484828501610426565b91505092915050565b6104a6816105d7565b82525050565b60006104b7826105bb565b6104c181856105c6565b93506104d18185602086016105f2565b6104da816106fa565b840191505092915050565b60006104f2602e836105c6565b91506104fd8261070b565b604082019050919050565b600060208201905061051d600083018461049d565b92915050565b6000602082019050818103600083015261053d81846104ac565b905092915050565b6000602082019050818103600083015261055e816104e5565b9050919050565b600061056f610580565b905061057b8282610657565b919050565b6000604051905090565b600067ffffffffffffffff8211156105a5576105a46106b7565b5b6105ae826106fa565b9050602081019050919050565b600081519050919050565b600082825260208201905092915050565b60008115159050919050565b82818337600083830152505050565b60005b838110156106105780820151818401526020810190506105f5565b8381111561061f576000848401525b50505050565b6000600282049050600182168061063d57607f821691505b6020821081141561065157610650610688565b5b50919050565b610660826106fa565b810181811067ffffffffffffffff8211171561067f5761067e6106b7565b5b80604052505050565b7f4e487b7100000000000000000000000000000000000000000000000000000000600052602260045260246000fd5b7f4e487b7100000000000000000000000000000000000000000000000000000000600052604160045260246000fd5b600080fd5b600080fd5b600080fd5b600080fd5b6000601f19601f8301169050919050565b7f496e697469616c697a61626c653a20636f6e747261637420697320616c72656160008201527f647920696e697469616c697a656400000000000000000000000000000000000060208201525056fea2646970667358221220bcc376ade1a9aea6415f1af422e243cb5218cf97aaa3e7832032b32639717cf764736f6c63430008060033",
  "immutableReferences": {},
  "source": "// SPDX-License-Identifier: MIT\n\npragma solidity ^0.8.0;\n\nimport \"../proxy/utils/Initializable.sol\";\n\n// Sample contracts showing upgradeability with multiple inheritance.\n// Child contract inherits from Father and Mother contracts, and Father extends from Gramps.\n//\n//         Human\n//       /       \\\n//      |       Gramps\n//      |         |\n//    Mother    Father\n//      |         |\n//      -- Child --\n\n/**\n * Sample base intializable contract that is a human\n */\ncontract SampleHuman is Initializable {\n    bool public isHuman;\n\n    function initialize() public initializer {\n        isHuman = true;\n    }\n}\n\n/**\n * Sample base intializable contract that defines a field mother\n */\ncontract SampleMother is Initializable, SampleHuman {\n    uint256 public mother;\n\n    function initialize(uint256 value) public virtual initializer {\n        SampleHuman.initialize();\n        mother = value;\n    }\n}\n\n/**\n * Sample base intializable contract that defines a field gramps\n */\ncontract SampleGramps is Initializable, SampleHuman {\n    string public gramps;\n\n    function initialize(string memory value) public virtual initializer {\n        SampleHuman.initialize();\n        gramps = value;\n    }\n}\n\n/**\n * Sample base intializable contract that defines a field father and extends from gramps\n */\ncontract SampleFather is Initializable, SampleGramps {\n    uint256 public father;\n\n    function initialize(string memory _gramps, uint256 _father) public initializer {\n        SampleGramps.initialize(_gramps);\n        father = _father;\n    }\n}\n\n/**\n * Child extends from mother, father (gramps)\n */\ncontract SampleChild is Initializable, SampleMother, SampleFather {\n    uint256 public child;\n\n    function initialize(\n        uint256 _mother,\n        string memory _gramps,\n        uint256 _father,\n        uint256 _child\n    ) public initializer {\n        SampleMother.initialize(_mother);\n        SampleFather.initialize(_gramps, _father);\n        child = _child;\n    }\n}\n",
  "sourcePath": "/home/sandeep/NFT_Market/contracts/mocks/MultipleInheritanceInitializableMocks.sol",
  "compiler": {
    "name": "solc",
    "version": "0.8.6+commit.11564f7e.Emscripten.clang"
  },
  "schemaVersion": "3.4.1",
  "updatedAt": "2021-07-13T14:33:10.709Z",
  "devdoc": {
    "kind": "dev",
    "methods": {},
    "version": 1
  },
  "userdoc": {
    "kind": "user",
    "methods": {},
    "notice": "Sample base intializable contract that defines a field gramps",
    "version": 1
  }
}