{
  "contractName": "SampleHuman",
  "abi": [
    {
      "inputs": [],
      "name": "isHuman",
      "outputs": [
        {
          "internalType": "bool",
          "name": "",
          "type": "bool"
        }
      ],
      "stateMutability": "view",
      "type": "function"
    },
    {
      "inputs": [],
      "name": "initialize",
      "outputs": [],
      "stateMutability": "nonpayable",
      "type": "function"
    }
  ],
  "bytecode": "0x608060405234801561001057600080fd5b50610279806100206000396000f3fe608060405234801561001057600080fd5b50600436106100365760003560e01c80634a6c9db61461003b5780638129fc1c14610059575b600080fd5b610043610063565b604051610050919061019c565b60405180910390f35b610061610076565b005b600060029054906101000a900460ff1681565b600060019054906101000a900460ff168061009c575060008054906101000a900460ff16155b6100db576040517f08c379a00000000000000000000000000000000000000000000000000000000081526004016100d2906101b7565b60405180910390fd5b60008060019054906101000a900460ff16159050801561012b576001600060016101000a81548160ff02191690831515021790555060016000806101000a81548160ff0219169083151502179055505b6001600060026101000a81548160ff02191690831515021790555080156101675760008060016101000a81548160ff0219169083151502179055505b50565b610173816101e8565b82525050565b6000610186602e836101d7565b9150610191826101f4565b604082019050919050565b60006020820190506101b1600083018461016a565b92915050565b600060208201905081810360008301526101d081610179565b9050919050565b600082825260208201905092915050565b60008115159050919050565b7f496e697469616c697a61626c653a20636f6e747261637420697320616c72656160008201527f647920696e697469616c697a656400000000000000000000000000000000000060208201525056fea2646970667358221220ca3dfbd5fd0429bc001e0b6eb6a44033c0ebf7daa1ced180cfaf420b328768dc64736f6c63430008060033",
  "immutableReferences": {},
  "source": "// SPDX-License-Identifier: MIT\n\npragma solidity ^0.8.0;\n\nimport \"../proxy/utils/Initializable.sol\";\n\n// Sample contracts showing upgradeability with multiple inheritance.\n// Child contract inherits from Father and Mother contracts, and Father extends from Gramps.\n//\n//         Human\n//       /       \\\n//      |       Gramps\n//      |         |\n//    Mother    Father\n//      |         |\n//      -- Child --\n\n/**\n * Sample base intializable contract that is a human\n */\ncontract SampleHuman is Initializable {\n    bool public isHuman;\n\n    function initialize() public initializer {\n        isHuman = true;\n    }\n}\n\n/**\n * Sample base intializable contract that defines a field mother\n */\ncontract SampleMother is Initializable, SampleHuman {\n    uint256 public mother;\n\n    function initialize(uint256 value) public virtual initializer {\n        SampleHuman.initialize();\n        mother = value;\n    }\n}\n\n/**\n * Sample base intializable contract that defines a field gramps\n */\ncontract SampleGramps is Initializable, SampleHuman {\n    string public gramps;\n\n    function initialize(string memory value) public virtual initializer {\n        SampleHuman.initialize();\n        gramps = value;\n    }\n}\n\n/**\n * Sample base intializable contract that defines a field father and extends from gramps\n */\ncontract SampleFather is Initializable, SampleGramps {\n    uint256 public father;\n\n    function initialize(string memory _gramps, uint256 _father) public initializer {\n        SampleGramps.initialize(_gramps);\n        father = _father;\n    }\n}\n\n/**\n * Child extends from mother, father (gramps)\n */\ncontract SampleChild is Initializable, SampleMother, SampleFather {\n    uint256 public child;\n\n    function initialize(\n        uint256 _mother,\n        string memory _gramps,\n        uint256 _father,\n        uint256 _child\n    ) public initializer {\n        SampleMother.initialize(_mother);\n        SampleFather.initialize(_gramps, _father);\n        child = _child;\n    }\n}\n",
  "sourcePath": "/home/sandeep/NFT_Market/contracts/mocks/MultipleInheritanceInitializableMocks.sol",
  "compiler": {
    "name": "solc",
    "version": "0.8.6+commit.11564f7e.Emscripten.clang"
  },
  "schemaVersion": "3.4.1",
  "updatedAt": "2021-07-13T14:33:10.716Z",
  "devdoc": {
    "kind": "dev",
    "methods": {},
    "version": 1
  },
  "userdoc": {
    "kind": "user",
    "methods": {},
    "notice": "Sample base intializable contract that is a human",
    "version": 1
  }
}