{
  "contractName": "SampleChild",
  "abi": [
    {
      "inputs": [],
      "name": "child",
      "outputs": [
        {
          "internalType": "uint256",
          "name": "",
          "type": "uint256"
        }
      ],
      "stateMutability": "view",
      "type": "function"
    },
    {
      "inputs": [],
      "name": "father",
      "outputs": [
        {
          "internalType": "uint256",
          "name": "",
          "type": "uint256"
        }
      ],
      "stateMutability": "view",
      "type": "function"
    },
    {
      "inputs": [],
      "name": "gramps",
      "outputs": [
        {
          "internalType": "string",
          "name": "",
          "type": "string"
        }
      ],
      "stateMutability": "view",
      "type": "function"
    },
    {
      "inputs": [],
      "name": "isHuman",
      "outputs": [
        {
          "internalType": "bool",
          "name": "",
          "type": "bool"
        }
      ],
      "stateMutability": "view",
      "type": "function"
    },
    {
      "inputs": [],
      "name": "mother",
      "outputs": [
        {
          "internalType": "uint256",
          "name": "",
          "type": "uint256"
        }
      ],
      "stateMutability": "view",
      "type": "function"
    },
    {
      "inputs": [
        {
          "internalType": "uint256",
          "name": "_mother",
          "type": "uint256"
        },
        {
          "internalType": "string",
          "name": "_gramps",
          "type": "string"
        },
        {
          "internalType": "uint256",
          "name": "_father",
          "type": "uint256"
        },
        {
          "internalType": "uint256",
          "name": "_child",
          "type": "uint256"
        }
      ],
      "name": "initialize",
      "outputs": [],
      "stateMutability": "nonpayable",
      "type": "function"
    },
    {
      "inputs": [],
      "name": "initialize",
      "outputs": [],
      "stateMutability": "nonpayable",
      "type": "function"
    },
    {
      "inputs": [
        {
          "internalType": "string",
          "name": "_gramps",
          "type": "string"
        },
        {
          "internalType": "uint256",
          "name": "_father",
          "type": "uint256"
        }
      ],
      "name": "initialize",
      "outputs": [],
      "stateMutability": "nonpayable",
      "type": "function"
    },
    {
      "inputs": [
        {
          "internalType": "string",
          "name": "value",
          "type": "string"
        }
      ],
      "name": "initialize",
      "outputs": [],
      "stateMutability": "nonpayable",
      "type": "function"
    },
    {
      "inputs": [
        {
          "internalType": "uint256",
          "name": "value",
          "type": "uint256"
        }
      ],
      "name": "initialize",
      "outputs": [],
      "stateMutability": "nonpayable",
      "type": "function"
    }
  ],
  "bytecode": "0x608060405234801561001057600080fd5b50610cd9806100206000396000f3fe608060405234801561001057600080fd5b506004361061009e5760003560e01c80638beaf7d7116100665780638beaf7d714610123578063ed7dfee31461013f578063f62d18881461015d578063fa39851f14610179578063fe4b84df146101975761009e565b80631c8aca3b146100a3578063237b5e96146100c15780634a6c9db6146100df5780636f2edbd2146100fd5780638129fc1c14610119575b600080fd5b6100ab6101b3565b6040516100b89190610a72565b60405180910390f35b6100c96101b9565b6040516100d69190610a72565b60405180910390f35b6100e76101bf565b6040516100f49190610a15565b60405180910390f35b61011760048036038101906101129190610918565b6101d2565b005b6101216102c9565b005b61013d6004803603810190610138919061088f565b6103bd565b005b6101476104a8565b6040516101549190610a72565b60405180910390f35b61017760048036038101906101729190610846565b6104ae565b005b6101816105a7565b60405161018e9190610a30565b60405180910390f35b6101b160048036038101906101ac91906108eb565b610635565b005b60035481565b60045481565b600060029054906101000a900460ff1681565b600060019054906101000a900460ff16806101f8575060008054906101000a900460ff16155b610237576040517f08c379a000000000000000000000000000000000000000000000000000000000815260040161022e90610a52565b60405180910390fd5b60008060019054906101000a900460ff161590508015610287576001600060016101000a81548160ff02191690831515021790555060016000806101000a81548160ff0219169083151502179055505b61029085610635565b61029a84846103bd565b8160048190555080156102c25760008060016101000a81548160ff0219169083151502179055505b5050505050565b600060019054906101000a900460ff16806102ef575060008054906101000a900460ff16155b61032e576040517f08c379a000000000000000000000000000000000000000000000000000000000815260040161032590610a52565b60405180910390fd5b60008060019054906101000a900460ff16159050801561037e576001600060016101000a81548160ff02191690831515021790555060016000806101000a81548160ff0219169083151502179055505b6001600060026101000a81548160ff02191690831515021790555080156103ba5760008060016101000a81548160ff0219169083151502179055505b50565b600060019054906101000a900460ff16806103e3575060008054906101000a900460ff16155b610422576040517f08c379a000000000000000000000000000000000000000000000000000000000815260040161041990610a52565b60405180910390fd5b60008060019054906101000a900460ff161590508015610472576001600060016101000a81548160ff02191690831515021790555060016000806101000a81548160ff0219169083151502179055505b61047b836104ae565b8160038190555080156104a35760008060016101000a81548160ff0219169083151502179055505b505050565b60015481565b600060019054906101000a900460ff16806104d4575060008054906101000a900460ff16155b610513576040517f08c379a000000000000000000000000000000000000000000000000000000000815260040161050a90610a52565b60405180910390fd5b60008060019054906101000a900460ff161590508015610563576001600060016101000a81548160ff02191690831515021790555060016000806101000a81548160ff0219169083151502179055505b61056b6102c9565b816002908051906020019061058192919061071e565b5080156105a35760008060016101000a81548160ff0219169083151502179055505b5050565b600280546105b490610b57565b80601f01602080910402602001604051908101604052809291908181526020018280546105e090610b57565b801561062d5780601f106106025761010080835404028352916020019161062d565b820191906000526020600020905b81548152906001019060200180831161061057829003601f168201915b505050505081565b600060019054906101000a900460ff168061065b575060008054906101000a900460ff16155b61069a576040517f08c379a000000000000000000000000000000000000000000000000000000000815260040161069190610a52565b60405180910390fd5b60008060019054906101000a900460ff1615905080156106ea576001600060016101000a81548160ff02191690831515021790555060016000806101000a81548160ff0219169083151502179055505b6106f26102c9565b81600181905550801561071a5760008060016101000a81548160ff0219169083151502179055505b5050565b82805461072a90610b57565b90600052602060002090601f01602090048101928261074c5760008555610793565b82601f1061076557805160ff1916838001178555610793565b82800160010185558215610793579182015b82811115610792578251825591602001919060010190610777565b5b5090506107a091906107a4565b5090565b5b808211156107bd5760008160009055506001016107a5565b5090565b60006107d46107cf84610ab2565b610a8d565b9050828152602081018484840111156107f0576107ef610c1d565b5b6107fb848285610b15565b509392505050565b600082601f83011261081857610817610c18565b5b81356108288482602086016107c1565b91505092915050565b60008135905061084081610c8c565b92915050565b60006020828403121561085c5761085b610c27565b5b600082013567ffffffffffffffff81111561087a57610879610c22565b5b61088684828501610803565b91505092915050565b600080604083850312156108a6576108a5610c27565b5b600083013567ffffffffffffffff8111156108c4576108c3610c22565b5b6108d085828601610803565b92505060206108e185828601610831565b9150509250929050565b60006020828403121561090157610900610c27565b5b600061090f84828501610831565b91505092915050565b6000806000806080858703121561093257610931610c27565b5b600061094087828801610831565b945050602085013567ffffffffffffffff81111561096157610960610c22565b5b61096d87828801610803565b935050604061097e87828801610831565b925050606061098f87828801610831565b91505092959194509250565b6109a481610aff565b82525050565b60006109b582610ae3565b6109bf8185610aee565b93506109cf818560208601610b24565b6109d881610c2c565b840191505092915050565b60006109f0602e83610aee565b91506109fb82610c3d565b604082019050919050565b610a0f81610b0b565b82525050565b6000602082019050610a2a600083018461099b565b92915050565b60006020820190508181036000830152610a4a81846109aa565b905092915050565b60006020820190508181036000830152610a6b816109e3565b9050919050565b6000602082019050610a876000830184610a06565b92915050565b6000610a97610aa8565b9050610aa38282610b89565b919050565b6000604051905090565b600067ffffffffffffffff821115610acd57610acc610be9565b5b610ad682610c2c565b9050602081019050919050565b600081519050919050565b600082825260208201905092915050565b60008115159050919050565b6000819050919050565b82818337600083830152505050565b60005b83811015610b42578082015181840152602081019050610b27565b83811115610b51576000848401525b50505050565b60006002820490506001821680610b6f57607f821691505b60208210811415610b8357610b82610bba565b5b50919050565b610b9282610c2c565b810181811067ffffffffffffffff82111715610bb157610bb0610be9565b5b80604052505050565b7f4e487b7100000000000000000000000000000000000000000000000000000000600052602260045260246000fd5b7f4e487b7100000000000000000000000000000000000000000000000000000000600052604160045260246000fd5b600080fd5b600080fd5b600080fd5b600080fd5b6000601f19601f8301169050919050565b7f496e697469616c697a61626c653a20636f6e747261637420697320616c72656160008201527f647920696e697469616c697a6564000000000000000000000000000000000000602082015250565b610c9581610b0b565b8114610ca057600080fd5b5056fea26469706673582212204def1d4d0b19c415467209dca93a8319ccfa02cd52c432fa3ebc3bd52fc967a964736f6c63430008060033",
  "immutableReferences": {},
  "source": "// SPDX-License-Identifier: MIT\n\npragma solidity ^0.8.0;\n\nimport \"../proxy/utils/Initializable.sol\";\n\n// Sample contracts showing upgradeability with multiple inheritance.\n// Child contract inherits from Father and Mother contracts, and Father extends from Gramps.\n//\n//         Human\n//       /       \\\n//      |       Gramps\n//      |         |\n//    Mother    Father\n//      |         |\n//      -- Child --\n\n/**\n * Sample base intializable contract that is a human\n */\ncontract SampleHuman is Initializable {\n    bool public isHuman;\n\n    function initialize() public initializer {\n        isHuman = true;\n    }\n}\n\n/**\n * Sample base intializable contract that defines a field mother\n */\ncontract SampleMother is Initializable, SampleHuman {\n    uint256 public mother;\n\n    function initialize(uint256 value) public virtual initializer {\n        SampleHuman.initialize();\n        mother = value;\n    }\n}\n\n/**\n * Sample base intializable contract that defines a field gramps\n */\ncontract SampleGramps is Initializable, SampleHuman {\n    string public gramps;\n\n    function initialize(string memory value) public virtual initializer {\n        SampleHuman.initialize();\n        gramps = value;\n    }\n}\n\n/**\n * Sample base intializable contract that defines a field father and extends from gramps\n */\ncontract SampleFather is Initializable, SampleGramps {\n    uint256 public father;\n\n    function initialize(string memory _gramps, uint256 _father) public initializer {\n        SampleGramps.initialize(_gramps);\n        father = _father;\n    }\n}\n\n/**\n * Child extends from mother, father (gramps)\n */\ncontract SampleChild is Initializable, SampleMother, SampleFather {\n    uint256 public child;\n\n    function initialize(\n        uint256 _mother,\n        string memory _gramps,\n        uint256 _father,\n        uint256 _child\n    ) public initializer {\n        SampleMother.initialize(_mother);\n        SampleFather.initialize(_gramps, _father);\n        child = _child;\n    }\n}\n",
  "sourcePath": "/home/sandeep/NFT_Market/contracts/mocks/MultipleInheritanceInitializableMocks.sol",
  "compiler": {
    "name": "solc",
    "version": "0.8.6+commit.11564f7e.Emscripten.clang"
  },
  "schemaVersion": "3.4.1",
  "updatedAt": "2021-07-13T14:33:10.693Z",
  "devdoc": {
    "kind": "dev",
    "methods": {},
    "version": 1
  },
  "userdoc": {
    "kind": "user",
    "methods": {},
    "notice": "Child extends from mother, father (gramps)",
    "version": 1
  }
}