{
  "contractName": "UUPSUpgradeableBrokenMock",
  "abi": [
    {
      "anonymous": false,
      "inputs": [
        {
          "indexed": false,
          "internalType": "address",
          "name": "previousAdmin",
          "type": "address"
        },
        {
          "indexed": false,
          "internalType": "address",
          "name": "newAdmin",
          "type": "address"
        }
      ],
      "name": "AdminChanged",
      "type": "event"
    },
    {
      "anonymous": false,
      "inputs": [
        {
          "indexed": true,
          "internalType": "address",
          "name": "beacon",
          "type": "address"
        }
      ],
      "name": "BeaconUpgraded",
      "type": "event"
    },
    {
      "anonymous": false,
      "inputs": [
        {
          "indexed": true,
          "internalType": "address",
          "name": "implementation",
          "type": "address"
        }
      ],
      "name": "Upgraded",
      "type": "event"
    },
    {
      "inputs": [],
      "name": "current",
      "outputs": [
        {
          "internalType": "uint256",
          "name": "",
          "type": "uint256"
        }
      ],
      "stateMutability": "view",
      "type": "function"
    },
    {
      "inputs": [],
      "name": "decrement",
      "outputs": [],
      "stateMutability": "nonpayable",
      "type": "function"
    },
    {
      "inputs": [],
      "name": "increment",
      "outputs": [],
      "stateMutability": "nonpayable",
      "type": "function"
    },
    {
      "inputs": [],
      "name": "reset",
      "outputs": [],
      "stateMutability": "nonpayable",
      "type": "function"
    },
    {
      "inputs": [
        {
          "internalType": "address",
          "name": "",
          "type": "address"
        }
      ],
      "name": "upgradeTo",
      "outputs": [],
      "stateMutability": "nonpayable",
      "type": "function"
    },
    {
      "inputs": [
        {
          "internalType": "address",
          "name": "",
          "type": "address"
        },
        {
          "internalType": "bytes",
          "name": "",
          "type": "bytes"
        }
      ],
      "name": "upgradeToAndCall",
      "outputs": [],
      "stateMutability": "payable",
      "type": "function"
    }
  ],
  "bytecode": "0x608060405234801561001057600080fd5b50610500806100206000396000f3fe6080604052600436106100555760003560e01c80632baeceb71461005a5780633659cfe6146100715780634f1ef2861461009a5780639fa6a6e3146100b6578063d09de08a146100e1578063d826f88f146100f8575b600080fd5b34801561006657600080fd5b5061006f61010f565b005b34801561007d57600080fd5b506100986004803603810190610093919061025d565b61011b565b005b6100b460048036038101906100af919061028a565b61011e565b005b3480156100c257600080fd5b506100cb610122565b6040516100d89190610338565b60405180910390f35b3480156100ed57600080fd5b506100f6610133565b005b34801561010457600080fd5b5061010d61013f565b005b610119600061014b565b565b50565b5050565b600061012e60006101a7565b905090565b61013d60006101b5565b565b61014960006101cb565b565b60008160000154905060008111610197576040517f08c379a000000000000000000000000000000000000000000000000000000000815260040161018e90610318565b60405180910390fd5b6001810382600001819055505050565b600081600001549050919050565b6001816000016000828254019250508190555050565b6000816000018190555050565b60006101eb6101e684610378565b610353565b9050828152602081018484840111156102075761020661046a565b5b6102128482856103f6565b509392505050565b600081359050610229816104b3565b92915050565b600082601f83011261024457610243610465565b5b81356102548482602086016101d8565b91505092915050565b60006020828403121561027357610272610474565b5b60006102818482850161021a565b91505092915050565b600080604083850312156102a1576102a0610474565b5b60006102af8582860161021a565b925050602083013567ffffffffffffffff8111156102d0576102cf61046f565b5b6102dc8582860161022f565b9150509250929050565b60006102f3601b836103a9565b91506102fe8261048a565b602082019050919050565b610312816103ec565b82525050565b60006020820190508181036000830152610331816102e6565b9050919050565b600060208201905061034d6000830184610309565b92915050565b600061035d61036e565b90506103698282610405565b919050565b6000604051905090565b600067ffffffffffffffff82111561039357610392610436565b5b61039c82610479565b9050602081019050919050565b600082825260208201905092915050565b60006103c5826103cc565b9050919050565b600073ffffffffffffffffffffffffffffffffffffffff82169050919050565b6000819050919050565b82818337600083830152505050565b61040e82610479565b810181811067ffffffffffffffff8211171561042d5761042c610436565b5b80604052505050565b7f4e487b7100000000000000000000000000000000000000000000000000000000600052604160045260246000fd5b600080fd5b600080fd5b600080fd5b600080fd5b6000601f19601f8301169050919050565b7f436f756e7465723a2064656372656d656e74206f766572666c6f770000000000600082015250565b6104bc816103ba565b81146104c757600080fd5b5056fea2646970667358221220d3f1a442cf50fbf01363591571d04f6919bb0048817dd190ed87e4092760362164736f6c63430008060033",
  "immutableReferences": {},
  "source": "// SPDX-License-Identifier: MIT\n\npragma solidity ^0.8.0;\n\nimport \"../CountersImpl.sol\";\nimport \"../../proxy/utils/UUPSUpgradeable.sol\";\n\ncontract UUPSUpgradeableMock is CountersImpl, UUPSUpgradeable {\n    // Not having any checks in this function is dangerous! Do not do this outside tests!\n    function _authorizeUpgrade(address) internal virtual override {}\n}\n\ncontract UUPSUpgradeableUnsafeMock is UUPSUpgradeableMock {\n    function upgradeTo(address newImplementation) external virtual override {\n        ERC1967Upgrade._upgradeToAndCall(newImplementation, bytes(\"\"), false);\n    }\n\n    function upgradeToAndCall(address newImplementation, bytes memory data) external payable virtual override {\n        ERC1967Upgrade._upgradeToAndCall(newImplementation, data, false);\n    }\n}\n\ncontract UUPSUpgradeableBrokenMock is UUPSUpgradeableMock {\n    function upgradeTo(address) external virtual override {\n        // pass\n    }\n\n    function upgradeToAndCall(address, bytes memory) external payable virtual override {\n        // pass\n    }\n}\n",
  "sourcePath": "/home/sandeep/NFT_Market/contracts/mocks/UUPS/TestInProd.sol",
  "compiler": {
    "name": "solc",
    "version": "0.8.6+commit.11564f7e.Emscripten.clang"
  },
  "schemaVersion": "3.4.1",
  "updatedAt": "2021-07-13T14:33:10.853Z",
  "devdoc": {
    "kind": "dev",
    "methods": {},
    "version": 1
  },
  "userdoc": {
    "kind": "user",
    "methods": {},
    "version": 1
  }
}